{"abi":[{"type":"function","name":"dequeue","inputs":[],"outputs":[{"name":"","type":"uint256","internalType":"uint256"}],"stateMutability":"nonpayable"},{"type":"function","name":"enqueue","inputs":[{"name":"data","type":"uint256","internalType":"uint256"}],"outputs":[],"stateMutability":"nonpayable"},{"type":"function","name":"length","inputs":[],"outputs":[{"name":"","type":"uint256","internalType":"uint256"}],"stateMutability":"view"},{"type":"function","name":"sqr_sum","inputs":[],"outputs":[{"name":"sum","type":"uint256","internalType":"uint256"}],"stateMutability":"view"}],"bytecode":{"object":"0x6080604052600180556001600255348015601857600080fd5b50610211806100286000396000f3fe608060405234801561001057600080fd5b506004361061004c5760003560e01c80630130ca2b146100515780631f7b6d321461006b5780631ffc735d14610073578063957908d114610088575b600080fd5b610059610090565b60405190815260200160405180910390f35b6100596100dd565b610086610081366004610169565b6100f4565b005b610059610120565b6001546000905b6002546100a5906001610198565b8110156100d9576000818152602081905260409020546100c590806101b1565b6100cf9083610198565b9150600101610097565b5090565b60006001546002546100ef91906101c8565b905090565b6001600260008282546101079190610198565b9091555050600254600090815260208190526040902055565b6000806001546002541161013357600080fd5b506001805460009081526020819052604081208054908290558254909291829161015e908390610198565b909155509092915050565b60006020828403121561017b57600080fd5b5035919050565b634e487b7160e01b600052601160045260246000fd5b808201808211156101ab576101ab610182565b92915050565b80820281158282048414176101ab576101ab610182565b818103818111156101ab576101ab61018256fea26469706673582212205315a6bff23ff0e3fa4422df0133ca81859e9cc4d1e85e9fec6943edd23311b564736f6c63430008190033","linkReferences":{}},"methodIdentifiers":{"dequeue()":"957908d1","enqueue(uint256)":"1ffc735d","length()":"1f7b6d32","sqr_sum()":"0130ca2b"},"id":24}