{"abi":[{"type":"receive","stateMutability":"payable"},{"type":"function","name":"accountNames","inputs":[{"name":"","type":"uint256","internalType":"uint256"}],"outputs":[{"name":"","type":"string","internalType":"string"}],"stateMutability":"view"},{"type":"function","name":"askQuestion","inputs":[{"name":"_content","type":"string","internalType":"string"},{"name":"_day","type":"uint256","internalType":"uint256"},{"name":"_hour","type":"uint256","internalType":"uint256"},{"name":"_min","type":"uint256","internalType":"uint256"}],"outputs":[{"name":"","type":"uint256","internalType":"uint256"}],"stateMutability":"payable"},{"type":"function","name":"calculate_credit","inputs":[{"name":"userAddress","type":"address","internalType":"address"}],"outputs":[{"name":"","type":"uint256","internalType":"uint256"}],"stateMutability":"nonpayable"},{"type":"function","name":"getCredit","inputs":[{"name":"userAddress","type":"address","internalType":"address"}],"outputs":[{"name":"","type":"uint256","internalType":"uint256"}],"stateMutability":"view"},{"type":"function","name":"hasRegistered","inputs":[{"name":"","type":"address","internalType":"address"}],"outputs":[{"name":"","type":"bool","internalType":"bool"}],"stateMutability":"view"},{"type":"function","name":"isExpired","inputs":[{"name":"q_id","type":"uint256","internalType":"uint256"}],"outputs":[{"name":"","type":"bool","internalType":"bool"}],"stateMutability":"nonpayable"},{"type":"function","name":"owner","inputs":[],"outputs":[{"name":"","type":"address","internalType":"address"}],"stateMutability":"view"},{"type":"function","name":"questionCount","inputs":[],"outputs":[{"name":"","type":"uint256","internalType":"uint256"}],"stateMutability":"view"},{"type":"function","name":"questionMap","inputs":[{"name":"","type":"uint256","internalType":"uint256"}],"outputs":[{"name":"asker","type":"address","internalType":"address"},{"name":"content","type":"string","internalType":"string"},{"name":"reward","type":"uint256","internalType":"uint256"},{"name":"expiration_time","type":"uint256","internalType":"uint256"},{"name":"question_id","type":"uint256","internalType":"uint256"},{"name":"selected","type":"bool","internalType":"bool"},{"name":"closed","type":"bool","internalType":"bool"},{"name":"distributed","type":"bool","internalType":"bool"}],"stateMutability":"view"},{"type":"function","name":"questions","inputs":[{"name":"","type":"uint256","internalType":"uint256"}],"outputs":[{"name":"asker","type":"address","internalType":"address"},{"name":"content","type":"string","internalType":"string"},{"name":"reward","type":"uint256","internalType":"uint256"},{"name":"expiration_time","type":"uint256","internalType":"uint256"},{"name":"question_id","type":"uint256","internalType":"uint256"},{"name":"selected","type":"bool","internalType":"bool"},{"name":"closed","type":"bool","internalType":"bool"},{"name":"distributed","type":"bool","internalType":"bool"}],"stateMutability":"view"},{"type":"function","name":"registerUser","inputs":[{"name":"_username","type":"string","internalType":"string"}],"outputs":[],"stateMutability":"nonpayable"},{"type":"function","name":"rewardRecordsMap","inputs":[{"name":"","type":"address","internalType":"address"}],"outputs":[{"name":"","type":"address","internalType":"contract Queue"}],"stateMutability":"view"},{"type":"function","name":"sqrt","inputs":[{"name":"x","type":"uint256","internalType":"uint256"}],"outputs":[{"name":"y","type":"uint256","internalType":"uint256"}],"stateMutability":"pure"},{"type":"function","name":"userAddrMap","inputs":[{"name":"","type":"address","internalType":"address"}],"outputs":[{"name":"user_name","type":"string","internalType":"string"},{"name":"user_address","type":"address","internalType":"address"},{"name":"credit","type":"uint256","internalType":"uint256"}],"stateMutability":"view"},{"type":"function","name":"userCount","inputs":[],"outputs":[{"name":"","type":"uint256","internalType":"uint256"}],"stateMutability":"view"},{"type":"function","name":"users","inputs":[{"name":"","type":"uint256","internalType":"uint256"}],"outputs":[{"name":"user_name","type":"string","internalType":"string"},{"name":"user_address","type":"address","internalType":"address"},{"name":"credit","type":"uint256","internalType":"uint256"}],"stateMutability":"view"},{"type":"event","name":"QuestionClosed","inputs":[{"name":"q_id","type":"uint256","indexed":false,"internalType":"uint256"}],"anonymous":false},{"type":"event","name":"QuestionCreated","inputs":[{"name":"asker","type":"address","indexed":false,"internalType":"address"},{"name":"content","type":"string","indexed":false,"internalType":"string"},{"name":"reward","type":"uint256","indexed":false,"internalType":"uint256"},{"name":"expiration_time","type":"uint256","indexed":false,"internalType":"uint256"},{"name":"question_id","type":"uint256","indexed":false,"internalType":"uint256"},{"name":"closed","type":"bool","indexed":false,"internalType":"bool"},{"name":"answer_ids","type":"uint256[]","indexed":false,"internalType":"uint256[]"}],"anonymous":false},{"type":"event","name":"UserCreditUpdate","inputs":[{"name":"user_addr","type":"address","indexed":false,"internalType":"address"},{"name":"prev_credit","type":"uint256","indexed":false,"internalType":"uint256"},{"name":"new_credit","type":"uint256","indexed":false,"internalType":"uint256"}],"anonymous":false},{"type":"event","name":"UserRegistered","inputs":[{"name":"username","type":"string","indexed":false,"internalType":"string"},{"name":"userAddress","type":"address","indexed":false,"internalType":"address"},{"name":"default_credit","type":"uint256","indexed":false,"internalType":"uint256"}],"anonymous":false},{"type":"error","name":"ReentrancyGuardReentrantCall","inputs":[]}],"bytecode":{"object":"0x608060405260006007556000600a55348015601957600080fd5b506001600081905580546001600160a01b03191633179055611ad3806100406000396000f3fe6080604052600436106100f75760003560e01c8063704f1b941161008a578063d9548e5311610059578063d9548e53146102e8578063da62458a14610308578063e34d680514610335578063f061b5b11461035557600080fd5b8063704f1b94146102465780638da5cb5b14610268578063a0d0352614610288578063ab10d998146102c857600080fd5b8063365b98b2116100c6578063365b98b2146101c457806357344e6f146101f3578063677342ce146102135780636de940831461023357600080fd5b806307973ccf1461010357806313fc8c341461012c5780631468aa2c1461017a57806331b1b9781461019057600080fd5b366100fe57005b600080fd5b34801561010f57600080fd5b5061011960075481565b6040519081526020015b60405180910390f35b34801561013857600080fd5b5061016261014736600461130b565b6006602052600090815260409020546001600160a01b031681565b6040516001600160a01b039091168152602001610123565b34801561018657600080fd5b50610119600a5481565b34801561019c57600080fd5b506101b06101ab366004611334565b610375565b604051610123989796959493929190611393565b3480156101d057600080fd5b506101e46101df366004611334565b610466565b604051610123939291906113ef565b3480156101ff57600080fd5b5061011961020e36600461130b565b610532565b34801561021f57600080fd5b5061011961022e366004611334565b6105cc565b6101196102413660046114c0565b610625565b34801561025257600080fd5b50610266610261366004611514565b610acb565b005b34801561027457600080fd5b50600154610162906001600160a01b031681565b34801561029457600080fd5b506102b86102a336600461130b565b60056020526000908152604090205460ff1681565b6040519015158152602001610123565b3480156102d457600080fd5b506101196102e336600461130b565b610e85565b3480156102f457600080fd5b506102b8610303366004611334565b610fa4565b34801561031457600080fd5b50610328610323366004611334565b6111ab565b6040516101239190611551565b34801561034157600080fd5b506101e461035036600461130b565b611257565b34801561036157600080fd5b506101b0610370366004611334565b611272565b6009818154811061038557600080fd5b6000918252602090912060079091020180546001820180546001600160a01b039092169350906103b490611564565b80601f01602080910402602001604051908101604052809291908181526020018280546103e090611564565b801561042d5780601f106104025761010080835404028352916020019161042d565b820191906000526020600020905b81548152906001019060200180831161041057829003601f168201915b505050506002830154600384015460048501546005909501549394919390925060ff808216916101008104821691620100009091041688565b6002818154811061047657600080fd5b906000526020600020906003020160009150905080600001805461049990611564565b80601f01602080910402602001604051908101604052809291908181526020018280546104c590611564565b80156105125780601f106104e757610100808354040283529160200191610512565b820191906000526020600020905b8154815290600101906020018083116104f557829003601f168201915b50505050600183015460029093015491926001600160a01b031691905083565b6001600160a01b03811660009081526005602052604081205460ff166105ad5760405162461bcd60e51b815260206004820152602560248201527f55736572206d757374206265207265676973746572656420746f2067657420636044820152641c99591a5d60da1b60648201526084015b60405180910390fd5b506001600160a01b031660009081526004602052604090206002015490565b60008060026105dc8460016115ae565b6105e691906115c7565b90508291505b8181101561061f5790508060028161060481866115c7565b61060e91906115ae565b61061891906115c7565b90506105ec565b50919050565b3360009081526005602052604081205460ff1661067a5760405162461bcd60e51b8152602060048201526013602482015272155cd95c881b9bdd081c9959da5cdd195c9959606a1b60448201526064016105a4565b600034118015610692575061068e33610532565b3411155b6107045760405162461bcd60e51b815260206004820152603860248201527f526577617264206d7573742062652067726561746572207468616e203020616e60448201527f64206c657373207468616e20637265646974206c696d6974000000000000000060648201526084016105a4565b60008551116107555760405162461bcd60e51b815260206004820152601860248201527f5175657374696f6e2063616e6e6f7420626520656d707479000000000000000060448201526064016105a4565b600061076283603c6115e9565b61076e85610e106115e9565b61077b87620151806115e9565b61078591906115ae565b61078f91906115ae565b90506201518081101580156107a7575062093a808111155b6108195760405162461bcd60e51b815260206004820152603f60248201527f45787069726174696f6e2074696d65206d75737420626520677265617465722060448201527f7468616e20312064617920616e64206c657373207468616e203720646179730060648201526084016105a4565b6001600a600082825461082c91906115ae565b9091555050600a5460408051610120810182523381526020810189905234918101919091526000906060810161086285426115ae565b81526020808201859052600060408084018290526060840182905260808401829052805182815280840190915260a09093019290925260098054600181018255925282517f6e1540171b6c0c960b71a7020d9f60077f6af931a8bbf590da0223dacf75c7af600790930292830180546001600160a01b0319166001600160a01b0390921691909117815590830151929350839290917f6e1540171b6c0c960b71a7020d9f60077f6af931a8bbf590da0223dacf75c7b001906109249082611651565b5060408201516002820155606082015160038201556080820151600482015560a082015160058201805460c085015160e086015161ffff1990921693151561ff0019169390931761010093151584021762ff00001916620100009115159190910217905582015180516109a191600684019160209091019061129e565b5050506000828152600860209081526040909120825181546001600160a01b0319166001600160a01b039091161781559082015182919060018201906109e79082611651565b5060408201516002820155606082015160038201556080820151600482015560a082015160058201805460c085015160e086015161ffff1990921693151561ff0019169390931761010093151584021762ff0000191662010000911515919091021790558201518051610a6491600684019160209091019061129e565b507f84b861809ad6a7273eb286675afe4848e1772d87876e38ff1870adfc5ebbcbb191503390508934610a9787426115ae565b6040805160008082526020820192839052610ab896959493928a9290611711565b60405180910390a1509695505050505050565b3360008181526005602052604090205460ff1615610b2b5760405162461bcd60e51b815260206004820152601a60248201527f546865206164647265737320776173207265676973746572656400000000000060448201526064016105a4565b81600160005b600754811015610b8e57828051906020012060028281548110610b5657610b56611799565b9060005260206000209060030201600001604051610b7491906117af565b604051809103902003610b8657600091505b600101610b31565b5080610bd15760405162461bcd60e51b81526020600482015260126024820152716475706c696361746520757365726e616d6560701b60448201526064016105a4565b6000845111610c165760405162461bcd60e51b8152602060048201526011602482015270557365726e616d6520697320656d70747960781b60448201526064016105a4565b60408051606081018252858152336020820152662386f26fc100009181019190915260028054600181018255600091909152815182916003027f405787fa12a823e0f2b7631cc41b3ba8828b3321ca811111fa75cd3aa3bb5ace01908190610c7e9082611651565b506020828101516001830180546001600160a01b0319166001600160a01b0390921691909117905560409283015160029092019190915533600090815260049091522081518291908190610cd29082611651565b506020820151600182810180546001600160a01b0319166001600160a01b03909316929092179091556040909201516002909101556003805491820181556000527fc2575a0e9e593c00f959f8c92f12db2869c3395a3b0502d05e2516446f71f85b01610d3f8682611651565b50336000908152600560205260408120805460ff191660011790556007805491610d6883611825565b91905055506000604051610d7b906112e9565b604051809103906000f080158015610d97573d6000803e3d6000fd5b50905060005b6005811015610e1257604051631ffc735d60e01b8152660fe170fa25600060048201526001600160a01b03831690631ffc735d90602401600060405180830381600087803b158015610dee57600080fd5b505af1158015610e02573d6000803e3d6000fd5b505060019092019150610d9d9050565b50336000818152600660205260409081902080546001600160a01b0319166001600160a01b038516179055517fda4b066842833e7ab38c0f7ba442824b5eda00740d68ef015889812a792fc3ec91610e7591899190662386f26fc10000906113ef565b60405180910390a1505050505050565b6001600160a01b038082166000908152600660209081526040808320548151630130ca2b60e01b8152915193948594911692630130ca2b92600480820193918290030181865afa158015610edd573d6000803e3d6000fd5b505050506040513d601f19601f82011682018060405250810190610f01919061183e565b6001600160a01b0384166000908152600460205260409020600201549091507f085f11378a0c42687437148f7b62421b8e6f48c3a41b0e416dc85078bcc0bcd3908490610f4d846105cc565b604080516001600160a01b03909416845260208401929092529082015260600160405180910390a1610f7e816105cc565b6001600160a01b0390931660009081526004602052604090206002018390555090919050565b6000600a54821115610ff85760405162461bcd60e51b815260206004820181905260248201527f54686520696e707574207175657374696f6e20696420697320696e76616c696460448201526064016105a4565b60008281526008602090815260408083208151610120810190925280546001600160a01b03168252600181018054929391929184019161103790611564565b80601f016020809104026020016040519081016040528092919081815260200182805461106390611564565b80156110b05780601f10611085576101008083540402835291602001916110b0565b820191906000526020600020905b81548152906001019060200180831161109357829003601f168201915b50505091835250506002820154602080830191909152600383015460408084019190915260048401546060840152600584015460ff8082161515608086015261010082048116151560a08601526201000090910416151560c084015260068401805482518185028101850190935280835260e090940193919290919083018282801561115b57602002820191906000526020600020905b815481526020019060010190808311611147575b50505050508152505090508060600151421115611191576000838152600860205260409020600501805461ff0019166101001790555b80606001514211806111a457508060c001515b9392505050565b600381815481106111bb57600080fd5b9060005260206000200160009150905080546111d690611564565b80601f016020809104026020016040519081016040528092919081815260200182805461120290611564565b801561124f5780601f106112245761010080835404028352916020019161124f565b820191906000526020600020905b81548152906001019060200180831161123257829003601f168201915b505050505081565b60046020526000908152604090208054819061049990611564565b600860205260009081526040902080546001820180546001600160a01b0390921692916103b490611564565b8280548282559060005260206000209081019282156112d9579160200282015b828111156112d95782518255916020019190600101906112be565b506112e59291506112f6565b5090565b6102468061185883390190565b5b808211156112e557600081556001016112f7565b60006020828403121561131d57600080fd5b81356001600160a01b03811681146111a457600080fd5b60006020828403121561134657600080fd5b5035919050565b6000815180845260005b8181101561137357602081850181015186830182015201611357565b506000602082860101526020601f19601f83011685010191505092915050565b6001600160a01b0389168152610100602082018190526000906113b88382018b61134d565b604084019990995250506060810195909552608085019390935290151560a0840152151560c0830152151560e09091015292915050565b606081526000611402606083018661134d565b6001600160a01b039490941660208301525060400152919050565b634e487b7160e01b600052604160045260246000fd5b600082601f83011261144457600080fd5b813567ffffffffffffffff8082111561145f5761145f61141d565b604051601f8301601f19908116603f011681019082821181831017156114875761148761141d565b816040528381528660208588010111156114a057600080fd5b836020870160208301376000602085830101528094505050505092915050565b600080600080608085870312156114d657600080fd5b843567ffffffffffffffff8111156114ed57600080fd5b6114f987828801611433565b97602087013597506040870135966060013595509350505050565b60006020828403121561152657600080fd5b813567ffffffffffffffff81111561153d57600080fd5b61154984828501611433565b949350505050565b6020815260006111a4602083018461134d565b600181811c9082168061157857607f821691505b60208210810361061f57634e487b7160e01b600052602260045260246000fd5b634e487b7160e01b600052601160045260246000fd5b808201808211156115c1576115c1611598565b92915050565b6000826115e457634e487b7160e01b600052601260045260246000fd5b500490565b80820281158282048414176115c1576115c1611598565b601f82111561164c576000816000526020600020601f850160051c810160208610156116295750805b601f850160051c820191505b8181101561164857828155600101611635565b5050505b505050565b815167ffffffffffffffff81111561166b5761166b61141d565b61167f816116798454611564565b84611600565b602080601f8311600181146116b4576000841561169c5750858301515b600019600386901b1c1916600185901b178555611648565b600085815260208120601f198616915b828110156116e3578886015182559484019460019091019084016116c4565b50858210156117015787850151600019600388901b60f8161c191681555b5050505050600190811b01905550565b6001600160a01b038816815260e060208083018290526000916117369084018a61134d565b60408401899052606084018890526080840187905285151560a085015283810360c08501528451808252602080870192019060005b818110156117875783518352928401929184019160010161176b565b50909c9b505050505050505050505050565b634e487b7160e01b600052603260045260246000fd5b60008083546117bd81611564565b600182811680156117d557600181146117ea57611819565b60ff1984168752821515830287019450611819565b8760005260208060002060005b858110156118105781548a8201529084019082016117f7565b50505082870194505b50929695505050505050565b60006001820161183757611837611598565b5060010190565b60006020828403121561185057600080fd5b505191905056fe6080604052600180556000600255348015601857600080fd5b5061021e806100286000396000f3fe608060405234801561001057600080fd5b506004361061004c5760003560e01c80630130ca2b146100515780631f7b6d321461006b5780631ffc735d14610073578063957908d114610088575b600080fd5b610059610090565b60405190815260200160405180910390f35b6100596100dd565b610086610081366004610176565b610100565b005b61005961012c565b6001546000905b6002546100a59060016101a5565b8110156100d9576000818152602081905260409020546100c590806101be565b6100cf90836101a5565b9150600101610097565b5090565b600060015460025460016100f191906101a5565b6100fb91906101d5565b905090565b60016002600082825461011391906101a5565b9091555050600254600090815260208190526040902055565b600080600154600254101561014057600080fd5b506001805460009081526020819052604081208054908290558254909291829161016b9083906101a5565b909155509092915050565b60006020828403121561018857600080fd5b5035919050565b634e487b7160e01b600052601160045260246000fd5b808201808211156101b8576101b861018f565b92915050565b80820281158282048414176101b8576101b861018f565b818103818111156101b8576101b861018f56fea2646970667358221220ba2f82ddccad524b0a8065750c411370679db7b8061eec9659450c70c0ece14e64736f6c63430008190033a264697066735822122031ab26700fe2aef18ae2d5c30b3513bb3700c926f2e9c17d3fdaf81db127f19d64736f6c63430008190033","linkReferences":{}},"methodIdentifiers":{"accountNames(uint256)":"da62458a","askQuestion(string,uint256,uint256,uint256)":"6de94083","calculate_credit(address)":"ab10d998","getCredit(address)":"57344e6f","hasRegistered(address)":"a0d03526","isExpired(uint256)":"d9548e53","owner()":"8da5cb5b","questionCount()":"1468aa2c","questionMap(uint256)":"f061b5b1","questions(uint256)":"31b1b978","registerUser(string)":"704f1b94","rewardRecordsMap(address)":"13fc8c34","sqrt(uint256)":"677342ce","userAddrMap(address)":"e34d6805","userCount()":"07973ccf","users(uint256)":"365b98b2"},"id":25}