{"abi":[{"type":"receive","stateMutability":"payable"},{"type":"function","name":"accountNames","inputs":[{"name":"","type":"uint256","internalType":"uint256"}],"outputs":[{"name":"","type":"string","internalType":"string"}],"stateMutability":"view"},{"type":"function","name":"askQuestion","inputs":[{"name":"_content","type":"string","internalType":"string"},{"name":"_day","type":"uint256","internalType":"uint256"},{"name":"_hour","type":"uint256","internalType":"uint256"},{"name":"_min","type":"uint256","internalType":"uint256"}],"outputs":[{"name":"","type":"uint256","internalType":"uint256"}],"stateMutability":"payable"},{"type":"function","name":"calculate_credit","inputs":[{"name":"userAddress","type":"address","internalType":"address"}],"outputs":[{"name":"","type":"uint256","internalType":"uint256"}],"stateMutability":"nonpayable"},{"type":"function","name":"getCredit","inputs":[{"name":"userAddress","type":"address","internalType":"address"}],"outputs":[{"name":"","type":"uint256","internalType":"uint256"}],"stateMutability":"view"},{"type":"function","name":"getQuestionContent","inputs":[{"name":"q_id","type":"uint256","internalType":"uint256"}],"outputs":[{"name":"","type":"string","internalType":"string"}],"stateMutability":"view"},{"type":"function","name":"getQuestionCurrentID","inputs":[],"outputs":[{"name":"","type":"uint256","internalType":"uint256"}],"stateMutability":"view"},{"type":"function","name":"getQuestionExpirationTime","inputs":[{"name":"q_id","type":"uint256","internalType":"uint256"}],"outputs":[{"name":"","type":"uint256","internalType":"uint256"}],"stateMutability":"view"},{"type":"function","name":"getQuestionReward","inputs":[{"name":"q_id","type":"uint256","internalType":"uint256"}],"outputs":[{"name":"","type":"uint256","internalType":"uint256"}],"stateMutability":"view"},{"type":"function","name":"hasRegistered","inputs":[{"name":"","type":"address","internalType":"address"}],"outputs":[{"name":"","type":"bool","internalType":"bool"}],"stateMutability":"view"},{"type":"function","name":"isExpired","inputs":[{"name":"q_id","type":"uint256","internalType":"uint256"}],"outputs":[{"name":"","type":"bool","internalType":"bool"}],"stateMutability":"nonpayable"},{"type":"function","name":"owner","inputs":[],"outputs":[{"name":"","type":"address","internalType":"address"}],"stateMutability":"view"},{"type":"function","name":"questionCount","inputs":[],"outputs":[{"name":"","type":"uint256","internalType":"uint256"}],"stateMutability":"view"},{"type":"function","name":"questionMap","inputs":[{"name":"","type":"uint256","internalType":"uint256"}],"outputs":[{"name":"asker","type":"address","internalType":"address"},{"name":"content","type":"string","internalType":"string"},{"name":"reward","type":"uint256","internalType":"uint256"},{"name":"expiration_time","type":"uint256","internalType":"uint256"},{"name":"question_id","type":"uint256","internalType":"uint256"},{"name":"selected","type":"bool","internalType":"bool"},{"name":"closed","type":"bool","internalType":"bool"},{"name":"distributed","type":"bool","internalType":"bool"}],"stateMutability":"view"},{"type":"function","name":"questions","inputs":[{"name":"","type":"uint256","internalType":"uint256"}],"outputs":[{"name":"asker","type":"address","internalType":"address"},{"name":"content","type":"string","internalType":"string"},{"name":"reward","type":"uint256","internalType":"uint256"},{"name":"expiration_time","type":"uint256","internalType":"uint256"},{"name":"question_id","type":"uint256","internalType":"uint256"},{"name":"selected","type":"bool","internalType":"bool"},{"name":"closed","type":"bool","internalType":"bool"},{"name":"distributed","type":"bool","internalType":"bool"}],"stateMutability":"view"},{"type":"function","name":"registerUser","inputs":[{"name":"_username","type":"string","internalType":"string"}],"outputs":[],"stateMutability":"nonpayable"},{"type":"function","name":"rewardRecordsMap","inputs":[{"name":"","type":"address","internalType":"address"}],"outputs":[{"name":"","type":"address","internalType":"contract Queue"}],"stateMutability":"view"},{"type":"function","name":"sqrt","inputs":[{"name":"x","type":"uint256","internalType":"uint256"}],"outputs":[{"name":"y","type":"uint256","internalType":"uint256"}],"stateMutability":"pure"},{"type":"function","name":"userAddrMap","inputs":[{"name":"","type":"address","internalType":"address"}],"outputs":[{"name":"user_name","type":"string","internalType":"string"},{"name":"user_address","type":"address","internalType":"address"},{"name":"credit","type":"uint256","internalType":"uint256"}],"stateMutability":"view"},{"type":"function","name":"userCount","inputs":[],"outputs":[{"name":"","type":"uint256","internalType":"uint256"}],"stateMutability":"view"},{"type":"function","name":"users","inputs":[{"name":"","type":"uint256","internalType":"uint256"}],"outputs":[{"name":"user_name","type":"string","internalType":"string"},{"name":"user_address","type":"address","internalType":"address"},{"name":"credit","type":"uint256","internalType":"uint256"}],"stateMutability":"view"},{"type":"event","name":"QuestionClosed","inputs":[{"name":"q_id","type":"uint256","indexed":false,"internalType":"uint256"}],"anonymous":false},{"type":"event","name":"QuestionCreated","inputs":[{"name":"asker","type":"address","indexed":false,"internalType":"address"},{"name":"content","type":"string","indexed":false,"internalType":"string"},{"name":"reward","type":"uint256","indexed":false,"internalType":"uint256"},{"name":"expiration_time","type":"uint256","indexed":false,"internalType":"uint256"},{"name":"question_id","type":"uint256","indexed":false,"internalType":"uint256"},{"name":"closed","type":"bool","indexed":false,"internalType":"bool"},{"name":"answer_ids","type":"uint256[]","indexed":false,"internalType":"uint256[]"}],"anonymous":false},{"type":"event","name":"UserCreditUpdate","inputs":[{"name":"user_addr","type":"address","indexed":false,"internalType":"address"},{"name":"prev_credit","type":"uint256","indexed":false,"internalType":"uint256"},{"name":"new_credit","type":"uint256","indexed":false,"internalType":"uint256"}],"anonymous":false},{"type":"event","name":"UserRegistered","inputs":[{"name":"username","type":"string","indexed":false,"internalType":"string"},{"name":"userAddress","type":"address","indexed":false,"internalType":"address"},{"name":"default_credit","type":"uint256","indexed":false,"internalType":"uint256"}],"anonymous":false},{"type":"error","name":"ReentrancyGuardReentrantCall","inputs":[]}],"bytecode":{"object":"0x608060405260006007556000600a55348015601957600080fd5b506001600081905580546001600160a01b03191633179055611cb6806100406000396000f3fe6080604052600436106101235760003560e01c80638da5cb5b116100a0578063ccad230611610064578063ccad230614610376578063d9548e5314610396578063da62458a146103b6578063e34d6805146103d6578063f061b5b1146103f657600080fd5b80638da5cb5b146102b4578063a0d03526146102d4578063a1b528c214610314578063ab10d99814610329578063c709695a1461034957600080fd5b8063365b98b2116100e7578063365b98b21461021057806357344e6f1461023f578063677342ce1461025f5780636de940831461027f578063704f1b941461029257600080fd5b806307973ccf1461012f57806313fc8c34146101585780631468aa2c146101a6578063307f37e6146101bc57806331b1b978146101dc57600080fd5b3661012a57005b600080fd5b34801561013b57600080fd5b5061014560075481565b6040519081526020015b60405180910390f35b34801561016457600080fd5b5061018e6101733660046114b9565b6006602052600090815260409020546001600160a01b031681565b6040516001600160a01b03909116815260200161014f565b3480156101b257600080fd5b50610145600a5481565b3480156101c857600080fd5b506101456101d73660046114e2565b610416565b3480156101e857600080fd5b506101fc6101f73660046114e2565b610459565b60405161014f989796959493929190611541565b34801561021c57600080fd5b5061023061022b3660046114e2565b61054a565b60405161014f9392919061159d565b34801561024b57600080fd5b5061014561025a3660046114b9565b610616565b34801561026b57600080fd5b5061014561027a3660046114e2565b6106ab565b61014561028d36600461166e565b610704565b34801561029e57600080fd5b506102b26102ad3660046116c2565b610baa565b005b3480156102c057600080fd5b5060015461018e906001600160a01b031681565b3480156102e057600080fd5b506103046102ef3660046114b9565b60056020526000908152604090205460ff1681565b604051901515815260200161014f565b34801561032057600080fd5b50600a54610145565b34801561033557600080fd5b506101456103443660046114b9565b610f64565b34801561035557600080fd5b506103696103643660046114e2565b611083565b60405161014f91906116ff565b34801561038257600080fd5b506101456103913660046114e2565b611148565b3480156103a257600080fd5b506103046103b13660046114e2565b611182565b3480156103c257600080fd5b506103696103d13660046114e2565b611359565b3480156103e257600080fd5b506102306103f13660046114b9565b611405565b34801561040257600080fd5b506101fc6104113660046114e2565b611420565b6000600a548211156104435760405162461bcd60e51b815260040161043a90611712565b60405180910390fd5b5060009081526008602052604090206003015490565b6009818154811061046957600080fd5b6000918252602090912060079091020180546001820180546001600160a01b0390921693509061049890611747565b80601f01602080910402602001604051908101604052809291908181526020018280546104c490611747565b80156105115780601f106104e657610100808354040283529160200191610511565b820191906000526020600020905b8154815290600101906020018083116104f457829003601f168201915b505050506002830154600384015460048501546005909501549394919390925060ff808216916101008104821691620100009091041688565b6002818154811061055a57600080fd5b906000526020600020906003020160009150905080600001805461057d90611747565b80601f01602080910402602001604051908101604052809291908181526020018280546105a990611747565b80156105f65780601f106105cb576101008083540402835291602001916105f6565b820191906000526020600020905b8154815290600101906020018083116105d957829003601f168201915b50505050600183015460029093015491926001600160a01b031691905083565b6001600160a01b03811660009081526005602052604081205460ff1661068c5760405162461bcd60e51b815260206004820152602560248201527f55736572206d757374206265207265676973746572656420746f2067657420636044820152641c99591a5d60da1b606482015260840161043a565b506001600160a01b031660009081526004602052604090206002015490565b60008060026106bb846001611791565b6106c591906117aa565b90508291505b818110156106fe579050806002816106e381866117aa565b6106ed9190611791565b6106f791906117aa565b90506106cb565b50919050565b3360009081526005602052604081205460ff166107595760405162461bcd60e51b8152602060048201526013602482015272155cd95c881b9bdd081c9959da5cdd195c9959606a1b604482015260640161043a565b600034118015610771575061076d33610616565b3411155b6107e35760405162461bcd60e51b815260206004820152603860248201527f526577617264206d7573742062652067726561746572207468616e203020616e60448201527f64206c657373207468616e20637265646974206c696d69740000000000000000606482015260840161043a565b60008551116108345760405162461bcd60e51b815260206004820152601860248201527f5175657374696f6e2063616e6e6f7420626520656d7074790000000000000000604482015260640161043a565b600061084183603c6117cc565b61084d85610e106117cc565b61085a87620151806117cc565b6108649190611791565b61086e9190611791565b9050620151808110158015610886575062093a808111155b6108f85760405162461bcd60e51b815260206004820152603f60248201527f45787069726174696f6e2074696d65206d75737420626520677265617465722060448201527f7468616e20312064617920616e64206c657373207468616e2037206461797300606482015260840161043a565b6001600a600082825461090b9190611791565b9091555050600a546040805161012081018252338152602081018990523491810191909152600090606081016109418542611791565b81526020808201859052600060408084018290526060840182905260808401829052805182815280840190915260a09093019290925260098054600181018255925282517f6e1540171b6c0c960b71a7020d9f60077f6af931a8bbf590da0223dacf75c7af600790930292830180546001600160a01b0319166001600160a01b0390921691909117815590830151929350839290917f6e1540171b6c0c960b71a7020d9f60077f6af931a8bbf590da0223dacf75c7b00190610a039082611834565b5060408201516002820155606082015160038201556080820151600482015560a082015160058201805460c085015160e086015161ffff1990921693151561ff0019169390931761010093151584021762ff0000191662010000911515919091021790558201518051610a8091600684019160209091019061144c565b5050506000828152600860209081526040909120825181546001600160a01b0319166001600160a01b03909116178155908201518291906001820190610ac69082611834565b5060408201516002820155606082015160038201556080820151600482015560a082015160058201805460c085015160e086015161ffff1990921693151561ff0019169390931761010093151584021762ff0000191662010000911515919091021790558201518051610b4391600684019160209091019061144c565b507f84b861809ad6a7273eb286675afe4848e1772d87876e38ff1870adfc5ebbcbb191503390508934610b768742611791565b6040805160008082526020820192839052610b9796959493928a92906118f4565b60405180910390a1509695505050505050565b3360008181526005602052604090205460ff1615610c0a5760405162461bcd60e51b815260206004820152601a60248201527f5468652061646472657373207761732072656769737465726564000000000000604482015260640161043a565b81600160005b600754811015610c6d57828051906020012060028281548110610c3557610c3561197c565b9060005260206000209060030201600001604051610c539190611992565b604051809103902003610c6557600091505b600101610c10565b5080610cb05760405162461bcd60e51b81526020600482015260126024820152716475706c696361746520757365726e616d6560701b604482015260640161043a565b6000845111610cf55760405162461bcd60e51b8152602060048201526011602482015270557365726e616d6520697320656d70747960781b604482015260640161043a565b60408051606081018252858152336020820152662386f26fc100009181019190915260028054600181018255600091909152815182916003027f405787fa12a823e0f2b7631cc41b3ba8828b3321ca811111fa75cd3aa3bb5ace01908190610d5d9082611834565b506020828101516001830180546001600160a01b0319166001600160a01b0390921691909117905560409283015160029092019190915533600090815260049091522081518291908190610db19082611834565b506020820151600182810180546001600160a01b0319166001600160a01b03909316929092179091556040909201516002909101556003805491820181556000527fc2575a0e9e593c00f959f8c92f12db2869c3395a3b0502d05e2516446f71f85b01610e1e8682611834565b50336000908152600560205260408120805460ff191660011790556007805491610e4783611a08565b91905055506000604051610e5a90611497565b604051809103906000f080158015610e76573d6000803e3d6000fd5b50905060005b6005811015610ef157604051631ffc735d60e01b8152660fe170fa25600060048201526001600160a01b03831690631ffc735d90602401600060405180830381600087803b158015610ecd57600080fd5b505af1158015610ee1573d6000803e3d6000fd5b505060019092019150610e7c9050565b50336000818152600660205260409081902080546001600160a01b0319166001600160a01b038516179055517fda4b066842833e7ab38c0f7ba442824b5eda00740d68ef015889812a792fc3ec91610f5491899190662386f26fc100009061159d565b60405180910390a1505050505050565b6001600160a01b038082166000908152600660209081526040808320548151630130ca2b60e01b8152915193948594911692630130ca2b92600480820193918290030181865afa158015610fbc573d6000803e3d6000fd5b505050506040513d601f19601f82011682018060405250810190610fe09190611a21565b6001600160a01b0384166000908152600460205260409020600201549091507f085f11378a0c42687437148f7b62421b8e6f48c3a41b0e416dc85078bcc0bcd390849061102c846106ab565b604080516001600160a01b03909416845260208401929092529082015260600160405180910390a161105d816106ab565b6001600160a01b0390931660009081526004602052604090206002018390555090919050565b6060600a548211156110a75760405162461bcd60e51b815260040161043a90611712565b600082815260086020526040902060010180546110c390611747565b80601f01602080910402602001604051908101604052809291908181526020018280546110ef90611747565b801561113c5780601f106111115761010080835404028352916020019161113c565b820191906000526020600020905b81548152906001019060200180831161111f57829003601f168201915b50505050509050919050565b6000600a5482111561116c5760405162461bcd60e51b815260040161043a90611712565b5060009081526008602052604090206002015490565b6000600a548211156111a65760405162461bcd60e51b815260040161043a90611712565b60008281526008602090815260408083208151610120810190925280546001600160a01b0316825260018101805492939192918401916111e590611747565b80601f016020809104026020016040519081016040528092919081815260200182805461121190611747565b801561125e5780601f106112335761010080835404028352916020019161125e565b820191906000526020600020905b81548152906001019060200180831161124157829003601f168201915b50505091835250506002820154602080830191909152600383015460408084019190915260048401546060840152600584015460ff8082161515608086015261010082048116151560a08601526201000090910416151560c084015260068401805482518185028101850190935280835260e090940193919290919083018282801561130957602002820191906000526020600020905b8154815260200190600101908083116112f5575b5050505050815250509050806060015142111561133f576000838152600860205260409020600501805461ff0019166101001790555b806060015142118061135257508060c001515b9392505050565b6003818154811061136957600080fd5b90600052602060002001600091509050805461138490611747565b80601f01602080910402602001604051908101604052809291908181526020018280546113b090611747565b80156113fd5780601f106113d2576101008083540402835291602001916113fd565b820191906000526020600020905b8154815290600101906020018083116113e057829003601f168201915b505050505081565b60046020526000908152604090208054819061057d90611747565b600860205260009081526040902080546001820180546001600160a01b03909216929161049890611747565b828054828255906000526020600020908101928215611487579160200282015b8281111561148757825182559160200191906001019061146c565b506114939291506114a4565b5090565b61024680611a3b83390190565b5b8082111561149357600081556001016114a5565b6000602082840312156114cb57600080fd5b81356001600160a01b038116811461135257600080fd5b6000602082840312156114f457600080fd5b5035919050565b6000815180845260005b8181101561152157602081850181015186830182015201611505565b506000602082860101526020601f19601f83011685010191505092915050565b6001600160a01b0389168152610100602082018190526000906115668382018b6114fb565b604084019990995250506060810195909552608085019390935290151560a0840152151560c0830152151560e09091015292915050565b6060815260006115b060608301866114fb565b6001600160a01b039490941660208301525060400152919050565b634e487b7160e01b600052604160045260246000fd5b600082601f8301126115f257600080fd5b813567ffffffffffffffff8082111561160d5761160d6115cb565b604051601f8301601f19908116603f01168101908282118183101715611635576116356115cb565b8160405283815286602085880101111561164e57600080fd5b836020870160208301376000602085830101528094505050505092915050565b6000806000806080858703121561168457600080fd5b843567ffffffffffffffff81111561169b57600080fd5b6116a7878288016115e1565b97602087013597506040870135966060013595509350505050565b6000602082840312156116d457600080fd5b813567ffffffffffffffff8111156116eb57600080fd5b6116f7848285016115e1565b949350505050565b60208152600061135260208301846114fb565b6020808252818101527f54686520696e707574207175657374696f6e20696420697320696e76616c6964604082015260600190565b600181811c9082168061175b57607f821691505b6020821081036106fe57634e487b7160e01b600052602260045260246000fd5b634e487b7160e01b600052601160045260246000fd5b808201808211156117a4576117a461177b565b92915050565b6000826117c757634e487b7160e01b600052601260045260246000fd5b500490565b80820281158282048414176117a4576117a461177b565b601f82111561182f576000816000526020600020601f850160051c8101602086101561180c5750805b601f850160051c820191505b8181101561182b57828155600101611818565b5050505b505050565b815167ffffffffffffffff81111561184e5761184e6115cb565b6118628161185c8454611747565b846117e3565b602080601f831160018114611897576000841561187f5750858301515b600019600386901b1c1916600185901b17855561182b565b600085815260208120601f198616915b828110156118c6578886015182559484019460019091019084016118a7565b50858210156118e45787850151600019600388901b60f8161c191681555b5050505050600190811b01905550565b6001600160a01b038816815260e060208083018290526000916119199084018a6114fb565b60408401899052606084018890526080840187905285151560a085015283810360c08501528451808252602080870192019060005b8181101561196a5783518352928401929184019160010161194e565b50909c9b505050505050505050505050565b634e487b7160e01b600052603260045260246000fd5b60008083546119a081611747565b600182811680156119b857600181146119cd576119fc565b60ff19841687528215158302870194506119fc565b8760005260208060002060005b858110156119f35781548a8201529084019082016119da565b50505082870194505b50929695505050505050565b600060018201611a1a57611a1a61177b565b5060010190565b600060208284031215611a3357600080fd5b505191905056fe6080604052600180556000600255348015601857600080fd5b5061021e806100286000396000f3fe608060405234801561001057600080fd5b506004361061004c5760003560e01c80630130ca2b146100515780631f7b6d321461006b5780631ffc735d14610073578063957908d114610088575b600080fd5b610059610090565b60405190815260200160405180910390f35b6100596100dd565b610086610081366004610176565b610100565b005b61005961012c565b6001546000905b6002546100a59060016101a5565b8110156100d9576000818152602081905260409020546100c590806101be565b6100cf90836101a5565b9150600101610097565b5090565b600060015460025460016100f191906101a5565b6100fb91906101d5565b905090565b60016002600082825461011391906101a5565b9091555050600254600090815260208190526040902055565b600080600154600254101561014057600080fd5b506001805460009081526020819052604081208054908290558254909291829161016b9083906101a5565b909155509092915050565b60006020828403121561018857600080fd5b5035919050565b634e487b7160e01b600052601160045260246000fd5b808201808211156101b8576101b861018f565b92915050565b80820281158282048414176101b8576101b861018f565b818103818111156101b8576101b861018f56fea2646970667358221220ba2f82ddccad524b0a8065750c411370679db7b8061eec9659450c70c0ece14e64736f6c63430008190033a2646970667358221220f098b2178b7be0a050629a45ae0068cb1332f8f91361cef0e4ffbc4e193a9d1b64736f6c63430008190033","linkReferences":{}},"methodIdentifiers":{"accountNames(uint256)":"da62458a","askQuestion(string,uint256,uint256,uint256)":"6de94083","calculate_credit(address)":"ab10d998","getCredit(address)":"57344e6f","getQuestionContent(uint256)":"c709695a","getQuestionCurrentID()":"a1b528c2","getQuestionExpirationTime(uint256)":"307f37e6","getQuestionReward(uint256)":"ccad2306","hasRegistered(address)":"a0d03526","isExpired(uint256)":"d9548e53","owner()":"8da5cb5b","questionCount()":"1468aa2c","questionMap(uint256)":"f061b5b1","questions(uint256)":"31b1b978","registerUser(string)":"704f1b94","rewardRecordsMap(address)":"13fc8c34","sqrt(uint256)":"677342ce","userAddrMap(address)":"e34d6805","userCount()":"07973ccf","users(uint256)":"365b98b2"},"id":25}