{"abi":[{"type":"receive","stateMutability":"payable"},{"type":"function","name":"accountNames","inputs":[{"name":"","type":"uint256","internalType":"uint256"}],"outputs":[{"name":"","type":"string","internalType":"string"}],"stateMutability":"view"},{"type":"function","name":"askQuestion","inputs":[{"name":"_content","type":"string","internalType":"string"},{"name":"_day","type":"uint256","internalType":"uint256"},{"name":"_hour","type":"uint256","internalType":"uint256"},{"name":"_min","type":"uint256","internalType":"uint256"}],"outputs":[{"name":"","type":"uint256","internalType":"uint256"}],"stateMutability":"payable"},{"type":"function","name":"calculate_credit","inputs":[{"name":"userAddress","type":"address","internalType":"address"}],"outputs":[{"name":"","type":"uint256","internalType":"uint256"}],"stateMutability":"nonpayable"},{"type":"function","name":"closeQuestion","inputs":[{"name":"q_id","type":"uint256","internalType":"uint256"}],"outputs":[],"stateMutability":"nonpayable"},{"type":"function","name":"getCredit","inputs":[{"name":"userAddress","type":"address","internalType":"address"}],"outputs":[{"name":"","type":"uint256","internalType":"uint256"}],"stateMutability":"view"},{"type":"function","name":"getMyCredit","inputs":[],"outputs":[{"name":"","type":"uint256","internalType":"uint256"}],"stateMutability":"view"},{"type":"function","name":"hasRegistered","inputs":[{"name":"","type":"address","internalType":"address"}],"outputs":[{"name":"","type":"bool","internalType":"bool"}],"stateMutability":"view"},{"type":"function","name":"isExpired","inputs":[{"name":"q_id","type":"uint256","internalType":"uint256"}],"outputs":[{"name":"","type":"bool","internalType":"bool"}],"stateMutability":"nonpayable"},{"type":"function","name":"owner","inputs":[],"outputs":[{"name":"","type":"address","internalType":"address"}],"stateMutability":"view"},{"type":"function","name":"questionCount","inputs":[],"outputs":[{"name":"","type":"uint256","internalType":"uint256"}],"stateMutability":"view"},{"type":"function","name":"questionMap","inputs":[{"name":"","type":"uint256","internalType":"uint256"}],"outputs":[{"name":"asker","type":"address","internalType":"address"},{"name":"content","type":"string","internalType":"string"},{"name":"reward","type":"uint256","internalType":"uint256"},{"name":"expiration_time","type":"uint256","internalType":"uint256"},{"name":"question_id","type":"uint256","internalType":"uint256"},{"name":"selected","type":"bool","internalType":"bool"},{"name":"closed","type":"bool","internalType":"bool"},{"name":"distributed","type":"bool","internalType":"bool"}],"stateMutability":"view"},{"type":"function","name":"questions","inputs":[{"name":"","type":"uint256","internalType":"uint256"}],"outputs":[{"name":"asker","type":"address","internalType":"address"},{"name":"content","type":"string","internalType":"string"},{"name":"reward","type":"uint256","internalType":"uint256"},{"name":"expiration_time","type":"uint256","internalType":"uint256"},{"name":"question_id","type":"uint256","internalType":"uint256"},{"name":"selected","type":"bool","internalType":"bool"},{"name":"closed","type":"bool","internalType":"bool"},{"name":"distributed","type":"bool","internalType":"bool"}],"stateMutability":"view"},{"type":"function","name":"registerUser","inputs":[{"name":"_username","type":"string","internalType":"string"}],"outputs":[],"stateMutability":"nonpayable"},{"type":"function","name":"rewardRecordsMap","inputs":[{"name":"","type":"address","internalType":"address"}],"outputs":[{"name":"","type":"address","internalType":"contract Queue"}],"stateMutability":"view"},{"type":"function","name":"sqrt","inputs":[{"name":"x","type":"uint256","internalType":"uint256"}],"outputs":[{"name":"y","type":"uint256","internalType":"uint256"}],"stateMutability":"pure"},{"type":"function","name":"userAddrMap","inputs":[{"name":"","type":"address","internalType":"address"}],"outputs":[{"name":"user_name","type":"string","internalType":"string"},{"name":"user_address","type":"address","internalType":"address"},{"name":"credit","type":"uint256","internalType":"uint256"}],"stateMutability":"view"},{"type":"function","name":"userCount","inputs":[],"outputs":[{"name":"","type":"uint256","internalType":"uint256"}],"stateMutability":"view"},{"type":"function","name":"users","inputs":[{"name":"","type":"uint256","internalType":"uint256"}],"outputs":[{"name":"user_name","type":"string","internalType":"string"},{"name":"user_address","type":"address","internalType":"address"},{"name":"credit","type":"uint256","internalType":"uint256"}],"stateMutability":"view"},{"type":"event","name":"QuestionClosed","inputs":[{"name":"q_id","type":"uint256","indexed":false,"internalType":"uint256"}],"anonymous":false},{"type":"event","name":"QuestionCreated","inputs":[{"name":"asker","type":"address","indexed":false,"internalType":"address"},{"name":"content","type":"string","indexed":false,"internalType":"string"},{"name":"reward","type":"uint256","indexed":false,"internalType":"uint256"},{"name":"expiration_time","type":"uint256","indexed":false,"internalType":"uint256"},{"name":"question_id","type":"uint256","indexed":false,"internalType":"uint256"},{"name":"closed","type":"bool","indexed":false,"internalType":"bool"},{"name":"answer_ids","type":"uint256[]","indexed":false,"internalType":"uint256[]"}],"anonymous":false},{"type":"event","name":"UserCreditUpdate","inputs":[{"name":"user_addr","type":"address","indexed":false,"internalType":"address"},{"name":"prev_credit","type":"uint256","indexed":false,"internalType":"uint256"},{"name":"new_credit","type":"uint256","indexed":false,"internalType":"uint256"}],"anonymous":false},{"type":"event","name":"UserRegistered","inputs":[{"name":"username","type":"string","indexed":false,"internalType":"string"},{"name":"userAddress","type":"address","indexed":false,"internalType":"address"},{"name":"default_credit","type":"uint256","indexed":false,"internalType":"uint256"}],"anonymous":false}],"bytecode":{"object":"0x608060405260006006556000600955348015601957600080fd5b50600080546001600160a01b03191633179055611d348061003b6000396000f3fe60806040526004361061010d5760003560e01c8063704f1b9411610095578063c09f32e811610064578063c09f32e81461032c578063d9548e531461034c578063da62458a1461036c578063e34d680514610399578063f061b5b1146103b957600080fd5b8063704f1b941461028a5780638da5cb5b146102ac578063a0d03526146102cc578063ab10d9981461030c57600080fd5b8063365b98b2116100dc578063365b98b2146101da5780633ead0e961461020957806357344e6f1461021e578063677342ce146102575780636de940831461027757600080fd5b806307973ccf1461011957806313fc8c34146101425780631468aa2c1461019057806331b1b978146101a657600080fd5b3661011457005b600080fd5b34801561012557600080fd5b5061012f60065481565b6040519081526020015b60405180910390f35b34801561014e57600080fd5b5061017861015d36600461156c565b6005602052600090815260409020546001600160a01b031681565b6040516001600160a01b039091168152602001610139565b34801561019c57600080fd5b5061012f60095481565b3480156101b257600080fd5b506101c66101c1366004611595565b6103d9565b6040516101399897969594939291906115f4565b3480156101e657600080fd5b506101fa6101f5366004611595565b6104ca565b60405161013993929190611650565b34801561021557600080fd5b5061012f610596565b34801561022a57600080fd5b5061012f61023936600461156c565b6001600160a01b031660009081526003602052604090206002015490565b34801561026357600080fd5b5061012f610272366004611595565b61061f565b61012f610285366004611721565b610678565b34801561029657600080fd5b506102aa6102a5366004611775565b610b2d565b005b3480156102b857600080fd5b50600054610178906001600160a01b031681565b3480156102d857600080fd5b506102fc6102e736600461156c565b60046020526000908152604090205460ff1681565b6040519015158152602001610139565b34801561031857600080fd5b5061012f61032736600461156c565b610ef0565b34801561033857600080fd5b506102aa610347366004611595565b61100f565b34801561035857600080fd5b506102fc610367366004611595565b611205565b34801561037857600080fd5b5061038c610387366004611595565b61140c565b60405161013991906117b2565b3480156103a557600080fd5b506101fa6103b436600461156c565b6114b8565b3480156103c557600080fd5b506101c66103d4366004611595565b6114d3565b600881815481106103e957600080fd5b6000918252602090912060079091020180546001820180546001600160a01b03909216935090610418906117c5565b80601f0160208091040260200160405190810160405280929190818152602001828054610444906117c5565b80156104915780601f1061046657610100808354040283529160200191610491565b820191906000526020600020905b81548152906001019060200180831161047457829003601f168201915b505050506002830154600384015460048501546005909501549394919390925060ff808216916101008104821691620100009091041688565b600181815481106104da57600080fd5b90600052602060002090600302016000915090508060000180546104fd906117c5565b80601f0160208091040260200160405190810160405280929190818152602001828054610529906117c5565b80156105765780601f1061054b57610100808354040283529160200191610576565b820191906000526020600020905b81548152906001019060200180831161055957829003601f168201915b50505050600183015460029093015491926001600160a01b031691905083565b3360009081526004602052604081205460ff166106085760405162461bcd60e51b815260206004820152602560248201527f55736572206d757374206265207265676973746572656420746f2067657420636044820152641c99591a5d60da1b60648201526084015b60405180910390fd5b503360009081526003602052604090206002015490565b600080600261062f84600161180f565b6106399190611828565b90508291505b81811015610672579050806002816106578186611828565b610661919061180f565b61066b9190611828565b905061063f565b50919050565b3360009081526004602052604081205460ff166106cd5760405162461bcd60e51b8152602060048201526013602482015272155cd95c881b9bdd081c9959da5cdd195c9959606a1b60448201526064016105ff565b6000341180156106ef5750336000908152600360205260409020600201543411155b6107615760405162461bcd60e51b815260206004820152603860248201527f526577617264206d7573742062652067726561746572207468616e203020616e60448201527f64206c657373207468616e20637265646974206c696d6974000000000000000060648201526084016105ff565b60008551116107b25760405162461bcd60e51b815260206004820152601960248201527f5175657374696f6e20636f6e74656e7420697320656d7074790000000000000060448201526064016105ff565b60006107bf83603c61184a565b6107cb85610e1061184a565b6107d8876201518061184a565b6107e2919061180f565b6107ec919061180f565b9050620151808110158015610804575062093a808111155b6108765760405162461bcd60e51b815260206004820152603f60248201527f45787069726174696f6e2074696d65206d75737420626520677265617465722060448201527f7468616e20312064617920616e64206c657373207468616e203720646179730060648201526084016105ff565b600060096000815461088790611861565b91905081905590506000604051806101200160405280336001600160a01b0316815260200189815260200134815260200184426108c4919061180f565b81526020808201859052600060408084018290526060840182905260808401829052805182815280840190915260a09093019290925260088054600181018255925282517ff3f7a9fe364faab93b216da50a3214154f22a0a2b415b23a84c8169e8b636ee3600790930292830180546001600160a01b0319166001600160a01b0390921691909117815590830151929350839290917ff3f7a9fe364faab93b216da50a3214154f22a0a2b415b23a84c8169e8b636ee4019061098690826118cb565b5060408201516002820155606082015160038201556080820151600482015560a082015160058201805460c085015160e086015161ffff1990921693151561ff0019169390931761010093151584021762ff0000191662010000911515919091021790558201518051610a039160068401916020909101906114ff565b5050506000828152600760209081526040909120825181546001600160a01b0319166001600160a01b03909116178155908201518291906001820190610a4990826118cb565b5060408201516002820155606082015160038201556080820151600482015560a082015160058201805460c085015160e086015161ffff1990921693151561ff0019169390931761010093151584021762ff0000191662010000911515919091021790558201518051610ac69160068401916020909101906114ff565b507f84b861809ad6a7273eb286675afe4848e1772d87876e38ff1870adfc5ebbcbb191503390508934610af9874261180f565b6040805160008082526020820192839052610b1a96959493928a929061198b565b60405180910390a1509695505050505050565b3360008181526004602052604090205460ff1615610b8d5760405162461bcd60e51b815260206004820152601a60248201527f546865206164647265737320776173207265676973746572656400000000000060448201526064016105ff565b81600160005b600654811015610bf057828051906020012060018281548110610bb857610bb8611a13565b9060005260206000209060030201600001604051610bd69190611a29565b604051809103902003610be857600091505b600101610b93565b5080610c335760405162461bcd60e51b81526020600482015260126024820152716475706c696361746520757365726e616d6560701b60448201526064016105ff565b6000845111610c845760405162461bcd60e51b815260206004820152601860248201527f557365726e616d652063616e6e6f7420626520656d707479000000000000000060448201526064016105ff565b60408051606081018252858152336020820152662386f26fc1000091810191909152600180548082018255600091909152815182916003027fb10e2d527612073b26eecdfd717e6a320cf44b4afac2b0732d9fcbe2b7fa0cf601908190610ceb90826118cb565b506020828101516001830180546001600160a01b0319166001600160a01b0390921691909117905560409283015160029092019190915533600090815260039091522081518291908190610d3f90826118cb565b506020820151600182810180546001600160a01b0319166001600160a01b0390931692909217909155604090920151600291820155805491820181556000527f405787fa12a823e0f2b7631cc41b3ba8828b3321ca811111fa75cd3aa3bb5ace01610daa86826118cb565b50336000908152600460205260408120805460ff191660011790556006805491610dd383611861565b91905055506000604051610de69061154a565b604051809103906000f080158015610e02573d6000803e3d6000fd5b50905060005b6005811015610e7d57604051631ffc735d60e01b8152660fe170fa25600060048201526001600160a01b03831690631ffc735d90602401600060405180830381600087803b158015610e5957600080fd5b505af1158015610e6d573d6000803e3d6000fd5b505060019092019150610e089050565b50336000818152600560205260409081902080546001600160a01b0319166001600160a01b038516179055517fda4b066842833e7ab38c0f7ba442824b5eda00740d68ef015889812a792fc3ec91610ee091899190662386f26fc1000090611650565b60405180910390a1505050505050565b6001600160a01b038082166000908152600560209081526040808320548151630130ca2b60e01b8152915193948594911692630130ca2b92600480820193918290030181865afa158015610f48573d6000803e3d6000fd5b505050506040513d601f19601f82011682018060405250810190610f6c9190611a9f565b6001600160a01b0384166000908152600360205260409020600201549091507f085f11378a0c42687437148f7b62421b8e6f48c3a41b0e416dc85078bcc0bcd3908490610fb88461061f565b604080516001600160a01b03909416845260208401929092529082015260600160405180910390a1610fe98161061f565b6001600160a01b0390931660009081526003602052604090206002018390555090919050565b3360009081526004602052604090205460ff166110825760405162461bcd60e51b815260206004820152602b60248201527f55736572206d757374206265207265676973746572656420746f20636c6f736560448201526a10309038bab2b9ba34b7b760a91b60648201526084016105ff565b6000818152600760205260409020546001600160a01b031633146110f65760405162461bcd60e51b815260206004820152602560248201527f4f6e6c79207468652061736b65722063616e20636c6f7365207468652071756560448201526439ba34b7b760d91b60648201526084016105ff565b6110ff81611205565b156111585760405162461bcd60e51b8152602060048201526024808201527f546865207175657374696f6e2068617320616c7265616479206265656e20636c6044820152631bdcd95960e21b60648201526084016105ff565b6009548111156111aa5760405162461bcd60e51b815260206004820181905260248201527f54686520696e707574207175657374696f6e20696420697320696e76616c696460448201526064016105ff565b60008181526007602052604090819020600501805461ff001916610100179055517f3c8f450bdfccd4e29a4d8e9602688d5e009772a7de7c40c7f27b8f8c129f01fa906111fa9083815260200190565b60405180910390a150565b60006009548211156112595760405162461bcd60e51b815260206004820181905260248201527f54686520696e707574207175657374696f6e20696420697320696e76616c696460448201526064016105ff565b60008281526007602090815260408083208151610120810190925280546001600160a01b031682526001810180549293919291840191611298906117c5565b80601f01602080910402602001604051908101604052809291908181526020018280546112c4906117c5565b80156113115780601f106112e657610100808354040283529160200191611311565b820191906000526020600020905b8154815290600101906020018083116112f457829003601f168201915b50505091835250506002820154602080830191909152600383015460408084019190915260048401546060840152600584015460ff8082161515608086015261010082048116151560a08601526201000090910416151560c084015260068401805482518185028101850190935280835260e09094019391929091908301828280156113bc57602002820191906000526020600020905b8154815260200190600101908083116113a8575b505050505081525050905080606001514211156113f2576000838152600760205260409020600501805461ff0019166101001790555b806060015142118061140557508060c001515b9392505050565b6002818154811061141c57600080fd5b906000526020600020016000915090508054611437906117c5565b80601f0160208091040260200160405190810160405280929190818152602001828054611463906117c5565b80156114b05780601f10611485576101008083540402835291602001916114b0565b820191906000526020600020905b81548152906001019060200180831161149357829003601f168201915b505050505081565b6003602052600090815260409020805481906104fd906117c5565b600760205260009081526040902080546001820180546001600160a01b039092169291610418906117c5565b82805482825590600052602060002090810192821561153a579160200282015b8281111561153a57825182559160200191906001019061151f565b50611546929150611557565b5090565b61024680611ab983390190565b5b808211156115465760008155600101611558565b60006020828403121561157e57600080fd5b81356001600160a01b038116811461140557600080fd5b6000602082840312156115a757600080fd5b5035919050565b6000815180845260005b818110156115d4576020818501810151868301820152016115b8565b506000602082860101526020601f19601f83011685010191505092915050565b6001600160a01b0389168152610100602082018190526000906116198382018b6115ae565b604084019990995250506060810195909552608085019390935290151560a0840152151560c0830152151560e09091015292915050565b60608152600061166360608301866115ae565b6001600160a01b039490941660208301525060400152919050565b634e487b7160e01b600052604160045260246000fd5b600082601f8301126116a557600080fd5b813567ffffffffffffffff808211156116c0576116c061167e565b604051601f8301601f19908116603f011681019082821181831017156116e8576116e861167e565b8160405283815286602085880101111561170157600080fd5b836020870160208301376000602085830101528094505050505092915050565b6000806000806080858703121561173757600080fd5b843567ffffffffffffffff81111561174e57600080fd5b61175a87828801611694565b97602087013597506040870135966060013595509350505050565b60006020828403121561178757600080fd5b813567ffffffffffffffff81111561179e57600080fd5b6117aa84828501611694565b949350505050565b60208152600061140560208301846115ae565b600181811c908216806117d957607f821691505b60208210810361067257634e487b7160e01b600052602260045260246000fd5b634e487b7160e01b600052601160045260246000fd5b80820180821115611822576118226117f9565b92915050565b60008261184557634e487b7160e01b600052601260045260246000fd5b500490565b8082028115828204841417611822576118226117f9565b600060018201611873576118736117f9565b5060010190565b601f8211156118c6576000816000526020600020601f850160051c810160208610156118a35750805b601f850160051c820191505b818110156118c2578281556001016118af565b5050505b505050565b815167ffffffffffffffff8111156118e5576118e561167e565b6118f9816118f384546117c5565b8461187a565b602080601f83116001811461192e57600084156119165750858301515b600019600386901b1c1916600185901b1785556118c2565b600085815260208120601f198616915b8281101561195d5788860151825594840194600190910190840161193e565b508582101561197b5787850151600019600388901b60f8161c191681555b5050505050600190811b01905550565b6001600160a01b038816815260e060208083018290526000916119b09084018a6115ae565b60408401899052606084018890526080840187905285151560a085015283810360c08501528451808252602080870192019060005b81811015611a01578351835292840192918401916001016119e5565b50909c9b505050505050505050505050565b634e487b7160e01b600052603260045260246000fd5b6000808354611a37816117c5565b60018281168015611a4f5760018114611a6457611a93565b60ff1984168752821515830287019450611a93565b8760005260208060002060005b85811015611a8a5781548a820152908401908201611a71565b50505082870194505b50929695505050505050565b600060208284031215611ab157600080fd5b505191905056fe6080604052600180556000600255348015601857600080fd5b5061021e806100286000396000f3fe608060405234801561001057600080fd5b506004361061004c5760003560e01c80630130ca2b146100515780631f7b6d321461006b5780631ffc735d14610073578063957908d114610088575b600080fd5b610059610090565b60405190815260200160405180910390f35b6100596100dd565b610086610081366004610176565b610100565b005b61005961012c565b6001546000905b6002546100a59060016101a5565b8110156100d9576000818152602081905260409020546100c590806101be565b6100cf90836101a5565b9150600101610097565b5090565b600060015460025460016100f191906101a5565b6100fb91906101d5565b905090565b60016002600082825461011391906101a5565b9091555050600254600090815260208190526040902055565b600080600154600254101561014057600080fd5b506001805460009081526020819052604081208054908290558254909291829161016b9083906101a5565b909155509092915050565b60006020828403121561018857600080fd5b5035919050565b634e487b7160e01b600052601160045260246000fd5b808201808211156101b8576101b861018f565b92915050565b80820281158282048414176101b8576101b861018f565b818103818111156101b8576101b861018f56fea2646970667358221220ba2f82ddccad524b0a8065750c411370679db7b8061eec9659450c70c0ece14e64736f6c63430008190033a26469706673582212206da7531ee882317e1f4f19a93e5dd6d2ca63deb22638a93b56df578ec12f7f6664736f6c63430008190033","linkReferences":{}},"methodIdentifiers":{"accountNames(uint256)":"da62458a","askQuestion(string,uint256,uint256,uint256)":"6de94083","calculate_credit(address)":"ab10d998","closeQuestion(uint256)":"c09f32e8","getCredit(address)":"57344e6f","getMyCredit()":"3ead0e96","hasRegistered(address)":"a0d03526","isExpired(uint256)":"d9548e53","owner()":"8da5cb5b","questionCount()":"1468aa2c","questionMap(uint256)":"f061b5b1","questions(uint256)":"31b1b978","registerUser(string)":"704f1b94","rewardRecordsMap(address)":"13fc8c34","sqrt(uint256)":"677342ce","userAddrMap(address)":"e34d6805","userCount()":"07973ccf","users(uint256)":"365b98b2"},"id":24}