{"abi":[{"type":"receive","stateMutability":"payable"},{"type":"function","name":"accountNames","inputs":[{"name":"","type":"uint256","internalType":"uint256"}],"outputs":[{"name":"","type":"string","internalType":"string"}],"stateMutability":"view"},{"type":"function","name":"askQuestion","inputs":[{"name":"_content","type":"string","internalType":"string"},{"name":"_day","type":"uint256","internalType":"uint256"},{"name":"_hour","type":"uint256","internalType":"uint256"},{"name":"_min","type":"uint256","internalType":"uint256"}],"outputs":[{"name":"","type":"uint256","internalType":"uint256"}],"stateMutability":"payable"},{"type":"function","name":"calculate_credit","inputs":[{"name":"userAddress","type":"address","internalType":"address"}],"outputs":[{"name":"","type":"uint256","internalType":"uint256"}],"stateMutability":"nonpayable"},{"type":"function","name":"getCredit","inputs":[{"name":"userAddress","type":"address","internalType":"address"}],"outputs":[{"name":"","type":"uint256","internalType":"uint256"}],"stateMutability":"view"},{"type":"function","name":"getQuestionContent","inputs":[{"name":"q_id","type":"uint256","internalType":"uint256"}],"outputs":[{"name":"","type":"string","internalType":"string"}],"stateMutability":"view"},{"type":"function","name":"getQuestionExpirationTime","inputs":[{"name":"q_id","type":"uint256","internalType":"uint256"}],"outputs":[{"name":"","type":"uint256","internalType":"uint256"}],"stateMutability":"view"},{"type":"function","name":"getQuestionReward","inputs":[{"name":"q_id","type":"uint256","internalType":"uint256"}],"outputs":[{"name":"","type":"uint256","internalType":"uint256"}],"stateMutability":"view"},{"type":"function","name":"hasRegistered","inputs":[{"name":"","type":"address","internalType":"address"}],"outputs":[{"name":"","type":"bool","internalType":"bool"}],"stateMutability":"view"},{"type":"function","name":"isExpired","inputs":[{"name":"q_id","type":"uint256","internalType":"uint256"}],"outputs":[{"name":"","type":"bool","internalType":"bool"}],"stateMutability":"nonpayable"},{"type":"function","name":"owner","inputs":[],"outputs":[{"name":"","type":"address","internalType":"address"}],"stateMutability":"view"},{"type":"function","name":"questionCount","inputs":[],"outputs":[{"name":"","type":"uint256","internalType":"uint256"}],"stateMutability":"view"},{"type":"function","name":"questionMap","inputs":[{"name":"","type":"uint256","internalType":"uint256"}],"outputs":[{"name":"asker","type":"address","internalType":"address"},{"name":"content","type":"string","internalType":"string"},{"name":"reward","type":"uint256","internalType":"uint256"},{"name":"expiration_time","type":"uint256","internalType":"uint256"},{"name":"question_id","type":"uint256","internalType":"uint256"},{"name":"selected","type":"bool","internalType":"bool"},{"name":"closed","type":"bool","internalType":"bool"},{"name":"distributed","type":"bool","internalType":"bool"}],"stateMutability":"view"},{"type":"function","name":"questions","inputs":[{"name":"","type":"uint256","internalType":"uint256"}],"outputs":[{"name":"asker","type":"address","internalType":"address"},{"name":"content","type":"string","internalType":"string"},{"name":"reward","type":"uint256","internalType":"uint256"},{"name":"expiration_time","type":"uint256","internalType":"uint256"},{"name":"question_id","type":"uint256","internalType":"uint256"},{"name":"selected","type":"bool","internalType":"bool"},{"name":"closed","type":"bool","internalType":"bool"},{"name":"distributed","type":"bool","internalType":"bool"}],"stateMutability":"view"},{"type":"function","name":"registerUser","inputs":[{"name":"_username","type":"string","internalType":"string"}],"outputs":[],"stateMutability":"nonpayable"},{"type":"function","name":"rewardRecordsMap","inputs":[{"name":"","type":"address","internalType":"address"}],"outputs":[{"name":"","type":"address","internalType":"contract Queue"}],"stateMutability":"view"},{"type":"function","name":"sqrt","inputs":[{"name":"x","type":"uint256","internalType":"uint256"}],"outputs":[{"name":"y","type":"uint256","internalType":"uint256"}],"stateMutability":"pure"},{"type":"function","name":"userAddrMap","inputs":[{"name":"","type":"address","internalType":"address"}],"outputs":[{"name":"user_name","type":"string","internalType":"string"},{"name":"user_address","type":"address","internalType":"address"},{"name":"credit","type":"uint256","internalType":"uint256"}],"stateMutability":"view"},{"type":"function","name":"userCount","inputs":[],"outputs":[{"name":"","type":"uint256","internalType":"uint256"}],"stateMutability":"view"},{"type":"function","name":"users","inputs":[{"name":"","type":"uint256","internalType":"uint256"}],"outputs":[{"name":"user_name","type":"string","internalType":"string"},{"name":"user_address","type":"address","internalType":"address"},{"name":"credit","type":"uint256","internalType":"uint256"}],"stateMutability":"view"},{"type":"event","name":"QuestionClosed","inputs":[{"name":"q_id","type":"uint256","indexed":false,"internalType":"uint256"}],"anonymous":false},{"type":"event","name":"QuestionCreated","inputs":[{"name":"asker","type":"address","indexed":false,"internalType":"address"},{"name":"content","type":"string","indexed":false,"internalType":"string"},{"name":"reward","type":"uint256","indexed":false,"internalType":"uint256"},{"name":"expiration_time","type":"uint256","indexed":false,"internalType":"uint256"},{"name":"question_id","type":"uint256","indexed":false,"internalType":"uint256"},{"name":"closed","type":"bool","indexed":false,"internalType":"bool"},{"name":"answer_ids","type":"uint256[]","indexed":false,"internalType":"uint256[]"}],"anonymous":false},{"type":"event","name":"UserCreditUpdate","inputs":[{"name":"user_addr","type":"address","indexed":false,"internalType":"address"},{"name":"prev_credit","type":"uint256","indexed":false,"internalType":"uint256"},{"name":"new_credit","type":"uint256","indexed":false,"internalType":"uint256"}],"anonymous":false},{"type":"event","name":"UserRegistered","inputs":[{"name":"username","type":"string","indexed":false,"internalType":"string"},{"name":"userAddress","type":"address","indexed":false,"internalType":"address"},{"name":"default_credit","type":"uint256","indexed":false,"internalType":"uint256"}],"anonymous":false},{"type":"error","name":"ReentrancyGuardReentrantCall","inputs":[]}],"bytecode":{"object":"0x608060405260006007556000600a55348015601957600080fd5b506001600081905580546001600160a01b03191633179055611c96806100406000396000f3fe6080604052600436106101185760003560e01c8063704f1b94116100a0578063ccad230611610064578063ccad230614610356578063d9548e5314610376578063da62458a14610396578063e34d6805146103b6578063f061b5b1146103d657600080fd5b8063704f1b94146102875780638da5cb5b146102a9578063a0d03526146102c9578063ab10d99814610309578063c709695a1461032957600080fd5b806331b1b978116100e757806331b1b978146101d1578063365b98b21461020557806357344e6f14610234578063677342ce146102545780636de940831461027457600080fd5b806307973ccf1461012457806313fc8c341461014d5780631468aa2c1461019b578063307f37e6146101b157600080fd5b3661011f57005b600080fd5b34801561013057600080fd5b5061013a60075481565b6040519081526020015b60405180910390f35b34801561015957600080fd5b50610183610168366004611499565b6006602052600090815260409020546001600160a01b031681565b6040516001600160a01b039091168152602001610144565b3480156101a757600080fd5b5061013a600a5481565b3480156101bd57600080fd5b5061013a6101cc3660046114c2565b6103f6565b3480156101dd57600080fd5b506101f16101ec3660046114c2565b610439565b604051610144989796959493929190611521565b34801561021157600080fd5b506102256102203660046114c2565b61052a565b6040516101449392919061157d565b34801561024057600080fd5b5061013a61024f366004611499565b6105f6565b34801561026057600080fd5b5061013a61026f3660046114c2565b61068b565b61013a61028236600461164e565b6106e4565b34801561029357600080fd5b506102a76102a23660046116a2565b610b8a565b005b3480156102b557600080fd5b50600154610183906001600160a01b031681565b3480156102d557600080fd5b506102f96102e4366004611499565b60056020526000908152604090205460ff1681565b6040519015158152602001610144565b34801561031557600080fd5b5061013a610324366004611499565b610f44565b34801561033557600080fd5b506103496103443660046114c2565b611063565b60405161014491906116df565b34801561036257600080fd5b5061013a6103713660046114c2565b611128565b34801561038257600080fd5b506102f96103913660046114c2565b611162565b3480156103a257600080fd5b506103496103b13660046114c2565b611339565b3480156103c257600080fd5b506102256103d1366004611499565b6113e5565b3480156103e257600080fd5b506101f16103f13660046114c2565b611400565b6000600a548211156104235760405162461bcd60e51b815260040161041a906116f2565b60405180910390fd5b5060009081526008602052604090206003015490565b6009818154811061044957600080fd5b6000918252602090912060079091020180546001820180546001600160a01b0390921693509061047890611727565b80601f01602080910402602001604051908101604052809291908181526020018280546104a490611727565b80156104f15780601f106104c6576101008083540402835291602001916104f1565b820191906000526020600020905b8154815290600101906020018083116104d457829003601f168201915b505050506002830154600384015460048501546005909501549394919390925060ff808216916101008104821691620100009091041688565b6002818154811061053a57600080fd5b906000526020600020906003020160009150905080600001805461055d90611727565b80601f016020809104026020016040519081016040528092919081815260200182805461058990611727565b80156105d65780601f106105ab576101008083540402835291602001916105d6565b820191906000526020600020905b8154815290600101906020018083116105b957829003601f168201915b50505050600183015460029093015491926001600160a01b031691905083565b6001600160a01b03811660009081526005602052604081205460ff1661066c5760405162461bcd60e51b815260206004820152602560248201527f55736572206d757374206265207265676973746572656420746f2067657420636044820152641c99591a5d60da1b606482015260840161041a565b506001600160a01b031660009081526004602052604090206002015490565b600080600261069b846001611771565b6106a5919061178a565b90508291505b818110156106de579050806002816106c3818661178a565b6106cd9190611771565b6106d7919061178a565b90506106ab565b50919050565b3360009081526005602052604081205460ff166107395760405162461bcd60e51b8152602060048201526013602482015272155cd95c881b9bdd081c9959da5cdd195c9959606a1b604482015260640161041a565b600034118015610751575061074d336105f6565b3411155b6107c35760405162461bcd60e51b815260206004820152603860248201527f526577617264206d7573742062652067726561746572207468616e203020616e60448201527f64206c657373207468616e20637265646974206c696d69740000000000000000606482015260840161041a565b60008551116108145760405162461bcd60e51b815260206004820152601860248201527f5175657374696f6e2063616e6e6f7420626520656d7074790000000000000000604482015260640161041a565b600061082183603c6117ac565b61082d85610e106117ac565b61083a87620151806117ac565b6108449190611771565b61084e9190611771565b9050620151808110158015610866575062093a808111155b6108d85760405162461bcd60e51b815260206004820152603f60248201527f45787069726174696f6e2074696d65206d75737420626520677265617465722060448201527f7468616e20312064617920616e64206c657373207468616e2037206461797300606482015260840161041a565b6001600a60008282546108eb9190611771565b9091555050600a546040805161012081018252338152602081018990523491810191909152600090606081016109218542611771565b81526020808201859052600060408084018290526060840182905260808401829052805182815280840190915260a09093019290925260098054600181018255925282517f6e1540171b6c0c960b71a7020d9f60077f6af931a8bbf590da0223dacf75c7af600790930292830180546001600160a01b0319166001600160a01b0390921691909117815590830151929350839290917f6e1540171b6c0c960b71a7020d9f60077f6af931a8bbf590da0223dacf75c7b001906109e39082611814565b5060408201516002820155606082015160038201556080820151600482015560a082015160058201805460c085015160e086015161ffff1990921693151561ff0019169390931761010093151584021762ff0000191662010000911515919091021790558201518051610a6091600684019160209091019061142c565b5050506000828152600860209081526040909120825181546001600160a01b0319166001600160a01b03909116178155908201518291906001820190610aa69082611814565b5060408201516002820155606082015160038201556080820151600482015560a082015160058201805460c085015160e086015161ffff1990921693151561ff0019169390931761010093151584021762ff0000191662010000911515919091021790558201518051610b2391600684019160209091019061142c565b507f84b861809ad6a7273eb286675afe4848e1772d87876e38ff1870adfc5ebbcbb191503390508934610b568742611771565b6040805160008082526020820192839052610b7796959493928a92906118d4565b60405180910390a1509695505050505050565b3360008181526005602052604090205460ff1615610bea5760405162461bcd60e51b815260206004820152601a60248201527f5468652061646472657373207761732072656769737465726564000000000000604482015260640161041a565b81600160005b600754811015610c4d57828051906020012060028281548110610c1557610c1561195c565b9060005260206000209060030201600001604051610c339190611972565b604051809103902003610c4557600091505b600101610bf0565b5080610c905760405162461bcd60e51b81526020600482015260126024820152716475706c696361746520757365726e616d6560701b604482015260640161041a565b6000845111610cd55760405162461bcd60e51b8152602060048201526011602482015270557365726e616d6520697320656d70747960781b604482015260640161041a565b60408051606081018252858152336020820152662386f26fc100009181019190915260028054600181018255600091909152815182916003027f405787fa12a823e0f2b7631cc41b3ba8828b3321ca811111fa75cd3aa3bb5ace01908190610d3d9082611814565b506020828101516001830180546001600160a01b0319166001600160a01b0390921691909117905560409283015160029092019190915533600090815260049091522081518291908190610d919082611814565b506020820151600182810180546001600160a01b0319166001600160a01b03909316929092179091556040909201516002909101556003805491820181556000527fc2575a0e9e593c00f959f8c92f12db2869c3395a3b0502d05e2516446f71f85b01610dfe8682611814565b50336000908152600560205260408120805460ff191660011790556007805491610e27836119e8565b91905055506000604051610e3a90611477565b604051809103906000f080158015610e56573d6000803e3d6000fd5b50905060005b6005811015610ed157604051631ffc735d60e01b8152660fe170fa25600060048201526001600160a01b03831690631ffc735d90602401600060405180830381600087803b158015610ead57600080fd5b505af1158015610ec1573d6000803e3d6000fd5b505060019092019150610e5c9050565b50336000818152600660205260409081902080546001600160a01b0319166001600160a01b038516179055517fda4b066842833e7ab38c0f7ba442824b5eda00740d68ef015889812a792fc3ec91610f3491899190662386f26fc100009061157d565b60405180910390a1505050505050565b6001600160a01b038082166000908152600660209081526040808320548151630130ca2b60e01b8152915193948594911692630130ca2b92600480820193918290030181865afa158015610f9c573d6000803e3d6000fd5b505050506040513d601f19601f82011682018060405250810190610fc09190611a01565b6001600160a01b0384166000908152600460205260409020600201549091507f085f11378a0c42687437148f7b62421b8e6f48c3a41b0e416dc85078bcc0bcd390849061100c8461068b565b604080516001600160a01b03909416845260208401929092529082015260600160405180910390a161103d8161068b565b6001600160a01b0390931660009081526004602052604090206002018390555090919050565b6060600a548211156110875760405162461bcd60e51b815260040161041a906116f2565b600082815260086020526040902060010180546110a390611727565b80601f01602080910402602001604051908101604052809291908181526020018280546110cf90611727565b801561111c5780601f106110f15761010080835404028352916020019161111c565b820191906000526020600020905b8154815290600101906020018083116110ff57829003601f168201915b50505050509050919050565b6000600a5482111561114c5760405162461bcd60e51b815260040161041a906116f2565b5060009081526008602052604090206002015490565b6000600a548211156111865760405162461bcd60e51b815260040161041a906116f2565b60008281526008602090815260408083208151610120810190925280546001600160a01b0316825260018101805492939192918401916111c590611727565b80601f01602080910402602001604051908101604052809291908181526020018280546111f190611727565b801561123e5780601f106112135761010080835404028352916020019161123e565b820191906000526020600020905b81548152906001019060200180831161122157829003601f168201915b50505091835250506002820154602080830191909152600383015460408084019190915260048401546060840152600584015460ff8082161515608086015261010082048116151560a08601526201000090910416151560c084015260068401805482518185028101850190935280835260e09094019391929091908301828280156112e957602002820191906000526020600020905b8154815260200190600101908083116112d5575b5050505050815250509050806060015142111561131f576000838152600860205260409020600501805461ff0019166101001790555b806060015142118061133257508060c001515b9392505050565b6003818154811061134957600080fd5b90600052602060002001600091509050805461136490611727565b80601f016020809104026020016040519081016040528092919081815260200182805461139090611727565b80156113dd5780601f106113b2576101008083540402835291602001916113dd565b820191906000526020600020905b8154815290600101906020018083116113c057829003601f168201915b505050505081565b60046020526000908152604090208054819061055d90611727565b600860205260009081526040902080546001820180546001600160a01b03909216929161047890611727565b828054828255906000526020600020908101928215611467579160200282015b8281111561146757825182559160200191906001019061144c565b50611473929150611484565b5090565b61024680611a1b83390190565b5b808211156114735760008155600101611485565b6000602082840312156114ab57600080fd5b81356001600160a01b038116811461133257600080fd5b6000602082840312156114d457600080fd5b5035919050565b6000815180845260005b81811015611501576020818501810151868301820152016114e5565b506000602082860101526020601f19601f83011685010191505092915050565b6001600160a01b0389168152610100602082018190526000906115468382018b6114db565b604084019990995250506060810195909552608085019390935290151560a0840152151560c0830152151560e09091015292915050565b60608152600061159060608301866114db565b6001600160a01b039490941660208301525060400152919050565b634e487b7160e01b600052604160045260246000fd5b600082601f8301126115d257600080fd5b813567ffffffffffffffff808211156115ed576115ed6115ab565b604051601f8301601f19908116603f01168101908282118183101715611615576116156115ab565b8160405283815286602085880101111561162e57600080fd5b836020870160208301376000602085830101528094505050505092915050565b6000806000806080858703121561166457600080fd5b843567ffffffffffffffff81111561167b57600080fd5b611687878288016115c1565b97602087013597506040870135966060013595509350505050565b6000602082840312156116b457600080fd5b813567ffffffffffffffff8111156116cb57600080fd5b6116d7848285016115c1565b949350505050565b60208152600061133260208301846114db565b6020808252818101527f54686520696e707574207175657374696f6e20696420697320696e76616c6964604082015260600190565b600181811c9082168061173b57607f821691505b6020821081036106de57634e487b7160e01b600052602260045260246000fd5b634e487b7160e01b600052601160045260246000fd5b808201808211156117845761178461175b565b92915050565b6000826117a757634e487b7160e01b600052601260045260246000fd5b500490565b80820281158282048414176117845761178461175b565b601f82111561180f576000816000526020600020601f850160051c810160208610156117ec5750805b601f850160051c820191505b8181101561180b578281556001016117f8565b5050505b505050565b815167ffffffffffffffff81111561182e5761182e6115ab565b6118428161183c8454611727565b846117c3565b602080601f831160018114611877576000841561185f5750858301515b600019600386901b1c1916600185901b17855561180b565b600085815260208120601f198616915b828110156118a657888601518255948401946001909101908401611887565b50858210156118c45787850151600019600388901b60f8161c191681555b5050505050600190811b01905550565b6001600160a01b038816815260e060208083018290526000916118f99084018a6114db565b60408401899052606084018890526080840187905285151560a085015283810360c08501528451808252602080870192019060005b8181101561194a5783518352928401929184019160010161192e565b50909c9b505050505050505050505050565b634e487b7160e01b600052603260045260246000fd5b600080835461198081611727565b6001828116801561199857600181146119ad576119dc565b60ff19841687528215158302870194506119dc565b8760005260208060002060005b858110156119d35781548a8201529084019082016119ba565b50505082870194505b50929695505050505050565b6000600182016119fa576119fa61175b565b5060010190565b600060208284031215611a1357600080fd5b505191905056fe6080604052600180556000600255348015601857600080fd5b5061021e806100286000396000f3fe608060405234801561001057600080fd5b506004361061004c5760003560e01c80630130ca2b146100515780631f7b6d321461006b5780631ffc735d14610073578063957908d114610088575b600080fd5b610059610090565b60405190815260200160405180910390f35b6100596100dd565b610086610081366004610176565b610100565b005b61005961012c565b6001546000905b6002546100a59060016101a5565b8110156100d9576000818152602081905260409020546100c590806101be565b6100cf90836101a5565b9150600101610097565b5090565b600060015460025460016100f191906101a5565b6100fb91906101d5565b905090565b60016002600082825461011391906101a5565b9091555050600254600090815260208190526040902055565b600080600154600254101561014057600080fd5b506001805460009081526020819052604081208054908290558254909291829161016b9083906101a5565b909155509092915050565b60006020828403121561018857600080fd5b5035919050565b634e487b7160e01b600052601160045260246000fd5b808201808211156101b8576101b861018f565b92915050565b80820281158282048414176101b8576101b861018f565b818103818111156101b8576101b861018f56fea2646970667358221220ba2f82ddccad524b0a8065750c411370679db7b8061eec9659450c70c0ece14e64736f6c63430008190033a26469706673582212200ecbbb677869684234daf3487ea8cd8823ab421d46e1d52984a8880ab1ec548564736f6c63430008190033","linkReferences":{}},"methodIdentifiers":{"accountNames(uint256)":"da62458a","askQuestion(string,uint256,uint256,uint256)":"6de94083","calculate_credit(address)":"ab10d998","getCredit(address)":"57344e6f","getQuestionContent(uint256)":"c709695a","getQuestionExpirationTime(uint256)":"307f37e6","getQuestionReward(uint256)":"ccad2306","hasRegistered(address)":"a0d03526","isExpired(uint256)":"d9548e53","owner()":"8da5cb5b","questionCount()":"1468aa2c","questionMap(uint256)":"f061b5b1","questions(uint256)":"31b1b978","registerUser(string)":"704f1b94","rewardRecordsMap(address)":"13fc8c34","sqrt(uint256)":"677342ce","userAddrMap(address)":"e34d6805","userCount()":"07973ccf","users(uint256)":"365b98b2"},"id":25}