{"abi":[{"type":"receive","stateMutability":"payable"},{"type":"function","name":"accountNames","inputs":[{"name":"","type":"uint256","internalType":"uint256"}],"outputs":[{"name":"","type":"string","internalType":"string"}],"stateMutability":"view"},{"type":"function","name":"answerCount","inputs":[],"outputs":[{"name":"","type":"uint256","internalType":"uint256"}],"stateMutability":"view"},{"type":"function","name":"answerMap","inputs":[{"name":"","type":"uint256","internalType":"uint256"}],"outputs":[{"name":"answerer","type":"address","internalType":"address"},{"name":"answer_id","type":"uint256","internalType":"uint256"},{"name":"question_id","type":"uint256","internalType":"uint256"},{"name":"content","type":"string","internalType":"string"},{"name":"isSelected","type":"bool","internalType":"bool"}],"stateMutability":"view"},{"type":"function","name":"askQuestion","inputs":[{"name":"_content","type":"string","internalType":"string"},{"name":"_day","type":"uint256","internalType":"uint256"},{"name":"_hour","type":"uint256","internalType":"uint256"},{"name":"_min","type":"uint256","internalType":"uint256"}],"outputs":[{"name":"","type":"uint256","internalType":"uint256"}],"stateMutability":"payable"},{"type":"function","name":"calculate_credit","inputs":[{"name":"userAddress","type":"address","internalType":"address"}],"outputs":[{"name":"","type":"uint256","internalType":"uint256"}],"stateMutability":"nonpayable"},{"type":"function","name":"cancelSelection","inputs":[{"name":"q_id","type":"uint256","internalType":"uint256"}],"outputs":[],"stateMutability":"nonpayable"},{"type":"function","name":"closeQuestion","inputs":[{"name":"q_id","type":"uint256","internalType":"uint256"}],"outputs":[],"stateMutability":"nonpayable"},{"type":"function","name":"endorse","inputs":[{"name":"answer_id","type":"uint256","internalType":"uint256"},{"name":"question_id","type":"uint256","internalType":"uint256"}],"outputs":[],"stateMutability":"nonpayable"},{"type":"function","name":"getCredit","inputs":[{"name":"userAddress","type":"address","internalType":"address"}],"outputs":[{"name":"","type":"uint256","internalType":"uint256"}],"stateMutability":"view"},{"type":"function","name":"getMyCredit","inputs":[],"outputs":[{"name":"","type":"uint256","internalType":"uint256"}],"stateMutability":"view"},{"type":"function","name":"hasRegistered","inputs":[{"name":"","type":"address","internalType":"address"}],"outputs":[{"name":"","type":"bool","internalType":"bool"}],"stateMutability":"view"},{"type":"function","name":"isExpired","inputs":[{"name":"q_id","type":"uint256","internalType":"uint256"}],"outputs":[{"name":"","type":"bool","internalType":"bool"}],"stateMutability":"nonpayable"},{"type":"function","name":"owner","inputs":[],"outputs":[{"name":"","type":"address","internalType":"address"}],"stateMutability":"view"},{"type":"function","name":"postAnswer","inputs":[{"name":"question_id","type":"uint256","internalType":"uint256"},{"name":"content","type":"string","internalType":"string"}],"outputs":[{"name":"","type":"uint256","internalType":"uint256"}],"stateMutability":"nonpayable"},{"type":"function","name":"questionCount","inputs":[],"outputs":[{"name":"","type":"uint256","internalType":"uint256"}],"stateMutability":"view"},{"type":"function","name":"questionMap","inputs":[{"name":"","type":"uint256","internalType":"uint256"}],"outputs":[{"name":"asker","type":"address","internalType":"address"},{"name":"content","type":"string","internalType":"string"},{"name":"reward","type":"uint256","internalType":"uint256"},{"name":"expiration_time","type":"uint256","internalType":"uint256"},{"name":"question_id","type":"uint256","internalType":"uint256"},{"name":"selected","type":"bool","internalType":"bool"},{"name":"closed","type":"bool","internalType":"bool"},{"name":"distributed","type":"bool","internalType":"bool"}],"stateMutability":"view"},{"type":"function","name":"questions","inputs":[{"name":"","type":"uint256","internalType":"uint256"}],"outputs":[{"name":"asker","type":"address","internalType":"address"},{"name":"content","type":"string","internalType":"string"},{"name":"reward","type":"uint256","internalType":"uint256"},{"name":"expiration_time","type":"uint256","internalType":"uint256"},{"name":"question_id","type":"uint256","internalType":"uint256"},{"name":"selected","type":"bool","internalType":"bool"},{"name":"closed","type":"bool","internalType":"bool"},{"name":"distributed","type":"bool","internalType":"bool"}],"stateMutability":"view"},{"type":"function","name":"registerUser","inputs":[{"name":"_username","type":"string","internalType":"string"}],"outputs":[],"stateMutability":"nonpayable"},{"type":"function","name":"rewardRecordsMap","inputs":[{"name":"","type":"address","internalType":"address"}],"outputs":[{"name":"","type":"address","internalType":"contract Queue"}],"stateMutability":"view"},{"type":"function","name":"selectAnswer","inputs":[{"name":"q_id","type":"uint256","internalType":"uint256"},{"name":"a_id","type":"uint256","internalType":"uint256"}],"outputs":[],"stateMutability":"nonpayable"},{"type":"function","name":"sqrt","inputs":[{"name":"x","type":"uint256","internalType":"uint256"}],"outputs":[{"name":"y","type":"uint256","internalType":"uint256"}],"stateMutability":"pure"},{"type":"function","name":"userAddrMap","inputs":[{"name":"","type":"address","internalType":"address"}],"outputs":[{"name":"user_name","type":"string","internalType":"string"},{"name":"user_address","type":"address","internalType":"address"},{"name":"credit","type":"uint256","internalType":"uint256"}],"stateMutability":"view"},{"type":"function","name":"userCount","inputs":[],"outputs":[{"name":"","type":"uint256","internalType":"uint256"}],"stateMutability":"view"},{"type":"function","name":"users","inputs":[{"name":"","type":"uint256","internalType":"uint256"}],"outputs":[{"name":"user_name","type":"string","internalType":"string"},{"name":"user_address","type":"address","internalType":"address"},{"name":"credit","type":"uint256","internalType":"uint256"}],"stateMutability":"view"},{"type":"event","name":"AnswerCreated","inputs":[{"name":"q_id","type":"uint256","indexed":false,"internalType":"uint256"},{"name":"a_id","type":"uint256","indexed":false,"internalType":"uint256"},{"name":"content","type":"string","indexed":false,"internalType":"string"},{"name":"reward","type":"uint256","indexed":false,"internalType":"uint256"}],"anonymous":false},{"type":"event","name":"AnswerSelected","inputs":[{"name":"q_id","type":"uint256","indexed":false,"internalType":"uint256"},{"name":"a_id","type":"uint256","indexed":false,"internalType":"uint256"}],"anonymous":false},{"type":"event","name":"CancelSelection","inputs":[{"name":"q_id","type":"uint256","indexed":false,"internalType":"uint256"}],"anonymous":false},{"type":"event","name":"Endorse","inputs":[{"name":"a_id","type":"uint256","indexed":false,"internalType":"uint256"},{"name":"endorser","type":"address","indexed":false,"internalType":"address"},{"name":"q_id","type":"uint256","indexed":false,"internalType":"uint256"}],"anonymous":false},{"type":"event","name":"QuestionClosed","inputs":[{"name":"q_id","type":"uint256","indexed":false,"internalType":"uint256"}],"anonymous":false},{"type":"event","name":"QuestionCreated","inputs":[{"name":"asker","type":"address","indexed":false,"internalType":"address"},{"name":"content","type":"string","indexed":false,"internalType":"string"},{"name":"reward","type":"uint256","indexed":false,"internalType":"uint256"},{"name":"expiration_time","type":"uint256","indexed":false,"internalType":"uint256"},{"name":"question_id","type":"uint256","indexed":false,"internalType":"uint256"},{"name":"closed","type":"bool","indexed":false,"internalType":"bool"},{"name":"answer_ids","type":"uint256[]","indexed":false,"internalType":"uint256[]"}],"anonymous":false},{"type":"event","name":"UserCreditUpdate","inputs":[{"name":"user_addr","type":"address","indexed":false,"internalType":"address"},{"name":"prev_credit","type":"uint256","indexed":false,"internalType":"uint256"},{"name":"new_credit","type":"uint256","indexed":false,"internalType":"uint256"}],"anonymous":false},{"type":"event","name":"UserRegistered","inputs":[{"name":"username","type":"string","indexed":false,"internalType":"string"},{"name":"userAddress","type":"address","indexed":false,"internalType":"address"},{"name":"default_credit","type":"uint256","indexed":false,"internalType":"uint256"}],"anonymous":false}],"bytecode":{"object":"0x6080604052600060065560006009556000600b55348015601e57600080fd5b50600080546001600160a01b03191633179055612deb806100406000396000f3fe60806040526004361061014f5760003560e01c80636de94083116100b6578063c27828451161006f578063c278284514610415578063c921d66c14610435578063d9548e5314610455578063da62458a14610475578063e34d6805146104a2578063f061b5b1146104c257600080fd5b80636de9408314610342578063704f1b94146103555780638da5cb5b14610375578063a0d0352614610395578063ab10d998146103d5578063c09f32e8146103f557600080fd5b8063365b98b211610108578063365b98b2146102545780633d9c4893146102835780633ead0e96146102a357806341759a14146102b857806357344e6f146102e9578063677342ce1461032257600080fd5b806307973ccf1461015b5780630bed05021461018457806313fc8c341461019a5780631468aa2c146101e85780631ea5a292146101fe57806331b1b9781461022057600080fd5b3661015657005b600080fd5b34801561016757600080fd5b5061017160065481565b6040519081526020015b60405180910390f35b34801561019057600080fd5b50610171600b5481565b3480156101a657600080fd5b506101d06101b53660046124d6565b6005602052600090815260409020546001600160a01b031681565b6040516001600160a01b03909116815260200161017b565b3480156101f457600080fd5b5061017160095481565b34801561020a57600080fd5b5061021e6102193660046124ff565b6104e2565b005b34801561022c57600080fd5b5061024061023b366004612521565b6108c7565b60405161017b989796959493929190612580565b34801561026057600080fd5b5061027461026f366004612521565b6109b8565b60405161017b939291906125dc565b34801561028f57600080fd5b5061021e61029e3660046124ff565b610a84565b3480156102af57600080fd5b50610171610d9c565b3480156102c457600080fd5b506102d86102d3366004612521565b610e20565b60405161017b95949392919061260a565b3480156102f557600080fd5b506101716103043660046124d6565b6001600160a01b031660009081526003602052604090206002015490565b34801561032e57600080fd5b5061017161033d366004612521565b610ee6565b6101716103503660046126ee565b610f3f565b34801561036157600080fd5b5061021e610370366004612742565b6113f4565b34801561038157600080fd5b506000546101d0906001600160a01b031681565b3480156103a157600080fd5b506103c56103b03660046124d6565b60046020526000908152604090205460ff1681565b604051901515815260200161017b565b3480156103e157600080fd5b506101716103f03660046124d6565b6117b7565b34801561040157600080fd5b5061021e610410366004612521565b6118d6565b34801561042157600080fd5b5061021e610430366004612521565b611a60565b34801561044157600080fd5b5061017161045036600461277f565b611d83565b34801561046157600080fd5b506103c5610470366004612521565b61214a565b34801561048157600080fd5b50610495610490366004612521565b612321565b60405161017b91906127c6565b3480156104ae57600080fd5b506102746104bd3660046124d6565b6123cd565b3480156104ce57600080fd5b506102406104dd366004612521565b6123e8565b6104eb8161214a565b156105375760405162461bcd60e51b8152602060048201526017602482015276151a1a5cc81c5d595cdd1a5bdb881a5cc818db1bdcd959604a1b60448201526064015b60405180910390fd5b3360009081526004602052604090205460ff166105aa5760405162461bcd60e51b815260206004820152602b60248201527f55736572206d757374206265207265676973746572656420746f20616464206560448201526a6e646f7273656d656e747360a81b606482015260840161052e565b6000818152600760205260409020600601546106085760405162461bcd60e51b815260206004820152601d60248201527f5468657265206973206e6f20616e7377657220746f20656e646f727365000000604482015260640161052e565b6000828152600a6020526040902054336001600160a01b039091160361067b5760405162461bcd60e51b815260206004820152602260248201527f596f752063616e6e6f7420656e646f72736520796f7572206f776e20616e737760448201526132b960f11b606482015260840161052e565b600b548211156106cd5760405162461bcd60e51b815260206004820152601e60248201527f54686520696e70757420616e7377657220696420697320696e76616c69640000604482015260640161052e565b6000828152600a602052604090206002015481146107405760405162461bcd60e51b815260206004820152602a60248201527f54686520616e7377657220646f6573206e6f742062656c6f6e6720746f207468604482015269329038bab2b9ba34b7b760b11b606482015260840161052e565b6000828152600a60209081526040808320600501805482518185028101850190935280835291929091908301828280156107a357602002820191906000526020600020905b81546001600160a01b03168152600190910190602001808311610785575b505050505090506000805b82518110156107f657336001600160a01b03168382815181106107d3576107d36127d9565b60200260200101516001600160a01b0316036107ee57600191505b6001016107ae565b5080156108515760405162461bcd60e51b815260206004820152602360248201527f557365722063616e6e6f7420656e646f72736520616e20616e7377657220747760448201526269636560e81b606482015260840161052e565b604080518581523360208201529081018490527f266365a2aceb5ff9d23a2e846eb7b7339cd874d164131d977f6946cb1d0dfcf19060600160405180910390a15050506000908152600a602090815260408220600501805460018101825590835291200180546001600160a01b03191633179055565b600881815481106108d757600080fd5b6000918252602090912060079091020180546001820180546001600160a01b03909216935090610906906127ef565b80601f0160208091040260200160405190810160405280929190818152602001828054610932906127ef565b801561097f5780601f106109545761010080835404028352916020019161097f565b820191906000526020600020905b81548152906001019060200180831161096257829003601f168201915b505050506002830154600384015460048501546005909501549394919390925060ff808216916101008104821691620100009091041688565b600181815481106109c857600080fd5b90600052602060002090600302016000915090508060000180546109eb906127ef565b80601f0160208091040260200160405190810160405280929190818152602001828054610a17906127ef565b8015610a645780601f10610a3957610100808354040283529160200191610a64565b820191906000526020600020905b815481529060010190602001808311610a4757829003601f168201915b50505050600183015460029093015491926001600160a01b031691905083565b610a8d8261214a565b15610aaa5760405162461bcd60e51b815260040161052e90612823565b3360009081526004602052604090205460ff16610b1d5760405162461bcd60e51b815260206004820152602b60248201527f55736572206d757374206265207265676973746572656420746f2073656c656360448201526a3a1030b71030b739bbb2b960a91b606482015260840161052e565b6000828152600760205260409020546001600160a01b03163314610b955760405162461bcd60e51b815260206004820152602960248201527f4f6e6c79207468652061736b65722063616e2073656c6563742074686520626560448201526839ba1030b739bbb2b960b91b606482015260840161052e565b6000818152600a60205260409020600201548214610c095760405162461bcd60e51b815260206004820152602b60248201527f54686520616e7377657220646f6573206e6f742062656c6f6e6720746f20746860448201526a34b99038bab2b9ba34b7b760a91b606482015260840161052e565b600082815260076020908152604080832060060180548251818502810185019093528083529192909190830182828015610c6257602002820191906000526020600020905b815481526020019060010190808311610c4e575b505050600086815260076020526040902060050154929350505060ff1615610d275760005b8151811015610d2557600a6000838381518110610ca657610ca66127d9565b60209081029190910181015182528101919091526040016000206004015460ff161515600103610d1d576000600a6000848481518110610ce857610ce86127d9565b6020026020010151815260200190815260200160002060040160006101000a81548160ff021916908315150217905550610d25565b600101610c87565b505b60008381526007602090815260408083206005018054600160ff199182168117909255868552600a84529382902060040180549094161790925581518581529081018490527fcce2e26b4c2c9bdecbd753012d7f595a50f3fe6263dc2090e6432f7cc9c5b8bc910160405180910390a1505050565b3360009081526004602052604081205460ff16610e095760405162461bcd60e51b815260206004820152602560248201527f55736572206d757374206265207265676973746572656420746f2067657420636044820152641c99591a5d60da1b606482015260840161052e565b503360009081526003602052604090206002015490565b600a6020526000908152604090208054600182015460028301546003840180546001600160a01b03909416949293919291610e5a906127ef565b80601f0160208091040260200160405190810160405280929190818152602001828054610e86906127ef565b8015610ed35780601f10610ea857610100808354040283529160200191610ed3565b820191906000526020600020905b815481529060010190602001808311610eb657829003601f168201915b5050506004909301549192505060ff1685565b6000806002610ef684600161287d565b610f009190612890565b90508291505b81811015610f3957905080600281610f1e8186612890565b610f28919061287d565b610f329190612890565b9050610f06565b50919050565b3360009081526004602052604081205460ff16610f945760405162461bcd60e51b8152602060048201526013602482015272155cd95c881b9bdd081c9959da5cdd195c9959606a1b604482015260640161052e565b600034118015610fb65750336000908152600360205260409020600201543411155b6110285760405162461bcd60e51b815260206004820152603860248201527f526577617264206d7573742062652067726561746572207468616e203020616e60448201527f64206c657373207468616e20637265646974206c696d69740000000000000000606482015260840161052e565b60008551116110795760405162461bcd60e51b815260206004820152601960248201527f5175657374696f6e20636f6e74656e7420697320656d70747900000000000000604482015260640161052e565b600061108683603c6128b2565b61109285610e106128b2565b61109f87620151806128b2565b6110a9919061287d565b6110b3919061287d565b90506201518081101580156110cb575062093a808111155b61113d5760405162461bcd60e51b815260206004820152603f60248201527f45787069726174696f6e2074696d65206d75737420626520677265617465722060448201527f7468616e20312064617920616e64206c657373207468616e2037206461797300606482015260840161052e565b600060096000815461114e906128c9565b91905081905590506000604051806101200160405280336001600160a01b03168152602001898152602001348152602001844261118b919061287d565b81526020808201859052600060408084018290526060840182905260808401829052805182815280840190915260a09093019290925260088054600181018255925282517ff3f7a9fe364faab93b216da50a3214154f22a0a2b415b23a84c8169e8b636ee3600790930292830180546001600160a01b0319166001600160a01b0390921691909117815590830151929350839290917ff3f7a9fe364faab93b216da50a3214154f22a0a2b415b23a84c8169e8b636ee4019061124d9082612933565b5060408201516002820155606082015160038201556080820151600482015560a082015160058201805460c085015160e086015161ffff1990921693151561ff0019169390931761010093151584021762ff00001916620100009115159190910217905582015180516112ca916006840191602090910190612414565b5050506000828152600760209081526040909120825181546001600160a01b0319166001600160a01b039091161781559082015182919060018201906113109082612933565b5060408201516002820155606082015160038201556080820151600482015560a082015160058201805460c085015160e086015161ffff1990921693151561ff0019169390931761010093151584021762ff000019166201000091151591909102179055820151805161138d916006840191602090910190612414565b507f84b861809ad6a7273eb286675afe4848e1772d87876e38ff1870adfc5ebbcbb1915033905089346113c0874261287d565b60408051600080825260208201928390526113e196959493928a92906129f3565b60405180910390a1509695505050505050565b3360008181526004602052604090205460ff16156114545760405162461bcd60e51b815260206004820152601a60248201527f5468652061646472657373207761732072656769737465726564000000000000604482015260640161052e565b81600160005b6006548110156114b75782805190602001206001828154811061147f5761147f6127d9565b906000526020600020906003020160000160405161149d9190612a7b565b6040518091039020036114af57600091505b60010161145a565b50806114fa5760405162461bcd60e51b81526020600482015260126024820152716475706c696361746520757365726e616d6560701b604482015260640161052e565b600084511161154b5760405162461bcd60e51b815260206004820152601860248201527f557365726e616d652063616e6e6f7420626520656d7074790000000000000000604482015260640161052e565b60408051606081018252858152336020820152662386f26fc1000091810191909152600180548082018255600091909152815182916003027fb10e2d527612073b26eecdfd717e6a320cf44b4afac2b0732d9fcbe2b7fa0cf6019081906115b29082612933565b506020828101516001830180546001600160a01b0319166001600160a01b03909216919091179055604092830151600290920191909155336000908152600390915220815182919081906116069082612933565b506020820151600182810180546001600160a01b0319166001600160a01b0390931692909217909155604090920151600291820155805491820181556000527f405787fa12a823e0f2b7631cc41b3ba8828b3321ca811111fa75cd3aa3bb5ace016116718682612933565b50336000908152600460205260408120805460ff19166001179055600680549161169a836128c9565b919050555060006040516116ad9061245f565b604051809103906000f0801580156116c9573d6000803e3d6000fd5b50905060005b600581101561174457604051631ffc735d60e01b8152660fe170fa25600060048201526001600160a01b03831690631ffc735d90602401600060405180830381600087803b15801561172057600080fd5b505af1158015611734573d6000803e3d6000fd5b5050600190920191506116cf9050565b50336000818152600560205260409081902080546001600160a01b0319166001600160a01b038516179055517fda4b066842833e7ab38c0f7ba442824b5eda00740d68ef015889812a792fc3ec916117a791899190662386f26fc10000906125dc565b60405180910390a1505050505050565b6001600160a01b038082166000908152600560209081526040808320548151630130ca2b60e01b8152915193948594911692630130ca2b92600480820193918290030181865afa15801561180f573d6000803e3d6000fd5b505050506040513d601f19601f820116820180604052508101906118339190612af1565b6001600160a01b0384166000908152600360205260409020600201549091507f085f11378a0c42687437148f7b62421b8e6f48c3a41b0e416dc85078bcc0bcd390849061187f84610ee6565b604080516001600160a01b03909416845260208401929092529082015260600160405180910390a16118b081610ee6565b6001600160a01b0390931660009081526003602052604090206002018390555090919050565b3360009081526004602052604090205460ff166119495760405162461bcd60e51b815260206004820152602b60248201527f55736572206d757374206265207265676973746572656420746f20636c6f736560448201526a10309038bab2b9ba34b7b760a91b606482015260840161052e565b6000818152600760205260409020546001600160a01b031633146119bd5760405162461bcd60e51b815260206004820152602560248201527f4f6e6c79207468652061736b65722063616e20636c6f7365207468652071756560448201526439ba34b7b760d91b606482015260840161052e565b6119c68161214a565b156119e35760405162461bcd60e51b815260040161052e90612823565b600954811115611a055760405162461bcd60e51b815260040161052e90612b0a565b60008181526007602052604090819020600501805461ff001916610100179055517f3c8f450bdfccd4e29a4d8e9602688d5e009772a7de7c40c7f27b8f8c129f01fa90611a559083815260200190565b60405180910390a150565b3360009081526004602052604090205460ff16611ae55760405162461bcd60e51b815260206004820152603c60248201527f55736572206d757374206265207265676973746572656420746f2063616e636560448201527f6c207468652073656c656374696f6e206f6620616e20616e7377657200000000606482015260840161052e565b6000818152600760205260409020546001600160a01b03163314611b715760405162461bcd60e51b815260206004820152603a60248201527f4f6e6c79207468652061736b65722063616e2063616e63656c2074686520736560448201527f6c656374696f6e206f6620746865206265737420616e73776572000000000000606482015260840161052e565b611b7a8161214a565b15611b975760405162461bcd60e51b815260040161052e90612823565b60008181526007602052604090206005015460ff16611c0e5760405162461bcd60e51b815260206004820152602d60248201527f4e6f20616e7377657220666f722074686973207175657374696f6e206861732060448201526c1899595b881cd95b1958dd1959609a1b606482015260840161052e565b600081815260076020908152604080832060060180548251818502810185019093528083529192909190830182828015611c6757602002820191906000526020600020905b815481526020019060010190808311611c53575b505050600085815260076020526040902060050154929350505060ff1615611d2c5760005b8151811015611d2a57600a6000838381518110611cab57611cab6127d9565b60209081029190910181015182528101919091526040016000206004015460ff161515600103611d22576000600a6000848481518110611ced57611ced6127d9565b6020026020010151815260200190815260200160002060040160006101000a81548160ff021916908315150217905550611d2a565b600101611c8c565b505b60008281526007602052604090819020600501805460ff19169055517f53088c7bbf224d7afa175aa1fbda4d494a5008e230beebc8d16b45c8415e964590611d779084815260200190565b60405180910390a15050565b6000611d8e8361214a565b15611dd55760405162461bcd60e51b8152602060048201526017602482015276151a1a5cc81c5d595cdd1a5bdb881a5cc818db1bdcd959604a1b604482015260640161052e565b3360009081526004602052604090205460ff16611e495760405162461bcd60e51b815260206004820152602c60248201527f55736572206d757374206265207265676973746572656420746f20616e73776560448201526b3910309038bab2b9ba34b7b760a11b606482015260840161052e565b6000825111611e9a5760405162461bcd60e51b815260206004820152601e60248201527f416e7377657220636f6e74656e742063616e6e6f7420626520656d7074790000604482015260640161052e565b600083815260076020526040902054336001600160a01b0390911603611f0e5760405162461bcd60e51b8152602060048201526024808201527f596f752063616e6e6f7420616e7377657220796f7572206f776e207175657374604482015263696f6e2160e01b606482015260840161052e565b600954831115611f305760405162461bcd60e51b815260040161052e90612b0a565b60005b60008481526007602052604090206006015481101561200257600084815260076020526040812060060180543392600a92909185908110611f7657611f766127d9565b600091825260208083209091015483528201929092526040019020546001600160a01b031603611ffa5760405162461bcd60e51b815260206004820152602960248201527f596f752063616e6e6f7420616e73776572207468652073616d65207175657374604482015268696f6e20747769636560b81b606482015260840161052e565b600101611f33565b5060606000600b60008154612016906128c9565b91829055506040805160c08101825233815260208082018481528284018a8152606084018a815260006080860181905260a086018a9052878152600a90945294909220835181546001600160a01b0319166001600160a01b039091161781559051600182015590516002820155915192935091829190600382019061209b9082612933565b50608082015160048201805460ff191691151591909117905560a082015180516120cf91600584019160209091019061246c565b5050506000868152600760209081526040808320600681018054600181018255908552928420909201859055918890526002015490517f6664f2452a9c851a9ecdf8e98ff206e97b1ab656fddb6f741e06c4d085ed2b139161213791899186918a9190612b3f565b60405180910390a1509150505b92915050565b600060095482111561216e5760405162461bcd60e51b815260040161052e90612b0a565b60008281526007602090815260408083208151610120810190925280546001600160a01b0316825260018101805492939192918401916121ad906127ef565b80601f01602080910402602001604051908101604052809291908181526020018280546121d9906127ef565b80156122265780601f106121fb57610100808354040283529160200191612226565b820191906000526020600020905b81548152906001019060200180831161220957829003601f168201915b50505091835250506002820154602080830191909152600383015460408084019190915260048401546060840152600584015460ff8082161515608086015261010082048116151560a08601526201000090910416151560c084015260068401805482518185028101850190935280835260e09094019391929091908301828280156122d157602002820191906000526020600020905b8154815260200190600101908083116122bd575b50505050508152505090508060600151421115612307576000838152600760205260409020600501805461ff0019166101001790555b806060015142118061231a57508060c001515b9392505050565b6002818154811061233157600080fd5b90600052602060002001600091509050805461234c906127ef565b80601f0160208091040260200160405190810160405280929190818152602001828054612378906127ef565b80156123c55780601f1061239a576101008083540402835291602001916123c5565b820191906000526020600020905b8154815290600101906020018083116123a857829003601f168201915b505050505081565b6003602052600090815260409020805481906109eb906127ef565b600760205260009081526040902080546001820180546001600160a01b039092169291610906906127ef565b82805482825590600052602060002090810192821561244f579160200282015b8281111561244f578251825591602001919060010190612434565b5061245b9291506124c1565b5090565b61024680612b7083390190565b82805482825590600052602060002090810192821561244f579160200282015b8281111561244f57825182546001600160a01b0319166001600160a01b0390911617825560209092019160019091019061248c565b5b8082111561245b57600081556001016124c2565b6000602082840312156124e857600080fd5b81356001600160a01b038116811461231a57600080fd5b6000806040838503121561251257600080fd5b50508035926020909101359150565b60006020828403121561253357600080fd5b5035919050565b6000815180845260005b8181101561256057602081850181015186830182015201612544565b506000602082860101526020601f19601f83011685010191505092915050565b6001600160a01b0389168152610100602082018190526000906125a58382018b61253a565b604084019990995250506060810195909552608085019390935290151560a0840152151560c0830152151560e09091015292915050565b6060815260006125ef606083018661253a565b6001600160a01b039490941660208301525060400152919050565b60018060a01b038616815284602082015283604082015260a06060820152600061263760a083018561253a565b905082151560808301529695505050505050565b634e487b7160e01b600052604160045260246000fd5b600082601f83011261267257600080fd5b813567ffffffffffffffff8082111561268d5761268d61264b565b604051601f8301601f19908116603f011681019082821181831017156126b5576126b561264b565b816040528381528660208588010111156126ce57600080fd5b836020870160208301376000602085830101528094505050505092915050565b6000806000806080858703121561270457600080fd5b843567ffffffffffffffff81111561271b57600080fd5b61272787828801612661565b97602087013597506040870135966060013595509350505050565b60006020828403121561275457600080fd5b813567ffffffffffffffff81111561276b57600080fd5b61277784828501612661565b949350505050565b6000806040838503121561279257600080fd5b82359150602083013567ffffffffffffffff8111156127b057600080fd5b6127bc85828601612661565b9150509250929050565b60208152600061231a602083018461253a565b634e487b7160e01b600052603260045260246000fd5b600181811c9082168061280357607f821691505b602082108103610f3957634e487b7160e01b600052602260045260246000fd5b60208082526024908201527f546865207175657374696f6e2068617320616c7265616479206265656e20636c6040820152631bdcd95960e21b606082015260800190565b634e487b7160e01b600052601160045260246000fd5b8082018082111561214457612144612867565b6000826128ad57634e487b7160e01b600052601260045260246000fd5b500490565b808202811582820484141761214457612144612867565b6000600182016128db576128db612867565b5060010190565b601f82111561292e576000816000526020600020601f850160051c8101602086101561290b5750805b601f850160051c820191505b8181101561292a57828155600101612917565b5050505b505050565b815167ffffffffffffffff81111561294d5761294d61264b565b6129618161295b84546127ef565b846128e2565b602080601f831160018114612996576000841561297e5750858301515b600019600386901b1c1916600185901b17855561292a565b600085815260208120601f198616915b828110156129c5578886015182559484019460019091019084016129a6565b50858210156129e35787850151600019600388901b60f8161c191681555b5050505050600190811b01905550565b6001600160a01b038816815260e06020808301829052600091612a189084018a61253a565b60408401899052606084018890526080840187905285151560a085015283810360c08501528451808252602080870192019060005b81811015612a6957835183529284019291840191600101612a4d565b50909c9b505050505050505050505050565b6000808354612a89816127ef565b60018281168015612aa15760018114612ab657612ae5565b60ff1984168752821515830287019450612ae5565b8760005260208060002060005b85811015612adc5781548a820152908401908201612ac3565b50505082870194505b50929695505050505050565b600060208284031215612b0357600080fd5b5051919050565b6020808252818101527f54686520696e707574207175657374696f6e20696420697320696e76616c6964604082015260600190565b848152836020820152608060408201526000612b5e608083018561253a565b90508260608301529594505050505056fe6080604052600180556000600255348015601857600080fd5b5061021e806100286000396000f3fe608060405234801561001057600080fd5b506004361061004c5760003560e01c80630130ca2b146100515780631f7b6d321461006b5780631ffc735d14610073578063957908d114610088575b600080fd5b610059610090565b60405190815260200160405180910390f35b6100596100dd565b610086610081366004610176565b610100565b005b61005961012c565b6001546000905b6002546100a59060016101a5565b8110156100d9576000818152602081905260409020546100c590806101be565b6100cf90836101a5565b9150600101610097565b5090565b600060015460025460016100f191906101a5565b6100fb91906101d5565b905090565b60016002600082825461011391906101a5565b9091555050600254600090815260208190526040902055565b600080600154600254101561014057600080fd5b506001805460009081526020819052604081208054908290558254909291829161016b9083906101a5565b909155509092915050565b60006020828403121561018857600080fd5b5035919050565b634e487b7160e01b600052601160045260246000fd5b808201808211156101b8576101b861018f565b92915050565b80820281158282048414176101b8576101b861018f565b818103818111156101b8576101b861018f56fea2646970667358221220ba2f82ddccad524b0a8065750c411370679db7b8061eec9659450c70c0ece14e64736f6c63430008190033a26469706673582212203820374aec5af2ef94689e1eb6403082b7fc27accdeb82c723bc5390718d39e164736f6c63430008190033","linkReferences":{}},"methodIdentifiers":{"accountNames(uint256)":"da62458a","answerCount()":"0bed0502","answerMap(uint256)":"41759a14","askQuestion(string,uint256,uint256,uint256)":"6de94083","calculate_credit(address)":"ab10d998","cancelSelection(uint256)":"c2782845","closeQuestion(uint256)":"c09f32e8","endorse(uint256,uint256)":"1ea5a292","getCredit(address)":"57344e6f","getMyCredit()":"3ead0e96","hasRegistered(address)":"a0d03526","isExpired(uint256)":"d9548e53","owner()":"8da5cb5b","postAnswer(uint256,string)":"c921d66c","questionCount()":"1468aa2c","questionMap(uint256)":"f061b5b1","questions(uint256)":"31b1b978","registerUser(string)":"704f1b94","rewardRecordsMap(address)":"13fc8c34","selectAnswer(uint256,uint256)":"3d9c4893","sqrt(uint256)":"677342ce","userAddrMap(address)":"e34d6805","userCount()":"07973ccf","users(uint256)":"365b98b2"},"id":23}