{"abi":[{"type":"receive","stateMutability":"payable"},{"type":"function","name":"accountNames","inputs":[{"name":"","type":"uint256","internalType":"uint256"}],"outputs":[{"name":"","type":"string","internalType":"string"}],"stateMutability":"view"},{"type":"function","name":"answerCount","inputs":[],"outputs":[{"name":"","type":"uint256","internalType":"uint256"}],"stateMutability":"view"},{"type":"function","name":"answerMap","inputs":[{"name":"","type":"uint256","internalType":"uint256"}],"outputs":[{"name":"answerer","type":"address","internalType":"address"},{"name":"answer_id","type":"uint256","internalType":"uint256"},{"name":"question_id","type":"uint256","internalType":"uint256"},{"name":"content","type":"string","internalType":"string"},{"name":"isSelected","type":"bool","internalType":"bool"}],"stateMutability":"view"},{"type":"function","name":"askQuestion","inputs":[{"name":"_content","type":"string","internalType":"string"},{"name":"_day","type":"uint256","internalType":"uint256"},{"name":"_hour","type":"uint256","internalType":"uint256"},{"name":"_min","type":"uint256","internalType":"uint256"}],"outputs":[{"name":"","type":"uint256","internalType":"uint256"}],"stateMutability":"payable"},{"type":"function","name":"calculate_credit","inputs":[{"name":"userAddress","type":"address","internalType":"address"}],"outputs":[{"name":"","type":"uint256","internalType":"uint256"}],"stateMutability":"nonpayable"},{"type":"function","name":"cancelSelection","inputs":[{"name":"q_id","type":"uint256","internalType":"uint256"}],"outputs":[],"stateMutability":"nonpayable"},{"type":"function","name":"endorse","inputs":[{"name":"answer_id","type":"uint256","internalType":"uint256"},{"name":"question_id","type":"uint256","internalType":"uint256"}],"outputs":[],"stateMutability":"nonpayable"},{"type":"function","name":"getAnswerContent","inputs":[{"name":"a_id","type":"uint256","internalType":"uint256"}],"outputs":[{"name":"","type":"string","internalType":"string"}],"stateMutability":"view"},{"type":"function","name":"getAnswerID","inputs":[{"name":"q_id","type":"uint256","internalType":"uint256"}],"outputs":[{"name":"","type":"uint256[]","internalType":"uint256[]"}],"stateMutability":"view"},{"type":"function","name":"getCredit","inputs":[{"name":"userAddress","type":"address","internalType":"address"}],"outputs":[{"name":"","type":"uint256","internalType":"uint256"}],"stateMutability":"view"},{"type":"function","name":"getNumberOfEndorsements","inputs":[{"name":"a_id","type":"uint256","internalType":"uint256"}],"outputs":[{"name":"","type":"uint256","internalType":"uint256"}],"stateMutability":"view"},{"type":"function","name":"getQuestionContent","inputs":[{"name":"q_id","type":"uint256","internalType":"uint256"}],"outputs":[{"name":"","type":"string","internalType":"string"}],"stateMutability":"view"},{"type":"function","name":"getQuestionCurrentID","inputs":[],"outputs":[{"name":"","type":"uint256","internalType":"uint256"}],"stateMutability":"view"},{"type":"function","name":"getQuestionExpirationTime","inputs":[{"name":"q_id","type":"uint256","internalType":"uint256"}],"outputs":[{"name":"","type":"uint256","internalType":"uint256"}],"stateMutability":"view"},{"type":"function","name":"getQuestionReward","inputs":[{"name":"q_id","type":"uint256","internalType":"uint256"}],"outputs":[{"name":"","type":"uint256","internalType":"uint256"}],"stateMutability":"view"},{"type":"function","name":"hasRegistered","inputs":[{"name":"","type":"address","internalType":"address"}],"outputs":[{"name":"","type":"bool","internalType":"bool"}],"stateMutability":"view"},{"type":"function","name":"isExpired","inputs":[{"name":"q_id","type":"uint256","internalType":"uint256"}],"outputs":[{"name":"","type":"bool","internalType":"bool"}],"stateMutability":"nonpayable"},{"type":"function","name":"owner","inputs":[],"outputs":[{"name":"","type":"address","internalType":"address"}],"stateMutability":"view"},{"type":"function","name":"postAnswer","inputs":[{"name":"question_id","type":"uint256","internalType":"uint256"},{"name":"content","type":"string","internalType":"string"}],"outputs":[{"name":"","type":"uint256","internalType":"uint256"}],"stateMutability":"nonpayable"},{"type":"function","name":"questionCount","inputs":[],"outputs":[{"name":"","type":"uint256","internalType":"uint256"}],"stateMutability":"view"},{"type":"function","name":"questionMap","inputs":[{"name":"","type":"uint256","internalType":"uint256"}],"outputs":[{"name":"asker","type":"address","internalType":"address"},{"name":"content","type":"string","internalType":"string"},{"name":"reward","type":"uint256","internalType":"uint256"},{"name":"expiration_time","type":"uint256","internalType":"uint256"},{"name":"question_id","type":"uint256","internalType":"uint256"},{"name":"selected","type":"bool","internalType":"bool"},{"name":"closed","type":"bool","internalType":"bool"},{"name":"distributed","type":"bool","internalType":"bool"}],"stateMutability":"view"},{"type":"function","name":"questions","inputs":[{"name":"","type":"uint256","internalType":"uint256"}],"outputs":[{"name":"asker","type":"address","internalType":"address"},{"name":"content","type":"string","internalType":"string"},{"name":"reward","type":"uint256","internalType":"uint256"},{"name":"expiration_time","type":"uint256","internalType":"uint256"},{"name":"question_id","type":"uint256","internalType":"uint256"},{"name":"selected","type":"bool","internalType":"bool"},{"name":"closed","type":"bool","internalType":"bool"},{"name":"distributed","type":"bool","internalType":"bool"}],"stateMutability":"view"},{"type":"function","name":"registerUser","inputs":[{"name":"_username","type":"string","internalType":"string"}],"outputs":[],"stateMutability":"nonpayable"},{"type":"function","name":"rewardRecordsMap","inputs":[{"name":"","type":"address","internalType":"address"}],"outputs":[{"name":"","type":"address","internalType":"contract Queue"}],"stateMutability":"view"},{"type":"function","name":"selectAnswer","inputs":[{"name":"q_id","type":"uint256","internalType":"uint256"},{"name":"a_id","type":"uint256","internalType":"uint256"}],"outputs":[],"stateMutability":"nonpayable"},{"type":"function","name":"sqrt","inputs":[{"name":"x","type":"uint256","internalType":"uint256"}],"outputs":[{"name":"y","type":"uint256","internalType":"uint256"}],"stateMutability":"pure"},{"type":"function","name":"userAddrMap","inputs":[{"name":"","type":"address","internalType":"address"}],"outputs":[{"name":"user_name","type":"string","internalType":"string"},{"name":"user_address","type":"address","internalType":"address"},{"name":"credit","type":"uint256","internalType":"uint256"}],"stateMutability":"view"},{"type":"function","name":"userCount","inputs":[],"outputs":[{"name":"","type":"uint256","internalType":"uint256"}],"stateMutability":"view"},{"type":"function","name":"users","inputs":[{"name":"","type":"uint256","internalType":"uint256"}],"outputs":[{"name":"user_name","type":"string","internalType":"string"},{"name":"user_address","type":"address","internalType":"address"},{"name":"credit","type":"uint256","internalType":"uint256"}],"stateMutability":"view"},{"type":"event","name":"AnswerCreated","inputs":[{"name":"q_id","type":"uint256","indexed":false,"internalType":"uint256"},{"name":"a_id","type":"uint256","indexed":false,"internalType":"uint256"},{"name":"content","type":"string","indexed":false,"internalType":"string"},{"name":"reward","type":"uint256","indexed":false,"internalType":"uint256"}],"anonymous":false},{"type":"event","name":"AnswerSelected","inputs":[{"name":"q_id","type":"uint256","indexed":false,"internalType":"uint256"},{"name":"a_id","type":"uint256","indexed":false,"internalType":"uint256"}],"anonymous":false},{"type":"event","name":"CancelSelection","inputs":[{"name":"q_id","type":"uint256","indexed":false,"internalType":"uint256"}],"anonymous":false},{"type":"event","name":"Endorse","inputs":[{"name":"a_id","type":"uint256","indexed":false,"internalType":"uint256"},{"name":"endorser","type":"address","indexed":false,"internalType":"address"},{"name":"q_id","type":"uint256","indexed":false,"internalType":"uint256"}],"anonymous":false},{"type":"event","name":"QuestionClosed","inputs":[{"name":"q_id","type":"uint256","indexed":false,"internalType":"uint256"}],"anonymous":false},{"type":"event","name":"QuestionCreated","inputs":[{"name":"asker","type":"address","indexed":false,"internalType":"address"},{"name":"content","type":"string","indexed":false,"internalType":"string"},{"name":"reward","type":"uint256","indexed":false,"internalType":"uint256"},{"name":"expiration_time","type":"uint256","indexed":false,"internalType":"uint256"},{"name":"question_id","type":"uint256","indexed":false,"internalType":"uint256"},{"name":"closed","type":"bool","indexed":false,"internalType":"bool"},{"name":"answer_ids","type":"uint256[]","indexed":false,"internalType":"uint256[]"}],"anonymous":false},{"type":"event","name":"UserCreditUpdate","inputs":[{"name":"user_addr","type":"address","indexed":false,"internalType":"address"},{"name":"prev_credit","type":"uint256","indexed":false,"internalType":"uint256"},{"name":"new_credit","type":"uint256","indexed":false,"internalType":"uint256"}],"anonymous":false},{"type":"event","name":"UserRegistered","inputs":[{"name":"username","type":"string","indexed":false,"internalType":"string"},{"name":"userAddress","type":"address","indexed":false,"internalType":"address"},{"name":"default_credit","type":"uint256","indexed":false,"internalType":"uint256"}],"anonymous":false},{"type":"error","name":"ReentrancyGuardReentrantCall","inputs":[]}],"bytecode":{"object":"0x608060405260006007556000600a556000600c55348015601e57600080fd5b506001600081905580546001600160a01b03191633179055612cc5806100456000396000f3fe6080604052600436106101c65760003560e01c8063704f1b94116100f7578063c709695a11610095578063da62458a11610064578063da62458a1461056d578063e34d68051461058d578063e57362b0146105ad578063f061b5b1146105dd57600080fd5b8063c709695a146104ed578063c921d66c1461050d578063ccad23061461052d578063d9548e531461054d57600080fd5b8063a0d03526116100d1578063a0d0352614610458578063a1b528c214610498578063ab10d998146104ad578063c2782845146104cd57600080fd5b8063704f1b94146103eb5780638b53dc6d1461040b5780638da5cb5b1461043857600080fd5b806331b1b9781161016457806341759a141161013e57806341759a141461036757806357344e6f14610398578063677342ce146103b85780636de94083146103d857600080fd5b806331b1b978146102e4578063365b98b2146103185780633d9c48931461034757600080fd5b806313fc8c34116101a057806313fc8c341461023e5780631468aa2c1461028c5780631ea5a292146102a2578063307f37e6146102c457600080fd5b806307973ccf146101d25780630bed0502146101fb57806313b3eb0d1461021157600080fd5b366101cd57005b600080fd5b3480156101de57600080fd5b506101e860075481565b6040519081526020015b60405180910390f35b34801561020757600080fd5b506101e8600c5481565b34801561021d57600080fd5b5061023161022c36600461239f565b6105fd565b6040516101f291906123f4565b34801561024a57600080fd5b50610274610259366004612407565b6006602052600090815260409020546001600160a01b031681565b6040516001600160a01b0390911681526020016101f2565b34801561029857600080fd5b506101e8600a5481565b3480156102ae57600080fd5b506102c26102bd366004612430565b610662565b005b3480156102d057600080fd5b506101e86102df36600461239f565b610971565b3480156102f057600080fd5b506103046102ff36600461239f565b6109ab565b6040516101f2989796959493929190612498565b34801561032457600080fd5b5061033861033336600461239f565b610a9c565b6040516101f2939291906124f4565b34801561035357600080fd5b506102c2610362366004612430565b610b68565b34801561037357600080fd5b5061038761038236600461239f565b610e0d565b6040516101f2959493929190612522565b3480156103a457600080fd5b506101e86103b3366004612407565b610ed3565b3480156103c457600080fd5b506101e86103d336600461239f565b610f68565b6101e86103e6366004612606565b610fc1565b3480156103f757600080fd5b506102c261040636600461265a565b611467565b34801561041757600080fd5b5061042b61042636600461239f565b611821565b6040516101f29190612697565b34801561044457600080fd5b50600154610274906001600160a01b031681565b34801561046457600080fd5b50610488610473366004612407565b60056020526000908152604090205460ff1681565b60405190151581526020016101f2565b3480156104a457600080fd5b50600a546101e8565b3480156104b957600080fd5b506101e86104c8366004612407565b6118bc565b3480156104d957600080fd5b506102c26104e836600461239f565b6119db565b3480156104f957600080fd5b5061042b61050836600461239f565b611c25565b34801561051957600080fd5b506101e86105283660046126aa565b611c65565b34801561053957600080fd5b506101e861054836600461239f565b611fd9565b34801561055957600080fd5b5061048861056836600461239f565b612013565b34801561057957600080fd5b5061042b61058836600461239f565b6121ea565b34801561059957600080fd5b506103386105a8366004612407565b612296565b3480156105b957600080fd5b506101e86105c836600461239f565b6000908152600b602052604090206005015490565b3480156105e957600080fd5b506103046105f836600461239f565b6122b1565b60008181526008602090815260409182902060060180548351818402810184019094528084526060939283018282801561065657602002820191906000526020600020905b815481526020019060010190808311610642575b50505050509050919050565b61066b81612013565b156106915760405162461bcd60e51b8152600401610688906126f1565b60405180910390fd5b3360009081526005602052604090205460ff166107045760405162461bcd60e51b815260206004820152602b60248201527f55736572206d757374206265207265676973746572656420746f20616464206560448201526a6e646f7273656d656e747360a81b6064820152608401610688565b6000828152600b6020526040902054336001600160a01b03909116036107775760405162461bcd60e51b815260206004820152602260248201527f596f752063616e6e6f7420656e646f72736520796f7572206f776e20616e737760448201526132b960f11b6064820152608401610688565b6000828152600b602052604090206002015481146107ea5760405162461bcd60e51b815260206004820152602a60248201527f54686520616e7377657220646f6573206e6f742062656c6f6e6720746f207468604482015269329038bab2b9ba34b7b760b11b6064820152608401610688565b6000828152600b602090815260408083206005018054825181850281018501909352808352919290919083018282801561084d57602002820191906000526020600020905b81546001600160a01b0316815260019091019060200180831161082f575b505050505090506000805b82518110156108a057336001600160a01b031683828151811061087d5761087d612721565b60200260200101516001600160a01b03160361089857600191505b600101610858565b5080156108fb5760405162461bcd60e51b815260206004820152602360248201527f557365722063616e6e6f7420656e646f72736520616e20616e7377657220747760448201526269636560e81b6064820152608401610688565b604080518581523360208201529081018490527f266365a2aceb5ff9d23a2e846eb7b7339cd874d164131d977f6946cb1d0dfcf19060600160405180910390a15050506000908152600b602090815260408220600501805460018101825590835291200180546001600160a01b03191633179055565b6000600a548211156109955760405162461bcd60e51b815260040161068890612737565b5060009081526008602052604090206003015490565b600981815481106109bb57600080fd5b6000918252602090912060079091020180546001820180546001600160a01b039092169350906109ea9061276c565b80601f0160208091040260200160405190810160405280929190818152602001828054610a169061276c565b8015610a635780601f10610a3857610100808354040283529160200191610a63565b820191906000526020600020905b815481529060010190602001808311610a4657829003601f168201915b505050506002830154600384015460048501546005909501549394919390925060ff808216916101008104821691620100009091041688565b60028181548110610aac57600080fd5b9060005260206000209060030201600091509050806000018054610acf9061276c565b80601f0160208091040260200160405190810160405280929190818152602001828054610afb9061276c565b8015610b485780601f10610b1d57610100808354040283529160200191610b48565b820191906000526020600020905b815481529060010190602001808311610b2b57829003601f168201915b50505050600183015460029093015491926001600160a01b031691905083565b610b7182612013565b15610b8e5760405162461bcd60e51b8152600401610688906126f1565b6000828152600860205260409020546001600160a01b03163314610c065760405162461bcd60e51b815260206004820152602960248201527f4f6e6c79207468652061736b65722063616e2073656c6563742074686520626560448201526839ba1030b739bbb2b960b91b6064820152608401610688565b6000818152600b60205260409020600201548214610c7a5760405162461bcd60e51b815260206004820152602b60248201527f54686520616e7377657220646f6573206e6f742062656c6f6e6720746f20746860448201526a34b99038bab2b9ba34b7b760a91b6064820152608401610688565b600082815260086020908152604080832060060180548251818502810185019093528083529192909190830182828015610cd357602002820191906000526020600020905b815481526020019060010190808311610cbf575b505050600086815260086020526040902060050154929350505060ff1615610d985760005b8151811015610d9657600b6000838381518110610d1757610d17612721565b60209081029190910181015182528101919091526040016000206004015460ff161515600103610d8e576000600b6000848481518110610d5957610d59612721565b6020026020010151815260200190815260200160002060040160006101000a81548160ff021916908315150217905550610d96565b600101610cf8565b505b60008381526008602090815260408083206005018054600160ff199182168117909255868552600b84529382902060040180549094161790925581518581529081018490527fcce2e26b4c2c9bdecbd753012d7f595a50f3fe6263dc2090e6432f7cc9c5b8bc910160405180910390a1505050565b600b6020526000908152604090208054600182015460028301546003840180546001600160a01b03909416949293919291610e479061276c565b80601f0160208091040260200160405190810160405280929190818152602001828054610e739061276c565b8015610ec05780601f10610e9557610100808354040283529160200191610ec0565b820191906000526020600020905b815481529060010190602001808311610ea357829003601f168201915b5050506004909301549192505060ff1685565b6001600160a01b03811660009081526005602052604081205460ff16610f495760405162461bcd60e51b815260206004820152602560248201527f55736572206d757374206265207265676973746572656420746f2067657420636044820152641c99591a5d60da1b6064820152608401610688565b506001600160a01b031660009081526004602052604090206002015490565b6000806002610f788460016127b6565b610f8291906127c9565b90508291505b81811015610fbb57905080600281610fa081866127c9565b610faa91906127b6565b610fb491906127c9565b9050610f88565b50919050565b3360009081526005602052604081205460ff166110165760405162461bcd60e51b8152602060048201526013602482015272155cd95c881b9bdd081c9959da5cdd195c9959606a1b6044820152606401610688565b60003411801561102e575061102a33610ed3565b3411155b6110a05760405162461bcd60e51b815260206004820152603860248201527f526577617264206d7573742062652067726561746572207468616e203020616e60448201527f64206c657373207468616e20637265646974206c696d697400000000000000006064820152608401610688565b60008551116110f15760405162461bcd60e51b815260206004820152601860248201527f5175657374696f6e2063616e6e6f7420626520656d70747900000000000000006044820152606401610688565b60006110fe83603c6127eb565b61110a85610e106127eb565b61111787620151806127eb565b61112191906127b6565b61112b91906127b6565b9050620151808110158015611143575062093a808111155b6111b55760405162461bcd60e51b815260206004820152603f60248201527f45787069726174696f6e2074696d65206d75737420626520677265617465722060448201527f7468616e20312064617920616e64206c657373207468616e20372064617973006064820152608401610688565b6001600a60008282546111c891906127b6565b9091555050600a546040805161012081018252338152602081018990523491810191909152600090606081016111fe85426127b6565b81526020808201859052600060408084018290526060840182905260808401829052805182815280840190915260a09093019290925260098054600181018255925282517f6e1540171b6c0c960b71a7020d9f60077f6af931a8bbf590da0223dacf75c7af600790930292830180546001600160a01b0319166001600160a01b0390921691909117815590830151929350839290917f6e1540171b6c0c960b71a7020d9f60077f6af931a8bbf590da0223dacf75c7b001906112c09082612853565b5060408201516002820155606082015160038201556080820151600482015560a082015160058201805460c085015160e086015161ffff1990921693151561ff0019169390931761010093151584021762ff000019166201000091151591909102179055820151805161133d9160068401916020909101906122dd565b5050506000828152600860209081526040909120825181546001600160a01b0319166001600160a01b039091161781559082015182919060018201906113839082612853565b5060408201516002820155606082015160038201556080820151600482015560a082015160058201805460c085015160e086015161ffff1990921693151561ff0019169390931761010093151584021762ff00001916620100009115159190910217905582015180516114009160068401916020909101906122dd565b507f84b861809ad6a7273eb286675afe4848e1772d87876e38ff1870adfc5ebbcbb19150339050893461143387426127b6565b604080516000808252602082019283905261145496959493928a9290612913565b60405180910390a1509695505050505050565b3360008181526005602052604090205460ff16156114c75760405162461bcd60e51b815260206004820152601a60248201527f54686520616464726573732077617320726567697374657265640000000000006044820152606401610688565b81600160005b60075481101561152a578280519060200120600282815481106114f2576114f2612721565b90600052602060002090600302016000016040516115109190612971565b60405180910390200361152257600091505b6001016114cd565b508061156d5760405162461bcd60e51b81526020600482015260126024820152716475706c696361746520757365726e616d6560701b6044820152606401610688565b60008451116115b25760405162461bcd60e51b8152602060048201526011602482015270557365726e616d6520697320656d70747960781b6044820152606401610688565b60408051606081018252858152336020820152662386f26fc100009181019190915260028054600181018255600091909152815182916003027f405787fa12a823e0f2b7631cc41b3ba8828b3321ca811111fa75cd3aa3bb5ace0190819061161a9082612853565b506020828101516001830180546001600160a01b0319166001600160a01b039092169190911790556040928301516002909201919091553360009081526004909152208151829190819061166e9082612853565b506020820151600182810180546001600160a01b0319166001600160a01b03909316929092179091556040909201516002909101556003805491820181556000527fc2575a0e9e593c00f959f8c92f12db2869c3395a3b0502d05e2516446f71f85b016116db8682612853565b50336000908152600560205260408120805460ff191660011790556007805491611704836129e7565b9190505550600060405161171790612328565b604051809103906000f080158015611733573d6000803e3d6000fd5b50905060005b60058110156117ae57604051631ffc735d60e01b8152660fe170fa25600060048201526001600160a01b03831690631ffc735d90602401600060405180830381600087803b15801561178a57600080fd5b505af115801561179e573d6000803e3d6000fd5b5050600190920191506117399050565b50336000818152600660205260409081902080546001600160a01b0319166001600160a01b038516179055517fda4b066842833e7ab38c0f7ba442824b5eda00740d68ef015889812a792fc3ec9161181191899190662386f26fc10000906124f4565b60405180910390a1505050505050565b6000818152600b602052604090206003018054606091906118419061276c565b80601f016020809104026020016040519081016040528092919081815260200182805461186d9061276c565b80156106565780601f1061188f57610100808354040283529160200191610656565b820191906000526020600020905b81548152906001019060200180831161189d5750939695505050505050565b6001600160a01b038082166000908152600660209081526040808320548151630130ca2b60e01b8152915193948594911692630130ca2b92600480820193918290030181865afa158015611914573d6000803e3d6000fd5b505050506040513d601f19601f820116820180604052508101906119389190612a00565b6001600160a01b0384166000908152600460205260409020600201549091507f085f11378a0c42687437148f7b62421b8e6f48c3a41b0e416dc85078bcc0bcd390849061198484610f68565b604080516001600160a01b03909416845260208401929092529082015260600160405180910390a16119b581610f68565b6001600160a01b0390931660009081526004602052604090206002018390555090919050565b6000818152600860205260409020546001600160a01b03163314611a4d5760405162461bcd60e51b815260206004820152602360248201527f4f6e6c79207468652061736b65722063616e2063616e63656c2073656c65637460448201526234b7b760e91b6064820152608401610688565b611a5681612013565b15611a735760405162461bcd60e51b8152600401610688906126f1565b60008181526008602052604090206005015460ff16611acc5760405162461bcd60e51b8152602060048201526015602482015274139bc8185b9cddd95c881a5cc81cd95b1958dd1959605a1b6044820152606401610688565b600081815260086020908152604080832060060180548251818502810185019093528083529192909190830182828015611b2557602002820191906000526020600020905b815481526020019060010190808311611b11575b5050505050905060005b8151811015611bcd57600b6000838381518110611b4e57611b4e612721565b60209081029190910181015182528101919091526040016000206004015460ff161515600103611bc5576000600b6000848481518110611b9057611b90612721565b6020026020010151815260200190815260200160002060040160006101000a81548160ff021916908315150217905550611bcd565b600101611b2f565b5060008281526008602052604090819020600501805460ff19169055517f53088c7bbf224d7afa175aa1fbda4d494a5008e230beebc8d16b45c8415e964590611c199084815260200190565b60405180910390a15050565b6060600a54821115611c495760405162461bcd60e51b815260040161068890612737565b600082815260086020526040902060010180546118419061276c565b6000611c7083612013565b15611c8d5760405162461bcd60e51b8152600401610688906126f1565b3360009081526005602052604090205460ff16611d015760405162461bcd60e51b815260206004820152602c60248201527f55736572206d757374206265207265676973746572656420746f20616e73776560448201526b3910309038bab2b9ba34b7b760a11b6064820152608401610688565b6000825111611d4b5760405162461bcd60e51b8152602060048201526016602482015275416e737765722063616e6e6f7420626520656d70747960501b6044820152606401610688565b600083815260086020526040902054336001600160a01b0390911603611dbf5760405162461bcd60e51b8152602060048201526024808201527f596f752063616e6e6f7420616e7377657220796f7572206f776e207175657374604482015263696f6e2160e01b6064820152608401610688565b60005b600084815260086020526040902060060154811015611e9157600084815260086020526040812060060180543392600b92909185908110611e0557611e05612721565b600091825260208083209091015483528201929092526040019020546001600160a01b031603611e895760405162461bcd60e51b815260206004820152602960248201527f596f752063616e6e6f7420616e73776572207468652073616d65207175657374604482015268696f6e20747769636560b81b6064820152608401610688565b600101611dc2565b5060606000600c60008154611ea5906129e7565b91829055506040805160c08101825233815260208082018481528284018a8152606084018a815260006080860181905260a086018a9052878152600b90945294909220835181546001600160a01b0319166001600160a01b0390911617815590516001820155905160028201559151929350918291906003820190611f2a9082612853565b50608082015160048201805460ff191691151591909117905560a08201518051611f5e916005840191602090910190612335565b5050506000868152600860209081526040808320600681018054600181018255908552928420909201859055918890526002015490517f6664f2452a9c851a9ecdf8e98ff206e97b1ab656fddb6f741e06c4d085ed2b1391611fc691899186918a9190612a19565b60405180910390a1509150505b92915050565b6000600a54821115611ffd5760405162461bcd60e51b815260040161068890612737565b5060009081526008602052604090206002015490565b6000600a548211156120375760405162461bcd60e51b815260040161068890612737565b60008281526008602090815260408083208151610120810190925280546001600160a01b0316825260018101805492939192918401916120769061276c565b80601f01602080910402602001604051908101604052809291908181526020018280546120a29061276c565b80156120ef5780601f106120c4576101008083540402835291602001916120ef565b820191906000526020600020905b8154815290600101906020018083116120d257829003601f168201915b50505091835250506002820154602080830191909152600383015460408084019190915260048401546060840152600584015460ff8082161515608086015261010082048116151560a08601526201000090910416151560c084015260068401805482518185028101850190935280835260e090940193919290919083018282801561219a57602002820191906000526020600020905b815481526020019060010190808311612186575b505050505081525050905080606001514211156121d0576000838152600860205260409020600501805461ff0019166101001790555b80606001514211806121e357508060c001515b9392505050565b600381815481106121fa57600080fd5b9060005260206000200160009150905080546122159061276c565b80601f01602080910402602001604051908101604052809291908181526020018280546122419061276c565b801561228e5780601f106122635761010080835404028352916020019161228e565b820191906000526020600020905b81548152906001019060200180831161227157829003601f168201915b505050505081565b600460205260009081526040902080548190610acf9061276c565b600860205260009081526040902080546001820180546001600160a01b0390921692916109ea9061276c565b828054828255906000526020600020908101928215612318579160200282015b828111156123185782518255916020019190600101906122fd565b5061232492915061238a565b5090565b61024680612a4a83390190565b828054828255906000526020600020908101928215612318579160200282015b8281111561231857825182546001600160a01b0319166001600160a01b03909116178255602090920191600190910190612355565b5b80821115612324576000815560010161238b565b6000602082840312156123b157600080fd5b5035919050565b60008151808452602080850194506020840160005b838110156123e9578151875295820195908201906001016123cd565b509495945050505050565b6020815260006121e360208301846123b8565b60006020828403121561241957600080fd5b81356001600160a01b03811681146121e357600080fd5b6000806040838503121561244357600080fd5b50508035926020909101359150565b6000815180845260005b818110156124785760208185018101518683018201520161245c565b506000602082860101526020601f19601f83011685010191505092915050565b6001600160a01b0389168152610100602082018190526000906124bd8382018b612452565b604084019990995250506060810195909552608085019390935290151560a0840152151560c0830152151560e09091015292915050565b6060815260006125076060830186612452565b6001600160a01b039490941660208301525060400152919050565b60018060a01b038616815284602082015283604082015260a06060820152600061254f60a0830185612452565b905082151560808301529695505050505050565b634e487b7160e01b600052604160045260246000fd5b600082601f83011261258a57600080fd5b813567ffffffffffffffff808211156125a5576125a5612563565b604051601f8301601f19908116603f011681019082821181831017156125cd576125cd612563565b816040528381528660208588010111156125e657600080fd5b836020870160208301376000602085830101528094505050505092915050565b6000806000806080858703121561261c57600080fd5b843567ffffffffffffffff81111561263357600080fd5b61263f87828801612579565b97602087013597506040870135966060013595509350505050565b60006020828403121561266c57600080fd5b813567ffffffffffffffff81111561268357600080fd5b61268f84828501612579565b949350505050565b6020815260006121e36020830184612452565b600080604083850312156126bd57600080fd5b82359150602083013567ffffffffffffffff8111156126db57600080fd5b6126e785828601612579565b9150509250929050565b602080825260169082015275151a19481c5d595cdd1a5bdb881a5cc818db1bdcd95960521b604082015260600190565b634e487b7160e01b600052603260045260246000fd5b6020808252818101527f54686520696e707574207175657374696f6e20696420697320696e76616c6964604082015260600190565b600181811c9082168061278057607f821691505b602082108103610fbb57634e487b7160e01b600052602260045260246000fd5b634e487b7160e01b600052601160045260246000fd5b80820180821115611fd357611fd36127a0565b6000826127e657634e487b7160e01b600052601260045260246000fd5b500490565b8082028115828204841417611fd357611fd36127a0565b601f82111561284e576000816000526020600020601f850160051c8101602086101561282b5750805b601f850160051c820191505b8181101561284a57828155600101612837565b5050505b505050565b815167ffffffffffffffff81111561286d5761286d612563565b6128818161287b845461276c565b84612802565b602080601f8311600181146128b6576000841561289e5750858301515b600019600386901b1c1916600185901b17855561284a565b600085815260208120601f198616915b828110156128e5578886015182559484019460019091019084016128c6565b50858210156129035787850151600019600388901b60f8161c191681555b5050505050600190811b01905550565b6001600160a01b038816815260e06020820181905260009061293790830189612452565b87604084015286606084015285608084015284151560a084015282810360c084015261296381856123b8565b9a9950505050505050505050565b600080835461297f8161276c565b6001828116801561299757600181146129ac576129db565b60ff19841687528215158302870194506129db565b8760005260208060002060005b858110156129d25781548a8201529084019082016129b9565b50505082870194505b50929695505050505050565b6000600182016129f9576129f96127a0565b5060010190565b600060208284031215612a1257600080fd5b5051919050565b848152836020820152608060408201526000612a386080830185612452565b90508260608301529594505050505056fe6080604052600180556000600255348015601857600080fd5b5061021e806100286000396000f3fe608060405234801561001057600080fd5b506004361061004c5760003560e01c80630130ca2b146100515780631f7b6d321461006b5780631ffc735d14610073578063957908d114610088575b600080fd5b610059610090565b60405190815260200160405180910390f35b6100596100dd565b610086610081366004610176565b610100565b005b61005961012c565b6001546000905b6002546100a59060016101a5565b8110156100d9576000818152602081905260409020546100c590806101be565b6100cf90836101a5565b9150600101610097565b5090565b600060015460025460016100f191906101a5565b6100fb91906101d5565b905090565b60016002600082825461011391906101a5565b9091555050600254600090815260208190526040902055565b600080600154600254101561014057600080fd5b506001805460009081526020819052604081208054908290558254909291829161016b9083906101a5565b909155509092915050565b60006020828403121561018857600080fd5b5035919050565b634e487b7160e01b600052601160045260246000fd5b808201808211156101b8576101b861018f565b92915050565b80820281158282048414176101b8576101b861018f565b818103818111156101b8576101b861018f56fea2646970667358221220ba2f82ddccad524b0a8065750c411370679db7b8061eec9659450c70c0ece14e64736f6c63430008190033a264697066735822122056162668c71662777295105b28394ffc7b859c5b7e15a2b7d6aa55d57be2e3b564736f6c63430008190033","linkReferences":{}},"methodIdentifiers":{"accountNames(uint256)":"da62458a","answerCount()":"0bed0502","answerMap(uint256)":"41759a14","askQuestion(string,uint256,uint256,uint256)":"6de94083","calculate_credit(address)":"ab10d998","cancelSelection(uint256)":"c2782845","endorse(uint256,uint256)":"1ea5a292","getAnswerContent(uint256)":"8b53dc6d","getAnswerID(uint256)":"13b3eb0d","getCredit(address)":"57344e6f","getNumberOfEndorsements(uint256)":"e57362b0","getQuestionContent(uint256)":"c709695a","getQuestionCurrentID()":"a1b528c2","getQuestionExpirationTime(uint256)":"307f37e6","getQuestionReward(uint256)":"ccad2306","hasRegistered(address)":"a0d03526","isExpired(uint256)":"d9548e53","owner()":"8da5cb5b","postAnswer(uint256,string)":"c921d66c","questionCount()":"1468aa2c","questionMap(uint256)":"f061b5b1","questions(uint256)":"31b1b978","registerUser(string)":"704f1b94","rewardRecordsMap(address)":"13fc8c34","selectAnswer(uint256,uint256)":"3d9c4893","sqrt(uint256)":"677342ce","userAddrMap(address)":"e34d6805","userCount()":"07973ccf","users(uint256)":"365b98b2"},"id":24}