{"abi":[{"type":"receive","stateMutability":"payable"},{"type":"function","name":"accountNames","inputs":[{"name":"","type":"uint256","internalType":"uint256"}],"outputs":[{"name":"","type":"string","internalType":"string"}],"stateMutability":"view"},{"type":"function","name":"answerCount","inputs":[],"outputs":[{"name":"","type":"uint256","internalType":"uint256"}],"stateMutability":"view"},{"type":"function","name":"answerMap","inputs":[{"name":"","type":"uint256","internalType":"uint256"}],"outputs":[{"name":"answerer","type":"address","internalType":"address"},{"name":"answer_id","type":"uint256","internalType":"uint256"},{"name":"question_id","type":"uint256","internalType":"uint256"},{"name":"content","type":"string","internalType":"string"},{"name":"isSelected","type":"bool","internalType":"bool"}],"stateMutability":"view"},{"type":"function","name":"askQuestion","inputs":[{"name":"_content","type":"string","internalType":"string"},{"name":"_day","type":"uint256","internalType":"uint256"},{"name":"_hour","type":"uint256","internalType":"uint256"},{"name":"_min","type":"uint256","internalType":"uint256"}],"outputs":[{"name":"","type":"uint256","internalType":"uint256"}],"stateMutability":"payable"},{"type":"function","name":"calculate_credit","inputs":[{"name":"userAddress","type":"address","internalType":"address"}],"outputs":[{"name":"","type":"uint256","internalType":"uint256"}],"stateMutability":"nonpayable"},{"type":"function","name":"cancelSelection","inputs":[{"name":"q_id","type":"uint256","internalType":"uint256"}],"outputs":[],"stateMutability":"nonpayable"},{"type":"function","name":"endorse","inputs":[{"name":"answer_id","type":"uint256","internalType":"uint256"},{"name":"question_id","type":"uint256","internalType":"uint256"}],"outputs":[],"stateMutability":"nonpayable"},{"type":"function","name":"getCredit","inputs":[{"name":"userAddress","type":"address","internalType":"address"}],"outputs":[{"name":"","type":"uint256","internalType":"uint256"}],"stateMutability":"view"},{"type":"function","name":"hasRegistered","inputs":[{"name":"","type":"address","internalType":"address"}],"outputs":[{"name":"","type":"bool","internalType":"bool"}],"stateMutability":"view"},{"type":"function","name":"isExpired","inputs":[{"name":"q_id","type":"uint256","internalType":"uint256"}],"outputs":[{"name":"","type":"bool","internalType":"bool"}],"stateMutability":"nonpayable"},{"type":"function","name":"owner","inputs":[],"outputs":[{"name":"","type":"address","internalType":"address"}],"stateMutability":"view"},{"type":"function","name":"postAnswer","inputs":[{"name":"question_id","type":"uint256","internalType":"uint256"},{"name":"content","type":"string","internalType":"string"}],"outputs":[{"name":"","type":"uint256","internalType":"uint256"}],"stateMutability":"nonpayable"},{"type":"function","name":"questionCount","inputs":[],"outputs":[{"name":"","type":"uint256","internalType":"uint256"}],"stateMutability":"view"},{"type":"function","name":"questionMap","inputs":[{"name":"","type":"uint256","internalType":"uint256"}],"outputs":[{"name":"asker","type":"address","internalType":"address"},{"name":"content","type":"string","internalType":"string"},{"name":"reward","type":"uint256","internalType":"uint256"},{"name":"expiration_time","type":"uint256","internalType":"uint256"},{"name":"question_id","type":"uint256","internalType":"uint256"},{"name":"selected","type":"bool","internalType":"bool"},{"name":"closed","type":"bool","internalType":"bool"},{"name":"distributed","type":"bool","internalType":"bool"}],"stateMutability":"view"},{"type":"function","name":"questions","inputs":[{"name":"","type":"uint256","internalType":"uint256"}],"outputs":[{"name":"asker","type":"address","internalType":"address"},{"name":"content","type":"string","internalType":"string"},{"name":"reward","type":"uint256","internalType":"uint256"},{"name":"expiration_time","type":"uint256","internalType":"uint256"},{"name":"question_id","type":"uint256","internalType":"uint256"},{"name":"selected","type":"bool","internalType":"bool"},{"name":"closed","type":"bool","internalType":"bool"},{"name":"distributed","type":"bool","internalType":"bool"}],"stateMutability":"view"},{"type":"function","name":"registerUser","inputs":[{"name":"_username","type":"string","internalType":"string"}],"outputs":[],"stateMutability":"nonpayable"},{"type":"function","name":"rewardRecordsMap","inputs":[{"name":"","type":"address","internalType":"address"}],"outputs":[{"name":"","type":"address","internalType":"contract Queue"}],"stateMutability":"view"},{"type":"function","name":"selectAnswer","inputs":[{"name":"q_id","type":"uint256","internalType":"uint256"},{"name":"a_id","type":"uint256","internalType":"uint256"}],"outputs":[],"stateMutability":"nonpayable"},{"type":"function","name":"sqrt","inputs":[{"name":"x","type":"uint256","internalType":"uint256"}],"outputs":[{"name":"y","type":"uint256","internalType":"uint256"}],"stateMutability":"pure"},{"type":"function","name":"userAddrMap","inputs":[{"name":"","type":"address","internalType":"address"}],"outputs":[{"name":"user_name","type":"string","internalType":"string"},{"name":"user_address","type":"address","internalType":"address"},{"name":"credit","type":"uint256","internalType":"uint256"}],"stateMutability":"view"},{"type":"function","name":"userCount","inputs":[],"outputs":[{"name":"","type":"uint256","internalType":"uint256"}],"stateMutability":"view"},{"type":"function","name":"users","inputs":[{"name":"","type":"uint256","internalType":"uint256"}],"outputs":[{"name":"user_name","type":"string","internalType":"string"},{"name":"user_address","type":"address","internalType":"address"},{"name":"credit","type":"uint256","internalType":"uint256"}],"stateMutability":"view"},{"type":"event","name":"AnswerCreated","inputs":[{"name":"q_id","type":"uint256","indexed":false,"internalType":"uint256"},{"name":"a_id","type":"uint256","indexed":false,"internalType":"uint256"},{"name":"content","type":"string","indexed":false,"internalType":"string"},{"name":"reward","type":"uint256","indexed":false,"internalType":"uint256"}],"anonymous":false},{"type":"event","name":"AnswerSelected","inputs":[{"name":"q_id","type":"uint256","indexed":false,"internalType":"uint256"},{"name":"a_id","type":"uint256","indexed":false,"internalType":"uint256"}],"anonymous":false},{"type":"event","name":"CancelSelection","inputs":[{"name":"q_id","type":"uint256","indexed":false,"internalType":"uint256"}],"anonymous":false},{"type":"event","name":"Endorse","inputs":[{"name":"a_id","type":"uint256","indexed":false,"internalType":"uint256"},{"name":"endorser","type":"address","indexed":false,"internalType":"address"},{"name":"q_id","type":"uint256","indexed":false,"internalType":"uint256"}],"anonymous":false},{"type":"event","name":"QuestionClosed","inputs":[{"name":"q_id","type":"uint256","indexed":false,"internalType":"uint256"}],"anonymous":false},{"type":"event","name":"QuestionCreated","inputs":[{"name":"asker","type":"address","indexed":false,"internalType":"address"},{"name":"content","type":"string","indexed":false,"internalType":"string"},{"name":"reward","type":"uint256","indexed":false,"internalType":"uint256"},{"name":"expiration_time","type":"uint256","indexed":false,"internalType":"uint256"},{"name":"question_id","type":"uint256","indexed":false,"internalType":"uint256"},{"name":"closed","type":"bool","indexed":false,"internalType":"bool"},{"name":"answer_ids","type":"uint256[]","indexed":false,"internalType":"uint256[]"}],"anonymous":false},{"type":"event","name":"UserCreditUpdate","inputs":[{"name":"user_addr","type":"address","indexed":false,"internalType":"address"},{"name":"prev_credit","type":"uint256","indexed":false,"internalType":"uint256"},{"name":"new_credit","type":"uint256","indexed":false,"internalType":"uint256"}],"anonymous":false},{"type":"event","name":"UserRegistered","inputs":[{"name":"username","type":"string","indexed":false,"internalType":"string"},{"name":"userAddress","type":"address","indexed":false,"internalType":"address"},{"name":"default_credit","type":"uint256","indexed":false,"internalType":"uint256"}],"anonymous":false},{"type":"error","name":"ReentrancyGuardReentrantCall","inputs":[]}],"bytecode":{"object":"0x608060405260006007556000600a556000600c55348015601e57600080fd5b506001600081905580546001600160a01b03191633179055612968806100456000396000f3fe6080604052600436106101395760003560e01c80636de94083116100ab578063c27828451161006f578063c2782845146103b1578063c921d66c146103d1578063d9548e53146103f1578063da62458a14610411578063e34d68051461043e578063f061b5b11461045e57600080fd5b80636de94083146102fe578063704f1b94146103115780638da5cb5b14610331578063a0d0352614610351578063ab10d9981461039157600080fd5b806331b1b978116100fd57806331b1b9781461020a578063365b98b21461023e5780633d9c48931461026d57806341759a141461028d57806357344e6f146102be578063677342ce146102de57600080fd5b806307973ccf146101455780630bed05021461016e57806313fc8c34146101845780631468aa2c146101d25780631ea5a292146101e857600080fd5b3661014057005b600080fd5b34801561015157600080fd5b5061015b60075481565b6040519081526020015b60405180910390f35b34801561017a57600080fd5b5061015b600c5481565b34801561019057600080fd5b506101ba61019f36600461209c565b6006602052600090815260409020546001600160a01b031681565b6040516001600160a01b039091168152602001610165565b3480156101de57600080fd5b5061015b600a5481565b3480156101f457600080fd5b506102086102033660046120c5565b61047e565b005b34801561021657600080fd5b5061022a6102253660046120e7565b61078d565b604051610165989796959493929190612146565b34801561024a57600080fd5b5061025e6102593660046120e7565b61087e565b604051610165939291906121a2565b34801561027957600080fd5b506102086102883660046120c5565b61094a565b34801561029957600080fd5b506102ad6102a83660046120e7565b610bef565b6040516101659594939291906121d0565b3480156102ca57600080fd5b5061015b6102d936600461209c565b610cb5565b3480156102ea57600080fd5b5061015b6102f93660046120e7565b610d4a565b61015b61030c3660046122b4565b610da3565b34801561031d57600080fd5b5061020861032c366004612308565b611249565b34801561033d57600080fd5b506001546101ba906001600160a01b031681565b34801561035d57600080fd5b5061038161036c36600461209c565b60056020526000908152604090205460ff1681565b6040519015158152602001610165565b34801561039d57600080fd5b5061015b6103ac36600461209c565b611603565b3480156103bd57600080fd5b506102086103cc3660046120e7565b611722565b3480156103dd57600080fd5b5061015b6103ec366004612345565b61196c565b3480156103fd57600080fd5b5061038161040c3660046120e7565b611ce0565b34801561041d57600080fd5b5061043161042c3660046120e7565b611ee7565b604051610165919061238c565b34801561044a57600080fd5b5061025e61045936600461209c565b611f93565b34801561046a57600080fd5b5061022a6104793660046120e7565b611fae565b61048781611ce0565b156104ad5760405162461bcd60e51b81526004016104a49061239f565b60405180910390fd5b3360009081526005602052604090205460ff166105205760405162461bcd60e51b815260206004820152602b60248201527f55736572206d757374206265207265676973746572656420746f20616464206560448201526a6e646f7273656d656e747360a81b60648201526084016104a4565b6000828152600b6020526040902054336001600160a01b03909116036105935760405162461bcd60e51b815260206004820152602260248201527f596f752063616e6e6f7420656e646f72736520796f7572206f776e20616e737760448201526132b960f11b60648201526084016104a4565b6000828152600b602052604090206002015481146106065760405162461bcd60e51b815260206004820152602a60248201527f54686520616e7377657220646f6573206e6f742062656c6f6e6720746f207468604482015269329038bab2b9ba34b7b760b11b60648201526084016104a4565b6000828152600b602090815260408083206005018054825181850281018501909352808352919290919083018282801561066957602002820191906000526020600020905b81546001600160a01b0316815260019091019060200180831161064b575b505050505090506000805b82518110156106bc57336001600160a01b0316838281518110610699576106996123cf565b60200260200101516001600160a01b0316036106b457600191505b600101610674565b5080156107175760405162461bcd60e51b815260206004820152602360248201527f557365722063616e6e6f7420656e646f72736520616e20616e7377657220747760448201526269636560e81b60648201526084016104a4565b604080518581523360208201529081018490527f266365a2aceb5ff9d23a2e846eb7b7339cd874d164131d977f6946cb1d0dfcf19060600160405180910390a15050506000908152600b602090815260408220600501805460018101825590835291200180546001600160a01b03191633179055565b6009818154811061079d57600080fd5b6000918252602090912060079091020180546001820180546001600160a01b039092169350906107cc906123e5565b80601f01602080910402602001604051908101604052809291908181526020018280546107f8906123e5565b80156108455780601f1061081a57610100808354040283529160200191610845565b820191906000526020600020905b81548152906001019060200180831161082857829003601f168201915b505050506002830154600384015460048501546005909501549394919390925060ff808216916101008104821691620100009091041688565b6002818154811061088e57600080fd5b90600052602060002090600302016000915090508060000180546108b1906123e5565b80601f01602080910402602001604051908101604052809291908181526020018280546108dd906123e5565b801561092a5780601f106108ff5761010080835404028352916020019161092a565b820191906000526020600020905b81548152906001019060200180831161090d57829003601f168201915b50505050600183015460029093015491926001600160a01b031691905083565b61095382611ce0565b156109705760405162461bcd60e51b81526004016104a49061239f565b6000828152600860205260409020546001600160a01b031633146109e85760405162461bcd60e51b815260206004820152602960248201527f4f6e6c79207468652061736b65722063616e2073656c6563742074686520626560448201526839ba1030b739bbb2b960b91b60648201526084016104a4565b6000818152600b60205260409020600201548214610a5c5760405162461bcd60e51b815260206004820152602b60248201527f54686520616e7377657220646f6573206e6f742062656c6f6e6720746f20746860448201526a34b99038bab2b9ba34b7b760a91b60648201526084016104a4565b600082815260086020908152604080832060060180548251818502810185019093528083529192909190830182828015610ab557602002820191906000526020600020905b815481526020019060010190808311610aa1575b505050600086815260086020526040902060050154929350505060ff1615610b7a5760005b8151811015610b7857600b6000838381518110610af957610af96123cf565b60209081029190910181015182528101919091526040016000206004015460ff161515600103610b70576000600b6000848481518110610b3b57610b3b6123cf565b6020026020010151815260200190815260200160002060040160006101000a81548160ff021916908315150217905550610b78565b600101610ada565b505b60008381526008602090815260408083206005018054600160ff199182168117909255868552600b84529382902060040180549094161790925581518581529081018490527fcce2e26b4c2c9bdecbd753012d7f595a50f3fe6263dc2090e6432f7cc9c5b8bc910160405180910390a1505050565b600b6020526000908152604090208054600182015460028301546003840180546001600160a01b03909416949293919291610c29906123e5565b80601f0160208091040260200160405190810160405280929190818152602001828054610c55906123e5565b8015610ca25780601f10610c7757610100808354040283529160200191610ca2565b820191906000526020600020905b815481529060010190602001808311610c8557829003601f168201915b5050506004909301549192505060ff1685565b6001600160a01b03811660009081526005602052604081205460ff16610d2b5760405162461bcd60e51b815260206004820152602560248201527f55736572206d757374206265207265676973746572656420746f2067657420636044820152641c99591a5d60da1b60648201526084016104a4565b506001600160a01b031660009081526004602052604090206002015490565b6000806002610d5a84600161242f565b610d649190612442565b90508291505b81811015610d9d57905080600281610d828186612442565b610d8c919061242f565b610d969190612442565b9050610d6a565b50919050565b3360009081526005602052604081205460ff16610df85760405162461bcd60e51b8152602060048201526013602482015272155cd95c881b9bdd081c9959da5cdd195c9959606a1b60448201526064016104a4565b600034118015610e105750610e0c33610cb5565b3411155b610e825760405162461bcd60e51b815260206004820152603860248201527f526577617264206d7573742062652067726561746572207468616e203020616e60448201527f64206c657373207468616e20637265646974206c696d6974000000000000000060648201526084016104a4565b6000855111610ed35760405162461bcd60e51b815260206004820152601860248201527f5175657374696f6e2063616e6e6f7420626520656d707479000000000000000060448201526064016104a4565b6000610ee083603c612464565b610eec85610e10612464565b610ef98762015180612464565b610f03919061242f565b610f0d919061242f565b9050620151808110158015610f25575062093a808111155b610f975760405162461bcd60e51b815260206004820152603f60248201527f45787069726174696f6e2074696d65206d75737420626520677265617465722060448201527f7468616e20312064617920616e64206c657373207468616e203720646179730060648201526084016104a4565b6001600a6000828254610faa919061242f565b9091555050600a54604080516101208101825233815260208101899052349181019190915260009060608101610fe0854261242f565b81526020808201859052600060408084018290526060840182905260808401829052805182815280840190915260a09093019290925260098054600181018255925282517f6e1540171b6c0c960b71a7020d9f60077f6af931a8bbf590da0223dacf75c7af600790930292830180546001600160a01b0319166001600160a01b0390921691909117815590830151929350839290917f6e1540171b6c0c960b71a7020d9f60077f6af931a8bbf590da0223dacf75c7b001906110a290826124cc565b5060408201516002820155606082015160038201556080820151600482015560a082015160058201805460c085015160e086015161ffff1990921693151561ff0019169390931761010093151584021762ff000019166201000091151591909102179055820151805161111f916006840191602090910190611fda565b5050506000828152600860209081526040909120825181546001600160a01b0319166001600160a01b0390911617815590820151829190600182019061116590826124cc565b5060408201516002820155606082015160038201556080820151600482015560a082015160058201805460c085015160e086015161ffff1990921693151561ff0019169390931761010093151584021762ff00001916620100009115159190910217905582015180516111e2916006840191602090910190611fda565b507f84b861809ad6a7273eb286675afe4848e1772d87876e38ff1870adfc5ebbcbb191503390508934611215874261242f565b604080516000808252602082019283905261123696959493928a929061258c565b60405180910390a1509695505050505050565b3360008181526005602052604090205460ff16156112a95760405162461bcd60e51b815260206004820152601a60248201527f546865206164647265737320776173207265676973746572656400000000000060448201526064016104a4565b81600160005b60075481101561130c578280519060200120600282815481106112d4576112d46123cf565b90600052602060002090600302016000016040516112f29190612614565b60405180910390200361130457600091505b6001016112af565b508061134f5760405162461bcd60e51b81526020600482015260126024820152716475706c696361746520757365726e616d6560701b60448201526064016104a4565b60008451116113945760405162461bcd60e51b8152602060048201526011602482015270557365726e616d6520697320656d70747960781b60448201526064016104a4565b60408051606081018252858152336020820152662386f26fc100009181019190915260028054600181018255600091909152815182916003027f405787fa12a823e0f2b7631cc41b3ba8828b3321ca811111fa75cd3aa3bb5ace019081906113fc90826124cc565b506020828101516001830180546001600160a01b0319166001600160a01b039092169190911790556040928301516002909201919091553360009081526004909152208151829190819061145090826124cc565b506020820151600182810180546001600160a01b0319166001600160a01b03909316929092179091556040909201516002909101556003805491820181556000527fc2575a0e9e593c00f959f8c92f12db2869c3395a3b0502d05e2516446f71f85b016114bd86826124cc565b50336000908152600560205260408120805460ff1916600117905560078054916114e68361268a565b919050555060006040516114f990612025565b604051809103906000f080158015611515573d6000803e3d6000fd5b50905060005b600581101561159057604051631ffc735d60e01b8152660fe170fa25600060048201526001600160a01b03831690631ffc735d90602401600060405180830381600087803b15801561156c57600080fd5b505af1158015611580573d6000803e3d6000fd5b50506001909201915061151b9050565b50336000818152600660205260409081902080546001600160a01b0319166001600160a01b038516179055517fda4b066842833e7ab38c0f7ba442824b5eda00740d68ef015889812a792fc3ec916115f391899190662386f26fc10000906121a2565b60405180910390a1505050505050565b6001600160a01b038082166000908152600660209081526040808320548151630130ca2b60e01b8152915193948594911692630130ca2b92600480820193918290030181865afa15801561165b573d6000803e3d6000fd5b505050506040513d601f19601f8201168201806040525081019061167f91906126a3565b6001600160a01b0384166000908152600460205260409020600201549091507f085f11378a0c42687437148f7b62421b8e6f48c3a41b0e416dc85078bcc0bcd39084906116cb84610d4a565b604080516001600160a01b03909416845260208401929092529082015260600160405180910390a16116fc81610d4a565b6001600160a01b0390931660009081526004602052604090206002018390555090919050565b6000818152600860205260409020546001600160a01b031633146117945760405162461bcd60e51b815260206004820152602360248201527f4f6e6c79207468652061736b65722063616e2063616e63656c2073656c65637460448201526234b7b760e91b60648201526084016104a4565b61179d81611ce0565b156117ba5760405162461bcd60e51b81526004016104a49061239f565b60008181526008602052604090206005015460ff166118135760405162461bcd60e51b8152602060048201526015602482015274139bc8185b9cddd95c881a5cc81cd95b1958dd1959605a1b60448201526064016104a4565b60008181526008602090815260408083206006018054825181850281018501909352808352919290919083018282801561186c57602002820191906000526020600020905b815481526020019060010190808311611858575b5050505050905060005b815181101561191457600b6000838381518110611895576118956123cf565b60209081029190910181015182528101919091526040016000206004015460ff16151560010361190c576000600b60008484815181106118d7576118d76123cf565b6020026020010151815260200190815260200160002060040160006101000a81548160ff021916908315150217905550611914565b600101611876565b5060008281526008602052604090819020600501805460ff19169055517f53088c7bbf224d7afa175aa1fbda4d494a5008e230beebc8d16b45c8415e9645906119609084815260200190565b60405180910390a15050565b600061197783611ce0565b156119945760405162461bcd60e51b81526004016104a49061239f565b3360009081526005602052604090205460ff16611a085760405162461bcd60e51b815260206004820152602c60248201527f55736572206d757374206265207265676973746572656420746f20616e73776560448201526b3910309038bab2b9ba34b7b760a11b60648201526084016104a4565b6000825111611a525760405162461bcd60e51b8152602060048201526016602482015275416e737765722063616e6e6f7420626520656d70747960501b60448201526064016104a4565b600083815260086020526040902054336001600160a01b0390911603611ac65760405162461bcd60e51b8152602060048201526024808201527f596f752063616e6e6f7420616e7377657220796f7572206f776e207175657374604482015263696f6e2160e01b60648201526084016104a4565b60005b600084815260086020526040902060060154811015611b9857600084815260086020526040812060060180543392600b92909185908110611b0c57611b0c6123cf565b600091825260208083209091015483528201929092526040019020546001600160a01b031603611b905760405162461bcd60e51b815260206004820152602960248201527f596f752063616e6e6f7420616e73776572207468652073616d65207175657374604482015268696f6e20747769636560b81b60648201526084016104a4565b600101611ac9565b5060606000600c60008154611bac9061268a565b91829055506040805160c08101825233815260208082018481528284018a8152606084018a815260006080860181905260a086018a9052878152600b90945294909220835181546001600160a01b0319166001600160a01b0390911617815590516001820155905160028201559151929350918291906003820190611c3190826124cc565b50608082015160048201805460ff191691151591909117905560a08201518051611c65916005840191602090910190612032565b5050506000868152600860209081526040808320600681018054600181018255908552928420909201859055918890526002015490517f6664f2452a9c851a9ecdf8e98ff206e97b1ab656fddb6f741e06c4d085ed2b1391611ccd91899186918a91906126bc565b60405180910390a1509150505b92915050565b6000600a54821115611d345760405162461bcd60e51b815260206004820181905260248201527f54686520696e707574207175657374696f6e20696420697320696e76616c696460448201526064016104a4565b60008281526008602090815260408083208151610120810190925280546001600160a01b031682526001810180549293919291840191611d73906123e5565b80601f0160208091040260200160405190810160405280929190818152602001828054611d9f906123e5565b8015611dec5780601f10611dc157610100808354040283529160200191611dec565b820191906000526020600020905b815481529060010190602001808311611dcf57829003601f168201915b50505091835250506002820154602080830191909152600383015460408084019190915260048401546060840152600584015460ff8082161515608086015261010082048116151560a08601526201000090910416151560c084015260068401805482518185028101850190935280835260e0909401939192909190830182828015611e9757602002820191906000526020600020905b815481526020019060010190808311611e83575b50505050508152505090508060600151421115611ecd576000838152600860205260409020600501805461ff0019166101001790555b8060600151421180611ee057508060c001515b9392505050565b60038181548110611ef757600080fd5b906000526020600020016000915090508054611f12906123e5565b80601f0160208091040260200160405190810160405280929190818152602001828054611f3e906123e5565b8015611f8b5780601f10611f6057610100808354040283529160200191611f8b565b820191906000526020600020905b815481529060010190602001808311611f6e57829003601f168201915b505050505081565b6004602052600090815260409020805481906108b1906123e5565b600860205260009081526040902080546001820180546001600160a01b0390921692916107cc906123e5565b828054828255906000526020600020908101928215612015579160200282015b82811115612015578251825591602001919060010190611ffa565b50612021929150612087565b5090565b610246806126ed83390190565b828054828255906000526020600020908101928215612015579160200282015b8281111561201557825182546001600160a01b0319166001600160a01b03909116178255602090920191600190910190612052565b5b808211156120215760008155600101612088565b6000602082840312156120ae57600080fd5b81356001600160a01b0381168114611ee057600080fd5b600080604083850312156120d857600080fd5b50508035926020909101359150565b6000602082840312156120f957600080fd5b5035919050565b6000815180845260005b818110156121265760208185018101518683018201520161210a565b506000602082860101526020601f19601f83011685010191505092915050565b6001600160a01b03891681526101006020820181905260009061216b8382018b612100565b604084019990995250506060810195909552608085019390935290151560a0840152151560c0830152151560e09091015292915050565b6060815260006121b56060830186612100565b6001600160a01b039490941660208301525060400152919050565b60018060a01b038616815284602082015283604082015260a0606082015260006121fd60a0830185612100565b905082151560808301529695505050505050565b634e487b7160e01b600052604160045260246000fd5b600082601f83011261223857600080fd5b813567ffffffffffffffff8082111561225357612253612211565b604051601f8301601f19908116603f0116810190828211818310171561227b5761227b612211565b8160405283815286602085880101111561229457600080fd5b836020870160208301376000602085830101528094505050505092915050565b600080600080608085870312156122ca57600080fd5b843567ffffffffffffffff8111156122e157600080fd5b6122ed87828801612227565b97602087013597506040870135966060013595509350505050565b60006020828403121561231a57600080fd5b813567ffffffffffffffff81111561233157600080fd5b61233d84828501612227565b949350505050565b6000806040838503121561235857600080fd5b82359150602083013567ffffffffffffffff81111561237657600080fd5b61238285828601612227565b9150509250929050565b602081526000611ee06020830184612100565b602080825260169082015275151a19481c5d595cdd1a5bdb881a5cc818db1bdcd95960521b604082015260600190565b634e487b7160e01b600052603260045260246000fd5b600181811c908216806123f957607f821691505b602082108103610d9d57634e487b7160e01b600052602260045260246000fd5b634e487b7160e01b600052601160045260246000fd5b80820180821115611cda57611cda612419565b60008261245f57634e487b7160e01b600052601260045260246000fd5b500490565b8082028115828204841417611cda57611cda612419565b601f8211156124c7576000816000526020600020601f850160051c810160208610156124a45750805b601f850160051c820191505b818110156124c3578281556001016124b0565b5050505b505050565b815167ffffffffffffffff8111156124e6576124e6612211565b6124fa816124f484546123e5565b8461247b565b602080601f83116001811461252f57600084156125175750858301515b600019600386901b1c1916600185901b1785556124c3565b600085815260208120601f198616915b8281101561255e5788860151825594840194600190910190840161253f565b508582101561257c5787850151600019600388901b60f8161c191681555b5050505050600190811b01905550565b6001600160a01b038816815260e060208083018290526000916125b19084018a612100565b60408401899052606084018890526080840187905285151560a085015283810360c08501528451808252602080870192019060005b81811015612602578351835292840192918401916001016125e6565b50909c9b505050505050505050505050565b6000808354612622816123e5565b6001828116801561263a576001811461264f5761267e565b60ff198416875282151583028701945061267e565b8760005260208060002060005b858110156126755781548a82015290840190820161265c565b50505082870194505b50929695505050505050565b60006001820161269c5761269c612419565b5060010190565b6000602082840312156126b557600080fd5b5051919050565b8481528360208201526080604082015260006126db6080830185612100565b90508260608301529594505050505056fe6080604052600180556000600255348015601857600080fd5b5061021e806100286000396000f3fe608060405234801561001057600080fd5b506004361061004c5760003560e01c80630130ca2b146100515780631f7b6d321461006b5780631ffc735d14610073578063957908d114610088575b600080fd5b610059610090565b60405190815260200160405180910390f35b6100596100dd565b610086610081366004610176565b610100565b005b61005961012c565b6001546000905b6002546100a59060016101a5565b8110156100d9576000818152602081905260409020546100c590806101be565b6100cf90836101a5565b9150600101610097565b5090565b600060015460025460016100f191906101a5565b6100fb91906101d5565b905090565b60016002600082825461011391906101a5565b9091555050600254600090815260208190526040902055565b600080600154600254101561014057600080fd5b506001805460009081526020819052604081208054908290558254909291829161016b9083906101a5565b909155509092915050565b60006020828403121561018857600080fd5b5035919050565b634e487b7160e01b600052601160045260246000fd5b808201808211156101b8576101b861018f565b92915050565b80820281158282048414176101b8576101b861018f565b818103818111156101b8576101b861018f56fea2646970667358221220ba2f82ddccad524b0a8065750c411370679db7b8061eec9659450c70c0ece14e64736f6c63430008190033a264697066735822122070b82d2138d9f1a39993839628f36cff18bc463e50509f1aafed6e77e670ae0364736f6c63430008190033","linkReferences":{}},"methodIdentifiers":{"accountNames(uint256)":"da62458a","answerCount()":"0bed0502","answerMap(uint256)":"41759a14","askQuestion(string,uint256,uint256,uint256)":"6de94083","calculate_credit(address)":"ab10d998","cancelSelection(uint256)":"c2782845","endorse(uint256,uint256)":"1ea5a292","getCredit(address)":"57344e6f","hasRegistered(address)":"a0d03526","isExpired(uint256)":"d9548e53","owner()":"8da5cb5b","postAnswer(uint256,string)":"c921d66c","questionCount()":"1468aa2c","questionMap(uint256)":"f061b5b1","questions(uint256)":"31b1b978","registerUser(string)":"704f1b94","rewardRecordsMap(address)":"13fc8c34","selectAnswer(uint256,uint256)":"3d9c4893","sqrt(uint256)":"677342ce","userAddrMap(address)":"e34d6805","userCount()":"07973ccf","users(uint256)":"365b98b2"},"id":24}