{"abi":[{"type":"constructor","inputs":[],"stateMutability":"nonpayable"},{"type":"function","name":"accountNames","inputs":[{"name":"","type":"uint256","internalType":"uint256"}],"outputs":[{"name":"","type":"string","internalType":"string"}],"stateMutability":"view"},{"type":"function","name":"calculate_credit","inputs":[{"name":"userAddress","type":"address","internalType":"address"}],"outputs":[{"name":"","type":"uint256","internalType":"uint256"}],"stateMutability":"nonpayable"},{"type":"function","name":"getCredit","inputs":[{"name":"userAddress","type":"address","internalType":"address"}],"outputs":[{"name":"","type":"uint256","internalType":"uint256"}],"stateMutability":"view"},{"type":"function","name":"getMyCredit","inputs":[],"outputs":[{"name":"","type":"uint256","internalType":"uint256"}],"stateMutability":"view"},{"type":"function","name":"hasRegistered","inputs":[{"name":"","type":"address","internalType":"address"}],"outputs":[{"name":"","type":"bool","internalType":"bool"}],"stateMutability":"view"},{"type":"function","name":"owner","inputs":[],"outputs":[{"name":"","type":"address","internalType":"address"}],"stateMutability":"view"},{"type":"function","name":"registerUser","inputs":[{"name":"_username","type":"string","internalType":"string"}],"outputs":[],"stateMutability":"nonpayable"},{"type":"function","name":"rewardRecordsMap","inputs":[{"name":"","type":"address","internalType":"address"}],"outputs":[{"name":"","type":"address","internalType":"contract Queue"}],"stateMutability":"view"},{"type":"function","name":"sqrt","inputs":[{"name":"x","type":"uint256","internalType":"uint256"}],"outputs":[{"name":"y","type":"uint256","internalType":"uint256"}],"stateMutability":"pure"},{"type":"function","name":"userAddrMap","inputs":[{"name":"","type":"address","internalType":"address"}],"outputs":[{"name":"user_name","type":"string","internalType":"string"},{"name":"user_address","type":"address","internalType":"address"},{"name":"credit","type":"uint256","internalType":"uint256"}],"stateMutability":"view"},{"type":"function","name":"userCount","inputs":[],"outputs":[{"name":"","type":"uint256","internalType":"uint256"}],"stateMutability":"view"},{"type":"function","name":"users","inputs":[{"name":"","type":"uint256","internalType":"uint256"}],"outputs":[{"name":"user_name","type":"string","internalType":"string"},{"name":"user_address","type":"address","internalType":"address"},{"name":"credit","type":"uint256","internalType":"uint256"}],"stateMutability":"view"},{"type":"event","name":"UserCreditUpdate","inputs":[{"name":"user_addr","type":"address","indexed":false,"internalType":"address"},{"name":"prev_credit","type":"uint256","indexed":false,"internalType":"uint256"},{"name":"new_credit","type":"uint256","indexed":false,"internalType":"uint256"}],"anonymous":false},{"type":"event","name":"UserRegistered","inputs":[{"name":"username","type":"string","indexed":false,"internalType":"string"},{"name":"userAddress","type":"address","indexed":false,"internalType":"address"},{"name":"default_credit","type":"uint256","indexed":false,"internalType":"uint256"}],"anonymous":false}],"bytecode":{"object":"0x60806040526000600655348015601457600080fd5b50600080546001600160a01b03191633179055610feb806100366000396000f3fe608060405234801561001057600080fd5b50600436106100b45760003560e01c8063704f1b9411610071578063704f1b941461017f5780638da5cb5b14610194578063a0d03526146101a7578063ab10d998146101da578063da62458a146101ed578063e34d68051461020d57600080fd5b806307973ccf146100b957806313fc8c34146100d5578063365b98b2146101165780633ead0e961461013857806357344e6f14610140578063677342ce1461016c575b600080fd5b6100c260065481565b6040519081526020015b60405180910390f35b6100fe6100e3366004610984565b6005602052600090815260409020546001600160a01b031681565b6040516001600160a01b0390911681526020016100cc565b6101296101243660046109b4565b610220565b6040516100cc93929190610a13565b6100c26102ec565b6100c261014e366004610984565b6001600160a01b031660009081526003602052604090206002015490565b6100c261017a3660046109b4565b610375565b61019261018d366004610a57565b6103ce565b005b6000546100fe906001600160a01b031681565b6101ca6101b5366004610984565b60046020526000908152604090205460ff1681565b60405190151581526020016100cc565b6100c26101e8366004610984565b610791565b6102006101fb3660046109b4565b6108b0565b6040516100cc9190610b08565b61012961021b366004610984565b61095c565b6001818154811061023057600080fd5b906000526020600020906003020160009150905080600001805461025390610b1b565b80601f016020809104026020016040519081016040528092919081815260200182805461027f90610b1b565b80156102cc5780601f106102a1576101008083540402835291602001916102cc565b820191906000526020600020905b8154815290600101906020018083116102af57829003601f168201915b50505050600183015460029093015491926001600160a01b031691905083565b3360009081526004602052604081205460ff1661035e5760405162461bcd60e51b815260206004820152602560248201527f55736572206d757374206265207265676973746572656420746f2067657420636044820152641c99591a5d60da1b60648201526084015b60405180910390fd5b503360009081526003602052604090206002015490565b6000806002610385846001610b65565b61038f9190610b7e565b90508291505b818110156103c8579050806002816103ad8186610b7e565b6103b79190610b65565b6103c19190610b7e565b9050610395565b50919050565b3360008181526004602052604090205460ff161561042e5760405162461bcd60e51b815260206004820152601a60248201527f54686520616464726573732077617320726567697374657265640000000000006044820152606401610355565b81600160005b6006548110156104915782805190602001206001828154811061045957610459610ba0565b90600052602060002090600302016000016040516104779190610bb6565b60405180910390200361048957600091505b600101610434565b50806104d45760405162461bcd60e51b81526020600482015260126024820152716475706c696361746520757365726e616d6560701b6044820152606401610355565b60008451116105255760405162461bcd60e51b815260206004820152601860248201527f557365726e616d652063616e6e6f7420626520656d70747900000000000000006044820152606401610355565b60408051606081018252858152336020820152662386f26fc1000091810191909152600180548082018255600091909152815182916003027fb10e2d527612073b26eecdfd717e6a320cf44b4afac2b0732d9fcbe2b7fa0cf60190819061058c9082610c7d565b506020828101516001830180546001600160a01b0319166001600160a01b03909216919091179055604092830151600290920191909155336000908152600390915220815182919081906105e09082610c7d565b506020820151600182810180546001600160a01b0319166001600160a01b0390931692909217909155604090920151600291820155805491820181556000527f405787fa12a823e0f2b7631cc41b3ba8828b3321ca811111fa75cd3aa3bb5ace0161064b8682610c7d565b50336000908152600460205260408120805460ff19166001179055600680549161067483610d3d565b9190505550600060405161068790610977565b604051809103906000f0801580156106a3573d6000803e3d6000fd5b50905060005b600581101561071e57604051631ffc735d60e01b8152660fe170fa25600060048201526001600160a01b03831690631ffc735d90602401600060405180830381600087803b1580156106fa57600080fd5b505af115801561070e573d6000803e3d6000fd5b5050600190920191506106a99050565b50336000818152600560205260409081902080546001600160a01b0319166001600160a01b038516179055517fda4b066842833e7ab38c0f7ba442824b5eda00740d68ef015889812a792fc3ec9161078191899190662386f26fc1000090610a13565b60405180910390a1505050505050565b6001600160a01b038082166000908152600560209081526040808320548151630130ca2b60e01b8152915193948594911692630130ca2b92600480820193918290030181865afa1580156107e9573d6000803e3d6000fd5b505050506040513d601f19601f8201168201806040525081019061080d9190610d56565b6001600160a01b0384166000908152600360205260409020600201549091507f085f11378a0c42687437148f7b62421b8e6f48c3a41b0e416dc85078bcc0bcd390849061085984610375565b604080516001600160a01b03909416845260208401929092529082015260600160405180910390a161088a81610375565b6001600160a01b0390931660009081526003602052604090206002018390555090919050565b600281815481106108c057600080fd5b9060005260206000200160009150905080546108db90610b1b565b80601f016020809104026020016040519081016040528092919081815260200182805461090790610b1b565b80156109545780601f1061092957610100808354040283529160200191610954565b820191906000526020600020905b81548152906001019060200180831161093757829003601f168201915b505050505081565b60036020526000908152604090208054819061025390610b1b565b61024680610d7083390190565b60006020828403121561099657600080fd5b81356001600160a01b03811681146109ad57600080fd5b9392505050565b6000602082840312156109c657600080fd5b5035919050565b6000815180845260005b818110156109f3576020818501810151868301820152016109d7565b506000602082860101526020601f19601f83011685010191505092915050565b606081526000610a2660608301866109cd565b6001600160a01b039490941660208301525060400152919050565b634e487b7160e01b600052604160045260246000fd5b600060208284031215610a6957600080fd5b813567ffffffffffffffff80821115610a8157600080fd5b818401915084601f830112610a9557600080fd5b813581811115610aa757610aa7610a41565b604051601f8201601f19908116603f01168101908382118183101715610acf57610acf610a41565b81604052828152876020848701011115610ae857600080fd5b826020860160208301376000928101602001929092525095945050505050565b6020815260006109ad60208301846109cd565b600181811c90821680610b2f57607f821691505b6020821081036103c857634e487b7160e01b600052602260045260246000fd5b634e487b7160e01b600052601160045260246000fd5b80820180821115610b7857610b78610b4f565b92915050565b600082610b9b57634e487b7160e01b600052601260045260246000fd5b500490565b634e487b7160e01b600052603260045260246000fd5b6000808354610bc481610b1b565b60018281168015610bdc5760018114610bf157610c20565b60ff1984168752821515830287019450610c20565b8760005260208060002060005b85811015610c175781548a820152908401908201610bfe565b50505082870194505b50929695505050505050565b601f821115610c78576000816000526020600020601f850160051c81016020861015610c555750805b601f850160051c820191505b81811015610c7457828155600101610c61565b5050505b505050565b815167ffffffffffffffff811115610c9757610c97610a41565b610cab81610ca58454610b1b565b84610c2c565b602080601f831160018114610ce05760008415610cc85750858301515b600019600386901b1c1916600185901b178555610c74565b600085815260208120601f198616915b82811015610d0f57888601518255948401946001909101908401610cf0565b5085821015610d2d5787850151600019600388901b60f8161c191681555b5050505050600190811b01905550565b600060018201610d4f57610d4f610b4f565b5060010190565b600060208284031215610d6857600080fd5b505191905056fe6080604052600180556000600255348015601857600080fd5b5061021e806100286000396000f3fe608060405234801561001057600080fd5b506004361061004c5760003560e01c80630130ca2b146100515780631f7b6d321461006b5780631ffc735d14610073578063957908d114610088575b600080fd5b610059610090565b60405190815260200160405180910390f35b6100596100dd565b610086610081366004610176565b610100565b005b61005961012c565b6001546000905b6002546100a59060016101a5565b8110156100d9576000818152602081905260409020546100c590806101be565b6100cf90836101a5565b9150600101610097565b5090565b600060015460025460016100f191906101a5565b6100fb91906101d5565b905090565b60016002600082825461011391906101a5565b9091555050600254600090815260208190526040902055565b600080600154600254101561014057600080fd5b506001805460009081526020819052604081208054908290558254909291829161016b9083906101a5565b909155509092915050565b60006020828403121561018857600080fd5b5035919050565b634e487b7160e01b600052601160045260246000fd5b808201808211156101b8576101b861018f565b92915050565b80820281158282048414176101b8576101b861018f565b818103818111156101b8576101b861018f56fea2646970667358221220ba2f82ddccad524b0a8065750c411370679db7b8061eec9659450c70c0ece14e64736f6c63430008190033a26469706673582212207d4ce30e21453e0afcefef0d105c484e0d53245ec023f0ceb8e5ed7a9055939d64736f6c63430008190033","linkReferences":{}},"methodIdentifiers":{"accountNames(uint256)":"da62458a","calculate_credit(address)":"ab10d998","getCredit(address)":"57344e6f","getMyCredit()":"3ead0e96","hasRegistered(address)":"a0d03526","owner()":"8da5cb5b","registerUser(string)":"704f1b94","rewardRecordsMap(address)":"13fc8c34","sqrt(uint256)":"677342ce","userAddrMap(address)":"e34d6805","userCount()":"07973ccf","users(uint256)":"365b98b2"},"id":27}