{"abi":[{"type":"constructor","inputs":[],"stateMutability":"nonpayable"},{"type":"function","name":"accountNames","inputs":[{"name":"","type":"uint256","internalType":"uint256"}],"outputs":[{"name":"","type":"string","internalType":"string"}],"stateMutability":"view"},{"type":"function","name":"calculate_credit","inputs":[{"name":"userAddress","type":"address","internalType":"address"}],"outputs":[{"name":"","type":"uint256","internalType":"uint256"}],"stateMutability":"nonpayable"},{"type":"function","name":"getCredit","inputs":[{"name":"userAddress","type":"address","internalType":"address"}],"outputs":[{"name":"","type":"uint256","internalType":"uint256"}],"stateMutability":"view"},{"type":"function","name":"hasRegistered","inputs":[{"name":"","type":"address","internalType":"address"}],"outputs":[{"name":"","type":"bool","internalType":"bool"}],"stateMutability":"view"},{"type":"function","name":"owner","inputs":[],"outputs":[{"name":"","type":"address","internalType":"address"}],"stateMutability":"view"},{"type":"function","name":"registerUser","inputs":[{"name":"_username","type":"string","internalType":"string"}],"outputs":[],"stateMutability":"nonpayable"},{"type":"function","name":"rewardRecordsMap","inputs":[{"name":"","type":"address","internalType":"address"}],"outputs":[{"name":"","type":"address","internalType":"contract Queue"}],"stateMutability":"view"},{"type":"function","name":"sqrt","inputs":[{"name":"x","type":"uint256","internalType":"uint256"}],"outputs":[{"name":"y","type":"uint256","internalType":"uint256"}],"stateMutability":"pure"},{"type":"function","name":"userAddrMap","inputs":[{"name":"","type":"address","internalType":"address"}],"outputs":[{"name":"user_name","type":"string","internalType":"string"},{"name":"user_address","type":"address","internalType":"address"},{"name":"credit","type":"uint256","internalType":"uint256"}],"stateMutability":"view"},{"type":"function","name":"userCount","inputs":[],"outputs":[{"name":"","type":"uint256","internalType":"uint256"}],"stateMutability":"view"},{"type":"function","name":"users","inputs":[{"name":"","type":"uint256","internalType":"uint256"}],"outputs":[{"name":"user_name","type":"string","internalType":"string"},{"name":"user_address","type":"address","internalType":"address"},{"name":"credit","type":"uint256","internalType":"uint256"}],"stateMutability":"view"},{"type":"event","name":"UserCreditUpdate","inputs":[{"name":"user_addr","type":"address","indexed":false,"internalType":"address"},{"name":"prev_credit","type":"uint256","indexed":false,"internalType":"uint256"},{"name":"new_credit","type":"uint256","indexed":false,"internalType":"uint256"}],"anonymous":false},{"type":"event","name":"UserRegistered","inputs":[{"name":"username","type":"string","indexed":false,"internalType":"string"},{"name":"userAddress","type":"address","indexed":false,"internalType":"address"},{"name":"default_credit","type":"uint256","indexed":false,"internalType":"uint256"}],"anonymous":false},{"type":"error","name":"ReentrancyGuardReentrantCall","inputs":[]}],"bytecode":{"object":"0x60806040526000600755348015601457600080fd5b506001600081905580546001600160a01b03191633179055610fc78061003b6000396000f3fe608060405234801561001057600080fd5b50600436106100a95760003560e01c8063704f1b9411610071578063704f1b94146101535780638da5cb5b14610168578063a0d035261461017b578063ab10d998146101ae578063da62458a146101c1578063e34d6805146101e157600080fd5b806307973ccf146100ae57806313fc8c34146100ca578063365b98b21461010b57806357344e6f1461012d578063677342ce14610140575b600080fd5b6100b760075481565b6040519081526020015b60405180910390f35b6100f36100d8366004610960565b6006602052600090815260409020546001600160a01b031681565b6040516001600160a01b0390911681526020016100c1565b61011e610119366004610990565b6101f4565b6040516100c1939291906109ef565b6100b761013b366004610960565b6102c0565b6100b761014e366004610990565b61035a565b610166610161366004610a33565b6103b3565b005b6001546100f3906001600160a01b031681565b61019e610189366004610960565b60056020526000908152604090205460ff1681565b60405190151581526020016100c1565b6100b76101bc366004610960565b61076d565b6101d46101cf366004610990565b61088c565b6040516100c19190610ae4565b61011e6101ef366004610960565b610938565b6002818154811061020457600080fd5b906000526020600020906003020160009150905080600001805461022790610af7565b80601f016020809104026020016040519081016040528092919081815260200182805461025390610af7565b80156102a05780601f10610275576101008083540402835291602001916102a0565b820191906000526020600020905b81548152906001019060200180831161028357829003601f168201915b50505050600183015460029093015491926001600160a01b031691905083565b6001600160a01b03811660009081526005602052604081205460ff1661033b5760405162461bcd60e51b815260206004820152602560248201527f55736572206d757374206265207265676973746572656420746f2067657420636044820152641c99591a5d60da1b60648201526084015b60405180910390fd5b506001600160a01b031660009081526004602052604090206002015490565b600080600261036a846001610b41565b6103749190610b5a565b90508291505b818110156103ad579050806002816103928186610b5a565b61039c9190610b41565b6103a69190610b5a565b905061037a565b50919050565b3360008181526005602052604090205460ff16156104135760405162461bcd60e51b815260206004820152601a60248201527f54686520616464726573732077617320726567697374657265640000000000006044820152606401610332565b81600160005b6007548110156104765782805190602001206002828154811061043e5761043e610b7c565b906000526020600020906003020160000160405161045c9190610b92565b60405180910390200361046e57600091505b600101610419565b50806104b95760405162461bcd60e51b81526020600482015260126024820152716475706c696361746520757365726e616d6560701b6044820152606401610332565b60008451116104fe5760405162461bcd60e51b8152602060048201526011602482015270557365726e616d6520697320656d70747960781b6044820152606401610332565b60408051606081018252858152336020820152662386f26fc100009181019190915260028054600181018255600091909152815182916003027f405787fa12a823e0f2b7631cc41b3ba8828b3321ca811111fa75cd3aa3bb5ace019081906105669082610c59565b506020828101516001830180546001600160a01b0319166001600160a01b03909216919091179055604092830151600290920191909155336000908152600490915220815182919081906105ba9082610c59565b506020820151600182810180546001600160a01b0319166001600160a01b03909316929092179091556040909201516002909101556003805491820181556000527fc2575a0e9e593c00f959f8c92f12db2869c3395a3b0502d05e2516446f71f85b016106278682610c59565b50336000908152600560205260408120805460ff19166001179055600780549161065083610d19565b9190505550600060405161066390610953565b604051809103906000f08015801561067f573d6000803e3d6000fd5b50905060005b60058110156106fa57604051631ffc735d60e01b8152660fe170fa25600060048201526001600160a01b03831690631ffc735d90602401600060405180830381600087803b1580156106d657600080fd5b505af11580156106ea573d6000803e3d6000fd5b5050600190920191506106859050565b50336000818152600660205260409081902080546001600160a01b0319166001600160a01b038516179055517fda4b066842833e7ab38c0f7ba442824b5eda00740d68ef015889812a792fc3ec9161075d91899190662386f26fc10000906109ef565b60405180910390a1505050505050565b6001600160a01b038082166000908152600660209081526040808320548151630130ca2b60e01b8152915193948594911692630130ca2b92600480820193918290030181865afa1580156107c5573d6000803e3d6000fd5b505050506040513d601f19601f820116820180604052508101906107e99190610d32565b6001600160a01b0384166000908152600460205260409020600201549091507f085f11378a0c42687437148f7b62421b8e6f48c3a41b0e416dc85078bcc0bcd39084906108358461035a565b604080516001600160a01b03909416845260208401929092529082015260600160405180910390a16108668161035a565b6001600160a01b0390931660009081526004602052604090206002018390555090919050565b6003818154811061089c57600080fd5b9060005260206000200160009150905080546108b790610af7565b80601f01602080910402602001604051908101604052809291908181526020018280546108e390610af7565b80156109305780601f1061090557610100808354040283529160200191610930565b820191906000526020600020905b81548152906001019060200180831161091357829003601f168201915b505050505081565b60046020526000908152604090208054819061022790610af7565b61024680610d4c83390190565b60006020828403121561097257600080fd5b81356001600160a01b038116811461098957600080fd5b9392505050565b6000602082840312156109a257600080fd5b5035919050565b6000815180845260005b818110156109cf576020818501810151868301820152016109b3565b506000602082860101526020601f19601f83011685010191505092915050565b606081526000610a0260608301866109a9565b6001600160a01b039490941660208301525060400152919050565b634e487b7160e01b600052604160045260246000fd5b600060208284031215610a4557600080fd5b813567ffffffffffffffff80821115610a5d57600080fd5b818401915084601f830112610a7157600080fd5b813581811115610a8357610a83610a1d565b604051601f8201601f19908116603f01168101908382118183101715610aab57610aab610a1d565b81604052828152876020848701011115610ac457600080fd5b826020860160208301376000928101602001929092525095945050505050565b60208152600061098960208301846109a9565b600181811c90821680610b0b57607f821691505b6020821081036103ad57634e487b7160e01b600052602260045260246000fd5b634e487b7160e01b600052601160045260246000fd5b80820180821115610b5457610b54610b2b565b92915050565b600082610b7757634e487b7160e01b600052601260045260246000fd5b500490565b634e487b7160e01b600052603260045260246000fd5b6000808354610ba081610af7565b60018281168015610bb85760018114610bcd57610bfc565b60ff1984168752821515830287019450610bfc565b8760005260208060002060005b85811015610bf35781548a820152908401908201610bda565b50505082870194505b50929695505050505050565b601f821115610c54576000816000526020600020601f850160051c81016020861015610c315750805b601f850160051c820191505b81811015610c5057828155600101610c3d565b5050505b505050565b815167ffffffffffffffff811115610c7357610c73610a1d565b610c8781610c818454610af7565b84610c08565b602080601f831160018114610cbc5760008415610ca45750858301515b600019600386901b1c1916600185901b178555610c50565b600085815260208120601f198616915b82811015610ceb57888601518255948401946001909101908401610ccc565b5085821015610d095787850151600019600388901b60f8161c191681555b5050505050600190811b01905550565b600060018201610d2b57610d2b610b2b565b5060010190565b600060208284031215610d4457600080fd5b505191905056fe6080604052600180556000600255348015601857600080fd5b5061021e806100286000396000f3fe608060405234801561001057600080fd5b506004361061004c5760003560e01c80630130ca2b146100515780631f7b6d321461006b5780631ffc735d14610073578063957908d114610088575b600080fd5b610059610090565b60405190815260200160405180910390f35b6100596100dd565b610086610081366004610176565b610100565b005b61005961012c565b6001546000905b6002546100a59060016101a5565b8110156100d9576000818152602081905260409020546100c590806101be565b6100cf90836101a5565b9150600101610097565b5090565b600060015460025460016100f191906101a5565b6100fb91906101d5565b905090565b60016002600082825461011391906101a5565b9091555050600254600090815260208190526040902055565b600080600154600254101561014057600080fd5b506001805460009081526020819052604081208054908290558254909291829161016b9083906101a5565b909155509092915050565b60006020828403121561018857600080fd5b5035919050565b634e487b7160e01b600052601160045260246000fd5b808201808211156101b8576101b861018f565b92915050565b80820281158282048414176101b8576101b861018f565b818103818111156101b8576101b861018f56fea2646970667358221220ba2f82ddccad524b0a8065750c411370679db7b8061eec9659450c70c0ece14e64736f6c63430008190033a264697066735822122039d6aafb3f7954599564503fa76e0242d94180cae2b7db41043d60149a45b45064736f6c63430008190033","linkReferences":{}},"methodIdentifiers":{"accountNames(uint256)":"da62458a","calculate_credit(address)":"ab10d998","getCredit(address)":"57344e6f","hasRegistered(address)":"a0d03526","owner()":"8da5cb5b","registerUser(string)":"704f1b94","rewardRecordsMap(address)":"13fc8c34","sqrt(uint256)":"677342ce","userAddrMap(address)":"e34d6805","userCount()":"07973ccf","users(uint256)":"365b98b2"},"id":28}