{"abi":[{"type":"constructor","inputs":[{"name":"_reward","type":"address","internalType":"contract RewardManagement"}],"stateMutability":"nonpayable"},{"type":"receive","stateMutability":"payable"},{"type":"function","name":"reward","inputs":[],"outputs":[{"name":"","type":"address","internalType":"contract RewardManagement"}],"stateMutability":"view"}],"bytecode":{"object":"0x60806040526000600155348015601457600080fd5b506040516101d63803806101d68339810160408190526031916055565b600080546001600160a01b0319166001600160a01b03929092169190911790556083565b600060208284031215606657600080fd5b81516001600160a01b0381168114607c57600080fd5b9392505050565b610144806100926000396000f3fe6080604052600436106100225760003560e01c8063228cb733146100ab57600080fd5b366100a65760018054906000610037836100e7565b919050555060018054116100a457600054604051630b19257560e31b8152600160048201526001600160a01b03909116906358c92ba890602401600060405180830381600087803b15801561008b57600080fd5b505af115801561009f573d6000803e3d6000fd5b505050505b005b600080fd5b3480156100b757600080fd5b506000546100cb906001600160a01b031681565b6040516001600160a01b03909116815260200160405180910390f35b60006001820161010757634e487b7160e01b600052601160045260246000fd5b506001019056fea264697066735822122023ce97586e14d7e66da6b4bc8bfcb524f4c51feae3dbb695c2a163892df4192364736f6c63430008190033","linkReferences":{}},"methodIdentifiers":{"reward()":"228cb733"},"id":30}