{"abi":[{"type":"constructor","inputs":[{"name":"_reward","type":"address","internalType":"contract RewardManagement"}],"stateMutability":"nonpayable"},{"type":"function","name":"reward","inputs":[],"outputs":[{"name":"","type":"address","internalType":"contract RewardManagement"}],"stateMutability":"view"},{"type":"function","name":"selfD","inputs":[],"outputs":[],"stateMutability":"payable"}],"bytecode":{"object":"0x6080604052348015600f57600080fd5b5060405161013d38038061013d833981016040819052602c916050565b600080546001600160a01b0319166001600160a01b0392909216919091179055607e565b600060208284031215606157600080fd5b81516001600160a01b0381168114607757600080fd5b9392505050565b60b18061008c6000396000f3fe60806040526004361060265760003560e01c8063228cb73314602b578063ca12e692146065575b600080fd5b348015603657600080fd5b506000546049906001600160a01b031681565b6040516001600160a01b03909116815260200160405180910390f35b606b606d565b005b6000546001600160a01b0316fffea2646970667358221220c9dbfb2afc9fbd2987c92108834e7dd3e6db56cb533dff0f898e65ef8aeae66764736f6c63430008190033","linkReferences":{}},"methodIdentifiers":{"reward()":"228cb733","selfD()":"ca12e692"},"id":30}