{"abi":[{"type":"receive","stateMutability":"payable"},{"type":"function","name":"accountNames","inputs":[{"name":"","type":"uint256","internalType":"uint256"}],"outputs":[{"name":"","type":"string","internalType":"string"}],"stateMutability":"view"},{"type":"function","name":"answerCount","inputs":[],"outputs":[{"name":"","type":"uint256","internalType":"uint256"}],"stateMutability":"view"},{"type":"function","name":"answerMap","inputs":[{"name":"","type":"uint256","internalType":"uint256"}],"outputs":[{"name":"answerer","type":"address","internalType":"address"},{"name":"answer_id","type":"uint256","internalType":"uint256"},{"name":"question_id","type":"uint256","internalType":"uint256"},{"name":"content","type":"string","internalType":"string"},{"name":"isSelected","type":"bool","internalType":"bool"}],"stateMutability":"view"},{"type":"function","name":"askQuestion","inputs":[{"name":"_content","type":"string","internalType":"string"},{"name":"_day","type":"uint256","internalType":"uint256"},{"name":"_hour","type":"uint256","internalType":"uint256"},{"name":"_min","type":"uint256","internalType":"uint256"}],"outputs":[{"name":"","type":"uint256","internalType":"uint256"}],"stateMutability":"payable"},{"type":"function","name":"calculate_credit","inputs":[{"name":"userAddress","type":"address","internalType":"address"}],"outputs":[{"name":"","type":"uint256","internalType":"uint256"}],"stateMutability":"nonpayable"},{"type":"function","name":"cancelSelection","inputs":[{"name":"q_id","type":"uint256","internalType":"uint256"}],"outputs":[],"stateMutability":"nonpayable"},{"type":"function","name":"checkEndorsement","inputs":[{"name":"q_id","type":"uint256","internalType":"uint256"}],"outputs":[{"name":"","type":"address[]","internalType":"address[]"}],"stateMutability":"view"},{"type":"function","name":"closeQuestion","inputs":[{"name":"q_id","type":"uint256","internalType":"uint256"},{"name":"giveReward","type":"bool","internalType":"bool"}],"outputs":[],"stateMutability":"nonpayable"},{"type":"function","name":"endorse","inputs":[{"name":"answer_id","type":"uint256","internalType":"uint256"},{"name":"question_id","type":"uint256","internalType":"uint256"}],"outputs":[],"stateMutability":"nonpayable"},{"type":"function","name":"getCredit","inputs":[{"name":"userAddress","type":"address","internalType":"address"}],"outputs":[{"name":"","type":"uint256","internalType":"uint256"}],"stateMutability":"view"},{"type":"function","name":"hasRegistered","inputs":[{"name":"","type":"address","internalType":"address"}],"outputs":[{"name":"","type":"bool","internalType":"bool"}],"stateMutability":"view"},{"type":"function","name":"isExpired","inputs":[{"name":"q_id","type":"uint256","internalType":"uint256"}],"outputs":[{"name":"","type":"bool","internalType":"bool"}],"stateMutability":"nonpayable"},{"type":"function","name":"owner","inputs":[],"outputs":[{"name":"","type":"address","internalType":"address"}],"stateMutability":"view"},{"type":"function","name":"postAnswer","inputs":[{"name":"question_id","type":"uint256","internalType":"uint256"},{"name":"content","type":"string","internalType":"string"}],"outputs":[{"name":"","type":"uint256","internalType":"uint256"}],"stateMutability":"nonpayable"},{"type":"function","name":"questionCount","inputs":[],"outputs":[{"name":"","type":"uint256","internalType":"uint256"}],"stateMutability":"view"},{"type":"function","name":"questionMap","inputs":[{"name":"","type":"uint256","internalType":"uint256"}],"outputs":[{"name":"asker","type":"address","internalType":"address"},{"name":"content","type":"string","internalType":"string"},{"name":"reward","type":"uint256","internalType":"uint256"},{"name":"expiration_time","type":"uint256","internalType":"uint256"},{"name":"question_id","type":"uint256","internalType":"uint256"},{"name":"selected","type":"bool","internalType":"bool"},{"name":"closed","type":"bool","internalType":"bool"},{"name":"distributed","type":"bool","internalType":"bool"}],"stateMutability":"view"},{"type":"function","name":"questions","inputs":[{"name":"","type":"uint256","internalType":"uint256"}],"outputs":[{"name":"asker","type":"address","internalType":"address"},{"name":"content","type":"string","internalType":"string"},{"name":"reward","type":"uint256","internalType":"uint256"},{"name":"expiration_time","type":"uint256","internalType":"uint256"},{"name":"question_id","type":"uint256","internalType":"uint256"},{"name":"selected","type":"bool","internalType":"bool"},{"name":"closed","type":"bool","internalType":"bool"},{"name":"distributed","type":"bool","internalType":"bool"}],"stateMutability":"view"},{"type":"function","name":"registerUser","inputs":[{"name":"_username","type":"string","internalType":"string"}],"outputs":[],"stateMutability":"nonpayable"},{"type":"function","name":"rewardDistributeByExpirationTime","inputs":[{"name":"question_id","type":"uint256","internalType":"uint256"}],"outputs":[],"stateMutability":"nonpayable"},{"type":"function","name":"rewardRecordsMap","inputs":[{"name":"","type":"address","internalType":"address"}],"outputs":[{"name":"","type":"address","internalType":"contract Queue"}],"stateMutability":"view"},{"type":"function","name":"selectAnswer","inputs":[{"name":"q_id","type":"uint256","internalType":"uint256"},{"name":"a_id","type":"uint256","internalType":"uint256"}],"outputs":[],"stateMutability":"nonpayable"},{"type":"function","name":"sqrt","inputs":[{"name":"x","type":"uint256","internalType":"uint256"}],"outputs":[{"name":"y","type":"uint256","internalType":"uint256"}],"stateMutability":"pure"},{"type":"function","name":"userAddrMap","inputs":[{"name":"","type":"address","internalType":"address"}],"outputs":[{"name":"user_name","type":"string","internalType":"string"},{"name":"user_address","type":"address","internalType":"address"},{"name":"credit","type":"uint256","internalType":"uint256"}],"stateMutability":"view"},{"type":"function","name":"userCount","inputs":[],"outputs":[{"name":"","type":"uint256","internalType":"uint256"}],"stateMutability":"view"},{"type":"function","name":"users","inputs":[{"name":"","type":"uint256","internalType":"uint256"}],"outputs":[{"name":"user_name","type":"string","internalType":"string"},{"name":"user_address","type":"address","internalType":"address"},{"name":"credit","type":"uint256","internalType":"uint256"}],"stateMutability":"view"},{"type":"event","name":"AnswerCreated","inputs":[{"name":"q_id","type":"uint256","indexed":false,"internalType":"uint256"},{"name":"a_id","type":"uint256","indexed":false,"internalType":"uint256"},{"name":"content","type":"string","indexed":false,"internalType":"string"},{"name":"reward","type":"uint256","indexed":false,"internalType":"uint256"}],"anonymous":false},{"type":"event","name":"AnswerSelected","inputs":[{"name":"q_id","type":"uint256","indexed":false,"internalType":"uint256"},{"name":"a_id","type":"uint256","indexed":false,"internalType":"uint256"}],"anonymous":false},{"type":"event","name":"CancelSelection","inputs":[{"name":"q_id","type":"uint256","indexed":false,"internalType":"uint256"}],"anonymous":false},{"type":"event","name":"Endorse","inputs":[{"name":"a_id","type":"uint256","indexed":false,"internalType":"uint256"},{"name":"endorser","type":"address","indexed":false,"internalType":"address"},{"name":"q_id","type":"uint256","indexed":false,"internalType":"uint256"}],"anonymous":false},{"type":"event","name":"MoneyReceived","inputs":[{"name":"payer","type":"address","indexed":false,"internalType":"address"},{"name":"value","type":"uint256","indexed":false,"internalType":"uint256"}],"anonymous":false},{"type":"event","name":"QuestionClosed","inputs":[{"name":"q_id","type":"uint256","indexed":false,"internalType":"uint256"}],"anonymous":false},{"type":"event","name":"QuestionCreated","inputs":[{"name":"asker","type":"address","indexed":false,"internalType":"address"},{"name":"content","type":"string","indexed":false,"internalType":"string"},{"name":"reward","type":"uint256","indexed":false,"internalType":"uint256"},{"name":"expiration_time","type":"uint256","indexed":false,"internalType":"uint256"},{"name":"question_id","type":"uint256","indexed":false,"internalType":"uint256"},{"name":"closed","type":"bool","indexed":false,"internalType":"bool"},{"name":"answer_ids","type":"uint256[]","indexed":false,"internalType":"uint256[]"}],"anonymous":false},{"type":"event","name":"RewardDistributed","inputs":[{"name":"q_id","type":"uint256","indexed":false,"internalType":"uint256"},{"name":"recipients","type":"address[]","indexed":false,"internalType":"address[]"}],"anonymous":false},{"type":"event","name":"UserCreditUpdate","inputs":[{"name":"user_addr","type":"address","indexed":false,"internalType":"address"},{"name":"prev_credit","type":"uint256","indexed":false,"internalType":"uint256"},{"name":"new_credit","type":"uint256","indexed":false,"internalType":"uint256"}],"anonymous":false},{"type":"event","name":"UserRegistered","inputs":[{"name":"username","type":"string","indexed":false,"internalType":"string"},{"name":"userAddress","type":"address","indexed":false,"internalType":"address"},{"name":"default_credit","type":"uint256","indexed":false,"internalType":"uint256"}],"anonymous":false},{"type":"error","name":"ReentrancyGuardReentrantCall","inputs":[]}],"bytecode":{"object":"0x608060405260006007556000600a556000600c55348015601e57600080fd5b506001600081905580546001600160a01b03191633179055613ac6806100456000396000f3fe60806040526004361061016a5760003560e01c8063677342ce116100d1578063ab10d9981161008a578063d9548e5311610064578063d9548e531461048f578063da62458a146104af578063e34d6805146104dc578063f061b5b1146104fc57600080fd5b8063ab10d9981461042f578063c27828451461044f578063c921d66c1461046f57600080fd5b8063677342ce1461034f5780636de940831461036f578063704f1b94146103825780638da5cb5b146103a25780638e1ad7df146103c2578063a0d03526146103ef57600080fd5b8063365b98b211610123578063365b98b21461026f5780633cfe5c821461029e5780633d9c4893146102be57806341759a14146102de57806357344e6f1461030f57806358c92ba81461032f57600080fd5b806307973ccf146101765780630bed05021461019f57806313fc8c34146101b55780631468aa2c146102035780631ea5a2921461021957806331b1b9781461023b57600080fd5b3661017157005b600080fd5b34801561018257600080fd5b5061018c60075481565b6040519081526020015b60405180910390f35b3480156101ab57600080fd5b5061018c600c5481565b3480156101c157600080fd5b506101eb6101d0366004613134565b6006602052600090815260409020546001600160a01b031681565b6040516001600160a01b039091168152602001610196565b34801561020f57600080fd5b5061018c600a5481565b34801561022557600080fd5b5061023961023436600461315d565b61051c565b005b34801561024757600080fd5b5061025b61025636600461317f565b61082b565b6040516101969897969594939291906131de565b34801561027b57600080fd5b5061028f61028a36600461317f565b61091c565b6040516101969392919061323a565b3480156102aa57600080fd5b506102396102b9366004613268565b6109e8565b3480156102ca57600080fd5b506102396102d936600461315d565b610b3e565b3480156102ea57600080fd5b506102fe6102f936600461317f565b610de3565b60405161019695949392919061329d565b34801561031b57600080fd5b5061018c61032a366004613134565b610ea9565b34801561033b57600080fd5b5061023961034a36600461317f565b610f3e565b34801561035b57600080fd5b5061018c61036a36600461317f565b6113e8565b61018c61037d366004613381565b611441565b34801561038e57600080fd5b5061023961039d3660046133d5565b6118e7565b3480156103ae57600080fd5b506001546101eb906001600160a01b031681565b3480156103ce57600080fd5b506103e26103dd36600461317f565b611ca1565b6040516101969190613457565b3480156103fb57600080fd5b5061041f61040a366004613134565b60056020526000908152604090205460ff1681565b6040519015158152602001610196565b34801561043b57600080fd5b5061018c61044a366004613134565b611f69565b34801561045b57600080fd5b5061023961046a36600461317f565b612088565b34801561047b57600080fd5b5061018c61048a36600461346a565b6122d2565b34801561049b57600080fd5b5061041f6104aa36600461317f565b612646565b3480156104bb57600080fd5b506104cf6104ca36600461317f565b61284d565b60405161019691906134b1565b3480156104e857600080fd5b5061028f6104f7366004613134565b6128f9565b34801561050857600080fd5b5061025b61051736600461317f565b612914565b61052581612646565b1561054b5760405162461bcd60e51b8152600401610542906134c4565b60405180910390fd5b3360009081526005602052604090205460ff166105be5760405162461bcd60e51b815260206004820152602b60248201527f55736572206d757374206265207265676973746572656420746f20616464206560448201526a6e646f7273656d656e747360a81b6064820152608401610542565b6000828152600b6020526040902054336001600160a01b03909116036106315760405162461bcd60e51b815260206004820152602260248201527f596f752063616e6e6f7420656e646f72736520796f7572206f776e20616e737760448201526132b960f11b6064820152608401610542565b6000828152600b602052604090206002015481146106a45760405162461bcd60e51b815260206004820152602a60248201527f54686520616e7377657220646f6573206e6f742062656c6f6e6720746f207468604482015269329038bab2b9ba34b7b760b11b6064820152608401610542565b6000828152600b602090815260408083206005018054825181850281018501909352808352919290919083018282801561070757602002820191906000526020600020905b81546001600160a01b031681526001909101906020018083116106e9575b505050505090506000805b825181101561075a57336001600160a01b0316838281518110610737576107376134f4565b60200260200101516001600160a01b03160361075257600191505b600101610712565b5080156107b55760405162461bcd60e51b815260206004820152602360248201527f557365722063616e6e6f7420656e646f72736520616e20616e7377657220747760448201526269636560e81b6064820152608401610542565b604080518581523360208201529081018490527f266365a2aceb5ff9d23a2e846eb7b7339cd874d164131d977f6946cb1d0dfcf19060600160405180910390a15050506000908152600b602090815260408220600501805460018101825590835291200180546001600160a01b03191633179055565b6009818154811061083b57600080fd5b6000918252602090912060079091020180546001820180546001600160a01b0390921693509061086a9061350a565b80601f01602080910402602001604051908101604052809291908181526020018280546108969061350a565b80156108e35780601f106108b8576101008083540402835291602001916108e3565b820191906000526020600020905b8154815290600101906020018083116108c657829003601f168201915b505050506002830154600384015460048501546005909501549394919390925060ff808216916101008104821691620100009091041688565b6002818154811061092c57600080fd5b906000526020600020906003020160009150905080600001805461094f9061350a565b80601f016020809104026020016040519081016040528092919081815260200182805461097b9061350a565b80156109c85780601f1061099d576101008083540402835291602001916109c8565b820191906000526020600020905b8154815290600101906020018083116109ab57829003601f168201915b50505050600183015460029093015491926001600160a01b031691905083565b6109f0612940565b6109f982612646565b15610a525760405162461bcd60e51b8152602060048201526024808201527f546865207175657374696f6e2068617320616c7265616479206265656e20636c6044820152631bdcd95960e21b6064820152608401610542565b6000828152600860205260409020546001600160a01b03163314610ac65760405162461bcd60e51b815260206004820152602560248201527f4f6e6c79207468652061736b65722063616e20636c6f7365207468652071756560448201526439ba34b7b760d91b6064820152608401610542565b6000828152600860205260409020600501805461ff001916610100179081905562010000900460ff16610afd57610afd828261296a565b6040518281527f3c8f450bdfccd4e29a4d8e9602688d5e009772a7de7c40c7f27b8f8c129f01fa9060200160405180910390a1610b3a6001600055565b5050565b610b4782612646565b15610b645760405162461bcd60e51b8152600401610542906134c4565b6000828152600860205260409020546001600160a01b03163314610bdc5760405162461bcd60e51b815260206004820152602960248201527f4f6e6c79207468652061736b65722063616e2073656c6563742074686520626560448201526839ba1030b739bbb2b960b91b6064820152608401610542565b6000818152600b60205260409020600201548214610c505760405162461bcd60e51b815260206004820152602b60248201527f54686520616e7377657220646f6573206e6f742062656c6f6e6720746f20746860448201526a34b99038bab2b9ba34b7b760a91b6064820152608401610542565b600082815260086020908152604080832060060180548251818502810185019093528083529192909190830182828015610ca957602002820191906000526020600020905b815481526020019060010190808311610c95575b505050600086815260086020526040902060050154929350505060ff1615610d6e5760005b8151811015610d6c57600b6000838381518110610ced57610ced6134f4565b60209081029190910181015182528101919091526040016000206004015460ff161515600103610d64576000600b6000848481518110610d2f57610d2f6134f4565b6020026020010151815260200190815260200160002060040160006101000a81548160ff021916908315150217905550610d6c565b600101610cce565b505b60008381526008602090815260408083206005018054600160ff199182168117909255868552600b84529382902060040180549094161790925581518581529081018490527fcce2e26b4c2c9bdecbd753012d7f595a50f3fe6263dc2090e6432f7cc9c5b8bc910160405180910390a1505050565b600b6020526000908152604090208054600182015460028301546003840180546001600160a01b03909416949293919291610e1d9061350a565b80601f0160208091040260200160405190810160405280929190818152602001828054610e499061350a565b8015610e965780601f10610e6b57610100808354040283529160200191610e96565b820191906000526020600020905b815481529060010190602001808311610e7957829003601f168201915b5050506004909301549192505060ff1685565b6001600160a01b03811660009081526005602052604081205460ff16610f1f5760405162461bcd60e51b815260206004820152602560248201527f55736572206d757374206265207265676973746572656420746f2067657420636044820152641c99591a5d60da1b6064820152608401610542565b506001600160a01b031660009081526004602052604090206002015490565b610f46612940565b3360009081526005602052604090205460ff16610fa55760405162461bcd60e51b815260206004820152601d60248201527f5468652061646472657373206973206e6f7420726567697374657265640000006044820152606401610542565b610fae81612646565b610fb757600080fd5b60008181526008602052604090206005015462010000900460ff1615610fdc57600080fd5b6000818152600860205260409020600281015460059091015460ff161561118b57600061100883612e4d565b60408051600180825281830190925291925060009190602080830190803683370190505090508181600081518110611042576110426134f4565b60200260200101906001600160a01b031690816001600160a01b031681525050824710156110985760405162461bcd60e51b81526020600482015260036024820152621b101b60e91b6044820152606401610542565b6000826001600160a01b03168460405160006040518083038185875af1925050503d80600081146110e5576040519150601f19603f3d011682016040523d82523d6000602084013e6110ea565b606091505b505090508061113b5760405162461bcd60e51b815260206004820152601d60248201527f52657761726420646973747269627574696f6e206661696c65642036380000006044820152606401610542565b60008581526008602052604090819020600501805462ff000019166201000017905551600080516020613a718339815191529061117b908790859061353e565b60405180910390a15050506113d9565b600061119683611ca1565b9050805160000361129f576000838152600860205260408082205490516001600160a01b039091169084908381818185875af1925050503d80600081146111f9576040519150601f19603f3d011682016040523d82523d6000602084013e6111fe565b606091505b505090508061124f5760405162461bcd60e51b815260206004820152601a60248201527f52657761726420646973747269627574696f6e206661696c65640000000000006044820152606401610542565b60008481526008602052604090819020600501805462ff000019166201000017905551600080516020613a718339815191529061128f908690859061353e565b60405180910390a15050506113db565b60008151836112ae919061356d565b905060005b82518110156113ae57814710156112c957600080fd5b60008382815181106112dd576112dd6134f4565b60200260200101516001600160a01b03168360405160006040518083038185875af1925050503d806000811461132f576040519150601f19603f3d011682016040523d82523d6000602084013e611334565b606091505b50509050806113855760405162461bcd60e51b815260206004820152601d60248201527f52657761726420646973747269627574696f6e206661696c65642038350000006044820152606401610542565b506000858152600860205260409020600501805462ff00001916620100001790556001016112b3565b50600080516020613a7183398151915284836040516113ce92919061353e565b60405180910390a150505b505b6113e56001600055565b50565b60008060026113f884600161358f565b611402919061356d565b90508291505b8181101561143b57905080600281611420818661356d565b61142a919061358f565b611434919061356d565b9050611408565b50919050565b3360009081526005602052604081205460ff166114965760405162461bcd60e51b8152602060048201526013602482015272155cd95c881b9bdd081c9959da5cdd195c9959606a1b6044820152606401610542565b6000341180156114ae57506114aa33610ea9565b3411155b6115205760405162461bcd60e51b815260206004820152603860248201527f526577617264206d7573742062652067726561746572207468616e203020616e60448201527f64206c657373207468616e20637265646974206c696d697400000000000000006064820152608401610542565b60008551116115715760405162461bcd60e51b815260206004820152601860248201527f5175657374696f6e2063616e6e6f7420626520656d70747900000000000000006044820152606401610542565b600061157e83603c6135a2565b61158a85610e106135a2565b61159787620151806135a2565b6115a1919061358f565b6115ab919061358f565b90506201518081101580156115c3575062093a808111155b6116355760405162461bcd60e51b815260206004820152603f60248201527f45787069726174696f6e2074696d65206d75737420626520677265617465722060448201527f7468616e20312064617920616e64206c657373207468616e20372064617973006064820152608401610542565b6001600a6000828254611648919061358f565b9091555050600a5460408051610120810182523381526020810189905234918101919091526000906060810161167e854261358f565b81526020808201859052600060408084018290526060840182905260808401829052805182815280840190915260a09093019290925260098054600181018255925282517f6e1540171b6c0c960b71a7020d9f60077f6af931a8bbf590da0223dacf75c7af600790930292830180546001600160a01b0319166001600160a01b0390921691909117815590830151929350839290917f6e1540171b6c0c960b71a7020d9f60077f6af931a8bbf590da0223dacf75c7b00190611740908261360a565b5060408201516002820155606082015160038201556080820151600482015560a082015160058201805460c085015160e086015161ffff1990921693151561ff0019169390931761010093151584021762ff00001916620100009115159190910217905582015180516117bd916006840191602090910190613072565b5050506000828152600860209081526040909120825181546001600160a01b0319166001600160a01b03909116178155908201518291906001820190611803908261360a565b5060408201516002820155606082015160038201556080820151600482015560a082015160058201805460c085015160e086015161ffff1990921693151561ff0019169390931761010093151584021762ff0000191662010000911515919091021790558201518051611880916006840191602090910190613072565b507f84b861809ad6a7273eb286675afe4848e1772d87876e38ff1870adfc5ebbcbb1915033905089346118b3874261358f565b60408051600080825260208201928390526118d496959493928a92906136ca565b60405180910390a1509695505050505050565b3360008181526005602052604090205460ff16156119475760405162461bcd60e51b815260206004820152601a60248201527f54686520616464726573732077617320726567697374657265640000000000006044820152606401610542565b81600160005b6007548110156119aa57828051906020012060028281548110611972576119726134f4565b90600052602060002090600302016000016040516119909190613752565b6040518091039020036119a257600091505b60010161194d565b50806119ed5760405162461bcd60e51b81526020600482015260126024820152716475706c696361746520757365726e616d6560701b6044820152606401610542565b6000845111611a325760405162461bcd60e51b8152602060048201526011602482015270557365726e616d6520697320656d70747960781b6044820152606401610542565b60408051606081018252858152336020820152662386f26fc100009181019190915260028054600181018255600091909152815182916003027f405787fa12a823e0f2b7631cc41b3ba8828b3321ca811111fa75cd3aa3bb5ace01908190611a9a908261360a565b506020828101516001830180546001600160a01b0319166001600160a01b0390921691909117905560409283015160029092019190915533600090815260049091522081518291908190611aee908261360a565b506020820151600182810180546001600160a01b0319166001600160a01b03909316929092179091556040909201516002909101556003805491820181556000527fc2575a0e9e593c00f959f8c92f12db2869c3395a3b0502d05e2516446f71f85b01611b5b868261360a565b50336000908152600560205260408120805460ff191660011790556007805491611b84836137c8565b91905055506000604051611b97906130bd565b604051809103906000f080158015611bb3573d6000803e3d6000fd5b50905060005b6005811015611c2e57604051631ffc735d60e01b8152660fe170fa25600060048201526001600160a01b03831690631ffc735d90602401600060405180830381600087803b158015611c0a57600080fd5b505af1158015611c1e573d6000803e3d6000fd5b505060019092019150611bb99050565b50336000818152600660205260409081902080546001600160a01b0319166001600160a01b038516179055517fda4b066842833e7ab38c0f7ba442824b5eda00740d68ef015889812a792fc3ec91611c9191899190662386f26fc100009061323a565b60405180910390a1505050505050565b600081815260086020526040902060050154606090610100900460ff16611d0a5760405162461bcd60e51b815260206004820152601a60248201527f546865207175657374696f6e206973206e6f7420636c6f7365640000000000006044820152606401610542565b600082815260086020908152604080832060060180548251818502810185019093528083529192909190830182828015611d6357602002820191906000526020600020905b815481526020019060010190808311611d4f575b505050505090506000805b8251811015611def5781600b6000858481518110611d8e57611d8e6134f4565b60200260200101518152602001908152602001600020600501805490501115611de757600b6000848381518110611dc757611dc76134f4565b602002602001015181526020019081526020016000206005018054905091505b600101611d6e565b506000805b8351811015611e4c5782600b6000868481518110611e1457611e146134f4565b602002602001015181526020019081526020016000206005018054905003611e445781611e40816137c8565b9250505b600101611df4565b5060008167ffffffffffffffff811115611e6857611e686132de565b604051908082528060200260200182016040528015611e91578160200160208202803683370190505b5090506000805b8551811015611f5d5784600b6000888481518110611eb857611eb86134f4565b602002602001015181526020019081526020016000206005018054905003611f5557600b6000878381518110611ef057611ef06134f4565b6020026020010151815260200190815260200160002060000160009054906101000a90046001600160a01b0316838381518110611f2f57611f2f6134f4565b6001600160a01b039092166020928302919091019091015281611f51816137c8565b9250505b600101611e98565b50909695505050505050565b6001600160a01b038082166000908152600660209081526040808320548151630130ca2b60e01b8152915193948594911692630130ca2b92600480820193918290030181865afa158015611fc1573d6000803e3d6000fd5b505050506040513d601f19601f82011682018060405250810190611fe591906137e1565b6001600160a01b0384166000908152600460205260409020600201549091507f085f11378a0c42687437148f7b62421b8e6f48c3a41b0e416dc85078bcc0bcd3908490612031846113e8565b604080516001600160a01b03909416845260208401929092529082015260600160405180910390a1612062816113e8565b6001600160a01b0390931660009081526004602052604090206002018390555090919050565b6000818152600860205260409020546001600160a01b031633146120fa5760405162461bcd60e51b815260206004820152602360248201527f4f6e6c79207468652061736b65722063616e2063616e63656c2073656c65637460448201526234b7b760e91b6064820152608401610542565b61210381612646565b156121205760405162461bcd60e51b8152600401610542906134c4565b60008181526008602052604090206005015460ff166121795760405162461bcd60e51b8152602060048201526015602482015274139bc8185b9cddd95c881a5cc81cd95b1958dd1959605a1b6044820152606401610542565b6000818152600860209081526040808320600601805482518185028101850190935280835291929091908301828280156121d257602002820191906000526020600020905b8154815260200190600101908083116121be575b5050505050905060005b815181101561227a57600b60008383815181106121fb576121fb6134f4565b60209081029190910181015182528101919091526040016000206004015460ff161515600103612272576000600b600084848151811061223d5761223d6134f4565b6020026020010151815260200190815260200160002060040160006101000a81548160ff02191690831515021790555061227a565b6001016121dc565b5060008281526008602052604090819020600501805460ff19169055517f53088c7bbf224d7afa175aa1fbda4d494a5008e230beebc8d16b45c8415e9645906122c69084815260200190565b60405180910390a15050565b60006122dd83612646565b156122fa5760405162461bcd60e51b8152600401610542906134c4565b3360009081526005602052604090205460ff1661236e5760405162461bcd60e51b815260206004820152602c60248201527f55736572206d757374206265207265676973746572656420746f20616e73776560448201526b3910309038bab2b9ba34b7b760a11b6064820152608401610542565b60008251116123b85760405162461bcd60e51b8152602060048201526016602482015275416e737765722063616e6e6f7420626520656d70747960501b6044820152606401610542565b600083815260086020526040902054336001600160a01b039091160361242c5760405162461bcd60e51b8152602060048201526024808201527f596f752063616e6e6f7420616e7377657220796f7572206f776e207175657374604482015263696f6e2160e01b6064820152608401610542565b60005b6000848152600860205260409020600601548110156124fe57600084815260086020526040812060060180543392600b92909185908110612472576124726134f4565b600091825260208083209091015483528201929092526040019020546001600160a01b0316036124f65760405162461bcd60e51b815260206004820152602960248201527f596f752063616e6e6f7420616e73776572207468652073616d65207175657374604482015268696f6e20747769636560b81b6064820152608401610542565b60010161242f565b5060606000600c60008154612512906137c8565b91829055506040805160c08101825233815260208082018481528284018a8152606084018a815260006080860181905260a086018a9052878152600b90945294909220835181546001600160a01b0319166001600160a01b0390911617815590516001820155905160028201559151929350918291906003820190612597908261360a565b50608082015160048201805460ff191691151591909117905560a082015180516125cb9160058401916020909101906130ca565b5050506000868152600860209081526040808320600681018054600181018255908552928420909201859055918890526002015490517f6664f2452a9c851a9ecdf8e98ff206e97b1ab656fddb6f741e06c4d085ed2b139161263391899186918a91906137fa565b60405180910390a1509150505b92915050565b6000600a5482111561269a5760405162461bcd60e51b815260206004820181905260248201527f54686520696e707574207175657374696f6e20696420697320696e76616c69646044820152606401610542565b60008281526008602090815260408083208151610120810190925280546001600160a01b0316825260018101805492939192918401916126d99061350a565b80601f01602080910402602001604051908101604052809291908181526020018280546127059061350a565b80156127525780601f1061272757610100808354040283529160200191612752565b820191906000526020600020905b81548152906001019060200180831161273557829003601f168201915b50505091835250506002820154602080830191909152600383015460408084019190915260048401546060840152600584015460ff8082161515608086015261010082048116151560a08601526201000090910416151560c084015260068401805482518185028101850190935280835260e09094019391929091908301828280156127fd57602002820191906000526020600020905b8154815260200190600101908083116127e9575b50505050508152505090508060600151421115612833576000838152600860205260409020600501805461ff0019166101001790555b806060015142118061284657508060c001515b9392505050565b6003818154811061285d57600080fd5b9060005260206000200160009150905080546128789061350a565b80601f01602080910402602001604051908101604052809291908181526020018280546128a49061350a565b80156128f15780601f106128c6576101008083540402835291602001916128f1565b820191906000526020600020905b8154815290600101906020018083116128d457829003601f168201915b505050505081565b60046020526000908152604090208054819061094f9061350a565b600860205260009081526040902080546001820180546001600160a01b03909216929161086a9061350a565b60026000540361296357604051633ee5aeb560e01b815260040160405180910390fd5b6002600055565b61297382612646565b6129a55760405162461bcd60e51b81526020600482015260036024820152620c880d60ea1b6044820152606401610542565b60008281526008602052604090206005015462010000900460ff16156129f35760405162461bcd60e51b815260206004820152600360248201526232203560e81b6044820152606401610542565b60008281526008602052604090206005015460ff1615612a805780612a805760405162461bcd60e51b815260206004820152603a60248201527f496620796f752073656c65637420746865206265737420616e737765722c207960448201527f6f75206861766520746f2067697665206f7574207265776172640000000000006064820152608401610542565b6000828152600860205260409020600281015460059091015460ff1615612c2f576000612aac84612e4d565b60408051600180825281830190925291925060009190602080830190803683370190505090508181600081518110612ae657612ae66134f4565b60200260200101906001600160a01b031690816001600160a01b03168152505082471015612b3c5760405162461bcd60e51b81526020600482015260036024820152620cc80d60ea1b6044820152606401610542565b6000826001600160a01b03168460405160006040518083038185875af1925050503d8060008114612b89576040519150601f19603f3d011682016040523d82523d6000602084013e612b8e565b606091505b5050905080612bdf5760405162461bcd60e51b815260206004820152601b60248201527f52657761726420646973747269627574696f6e206661696c65642000000000006044820152606401610542565b60008681526008602052604090819020600501805462ff000019166201000017905551600080516020613a7183398151915290612c1f908890859061353e565b60405180910390a1505050612d1f565b60008381526008602052604090206005015460ff16158015612c4e5750815b15612c6157612c5c83610f3e565b612d1f565b604051600090339083908381818185875af1925050503d8060008114612ca3576040519150601f19603f3d011682016040523d82523d6000602084013e612ca8565b606091505b505090506000915080612cfd5760405162461bcd60e51b815260206004820152601a60248201527f52657761726420646973747269627574696f6e206661696c65640000000000006044820152606401610542565b506000838152600860205260409020600501805462ff00001916620100001790555b6000838152600860205260408120600601549003612d3c57505050565b33600090815260066020908152604080832054815163957908d160e01b815291516001600160a01b0390911693849363957908d19360048082019492939183900301908290875af1158015612d95573d6000803e3d6000fd5b505050506040513d601f19601f82011682018060405250810190612db991906137e1565b50604051631ffc735d60e01b8152600481018390526001600160a01b03821690631ffc735d90602401600060405180830381600087803b158015612dfc57600080fd5b505af1158015612e10573d6000803e3d6000fd5b505033600081815260066020526040902080546001600160a01b0319166001600160a01b038616179055612e4692509050611f69565b5050505050565b6000600a54821115612e5e57600080fd5b60008281526008602090815260408083208151610120810190925280546001600160a01b031682526001810180549293919291840191612e9d9061350a565b80601f0160208091040260200160405190810160405280929190818152602001828054612ec99061350a565b8015612f165780601f10612eeb57610100808354040283529160200191612f16565b820191906000526020600020905b815481529060010190602001808311612ef957829003601f168201915b50505091835250506002820154602080830191909152600383015460408084019190915260048401546060840152600584015460ff8082161515608086015261010082048116151560a08601526201000090910416151560c084015260068401805482518185028101850190935280835260e0909401939192909190830182828015612fc157602002820191906000526020600020905b815481526020019060010190808311612fad575b5050509190925250505061010081015190915060005b815181101561306757600b6000838381518110612ff657612ff66134f4565b60209081029190910181015182528101919091526040016000206004015460ff161561305f57600b6000838381518110613032576130326134f4565b6020908102919091018101518252810191909152604001600020546001600160a01b031695945050505050565b600101612fd7565b506000949350505050565b8280548282559060005260206000209081019282156130ad579160200282015b828111156130ad578251825591602001919060010190613092565b506130b992915061311f565b5090565b6102468061382b83390190565b8280548282559060005260206000209081019282156130ad579160200282015b828111156130ad57825182546001600160a01b0319166001600160a01b039091161782556020909201916001909101906130ea565b5b808211156130b95760008155600101613120565b60006020828403121561314657600080fd5b81356001600160a01b038116811461284657600080fd5b6000806040838503121561317057600080fd5b50508035926020909101359150565b60006020828403121561319157600080fd5b5035919050565b6000815180845260005b818110156131be576020818501810151868301820152016131a2565b506000602082860101526020601f19601f83011685010191505092915050565b6001600160a01b0389168152610100602082018190526000906132038382018b613198565b604084019990995250506060810195909552608085019390935290151560a0840152151560c0830152151560e09091015292915050565b60608152600061324d6060830186613198565b6001600160a01b039490941660208301525060400152919050565b6000806040838503121561327b57600080fd5b823591506020830135801515811461329257600080fd5b809150509250929050565b60018060a01b038616815284602082015283604082015260a0606082015260006132ca60a0830185613198565b905082151560808301529695505050505050565b634e487b7160e01b600052604160045260246000fd5b600082601f83011261330557600080fd5b813567ffffffffffffffff80821115613320576133206132de565b604051601f8301601f19908116603f01168101908282118183101715613348576133486132de565b8160405283815286602085880101111561336157600080fd5b836020870160208301376000602085830101528094505050505092915050565b6000806000806080858703121561339757600080fd5b843567ffffffffffffffff8111156133ae57600080fd5b6133ba878288016132f4565b97602087013597506040870135966060013595509350505050565b6000602082840312156133e757600080fd5b813567ffffffffffffffff8111156133fe57600080fd5b61340a848285016132f4565b949350505050565b60008151808452602080850194506020840160005b8381101561344c5781516001600160a01b031687529582019590820190600101613427565b509495945050505050565b6020815260006128466020830184613412565b6000806040838503121561347d57600080fd5b82359150602083013567ffffffffffffffff81111561349b57600080fd5b6134a7858286016132f4565b9150509250929050565b6020815260006128466020830184613198565b602080825260169082015275151a19481c5d595cdd1a5bdb881a5cc818db1bdcd95960521b604082015260600190565b634e487b7160e01b600052603260045260246000fd5b600181811c9082168061351e57607f821691505b60208210810361143b57634e487b7160e01b600052602260045260246000fd5b82815260406020820152600061340a6040830184613412565b634e487b7160e01b600052601160045260246000fd5b60008261358a57634e487b7160e01b600052601260045260246000fd5b500490565b8082018082111561264057612640613557565b808202811582820484141761264057612640613557565b601f821115613605576000816000526020600020601f850160051c810160208610156135e25750805b601f850160051c820191505b81811015613601578281556001016135ee565b5050505b505050565b815167ffffffffffffffff811115613624576136246132de565b61363881613632845461350a565b846135b9565b602080601f83116001811461366d57600084156136555750858301515b600019600386901b1c1916600185901b178555613601565b600085815260208120601f198616915b8281101561369c5788860151825594840194600190910190840161367d565b50858210156136ba5787850151600019600388901b60f8161c191681555b5050505050600190811b01905550565b6001600160a01b038816815260e060208083018290526000916136ef9084018a613198565b60408401899052606084018890526080840187905285151560a085015283810360c08501528451808252602080870192019060005b8181101561374057835183529284019291840191600101613724565b50909c9b505050505050505050505050565b60008083546137608161350a565b60018281168015613778576001811461378d576137bc565b60ff19841687528215158302870194506137bc565b8760005260208060002060005b858110156137b35781548a82015290840190820161379a565b50505082870194505b50929695505050505050565b6000600182016137da576137da613557565b5060010190565b6000602082840312156137f357600080fd5b5051919050565b8481528360208201526080604082015260006138196080830185613198565b90508260608301529594505050505056fe6080604052600180556000600255348015601857600080fd5b5061021e806100286000396000f3fe608060405234801561001057600080fd5b506004361061004c5760003560e01c80630130ca2b146100515780631f7b6d321461006b5780631ffc735d14610073578063957908d114610088575b600080fd5b610059610090565b60405190815260200160405180910390f35b6100596100dd565b610086610081366004610176565b610100565b005b61005961012c565b6001546000905b6002546100a59060016101a5565b8110156100d9576000818152602081905260409020546100c590806101be565b6100cf90836101a5565b9150600101610097565b5090565b600060015460025460016100f191906101a5565b6100fb91906101d5565b905090565b60016002600082825461011391906101a5565b9091555050600254600090815260208190526040902055565b600080600154600254101561014057600080fd5b506001805460009081526020819052604081208054908290558254909291829161016b9083906101a5565b909155509092915050565b60006020828403121561018857600080fd5b5035919050565b634e487b7160e01b600052601160045260246000fd5b808201808211156101b8576101b861018f565b92915050565b80820281158282048414176101b8576101b861018f565b818103818111156101b8576101b861018f56fea2646970667358221220ba2f82ddccad524b0a8065750c411370679db7b8061eec9659450c70c0ece14e64736f6c63430008190033e07f18afb5d3c33b4ff9c9dec7421630fdf6d9842147633e03d5f8ea44ae346ea264697066735822122084b399a81d6cc255bfa635ab267d2fcd91bb8f5345cb7f23063d7d6bbd02319c64736f6c63430008190033","linkReferences":{}},"methodIdentifiers":{"accountNames(uint256)":"da62458a","answerCount()":"0bed0502","answerMap(uint256)":"41759a14","askQuestion(string,uint256,uint256,uint256)":"6de94083","calculate_credit(address)":"ab10d998","cancelSelection(uint256)":"c2782845","checkEndorsement(uint256)":"8e1ad7df","closeQuestion(uint256,bool)":"3cfe5c82","endorse(uint256,uint256)":"1ea5a292","getCredit(address)":"57344e6f","hasRegistered(address)":"a0d03526","isExpired(uint256)":"d9548e53","owner()":"8da5cb5b","postAnswer(uint256,string)":"c921d66c","questionCount()":"1468aa2c","questionMap(uint256)":"f061b5b1","questions(uint256)":"31b1b978","registerUser(string)":"704f1b94","rewardDistributeByExpirationTime(uint256)":"58c92ba8","rewardRecordsMap(address)":"13fc8c34","selectAnswer(uint256,uint256)":"3d9c4893","sqrt(uint256)":"677342ce","userAddrMap(address)":"e34d6805","userCount()":"07973ccf","users(uint256)":"365b98b2"},"id":27}