{"abi":[{"type":"receive","stateMutability":"payable"},{"type":"function","name":"accountNames","inputs":[{"name":"","type":"uint256","internalType":"uint256"}],"outputs":[{"name":"","type":"string","internalType":"string"}],"stateMutability":"view"},{"type":"function","name":"answerCount","inputs":[],"outputs":[{"name":"","type":"uint256","internalType":"uint256"}],"stateMutability":"view"},{"type":"function","name":"answerMap","inputs":[{"name":"","type":"uint256","internalType":"uint256"}],"outputs":[{"name":"answerer","type":"address","internalType":"address"},{"name":"answer_id","type":"uint256","internalType":"uint256"},{"name":"question_id","type":"uint256","internalType":"uint256"},{"name":"content","type":"string","internalType":"string"},{"name":"isSelected","type":"bool","internalType":"bool"}],"stateMutability":"view"},{"type":"function","name":"askQuestion","inputs":[{"name":"_content","type":"string","internalType":"string"},{"name":"_day","type":"uint256","internalType":"uint256"},{"name":"_hour","type":"uint256","internalType":"uint256"},{"name":"_min","type":"uint256","internalType":"uint256"}],"outputs":[{"name":"","type":"uint256","internalType":"uint256"}],"stateMutability":"payable"},{"type":"function","name":"calculate_credit","inputs":[{"name":"userAddress","type":"address","internalType":"address"}],"outputs":[{"name":"","type":"uint256","internalType":"uint256"}],"stateMutability":"nonpayable"},{"type":"function","name":"cancelSelection","inputs":[{"name":"q_id","type":"uint256","internalType":"uint256"}],"outputs":[],"stateMutability":"nonpayable"},{"type":"function","name":"checkEndorsement","inputs":[{"name":"q_id","type":"uint256","internalType":"uint256"}],"outputs":[{"name":"","type":"address[]","internalType":"address[]"}],"stateMutability":"view"},{"type":"function","name":"closeQuestion","inputs":[{"name":"q_id","type":"uint256","internalType":"uint256"},{"name":"giveReward","type":"bool","internalType":"bool"}],"outputs":[],"stateMutability":"nonpayable"},{"type":"function","name":"endorse","inputs":[{"name":"answer_id","type":"uint256","internalType":"uint256"},{"name":"question_id","type":"uint256","internalType":"uint256"}],"outputs":[],"stateMutability":"nonpayable"},{"type":"function","name":"getAnswerContent","inputs":[{"name":"a_id","type":"uint256","internalType":"uint256"}],"outputs":[{"name":"","type":"string","internalType":"string"}],"stateMutability":"view"},{"type":"function","name":"getAnswerID","inputs":[{"name":"q_id","type":"uint256","internalType":"uint256"}],"outputs":[{"name":"","type":"uint256[]","internalType":"uint256[]"}],"stateMutability":"view"},{"type":"function","name":"getCredit","inputs":[{"name":"userAddress","type":"address","internalType":"address"}],"outputs":[{"name":"","type":"uint256","internalType":"uint256"}],"stateMutability":"view"},{"type":"function","name":"getNumberOfEndorsements","inputs":[{"name":"a_id","type":"uint256","internalType":"uint256"}],"outputs":[{"name":"","type":"uint256","internalType":"uint256"}],"stateMutability":"view"},{"type":"function","name":"getQuestionContent","inputs":[{"name":"q_id","type":"uint256","internalType":"uint256"}],"outputs":[{"name":"","type":"string","internalType":"string"}],"stateMutability":"view"},{"type":"function","name":"getQuestionCurrentID","inputs":[],"outputs":[{"name":"","type":"uint256","internalType":"uint256"}],"stateMutability":"view"},{"type":"function","name":"getQuestionExpirationTime","inputs":[{"name":"q_id","type":"uint256","internalType":"uint256"}],"outputs":[{"name":"","type":"uint256","internalType":"uint256"}],"stateMutability":"view"},{"type":"function","name":"getQuestionReward","inputs":[{"name":"q_id","type":"uint256","internalType":"uint256"}],"outputs":[{"name":"","type":"uint256","internalType":"uint256"}],"stateMutability":"view"},{"type":"function","name":"hasRegistered","inputs":[{"name":"","type":"address","internalType":"address"}],"outputs":[{"name":"","type":"bool","internalType":"bool"}],"stateMutability":"view"},{"type":"function","name":"isExpired","inputs":[{"name":"q_id","type":"uint256","internalType":"uint256"}],"outputs":[{"name":"","type":"bool","internalType":"bool"}],"stateMutability":"nonpayable"},{"type":"function","name":"owner","inputs":[],"outputs":[{"name":"","type":"address","internalType":"address"}],"stateMutability":"view"},{"type":"function","name":"postAnswer","inputs":[{"name":"question_id","type":"uint256","internalType":"uint256"},{"name":"content","type":"string","internalType":"string"}],"outputs":[{"name":"","type":"uint256","internalType":"uint256"}],"stateMutability":"nonpayable"},{"type":"function","name":"questionCount","inputs":[],"outputs":[{"name":"","type":"uint256","internalType":"uint256"}],"stateMutability":"view"},{"type":"function","name":"questionMap","inputs":[{"name":"","type":"uint256","internalType":"uint256"}],"outputs":[{"name":"asker","type":"address","internalType":"address"},{"name":"content","type":"string","internalType":"string"},{"name":"reward","type":"uint256","internalType":"uint256"},{"name":"expiration_time","type":"uint256","internalType":"uint256"},{"name":"question_id","type":"uint256","internalType":"uint256"},{"name":"selected","type":"bool","internalType":"bool"},{"name":"closed","type":"bool","internalType":"bool"},{"name":"distributed","type":"bool","internalType":"bool"}],"stateMutability":"view"},{"type":"function","name":"questions","inputs":[{"name":"","type":"uint256","internalType":"uint256"}],"outputs":[{"name":"asker","type":"address","internalType":"address"},{"name":"content","type":"string","internalType":"string"},{"name":"reward","type":"uint256","internalType":"uint256"},{"name":"expiration_time","type":"uint256","internalType":"uint256"},{"name":"question_id","type":"uint256","internalType":"uint256"},{"name":"selected","type":"bool","internalType":"bool"},{"name":"closed","type":"bool","internalType":"bool"},{"name":"distributed","type":"bool","internalType":"bool"}],"stateMutability":"view"},{"type":"function","name":"registerUser","inputs":[{"name":"_username","type":"string","internalType":"string"}],"outputs":[],"stateMutability":"nonpayable"},{"type":"function","name":"rewardDistributeByExpirationTime","inputs":[{"name":"question_id","type":"uint256","internalType":"uint256"}],"outputs":[],"stateMutability":"nonpayable"},{"type":"function","name":"rewardRecordsMap","inputs":[{"name":"","type":"address","internalType":"address"}],"outputs":[{"name":"","type":"address","internalType":"contract Queue"}],"stateMutability":"view"},{"type":"function","name":"selectAnswer","inputs":[{"name":"q_id","type":"uint256","internalType":"uint256"},{"name":"a_id","type":"uint256","internalType":"uint256"}],"outputs":[],"stateMutability":"nonpayable"},{"type":"function","name":"sqrt","inputs":[{"name":"x","type":"uint256","internalType":"uint256"}],"outputs":[{"name":"y","type":"uint256","internalType":"uint256"}],"stateMutability":"pure"},{"type":"function","name":"userAddrMap","inputs":[{"name":"","type":"address","internalType":"address"}],"outputs":[{"name":"user_name","type":"string","internalType":"string"},{"name":"user_address","type":"address","internalType":"address"},{"name":"credit","type":"uint256","internalType":"uint256"}],"stateMutability":"view"},{"type":"function","name":"userCount","inputs":[],"outputs":[{"name":"","type":"uint256","internalType":"uint256"}],"stateMutability":"view"},{"type":"function","name":"users","inputs":[{"name":"","type":"uint256","internalType":"uint256"}],"outputs":[{"name":"user_name","type":"string","internalType":"string"},{"name":"user_address","type":"address","internalType":"address"},{"name":"credit","type":"uint256","internalType":"uint256"}],"stateMutability":"view"},{"type":"event","name":"AnswerCreated","inputs":[{"name":"q_id","type":"uint256","indexed":false,"internalType":"uint256"},{"name":"a_id","type":"uint256","indexed":false,"internalType":"uint256"},{"name":"content","type":"string","indexed":false,"internalType":"string"},{"name":"reward","type":"uint256","indexed":false,"internalType":"uint256"}],"anonymous":false},{"type":"event","name":"AnswerSelected","inputs":[{"name":"q_id","type":"uint256","indexed":false,"internalType":"uint256"},{"name":"a_id","type":"uint256","indexed":false,"internalType":"uint256"}],"anonymous":false},{"type":"event","name":"CancelSelection","inputs":[{"name":"q_id","type":"uint256","indexed":false,"internalType":"uint256"}],"anonymous":false},{"type":"event","name":"Endorse","inputs":[{"name":"a_id","type":"uint256","indexed":false,"internalType":"uint256"},{"name":"endorser","type":"address","indexed":false,"internalType":"address"},{"name":"q_id","type":"uint256","indexed":false,"internalType":"uint256"}],"anonymous":false},{"type":"event","name":"MoneyReceived","inputs":[{"name":"payer","type":"address","indexed":false,"internalType":"address"},{"name":"value","type":"uint256","indexed":false,"internalType":"uint256"}],"anonymous":false},{"type":"event","name":"QuestionClosed","inputs":[{"name":"q_id","type":"uint256","indexed":false,"internalType":"uint256"}],"anonymous":false},{"type":"event","name":"QuestionCreated","inputs":[{"name":"asker","type":"address","indexed":false,"internalType":"address"},{"name":"content","type":"string","indexed":false,"internalType":"string"},{"name":"reward","type":"uint256","indexed":false,"internalType":"uint256"},{"name":"expiration_time","type":"uint256","indexed":false,"internalType":"uint256"},{"name":"question_id","type":"uint256","indexed":false,"internalType":"uint256"},{"name":"closed","type":"bool","indexed":false,"internalType":"bool"},{"name":"answer_ids","type":"uint256[]","indexed":false,"internalType":"uint256[]"}],"anonymous":false},{"type":"event","name":"RewardDistributed","inputs":[{"name":"q_id","type":"uint256","indexed":false,"internalType":"uint256"},{"name":"recipients","type":"address[]","indexed":false,"internalType":"address[]"}],"anonymous":false},{"type":"event","name":"UserCreditUpdate","inputs":[{"name":"user_addr","type":"address","indexed":false,"internalType":"address"},{"name":"prev_credit","type":"uint256","indexed":false,"internalType":"uint256"},{"name":"new_credit","type":"uint256","indexed":false,"internalType":"uint256"}],"anonymous":false},{"type":"event","name":"UserRegistered","inputs":[{"name":"username","type":"string","indexed":false,"internalType":"string"},{"name":"userAddress","type":"address","indexed":false,"internalType":"address"},{"name":"default_credit","type":"uint256","indexed":false,"internalType":"uint256"}],"anonymous":false},{"type":"error","name":"ReentrancyGuardReentrantCall","inputs":[]}],"bytecode":{"object":"0x608060405260006007556000600a556000600c55348015601e57600080fd5b506001600081905580546001600160a01b03191633179055613cdb806100456000396000f3fe6080604052600436106101e75760003560e01c8063704f1b9411610102578063c709695a11610095578063da62458a11610064578063da62458a146105fb578063e34d68051461061b578063e57362b01461063b578063f061b5b11461066b57600080fd5b8063c709695a1461057b578063c921d66c1461059b578063ccad2306146105bb578063d9548e53146105db57600080fd5b8063a0d03526116100d1578063a0d03526146104e6578063a1b528c214610526578063ab10d9981461053b578063c27828451461055b57600080fd5b8063704f1b941461044c5780638b53dc6d1461046c5780638da5cb5b146104995780638e1ad7df146104b957600080fd5b8063365b98b21161017a57806357344e6f1161014957806357344e6f146103d957806358c92ba8146103f9578063677342ce146104195780636de940831461043957600080fd5b8063365b98b2146103395780633cfe5c82146103685780633d9c48931461038857806341759a14146103a857600080fd5b80631468aa2c116101b65780631468aa2c146102ad5780631ea5a292146102c3578063307f37e6146102e557806331b1b9781461030557600080fd5b806307973ccf146101f35780630bed05021461021c57806313b3eb0d1461023257806313fc8c341461025f57600080fd5b366101ee57005b600080fd5b3480156101ff57600080fd5b5061020960075481565b6040519081526020015b60405180910390f35b34801561022857600080fd5b50610209600c5481565b34801561023e57600080fd5b5061025261024d3660046132c3565b61068b565b6040516102139190613318565b34801561026b57600080fd5b5061029561027a36600461332b565b6006602052600090815260409020546001600160a01b031681565b6040516001600160a01b039091168152602001610213565b3480156102b957600080fd5b50610209600a5481565b3480156102cf57600080fd5b506102e36102de366004613354565b6106f0565b005b3480156102f157600080fd5b506102096103003660046132c3565b6109ff565b34801561031157600080fd5b506103256103203660046132c3565b610a39565b6040516102139897969594939291906133bc565b34801561034557600080fd5b506103596103543660046132c3565b610b2a565b60405161021393929190613418565b34801561037457600080fd5b506102e3610383366004613446565b610bf6565b34801561039457600080fd5b506102e36103a3366004613354565b610d4c565b3480156103b457600080fd5b506103c86103c33660046132c3565b610ff1565b60405161021395949392919061347b565b3480156103e557600080fd5b506102096103f436600461332b565b6110b7565b34801561040557600080fd5b506102e36104143660046132c3565b61114c565b34801561042557600080fd5b506102096104343660046132c3565b61153d565b61020961044736600461355f565b611596565b34801561045857600080fd5b506102e36104673660046135b3565b611a3c565b34801561047857600080fd5b5061048c6104873660046132c3565b611df6565b60405161021391906135f0565b3480156104a557600080fd5b50600154610295906001600160a01b031681565b3480156104c557600080fd5b506104d96104d43660046132c3565b611e91565b604051610213919061363d565b3480156104f257600080fd5b5061051661050136600461332b565b60056020526000908152604090205460ff1681565b6040519015158152602001610213565b34801561053257600080fd5b50600a54610209565b34801561054757600080fd5b5061020961055636600461332b565b612159565b34801561056757600080fd5b506102e36105763660046132c3565b612278565b34801561058757600080fd5b5061048c6105963660046132c3565b6124c2565b3480156105a757600080fd5b506102096105b6366004613650565b612502565b3480156105c757600080fd5b506102096105d63660046132c3565b612876565b3480156105e757600080fd5b506105166105f63660046132c3565b6128b0565b34801561060757600080fd5b5061048c6106163660046132c3565b612a87565b34801561062757600080fd5b5061035961063636600461332b565b612b33565b34801561064757600080fd5b506102096106563660046132c3565b6000908152600b602052604090206005015490565b34801561067757600080fd5b506103256106863660046132c3565b612b4e565b6000818152600860209081526040918290206006018054835181840281018401909452808452606093928301828280156106e457602002820191906000526020600020905b8154815260200190600101908083116106d0575b50505050509050919050565b6106f9816128b0565b1561071f5760405162461bcd60e51b815260040161071690613697565b60405180910390fd5b3360009081526005602052604090205460ff166107925760405162461bcd60e51b815260206004820152602b60248201527f55736572206d757374206265207265676973746572656420746f20616464206560448201526a6e646f7273656d656e747360a81b6064820152608401610716565b6000828152600b6020526040902054336001600160a01b03909116036108055760405162461bcd60e51b815260206004820152602260248201527f596f752063616e6e6f7420656e646f72736520796f7572206f776e20616e737760448201526132b960f11b6064820152608401610716565b6000828152600b602052604090206002015481146108785760405162461bcd60e51b815260206004820152602a60248201527f54686520616e7377657220646f6573206e6f742062656c6f6e6720746f207468604482015269329038bab2b9ba34b7b760b11b6064820152608401610716565b6000828152600b60209081526040808320600501805482518185028101850190935280835291929091908301828280156108db57602002820191906000526020600020905b81546001600160a01b031681526001909101906020018083116108bd575b505050505090506000805b825181101561092e57336001600160a01b031683828151811061090b5761090b6136c7565b60200260200101516001600160a01b03160361092657600191505b6001016108e6565b5080156109895760405162461bcd60e51b815260206004820152602360248201527f557365722063616e6e6f7420656e646f72736520616e20616e7377657220747760448201526269636560e81b6064820152608401610716565b604080518581523360208201529081018490527f266365a2aceb5ff9d23a2e846eb7b7339cd874d164131d977f6946cb1d0dfcf19060600160405180910390a15050506000908152600b602090815260408220600501805460018101825590835291200180546001600160a01b03191633179055565b6000600a54821115610a235760405162461bcd60e51b8152600401610716906136dd565b5060009081526008602052604090206003015490565b60098181548110610a4957600080fd5b6000918252602090912060079091020180546001820180546001600160a01b03909216935090610a7890613712565b80601f0160208091040260200160405190810160405280929190818152602001828054610aa490613712565b8015610af15780601f10610ac657610100808354040283529160200191610af1565b820191906000526020600020905b815481529060010190602001808311610ad457829003601f168201915b505050506002830154600384015460048501546005909501549394919390925060ff808216916101008104821691620100009091041688565b60028181548110610b3a57600080fd5b9060005260206000209060030201600091509050806000018054610b5d90613712565b80601f0160208091040260200160405190810160405280929190818152602001828054610b8990613712565b8015610bd65780601f10610bab57610100808354040283529160200191610bd6565b820191906000526020600020905b815481529060010190602001808311610bb957829003601f168201915b50505050600183015460029093015491926001600160a01b031691905083565b610bfe612b7a565b610c07826128b0565b15610c605760405162461bcd60e51b8152602060048201526024808201527f546865207175657374696f6e2068617320616c7265616479206265656e20636c6044820152631bdcd95960e21b6064820152608401610716565b6000828152600860205260409020546001600160a01b03163314610cd45760405162461bcd60e51b815260206004820152602560248201527f4f6e6c79207468652061736b65722063616e20636c6f7365207468652071756560448201526439ba34b7b760d91b6064820152608401610716565b6000828152600860205260409020600501805461ff001916610100179081905562010000900460ff16610d0b57610d0b8282612ba4565b6040518281527f3c8f450bdfccd4e29a4d8e9602688d5e009772a7de7c40c7f27b8f8c129f01fa9060200160405180910390a1610d486001600055565b5050565b610d55826128b0565b15610d725760405162461bcd60e51b815260040161071690613697565b6000828152600860205260409020546001600160a01b03163314610dea5760405162461bcd60e51b815260206004820152602960248201527f4f6e6c79207468652061736b65722063616e2073656c6563742074686520626560448201526839ba1030b739bbb2b960b91b6064820152608401610716565b6000818152600b60205260409020600201548214610e5e5760405162461bcd60e51b815260206004820152602b60248201527f54686520616e7377657220646f6573206e6f742062656c6f6e6720746f20746860448201526a34b99038bab2b9ba34b7b760a91b6064820152608401610716565b600082815260086020908152604080832060060180548251818502810185019093528083529192909190830182828015610eb757602002820191906000526020600020905b815481526020019060010190808311610ea3575b505050600086815260086020526040902060050154929350505060ff1615610f7c5760005b8151811015610f7a57600b6000838381518110610efb57610efb6136c7565b60209081029190910181015182528101919091526040016000206004015460ff161515600103610f72576000600b6000848481518110610f3d57610f3d6136c7565b6020026020010151815260200190815260200160002060040160006101000a81548160ff021916908315150217905550610f7a565b600101610edc565b505b60008381526008602090815260408083206005018054600160ff199182168117909255868552600b84529382902060040180549094161790925581518581529081018490527fcce2e26b4c2c9bdecbd753012d7f595a50f3fe6263dc2090e6432f7cc9c5b8bc910160405180910390a1505050565b600b6020526000908152604090208054600182015460028301546003840180546001600160a01b0390941694929391929161102b90613712565b80601f016020809104026020016040519081016040528092919081815260200182805461105790613712565b80156110a45780601f10611079576101008083540402835291602001916110a4565b820191906000526020600020905b81548152906001019060200180831161108757829003601f168201915b5050506004909301549192505060ff1685565b6001600160a01b03811660009081526005602052604081205460ff1661112d5760405162461bcd60e51b815260206004820152602560248201527f55736572206d757374206265207265676973746572656420746f2067657420636044820152641c99591a5d60da1b6064820152608401610716565b506001600160a01b031660009081526004602052604090206002015490565b611154612b7a565b3360009081526005602052604090205460ff166111b35760405162461bcd60e51b815260206004820152601d60248201527f5468652061646472657373206973206e6f7420726567697374657265640000006044820152606401610716565b6111bc816128b0565b6111c557600080fd5b60008181526008602052604090206005015462010000900460ff16156111ea57600080fd5b6000818152600860205260409020600281015460059091015460ff161561134057600061121683612fdc565b60408051600180825281830190925291925060009190602080830190803683370190505090508181600081518110611250576112506136c7565b60200260200101906001600160a01b031690816001600160a01b0316815250508247101561127d57600080fd5b6000826001600160a01b03168460405160006040518083038185875af1925050503d80600081146112ca576040519150601f19603f3d011682016040523d82523d6000602084013e6112cf565b606091505b50509050806112f05760405162461bcd60e51b815260040161071690613746565b60008581526008602052604090819020600501805462ff000019166201000017905551600080516020613c8683398151915290611330908790859061377d565b60405180910390a150505061152e565b600061134b83611e91565b90508051600003611424576000838152600860205260408082205490516001600160a01b039091169084908381818185875af1925050503d80600081146113ae576040519150601f19603f3d011682016040523d82523d6000602084013e6113b3565b606091505b50509050806113d45760405162461bcd60e51b815260040161071690613746565b60008481526008602052604090819020600501805462ff000019166201000017905551600080516020613c8683398151915290611414908690859061377d565b60405180910390a1505050611530565b600081518361143391906137ac565b905060005b8251811015611503578147101561144e57600080fd5b6000838281518110611462576114626136c7565b60200260200101516001600160a01b03168360405160006040518083038185875af1925050503d80600081146114b4576040519150601f19603f3d011682016040523d82523d6000602084013e6114b9565b606091505b50509050806114da5760405162461bcd60e51b815260040161071690613746565b506000858152600860205260409020600501805462ff0000191662010000179055600101611438565b50600080516020613c86833981519152848360405161152392919061377d565b60405180910390a150505b505b61153a6001600055565b50565b600080600261154d8460016137ce565b61155791906137ac565b90508291505b818110156115905790508060028161157581866137ac565b61157f91906137ce565b61158991906137ac565b905061155d565b50919050565b3360009081526005602052604081205460ff166115eb5760405162461bcd60e51b8152602060048201526013602482015272155cd95c881b9bdd081c9959da5cdd195c9959606a1b6044820152606401610716565b60003411801561160357506115ff336110b7565b3411155b6116755760405162461bcd60e51b815260206004820152603860248201527f526577617264206d7573742062652067726561746572207468616e203020616e60448201527f64206c657373207468616e20637265646974206c696d697400000000000000006064820152608401610716565b60008551116116c65760405162461bcd60e51b815260206004820152601860248201527f5175657374696f6e2063616e6e6f7420626520656d70747900000000000000006044820152606401610716565b60006116d383603c6137e1565b6116df85610e106137e1565b6116ec87620151806137e1565b6116f691906137ce565b61170091906137ce565b9050620151808110158015611718575062093a808111155b61178a5760405162461bcd60e51b815260206004820152603f60248201527f45787069726174696f6e2074696d65206d75737420626520677265617465722060448201527f7468616e20312064617920616e64206c657373207468616e20372064617973006064820152608401610716565b6001600a600082825461179d91906137ce565b9091555050600a546040805161012081018252338152602081018990523491810191909152600090606081016117d385426137ce565b81526020808201859052600060408084018290526060840182905260808401829052805182815280840190915260a09093019290925260098054600181018255925282517f6e1540171b6c0c960b71a7020d9f60077f6af931a8bbf590da0223dacf75c7af600790930292830180546001600160a01b0319166001600160a01b0390921691909117815590830151929350839290917f6e1540171b6c0c960b71a7020d9f60077f6af931a8bbf590da0223dacf75c7b001906118959082613849565b5060408201516002820155606082015160038201556080820151600482015560a082015160058201805460c085015160e086015161ffff1990921693151561ff0019169390931761010093151584021762ff0000191662010000911515919091021790558201518051611912916006840191602090910190613201565b5050506000828152600860209081526040909120825181546001600160a01b0319166001600160a01b039091161781559082015182919060018201906119589082613849565b5060408201516002820155606082015160038201556080820151600482015560a082015160058201805460c085015160e086015161ffff1990921693151561ff0019169390931761010093151584021762ff00001916620100009115159190910217905582015180516119d5916006840191602090910190613201565b507f84b861809ad6a7273eb286675afe4848e1772d87876e38ff1870adfc5ebbcbb191503390508934611a0887426137ce565b6040805160008082526020820192839052611a2996959493928a9290613909565b60405180910390a1509695505050505050565b3360008181526005602052604090205460ff1615611a9c5760405162461bcd60e51b815260206004820152601a60248201527f54686520616464726573732077617320726567697374657265640000000000006044820152606401610716565b81600160005b600754811015611aff57828051906020012060028281548110611ac757611ac76136c7565b9060005260206000209060030201600001604051611ae59190613967565b604051809103902003611af757600091505b600101611aa2565b5080611b425760405162461bcd60e51b81526020600482015260126024820152716475706c696361746520757365726e616d6560701b6044820152606401610716565b6000845111611b875760405162461bcd60e51b8152602060048201526011602482015270557365726e616d6520697320656d70747960781b6044820152606401610716565b60408051606081018252858152336020820152662386f26fc100009181019190915260028054600181018255600091909152815182916003027f405787fa12a823e0f2b7631cc41b3ba8828b3321ca811111fa75cd3aa3bb5ace01908190611bef9082613849565b506020828101516001830180546001600160a01b0319166001600160a01b0390921691909117905560409283015160029092019190915533600090815260049091522081518291908190611c439082613849565b506020820151600182810180546001600160a01b0319166001600160a01b03909316929092179091556040909201516002909101556003805491820181556000527fc2575a0e9e593c00f959f8c92f12db2869c3395a3b0502d05e2516446f71f85b01611cb08682613849565b50336000908152600560205260408120805460ff191660011790556007805491611cd9836139dd565b91905055506000604051611cec9061324c565b604051809103906000f080158015611d08573d6000803e3d6000fd5b50905060005b6005811015611d8357604051631ffc735d60e01b8152660fe170fa25600060048201526001600160a01b03831690631ffc735d90602401600060405180830381600087803b158015611d5f57600080fd5b505af1158015611d73573d6000803e3d6000fd5b505060019092019150611d0e9050565b50336000818152600660205260409081902080546001600160a01b0319166001600160a01b038516179055517fda4b066842833e7ab38c0f7ba442824b5eda00740d68ef015889812a792fc3ec91611de691899190662386f26fc1000090613418565b60405180910390a1505050505050565b6000818152600b60205260409020600301805460609190611e1690613712565b80601f0160208091040260200160405190810160405280929190818152602001828054611e4290613712565b80156106e45780601f10611e64576101008083540402835291602001916106e4565b820191906000526020600020905b815481529060010190602001808311611e725750939695505050505050565b600081815260086020526040902060050154606090610100900460ff16611efa5760405162461bcd60e51b815260206004820152601a60248201527f546865207175657374696f6e206973206e6f7420636c6f7365640000000000006044820152606401610716565b600082815260086020908152604080832060060180548251818502810185019093528083529192909190830182828015611f5357602002820191906000526020600020905b815481526020019060010190808311611f3f575b505050505090506000805b8251811015611fdf5781600b6000858481518110611f7e57611f7e6136c7565b60200260200101518152602001908152602001600020600501805490501115611fd757600b6000848381518110611fb757611fb76136c7565b602002602001015181526020019081526020016000206005018054905091505b600101611f5e565b506000805b835181101561203c5782600b6000868481518110612004576120046136c7565b6020026020010151815260200190815260200160002060050180549050036120345781612030816139dd565b9250505b600101611fe4565b5060008167ffffffffffffffff811115612058576120586134bc565b604051908082528060200260200182016040528015612081578160200160208202803683370190505b5090506000805b855181101561214d5784600b60008884815181106120a8576120a86136c7565b60200260200101518152602001908152602001600020600501805490500361214557600b60008783815181106120e0576120e06136c7565b6020026020010151815260200190815260200160002060000160009054906101000a90046001600160a01b031683838151811061211f5761211f6136c7565b6001600160a01b039092166020928302919091019091015281612141816139dd565b9250505b600101612088565b50909695505050505050565b6001600160a01b038082166000908152600660209081526040808320548151630130ca2b60e01b8152915193948594911692630130ca2b92600480820193918290030181865afa1580156121b1573d6000803e3d6000fd5b505050506040513d601f19601f820116820180604052508101906121d591906139f6565b6001600160a01b0384166000908152600460205260409020600201549091507f085f11378a0c42687437148f7b62421b8e6f48c3a41b0e416dc85078bcc0bcd39084906122218461153d565b604080516001600160a01b03909416845260208401929092529082015260600160405180910390a16122528161153d565b6001600160a01b0390931660009081526004602052604090206002018390555090919050565b6000818152600860205260409020546001600160a01b031633146122ea5760405162461bcd60e51b815260206004820152602360248201527f4f6e6c79207468652061736b65722063616e2063616e63656c2073656c65637460448201526234b7b760e91b6064820152608401610716565b6122f3816128b0565b156123105760405162461bcd60e51b815260040161071690613697565b60008181526008602052604090206005015460ff166123695760405162461bcd60e51b8152602060048201526015602482015274139bc8185b9cddd95c881a5cc81cd95b1958dd1959605a1b6044820152606401610716565b6000818152600860209081526040808320600601805482518185028101850190935280835291929091908301828280156123c257602002820191906000526020600020905b8154815260200190600101908083116123ae575b5050505050905060005b815181101561246a57600b60008383815181106123eb576123eb6136c7565b60209081029190910181015182528101919091526040016000206004015460ff161515600103612462576000600b600084848151811061242d5761242d6136c7565b6020026020010151815260200190815260200160002060040160006101000a81548160ff02191690831515021790555061246a565b6001016123cc565b5060008281526008602052604090819020600501805460ff19169055517f53088c7bbf224d7afa175aa1fbda4d494a5008e230beebc8d16b45c8415e9645906124b69084815260200190565b60405180910390a15050565b6060600a548211156124e65760405162461bcd60e51b8152600401610716906136dd565b60008281526008602052604090206001018054611e1690613712565b600061250d836128b0565b1561252a5760405162461bcd60e51b815260040161071690613697565b3360009081526005602052604090205460ff1661259e5760405162461bcd60e51b815260206004820152602c60248201527f55736572206d757374206265207265676973746572656420746f20616e73776560448201526b3910309038bab2b9ba34b7b760a11b6064820152608401610716565b60008251116125e85760405162461bcd60e51b8152602060048201526016602482015275416e737765722063616e6e6f7420626520656d70747960501b6044820152606401610716565b600083815260086020526040902054336001600160a01b039091160361265c5760405162461bcd60e51b8152602060048201526024808201527f596f752063616e6e6f7420616e7377657220796f7572206f776e207175657374604482015263696f6e2160e01b6064820152608401610716565b60005b60008481526008602052604090206006015481101561272e57600084815260086020526040812060060180543392600b929091859081106126a2576126a26136c7565b600091825260208083209091015483528201929092526040019020546001600160a01b0316036127265760405162461bcd60e51b815260206004820152602960248201527f596f752063616e6e6f7420616e73776572207468652073616d65207175657374604482015268696f6e20747769636560b81b6064820152608401610716565b60010161265f565b5060606000600c60008154612742906139dd565b91829055506040805160c08101825233815260208082018481528284018a8152606084018a815260006080860181905260a086018a9052878152600b90945294909220835181546001600160a01b0319166001600160a01b03909116178155905160018201559051600282015591519293509182919060038201906127c79082613849565b50608082015160048201805460ff191691151591909117905560a082015180516127fb916005840191602090910190613259565b5050506000868152600860209081526040808320600681018054600181018255908552928420909201859055918890526002015490517f6664f2452a9c851a9ecdf8e98ff206e97b1ab656fddb6f741e06c4d085ed2b139161286391899186918a9190613a0f565b60405180910390a1509150505b92915050565b6000600a5482111561289a5760405162461bcd60e51b8152600401610716906136dd565b5060009081526008602052604090206002015490565b6000600a548211156128d45760405162461bcd60e51b8152600401610716906136dd565b60008281526008602090815260408083208151610120810190925280546001600160a01b03168252600181018054929391929184019161291390613712565b80601f016020809104026020016040519081016040528092919081815260200182805461293f90613712565b801561298c5780601f106129615761010080835404028352916020019161298c565b820191906000526020600020905b81548152906001019060200180831161296f57829003601f168201915b50505091835250506002820154602080830191909152600383015460408084019190915260048401546060840152600584015460ff8082161515608086015261010082048116151560a08601526201000090910416151560c084015260068401805482518185028101850190935280835260e0909401939192909190830182828015612a3757602002820191906000526020600020905b815481526020019060010190808311612a23575b50505050508152505090508060600151421115612a6d576000838152600860205260409020600501805461ff0019166101001790555b8060600151421180612a8057508060c001515b9392505050565b60038181548110612a9757600080fd5b906000526020600020016000915090508054612ab290613712565b80601f0160208091040260200160405190810160405280929190818152602001828054612ade90613712565b8015612b2b5780601f10612b0057610100808354040283529160200191612b2b565b820191906000526020600020905b815481529060010190602001808311612b0e57829003601f168201915b505050505081565b600460205260009081526040902080548190610b5d90613712565b600860205260009081526040902080546001820180546001600160a01b039092169291610a7890613712565b600260005403612b9d57604051633ee5aeb560e01b815260040160405180910390fd5b6002600055565b612bad826128b0565b612bb657600080fd5b60008281526008602052604090206005015462010000900460ff1615612bdb57600080fd5b60008281526008602052604090206005015460ff1615612c685780612c685760405162461bcd60e51b815260206004820152603a60248201527f496620796f752073656c65637420746865206265737420616e737765722c207960448201527f6f75206861766520746f2067697665206f7574207265776172640000000000006064820152608401610716565b6000828152600860205260409020600281015460059091015460ff1615612dee576000612c9484612fdc565b60408051600180825281830190925291925060009190602080830190803683370190505090508181600081518110612cce57612cce6136c7565b60200260200101906001600160a01b031690816001600160a01b03168152505082471015612cfb57600080fd5b6000826001600160a01b03168460405160006040518083038185875af1925050503d8060008114612d48576040519150601f19603f3d011682016040523d82523d6000602084013e612d4d565b606091505b5050905080612d9e5760405162461bcd60e51b815260206004820152601b60248201527f52657761726420646973747269627574696f6e206661696c65642000000000006044820152606401610716565b60008681526008602052604090819020600501805462ff000019166201000017905551600080516020613c8683398151915290612dde908890859061377d565b60405180910390a1505050612eae565b60008381526008602052604090206005015460ff16158015612e0d5750815b15612e2057612e1b8361114c565b612eae565b604051600090339083908381818185875af1925050503d8060008114612e62576040519150601f19603f3d011682016040523d82523d6000602084013e612e67565b606091505b505090506000915080612e8c5760405162461bcd60e51b815260040161071690613746565b506000838152600860205260409020600501805462ff00001916620100001790555b6000838152600860205260408120600601549003612ecb57505050565b33600090815260066020908152604080832054815163957908d160e01b815291516001600160a01b0390911693849363957908d19360048082019492939183900301908290875af1158015612f24573d6000803e3d6000fd5b505050506040513d601f19601f82011682018060405250810190612f4891906139f6565b50604051631ffc735d60e01b8152600481018390526001600160a01b03821690631ffc735d90602401600060405180830381600087803b158015612f8b57600080fd5b505af1158015612f9f573d6000803e3d6000fd5b505033600081815260066020526040902080546001600160a01b0319166001600160a01b038616179055612fd592509050612159565b5050505050565b6000600a54821115612fed57600080fd5b60008281526008602090815260408083208151610120810190925280546001600160a01b03168252600181018054929391929184019161302c90613712565b80601f016020809104026020016040519081016040528092919081815260200182805461305890613712565b80156130a55780601f1061307a576101008083540402835291602001916130a5565b820191906000526020600020905b81548152906001019060200180831161308857829003601f168201915b50505091835250506002820154602080830191909152600383015460408084019190915260048401546060840152600584015460ff8082161515608086015261010082048116151560a08601526201000090910416151560c084015260068401805482518185028101850190935280835260e090940193919290919083018282801561315057602002820191906000526020600020905b81548152602001906001019080831161313c575b5050509190925250505061010081015190915060005b81518110156131f657600b6000838381518110613185576131856136c7565b60209081029190910181015182528101919091526040016000206004015460ff16156131ee57600b60008383815181106131c1576131c16136c7565b6020908102919091018101518252810191909152604001600020546001600160a01b031695945050505050565b600101613166565b506000949350505050565b82805482825590600052602060002090810192821561323c579160200282015b8281111561323c578251825591602001919060010190613221565b506132489291506132ae565b5090565b61024680613a4083390190565b82805482825590600052602060002090810192821561323c579160200282015b8281111561323c57825182546001600160a01b0319166001600160a01b03909116178255602090920191600190910190613279565b5b8082111561324857600081556001016132af565b6000602082840312156132d557600080fd5b5035919050565b60008151808452602080850194506020840160005b8381101561330d578151875295820195908201906001016132f1565b509495945050505050565b602081526000612a8060208301846132dc565b60006020828403121561333d57600080fd5b81356001600160a01b0381168114612a8057600080fd5b6000806040838503121561336757600080fd5b50508035926020909101359150565b6000815180845260005b8181101561339c57602081850181015186830182015201613380565b506000602082860101526020601f19601f83011685010191505092915050565b6001600160a01b0389168152610100602082018190526000906133e18382018b613376565b604084019990995250506060810195909552608085019390935290151560a0840152151560c0830152151560e09091015292915050565b60608152600061342b6060830186613376565b6001600160a01b039490941660208301525060400152919050565b6000806040838503121561345957600080fd5b823591506020830135801515811461347057600080fd5b809150509250929050565b60018060a01b038616815284602082015283604082015260a0606082015260006134a860a0830185613376565b905082151560808301529695505050505050565b634e487b7160e01b600052604160045260246000fd5b600082601f8301126134e357600080fd5b813567ffffffffffffffff808211156134fe576134fe6134bc565b604051601f8301601f19908116603f01168101908282118183101715613526576135266134bc565b8160405283815286602085880101111561353f57600080fd5b836020870160208301376000602085830101528094505050505092915050565b6000806000806080858703121561357557600080fd5b843567ffffffffffffffff81111561358c57600080fd5b613598878288016134d2565b97602087013597506040870135966060013595509350505050565b6000602082840312156135c557600080fd5b813567ffffffffffffffff8111156135dc57600080fd5b6135e8848285016134d2565b949350505050565b602081526000612a806020830184613376565b60008151808452602080850194506020840160005b8381101561330d5781516001600160a01b031687529582019590820190600101613618565b602081526000612a806020830184613603565b6000806040838503121561366357600080fd5b82359150602083013567ffffffffffffffff81111561368157600080fd5b61368d858286016134d2565b9150509250929050565b602080825260169082015275151a19481c5d595cdd1a5bdb881a5cc818db1bdcd95960521b604082015260600190565b634e487b7160e01b600052603260045260246000fd5b6020808252818101527f54686520696e707574207175657374696f6e20696420697320696e76616c6964604082015260600190565b600181811c9082168061372657607f821691505b60208210810361159057634e487b7160e01b600052602260045260246000fd5b6020808252601a908201527f52657761726420646973747269627574696f6e206661696c6564000000000000604082015260600190565b8281526040602082015260006135e86040830184613603565b634e487b7160e01b600052601160045260246000fd5b6000826137c957634e487b7160e01b600052601260045260246000fd5b500490565b8082018082111561287057612870613796565b808202811582820484141761287057612870613796565b601f821115613844576000816000526020600020601f850160051c810160208610156138215750805b601f850160051c820191505b818110156138405782815560010161382d565b5050505b505050565b815167ffffffffffffffff811115613863576138636134bc565b613877816138718454613712565b846137f8565b602080601f8311600181146138ac57600084156138945750858301515b600019600386901b1c1916600185901b178555613840565b600085815260208120601f198616915b828110156138db578886015182559484019460019091019084016138bc565b50858210156138f95787850151600019600388901b60f8161c191681555b5050505050600190811b01905550565b6001600160a01b038816815260e06020820181905260009061392d90830189613376565b87604084015286606084015285608084015284151560a084015282810360c084015261395981856132dc565b9a9950505050505050505050565b600080835461397581613712565b6001828116801561398d57600181146139a2576139d1565b60ff19841687528215158302870194506139d1565b8760005260208060002060005b858110156139c85781548a8201529084019082016139af565b50505082870194505b50929695505050505050565b6000600182016139ef576139ef613796565b5060010190565b600060208284031215613a0857600080fd5b5051919050565b848152836020820152608060408201526000613a2e6080830185613376565b90508260608301529594505050505056fe6080604052600180556000600255348015601857600080fd5b5061021e806100286000396000f3fe608060405234801561001057600080fd5b506004361061004c5760003560e01c80630130ca2b146100515780631f7b6d321461006b5780631ffc735d14610073578063957908d114610088575b600080fd5b610059610090565b60405190815260200160405180910390f35b6100596100dd565b610086610081366004610176565b610100565b005b61005961012c565b6001546000905b6002546100a59060016101a5565b8110156100d9576000818152602081905260409020546100c590806101be565b6100cf90836101a5565b9150600101610097565b5090565b600060015460025460016100f191906101a5565b6100fb91906101d5565b905090565b60016002600082825461011391906101a5565b9091555050600254600090815260208190526040902055565b600080600154600254101561014057600080fd5b506001805460009081526020819052604081208054908290558254909291829161016b9083906101a5565b909155509092915050565b60006020828403121561018857600080fd5b5035919050565b634e487b7160e01b600052601160045260246000fd5b808201808211156101b8576101b861018f565b92915050565b80820281158282048414176101b8576101b861018f565b818103818111156101b8576101b861018f56fea2646970667358221220ba2f82ddccad524b0a8065750c411370679db7b8061eec9659450c70c0ece14e64736f6c63430008190033e07f18afb5d3c33b4ff9c9dec7421630fdf6d9842147633e03d5f8ea44ae346ea26469706673582212205235ca350302a6b7474979a3364778a508c86333c69f4594858f7a28f32b89e564736f6c63430008190033","linkReferences":{}},"methodIdentifiers":{"accountNames(uint256)":"da62458a","answerCount()":"0bed0502","answerMap(uint256)":"41759a14","askQuestion(string,uint256,uint256,uint256)":"6de94083","calculate_credit(address)":"ab10d998","cancelSelection(uint256)":"c2782845","checkEndorsement(uint256)":"8e1ad7df","closeQuestion(uint256,bool)":"3cfe5c82","endorse(uint256,uint256)":"1ea5a292","getAnswerContent(uint256)":"8b53dc6d","getAnswerID(uint256)":"13b3eb0d","getCredit(address)":"57344e6f","getNumberOfEndorsements(uint256)":"e57362b0","getQuestionContent(uint256)":"c709695a","getQuestionCurrentID()":"a1b528c2","getQuestionExpirationTime(uint256)":"307f37e6","getQuestionReward(uint256)":"ccad2306","hasRegistered(address)":"a0d03526","isExpired(uint256)":"d9548e53","owner()":"8da5cb5b","postAnswer(uint256,string)":"c921d66c","questionCount()":"1468aa2c","questionMap(uint256)":"f061b5b1","questions(uint256)":"31b1b978","registerUser(string)":"704f1b94","rewardDistributeByExpirationTime(uint256)":"58c92ba8","rewardRecordsMap(address)":"13fc8c34","selectAnswer(uint256,uint256)":"3d9c4893","sqrt(uint256)":"677342ce","userAddrMap(address)":"e34d6805","userCount()":"07973ccf","users(uint256)":"365b98b2"},"id":27}