{"abi":[{"type":"constructor","inputs":[],"stateMutability":"payable"},{"type":"receive","stateMutability":"payable"},{"type":"function","name":"accountNames","inputs":[{"name":"","type":"uint256","internalType":"uint256"}],"outputs":[{"name":"","type":"string","internalType":"string"}],"stateMutability":"view"},{"type":"function","name":"answerCount","inputs":[],"outputs":[{"name":"","type":"uint256","internalType":"uint256"}],"stateMutability":"view"},{"type":"function","name":"answerMap","inputs":[{"name":"","type":"uint256","internalType":"uint256"}],"outputs":[{"name":"answerer","type":"address","internalType":"address"},{"name":"answer_id","type":"uint256","internalType":"uint256"},{"name":"question_id","type":"uint256","internalType":"uint256"},{"name":"content","type":"string","internalType":"string"},{"name":"isSelected","type":"bool","internalType":"bool"}],"stateMutability":"view"},{"type":"function","name":"askQuestion","inputs":[{"name":"_content","type":"string","internalType":"string"},{"name":"_day","type":"uint256","internalType":"uint256"},{"name":"_hour","type":"uint256","internalType":"uint256"},{"name":"_min","type":"uint256","internalType":"uint256"}],"outputs":[{"name":"","type":"uint256","internalType":"uint256"}],"stateMutability":"payable"},{"type":"function","name":"calculate_credit","inputs":[{"name":"userAddress","type":"address","internalType":"address"}],"outputs":[{"name":"","type":"uint256","internalType":"uint256"}],"stateMutability":"nonpayable"},{"type":"function","name":"cancelSelection","inputs":[{"name":"q_id","type":"uint256","internalType":"uint256"}],"outputs":[],"stateMutability":"nonpayable"},{"type":"function","name":"checkEndorsement","inputs":[{"name":"q_id","type":"uint256","internalType":"uint256"}],"outputs":[{"name":"","type":"address[]","internalType":"address[]"}],"stateMutability":"view"},{"type":"function","name":"closeQuestion","inputs":[{"name":"q_id","type":"uint256","internalType":"uint256"}],"outputs":[],"stateMutability":"nonpayable"},{"type":"function","name":"endorse","inputs":[{"name":"answer_id","type":"uint256","internalType":"uint256"},{"name":"question_id","type":"uint256","internalType":"uint256"}],"outputs":[],"stateMutability":"nonpayable"},{"type":"function","name":"getCredit","inputs":[{"name":"userAddress","type":"address","internalType":"address"}],"outputs":[{"name":"","type":"uint256","internalType":"uint256"}],"stateMutability":"view"},{"type":"function","name":"getMyCredit","inputs":[],"outputs":[{"name":"","type":"uint256","internalType":"uint256"}],"stateMutability":"view"},{"type":"function","name":"hasRegistered","inputs":[{"name":"","type":"address","internalType":"address"}],"outputs":[{"name":"","type":"bool","internalType":"bool"}],"stateMutability":"view"},{"type":"function","name":"isExpired","inputs":[{"name":"q_id","type":"uint256","internalType":"uint256"}],"outputs":[{"name":"","type":"bool","internalType":"bool"}],"stateMutability":"nonpayable"},{"type":"function","name":"owner","inputs":[],"outputs":[{"name":"","type":"address","internalType":"address"}],"stateMutability":"view"},{"type":"function","name":"postAnswer","inputs":[{"name":"question_id","type":"uint256","internalType":"uint256"},{"name":"content","type":"string","internalType":"string"}],"outputs":[{"name":"","type":"uint256","internalType":"uint256"}],"stateMutability":"nonpayable"},{"type":"function","name":"questionCount","inputs":[],"outputs":[{"name":"","type":"uint256","internalType":"uint256"}],"stateMutability":"view"},{"type":"function","name":"questionMap","inputs":[{"name":"","type":"uint256","internalType":"uint256"}],"outputs":[{"name":"asker","type":"address","internalType":"address"},{"name":"content","type":"string","internalType":"string"},{"name":"reward","type":"uint256","internalType":"uint256"},{"name":"expiration_time","type":"uint256","internalType":"uint256"},{"name":"question_id","type":"uint256","internalType":"uint256"},{"name":"selected","type":"bool","internalType":"bool"},{"name":"closed","type":"bool","internalType":"bool"},{"name":"distributed","type":"bool","internalType":"bool"}],"stateMutability":"view"},{"type":"function","name":"questions","inputs":[{"name":"","type":"uint256","internalType":"uint256"}],"outputs":[{"name":"asker","type":"address","internalType":"address"},{"name":"content","type":"string","internalType":"string"},{"name":"reward","type":"uint256","internalType":"uint256"},{"name":"expiration_time","type":"uint256","internalType":"uint256"},{"name":"question_id","type":"uint256","internalType":"uint256"},{"name":"selected","type":"bool","internalType":"bool"},{"name":"closed","type":"bool","internalType":"bool"},{"name":"distributed","type":"bool","internalType":"bool"}],"stateMutability":"view"},{"type":"function","name":"registerUser","inputs":[{"name":"_username","type":"string","internalType":"string"}],"outputs":[],"stateMutability":"nonpayable"},{"type":"function","name":"rewardDistribute","inputs":[{"name":"question_id","type":"uint256","internalType":"uint256"},{"name":"giveReward","type":"bool","internalType":"bool"}],"outputs":[],"stateMutability":"payable"},{"type":"function","name":"rewardRecordsMap","inputs":[{"name":"","type":"address","internalType":"address"}],"outputs":[{"name":"","type":"address","internalType":"contract Queue"}],"stateMutability":"view"},{"type":"function","name":"selectAnswer","inputs":[{"name":"q_id","type":"uint256","internalType":"uint256"},{"name":"a_id","type":"uint256","internalType":"uint256"}],"outputs":[],"stateMutability":"nonpayable"},{"type":"function","name":"sqrt","inputs":[{"name":"x","type":"uint256","internalType":"uint256"}],"outputs":[{"name":"y","type":"uint256","internalType":"uint256"}],"stateMutability":"pure"},{"type":"function","name":"userAddrMap","inputs":[{"name":"","type":"address","internalType":"address"}],"outputs":[{"name":"user_name","type":"string","internalType":"string"},{"name":"user_address","type":"address","internalType":"address"},{"name":"credit","type":"uint256","internalType":"uint256"}],"stateMutability":"view"},{"type":"function","name":"userCount","inputs":[],"outputs":[{"name":"","type":"uint256","internalType":"uint256"}],"stateMutability":"view"},{"type":"function","name":"users","inputs":[{"name":"","type":"uint256","internalType":"uint256"}],"outputs":[{"name":"user_name","type":"string","internalType":"string"},{"name":"user_address","type":"address","internalType":"address"},{"name":"credit","type":"uint256","internalType":"uint256"}],"stateMutability":"view"},{"type":"event","name":"AnswerCreated","inputs":[{"name":"q_id","type":"uint256","indexed":false,"internalType":"uint256"},{"name":"a_id","type":"uint256","indexed":false,"internalType":"uint256"},{"name":"content","type":"string","indexed":false,"internalType":"string"},{"name":"reward","type":"uint256","indexed":false,"internalType":"uint256"}],"anonymous":false},{"type":"event","name":"AnswerSelected","inputs":[{"name":"q_id","type":"uint256","indexed":false,"internalType":"uint256"},{"name":"a_id","type":"uint256","indexed":false,"internalType":"uint256"}],"anonymous":false},{"type":"event","name":"CancelSelection","inputs":[{"name":"q_id","type":"uint256","indexed":false,"internalType":"uint256"}],"anonymous":false},{"type":"event","name":"Endorse","inputs":[{"name":"a_id","type":"uint256","indexed":false,"internalType":"uint256"},{"name":"endorser","type":"address","indexed":false,"internalType":"address"},{"name":"q_id","type":"uint256","indexed":false,"internalType":"uint256"}],"anonymous":false},{"type":"event","name":"MoneyReceived","inputs":[{"name":"payer","type":"address","indexed":false,"internalType":"address"},{"name":"value","type":"uint256","indexed":false,"internalType":"uint256"}],"anonymous":false},{"type":"event","name":"QuestionClosed","inputs":[{"name":"q_id","type":"uint256","indexed":false,"internalType":"uint256"}],"anonymous":false},{"type":"event","name":"QuestionCreated","inputs":[{"name":"asker","type":"address","indexed":false,"internalType":"address"},{"name":"content","type":"string","indexed":false,"internalType":"string"},{"name":"reward","type":"uint256","indexed":false,"internalType":"uint256"},{"name":"expiration_time","type":"uint256","indexed":false,"internalType":"uint256"},{"name":"question_id","type":"uint256","indexed":false,"internalType":"uint256"},{"name":"closed","type":"bool","indexed":false,"internalType":"bool"},{"name":"answer_ids","type":"uint256[]","indexed":false,"internalType":"uint256[]"}],"anonymous":false},{"type":"event","name":"RewardDistributed","inputs":[{"name":"q_id","type":"uint256","indexed":false,"internalType":"uint256"},{"name":"recipients","type":"address[]","indexed":false,"internalType":"address[]"}],"anonymous":false},{"type":"event","name":"UserCreditUpdate","inputs":[{"name":"user_addr","type":"address","indexed":false,"internalType":"address"},{"name":"prev_credit","type":"uint256","indexed":false,"internalType":"uint256"},{"name":"new_credit","type":"uint256","indexed":false,"internalType":"uint256"}],"anonymous":false},{"type":"event","name":"UserRegistered","inputs":[{"name":"username","type":"string","indexed":false,"internalType":"string"},{"name":"userAddress","type":"address","indexed":false,"internalType":"address"},{"name":"default_credit","type":"uint256","indexed":false,"internalType":"uint256"}],"anonymous":false}],"bytecode":{"object":"0x6080604052600060068190556009819055600b81905580546001600160a01b0319163317905534600c5561395c806100386000396000f3fe6080604052600436106101855760003560e01c80636de94083116100d1578063c09f32e81161008a578063d9548e5311610064578063d9548e53146104cb578063da62458a146104eb578063e34d680514610518578063f061b5b11461053857600080fd5b8063c09f32e81461046b578063c27828451461048b578063c921d66c146104ab57600080fd5b80636de940831461038b578063704f1b941461039e5780638da5cb5b146103be5780638e1ad7df146103de578063a0d035261461040b578063ab10d9981461044b57600080fd5b806331b1b9781161013e5780633ead0e96116101185780633ead0e96146102ec57806341759a141461030157806357344e6f14610332578063677342ce1461036b57600080fd5b806331b1b97814610269578063365b98b21461029d5780633d9c4893146102cc57600080fd5b806307973ccf146101915780630bed0502146101ba57806313fc8c34146101d05780631468aa2c1461021e5780631ea5a292146102345780632ac45a131461025657600080fd5b3661018c57005b600080fd5b34801561019d57600080fd5b506101a760065481565b6040519081526020015b60405180910390f35b3480156101c657600080fd5b506101a7600b5481565b3480156101dc57600080fd5b506102066101eb366004612fa1565b6005602052600090815260409020546001600160a01b031681565b6040516001600160a01b0390911681526020016101b1565b34801561022a57600080fd5b506101a760095481565b34801561024057600080fd5b5061025461024f366004612fca565b610558565b005b610254610264366004612fec565b61093d565b34801561027557600080fd5b50610289610284366004613021565b610d93565b6040516101b1989796959493929190613080565b3480156102a957600080fd5b506102bd6102b8366004613021565b610e84565b6040516101b1939291906130dc565b3480156102d857600080fd5b506102546102e7366004612fca565b610f50565b3480156102f857600080fd5b506101a7611268565b34801561030d57600080fd5b5061032161031c366004613021565b6112ec565b6040516101b195949392919061310a565b34801561033e57600080fd5b506101a761034d366004612fa1565b6001600160a01b031660009081526003602052604090206002015490565b34801561037757600080fd5b506101a7610386366004613021565b6113b2565b6101a76103993660046131ee565b61140b565b3480156103aa57600080fd5b506102546103b9366004613242565b6118c0565b3480156103ca57600080fd5b50600054610206906001600160a01b031681565b3480156103ea57600080fd5b506103fe6103f9366004613021565b611c83565b6040516101b191906132c4565b34801561041757600080fd5b5061043b610426366004612fa1565b60046020526000908152604090205460ff1681565b60405190151581526020016101b1565b34801561045757600080fd5b506101a7610466366004612fa1565b611f47565b34801561047757600080fd5b50610254610486366004613021565b612066565b34801561049757600080fd5b506102546104a6366004613021565b6121f0565b3480156104b757600080fd5b506101a76104c63660046132d7565b612513565b3480156104d757600080fd5b5061043b6104e6366004613021565b6128da565b3480156104f757600080fd5b5061050b610506366004613021565b612ab1565b6040516101b1919061331e565b34801561052457600080fd5b506102bd610533366004612fa1565b612b5d565b34801561054457600080fd5b50610289610553366004613021565b612b78565b610561816128da565b156105ad5760405162461bcd60e51b8152602060048201526017602482015276151a1a5cc81c5d595cdd1a5bdb881a5cc818db1bdcd959604a1b60448201526064015b60405180910390fd5b3360009081526004602052604090205460ff166106205760405162461bcd60e51b815260206004820152602b60248201527f55736572206d757374206265207265676973746572656420746f20616464206560448201526a6e646f7273656d656e747360a81b60648201526084016105a4565b60008181526007602052604090206006015461067e5760405162461bcd60e51b815260206004820152601d60248201527f5468657265206973206e6f20616e7377657220746f20656e646f72736500000060448201526064016105a4565b6000828152600a6020526040902054336001600160a01b03909116036106f15760405162461bcd60e51b815260206004820152602260248201527f596f752063616e6e6f7420656e646f72736520796f7572206f776e20616e737760448201526132b960f11b60648201526084016105a4565b600b548211156107435760405162461bcd60e51b815260206004820152601e60248201527f54686520696e70757420616e7377657220696420697320696e76616c6964000060448201526064016105a4565b6000828152600a602052604090206002015481146107b65760405162461bcd60e51b815260206004820152602a60248201527f54686520616e7377657220646f6573206e6f742062656c6f6e6720746f207468604482015269329038bab2b9ba34b7b760b11b60648201526084016105a4565b6000828152600a602090815260408083206005018054825181850281018501909352808352919290919083018282801561081957602002820191906000526020600020905b81546001600160a01b031681526001909101906020018083116107fb575b505050505090506000805b825181101561086c57336001600160a01b031683828151811061084957610849613331565b60200260200101516001600160a01b03160361086457600191505b600101610824565b5080156108c75760405162461bcd60e51b815260206004820152602360248201527f557365722063616e6e6f7420656e646f72736520616e20616e7377657220747760448201526269636560e81b60648201526084016105a4565b604080518581523360208201529081018490527f266365a2aceb5ff9d23a2e846eb7b7339cd874d164131d977f6946cb1d0dfcf19060600160405180910390a15050506000908152600a602090815260408220600501805460018101825590835291200180546001600160a01b03191633179055565b6000828152600760205260409020546001600160a01b0316331461096057600080fd5b600082815260076020526040902060050154610100900460ff1661098357600080fd5b60008281526007602052604090206005015462010000900460ff16156109a857600080fd5b60008281526007602052604090206005015460ff1615610a355780610a355760405162461bcd60e51b815260206004820152603a60248201527f496620796f752073656c65637420746865206265737420616e737765722c207960448201527f6f75206861766520746f2067697665206f75742072657761726400000000000060648201526084016105a4565b6000828152600760205260409020600281015460059091015460ff168015610a735750600083815260076020526040902060050154610100900460ff165b15610b8b576000610a8384612ba4565b60408051600180825281830190925291925060009190602080830190803683370190505090508181600081518110610abd57610abd613331565b60200260200101906001600160a01b031690816001600160a01b03168152505082471015610aea57600080fd5b6000826001600160a01b03168460405160006040518083038185875af1925050503d8060008114610b37576040519150601f19603f3d011682016040523d82523d6000602084013e610b3c565b606091505b5050905080610b4a57600080fd5b7fe07f18afb5d3c33b4ff9c9dec7421630fdf6d9842147633e03d5f8ea44ae346e8683604051610b7b929190613347565b60405180910390a1505050610c82565b600083815260076020526040902060050154610100900460ff168015610bc3575060008381526007602052604090206005015460ff16155b8015610bcc5750815b15610c27576000610bdc84611c83565b9050610be88482612dc9565b7fe07f18afb5d3c33b4ff9c9dec7421630fdf6d9842147633e03d5f8ea44ae346e8482604051610c19929190613347565b60405180910390a150610c82565b604051600090339083908381818185875af1925050503d8060008114610c69576040519150601f19603f3d011682016040523d82523d6000602084013e610c6e565b606091505b505090506000915080610c8057600080fd5b505b33600090815260056020908152604080832054815163957908d160e01b815291516001600160a01b0390911693849363957908d19360048082019492939183900301908290875af1158015610cdb573d6000803e3d6000fd5b505050506040513d601f19601f82011682018060405250810190610cff9190613360565b50604051631ffc735d60e01b8152600481018390526001600160a01b03821690631ffc735d90602401600060405180830381600087803b158015610d4257600080fd5b505af1158015610d56573d6000803e3d6000fd5b505033600081815260056020526040902080546001600160a01b0319166001600160a01b038616179055610d8c92509050611f47565b5050505050565b60088181548110610da357600080fd5b6000918252602090912060079091020180546001820180546001600160a01b03909216935090610dd290613379565b80601f0160208091040260200160405190810160405280929190818152602001828054610dfe90613379565b8015610e4b5780601f10610e2057610100808354040283529160200191610e4b565b820191906000526020600020905b815481529060010190602001808311610e2e57829003601f168201915b505050506002830154600384015460048501546005909501549394919390925060ff808216916101008104821691620100009091041688565b60018181548110610e9457600080fd5b9060005260206000209060030201600091509050806000018054610eb790613379565b80601f0160208091040260200160405190810160405280929190818152602001828054610ee390613379565b8015610f305780601f10610f0557610100808354040283529160200191610f30565b820191906000526020600020905b815481529060010190602001808311610f1357829003601f168201915b50505050600183015460029093015491926001600160a01b031691905083565b610f59826128da565b15610f765760405162461bcd60e51b81526004016105a4906133ad565b3360009081526004602052604090205460ff16610fe95760405162461bcd60e51b815260206004820152602b60248201527f55736572206d757374206265207265676973746572656420746f2073656c656360448201526a3a1030b71030b739bbb2b960a91b60648201526084016105a4565b6000828152600760205260409020546001600160a01b031633146110615760405162461bcd60e51b815260206004820152602960248201527f4f6e6c79207468652061736b65722063616e2073656c6563742074686520626560448201526839ba1030b739bbb2b960b91b60648201526084016105a4565b6000818152600a602052604090206002015482146110d55760405162461bcd60e51b815260206004820152602b60248201527f54686520616e7377657220646f6573206e6f742062656c6f6e6720746f20746860448201526a34b99038bab2b9ba34b7b760a91b60648201526084016105a4565b60008281526007602090815260408083206006018054825181850281018501909352808352919290919083018282801561112e57602002820191906000526020600020905b81548152602001906001019080831161111a575b505050600086815260076020526040902060050154929350505060ff16156111f35760005b81518110156111f157600a600083838151811061117257611172613331565b60209081029190910181015182528101919091526040016000206004015460ff1615156001036111e9576000600a60008484815181106111b4576111b4613331565b6020026020010151815260200190815260200160002060040160006101000a81548160ff0219169083151502179055506111f1565b600101611153565b505b60008381526007602090815260408083206005018054600160ff199182168117909255868552600a84529382902060040180549094161790925581518581529081018490527fcce2e26b4c2c9bdecbd753012d7f595a50f3fe6263dc2090e6432f7cc9c5b8bc910160405180910390a1505050565b3360009081526004602052604081205460ff166112d55760405162461bcd60e51b815260206004820152602560248201527f55736572206d757374206265207265676973746572656420746f2067657420636044820152641c99591a5d60da1b60648201526084016105a4565b503360009081526003602052604090206002015490565b600a6020526000908152604090208054600182015460028301546003840180546001600160a01b0390941694929391929161132690613379565b80601f016020809104026020016040519081016040528092919081815260200182805461135290613379565b801561139f5780601f106113745761010080835404028352916020019161139f565b820191906000526020600020905b81548152906001019060200180831161138257829003601f168201915b5050506004909301549192505060ff1685565b60008060026113c2846001613407565b6113cc919061341a565b90508291505b81811015611405579050806002816113ea818661341a565b6113f49190613407565b6113fe919061341a565b90506113d2565b50919050565b3360009081526004602052604081205460ff166114605760405162461bcd60e51b8152602060048201526013602482015272155cd95c881b9bdd081c9959da5cdd195c9959606a1b60448201526064016105a4565b6000341180156114825750336000908152600360205260409020600201543411155b6114f45760405162461bcd60e51b815260206004820152603860248201527f526577617264206d7573742062652067726561746572207468616e203020616e60448201527f64206c657373207468616e20637265646974206c696d6974000000000000000060648201526084016105a4565b60008551116115455760405162461bcd60e51b815260206004820152601960248201527f5175657374696f6e20636f6e74656e7420697320656d7074790000000000000060448201526064016105a4565b600061155283603c61343c565b61155e85610e1061343c565b61156b876201518061343c565b6115759190613407565b61157f9190613407565b9050620151808110158015611597575062093a808111155b6116095760405162461bcd60e51b815260206004820152603f60248201527f45787069726174696f6e2074696d65206d75737420626520677265617465722060448201527f7468616e20312064617920616e64206c657373207468616e203720646179730060648201526084016105a4565b600060096000815461161a90613453565b91905081905590506000604051806101200160405280336001600160a01b0316815260200189815260200134815260200184426116579190613407565b81526020808201859052600060408084018290526060840182905260808401829052805182815280840190915260a09093019290925260088054600181018255925282517ff3f7a9fe364faab93b216da50a3214154f22a0a2b415b23a84c8169e8b636ee3600790930292830180546001600160a01b0319166001600160a01b0390921691909117815590830151929350839290917ff3f7a9fe364faab93b216da50a3214154f22a0a2b415b23a84c8169e8b636ee4019061171990826134bd565b5060408201516002820155606082015160038201556080820151600482015560a082015160058201805460c085015160e086015161ffff1990921693151561ff0019169390931761010093151584021762ff0000191662010000911515919091021790558201518051611796916006840191602090910190612edf565b5050506000828152600760209081526040909120825181546001600160a01b0319166001600160a01b039091161781559082015182919060018201906117dc90826134bd565b5060408201516002820155606082015160038201556080820151600482015560a082015160058201805460c085015160e086015161ffff1990921693151561ff0019169390931761010093151584021762ff0000191662010000911515919091021790558201518051611859916006840191602090910190612edf565b507f84b861809ad6a7273eb286675afe4848e1772d87876e38ff1870adfc5ebbcbb19150339050893461188c8742613407565b60408051600080825260208201928390526118ad96959493928a929061357d565b60405180910390a1509695505050505050565b3360008181526004602052604090205460ff16156119205760405162461bcd60e51b815260206004820152601a60248201527f546865206164647265737320776173207265676973746572656400000000000060448201526064016105a4565b81600160005b6006548110156119835782805190602001206001828154811061194b5761194b613331565b90600052602060002090600302016000016040516119699190613605565b60405180910390200361197b57600091505b600101611926565b50806119c65760405162461bcd60e51b81526020600482015260126024820152716475706c696361746520757365726e616d6560701b60448201526064016105a4565b6000845111611a175760405162461bcd60e51b815260206004820152601860248201527f557365726e616d652063616e6e6f7420626520656d707479000000000000000060448201526064016105a4565b60408051606081018252858152336020820152662386f26fc1000091810191909152600180548082018255600091909152815182916003027fb10e2d527612073b26eecdfd717e6a320cf44b4afac2b0732d9fcbe2b7fa0cf601908190611a7e90826134bd565b506020828101516001830180546001600160a01b0319166001600160a01b0390921691909117905560409283015160029092019190915533600090815260039091522081518291908190611ad290826134bd565b506020820151600182810180546001600160a01b0319166001600160a01b0390931692909217909155604090920151600291820155805491820181556000527f405787fa12a823e0f2b7631cc41b3ba8828b3321ca811111fa75cd3aa3bb5ace01611b3d86826134bd565b50336000908152600460205260408120805460ff191660011790556006805491611b6683613453565b91905055506000604051611b7990612f2a565b604051809103906000f080158015611b95573d6000803e3d6000fd5b50905060005b6005811015611c1057604051631ffc735d60e01b8152660fe170fa25600060048201526001600160a01b03831690631ffc735d90602401600060405180830381600087803b158015611bec57600080fd5b505af1158015611c00573d6000803e3d6000fd5b505060019092019150611b9b9050565b50336000818152600560205260409081902080546001600160a01b0319166001600160a01b038516179055517fda4b066842833e7ab38c0f7ba442824b5eda00740d68ef015889812a792fc3ec91611c7391899190662386f26fc10000906130dc565b60405180910390a1505050505050565b3360009081526004602052604090205460609060ff16611ca257600080fd5b600082815260076020526040902060050154610100900460ff16611cc557600080fd5b6000828152600760205260409020546001600160a01b03163314611ce857600080fd5b600082815260076020908152604080832060060180548251818502810185019093528083529192909190830182828015611d4157602002820191906000526020600020905b815481526020019060010190808311611d2d575b505050505090506000805b8251811015611dcd5781600a6000858481518110611d6c57611d6c613331565b60200260200101518152602001908152602001600020600501805490501115611dc557600a6000848381518110611da557611da5613331565b602002602001015181526020019081526020016000206005018054905091505b600101611d4c565b506000805b8351811015611e2a5782600a6000868481518110611df257611df2613331565b602002602001015181526020019081526020016000206005018054905003611e225781611e1e81613453565b9250505b600101611dd2565b5060008167ffffffffffffffff811115611e4657611e4661314b565b604051908082528060200260200182016040528015611e6f578160200160208202803683370190505b5090506000805b8551811015611f3b5784600a6000888481518110611e9657611e96613331565b602002602001015181526020019081526020016000206005018054905003611f3357600a6000878381518110611ece57611ece613331565b6020026020010151815260200190815260200160002060000160009054906101000a90046001600160a01b0316838381518110611f0d57611f0d613331565b6001600160a01b039092166020928302919091019091015281611f2f81613453565b9250505b600101611e76565b50909695505050505050565b6001600160a01b038082166000908152600560209081526040808320548151630130ca2b60e01b8152915193948594911692630130ca2b92600480820193918290030181865afa158015611f9f573d6000803e3d6000fd5b505050506040513d601f19601f82011682018060405250810190611fc39190613360565b6001600160a01b0384166000908152600360205260409020600201549091507f085f11378a0c42687437148f7b62421b8e6f48c3a41b0e416dc85078bcc0bcd390849061200f846113b2565b604080516001600160a01b03909416845260208401929092529082015260600160405180910390a1612040816113b2565b6001600160a01b0390931660009081526003602052604090206002018390555090919050565b3360009081526004602052604090205460ff166120d95760405162461bcd60e51b815260206004820152602b60248201527f55736572206d757374206265207265676973746572656420746f20636c6f736560448201526a10309038bab2b9ba34b7b760a91b60648201526084016105a4565b6000818152600760205260409020546001600160a01b0316331461214d5760405162461bcd60e51b815260206004820152602560248201527f4f6e6c79207468652061736b65722063616e20636c6f7365207468652071756560448201526439ba34b7b760d91b60648201526084016105a4565b612156816128da565b156121735760405162461bcd60e51b81526004016105a4906133ad565b6009548111156121955760405162461bcd60e51b81526004016105a49061367b565b60008181526007602052604090819020600501805461ff001916610100179055517f3c8f450bdfccd4e29a4d8e9602688d5e009772a7de7c40c7f27b8f8c129f01fa906121e59083815260200190565b60405180910390a150565b3360009081526004602052604090205460ff166122755760405162461bcd60e51b815260206004820152603c60248201527f55736572206d757374206265207265676973746572656420746f2063616e636560448201527f6c207468652073656c656374696f6e206f6620616e20616e737765720000000060648201526084016105a4565b6000818152600760205260409020546001600160a01b031633146123015760405162461bcd60e51b815260206004820152603a60248201527f4f6e6c79207468652061736b65722063616e2063616e63656c2074686520736560448201527f6c656374696f6e206f6620746865206265737420616e7377657200000000000060648201526084016105a4565b61230a816128da565b156123275760405162461bcd60e51b81526004016105a4906133ad565b60008181526007602052604090206005015460ff1661239e5760405162461bcd60e51b815260206004820152602d60248201527f4e6f20616e7377657220666f722074686973207175657374696f6e206861732060448201526c1899595b881cd95b1958dd1959609a1b60648201526084016105a4565b6000818152600760209081526040808320600601805482518185028101850190935280835291929091908301828280156123f757602002820191906000526020600020905b8154815260200190600101908083116123e3575b505050600085815260076020526040902060050154929350505060ff16156124bc5760005b81518110156124ba57600a600083838151811061243b5761243b613331565b60209081029190910181015182528101919091526040016000206004015460ff1615156001036124b2576000600a600084848151811061247d5761247d613331565b6020026020010151815260200190815260200160002060040160006101000a81548160ff0219169083151502179055506124ba565b60010161241c565b505b60008281526007602052604090819020600501805460ff19169055517f53088c7bbf224d7afa175aa1fbda4d494a5008e230beebc8d16b45c8415e9645906125079084815260200190565b60405180910390a15050565b600061251e836128da565b156125655760405162461bcd60e51b8152602060048201526017602482015276151a1a5cc81c5d595cdd1a5bdb881a5cc818db1bdcd959604a1b60448201526064016105a4565b3360009081526004602052604090205460ff166125d95760405162461bcd60e51b815260206004820152602c60248201527f55736572206d757374206265207265676973746572656420746f20616e73776560448201526b3910309038bab2b9ba34b7b760a11b60648201526084016105a4565b600082511161262a5760405162461bcd60e51b815260206004820152601e60248201527f416e7377657220636f6e74656e742063616e6e6f7420626520656d707479000060448201526064016105a4565b600083815260076020526040902054336001600160a01b039091160361269e5760405162461bcd60e51b8152602060048201526024808201527f596f752063616e6e6f7420616e7377657220796f7572206f776e207175657374604482015263696f6e2160e01b60648201526084016105a4565b6009548311156126c05760405162461bcd60e51b81526004016105a49061367b565b60005b60008481526007602052604090206006015481101561279257600084815260076020526040812060060180543392600a9290918590811061270657612706613331565b600091825260208083209091015483528201929092526040019020546001600160a01b03160361278a5760405162461bcd60e51b815260206004820152602960248201527f596f752063616e6e6f7420616e73776572207468652073616d65207175657374604482015268696f6e20747769636560b81b60648201526084016105a4565b6001016126c3565b5060606000600b600081546127a690613453565b91829055506040805160c08101825233815260208082018481528284018a8152606084018a815260006080860181905260a086018a9052878152600a90945294909220835181546001600160a01b0319166001600160a01b039091161781559051600182015590516002820155915192935091829190600382019061282b90826134bd565b50608082015160048201805460ff191691151591909117905560a0820151805161285f916005840191602090910190612f37565b5050506000868152600760209081526040808320600681018054600181018255908552928420909201859055918890526002015490517f6664f2452a9c851a9ecdf8e98ff206e97b1ab656fddb6f741e06c4d085ed2b13916128c791899186918a91906136b0565b60405180910390a1509150505b92915050565b60006009548211156128fe5760405162461bcd60e51b81526004016105a49061367b565b60008281526007602090815260408083208151610120810190925280546001600160a01b03168252600181018054929391929184019161293d90613379565b80601f016020809104026020016040519081016040528092919081815260200182805461296990613379565b80156129b65780601f1061298b576101008083540402835291602001916129b6565b820191906000526020600020905b81548152906001019060200180831161299957829003601f168201915b50505091835250506002820154602080830191909152600383015460408084019190915260048401546060840152600584015460ff8082161515608086015261010082048116151560a08601526201000090910416151560c084015260068401805482518185028101850190935280835260e0909401939192909190830182828015612a6157602002820191906000526020600020905b815481526020019060010190808311612a4d575b50505050508152505090508060600151421115612a97576000838152600760205260409020600501805461ff0019166101001790555b8060600151421180612aaa57508060c001515b9392505050565b60028181548110612ac157600080fd5b906000526020600020016000915090508054612adc90613379565b80601f0160208091040260200160405190810160405280929190818152602001828054612b0890613379565b8015612b555780601f10612b2a57610100808354040283529160200191612b55565b820191906000526020600020905b815481529060010190602001808311612b3857829003601f168201915b505050505081565b600360205260009081526040902080548190610eb790613379565b600760205260009081526040902080546001820180546001600160a01b039092169291610dd290613379565b6000600954821115612bb557600080fd5b60008281526007602090815260408083208151610120810190925280546001600160a01b031682526001810180549293919291840191612bf490613379565b80601f0160208091040260200160405190810160405280929190818152602001828054612c2090613379565b8015612c6d5780601f10612c4257610100808354040283529160200191612c6d565b820191906000526020600020905b815481529060010190602001808311612c5057829003601f168201915b50505091835250506002820154602080830191909152600383015460408084019190915260048401546060840152600584015460ff8082161515608086015261010082048116151560a08601526201000090910416151560c084015260068401805482518185028101850190935280835260e0909401939192909190830182828015612d1857602002820191906000526020600020905b815481526020019060010190808311612d04575b5050509190925250505061010081015190915060005b8151811015612dbe57600a6000838381518110612d4d57612d4d613331565b60209081029190910181015182528101919091526040016000206004015460ff1615612db657600a6000838381518110612d8957612d89613331565b6020908102919091018101518252810191909152604001600020546001600160a01b031695945050505050565b600101612d2e565b506000949350505050565b612dd2826128da565b612ddb57600080fd5b600082815260076020526040902060050154610100900460ff16612dfe57600080fd5b6000828152600760205260409020546001600160a01b03163314612e2157600080fd5b6000828152600760205260408120600201548251909190612e42908361341a565b905060005b8351811015610d8c5781471015612e5d57600080fd5b6000848281518110612e7157612e71613331565b60200260200101516001600160a01b03168360405160006040518083038185875af1925050503d8060008114612ec3576040519150601f19603f3d011682016040523d82523d6000602084013e612ec8565b606091505b5050905080612ed657600080fd5b50600101612e47565b828054828255906000526020600020908101928215612f1a579160200282015b82811115612f1a578251825591602001919060010190612eff565b50612f26929150612f8c565b5090565b610246806136e183390190565b828054828255906000526020600020908101928215612f1a579160200282015b82811115612f1a57825182546001600160a01b0319166001600160a01b03909116178255602090920191600190910190612f57565b5b80821115612f265760008155600101612f8d565b600060208284031215612fb357600080fd5b81356001600160a01b0381168114612aaa57600080fd5b60008060408385031215612fdd57600080fd5b50508035926020909101359150565b60008060408385031215612fff57600080fd5b823591506020830135801515811461301657600080fd5b809150509250929050565b60006020828403121561303357600080fd5b5035919050565b6000815180845260005b8181101561306057602081850181015186830182015201613044565b506000602082860101526020601f19601f83011685010191505092915050565b6001600160a01b0389168152610100602082018190526000906130a58382018b61303a565b604084019990995250506060810195909552608085019390935290151560a0840152151560c0830152151560e09091015292915050565b6060815260006130ef606083018661303a565b6001600160a01b039490941660208301525060400152919050565b60018060a01b038616815284602082015283604082015260a06060820152600061313760a083018561303a565b905082151560808301529695505050505050565b634e487b7160e01b600052604160045260246000fd5b600082601f83011261317257600080fd5b813567ffffffffffffffff8082111561318d5761318d61314b565b604051601f8301601f19908116603f011681019082821181831017156131b5576131b561314b565b816040528381528660208588010111156131ce57600080fd5b836020870160208301376000602085830101528094505050505092915050565b6000806000806080858703121561320457600080fd5b843567ffffffffffffffff81111561321b57600080fd5b61322787828801613161565b97602087013597506040870135966060013595509350505050565b60006020828403121561325457600080fd5b813567ffffffffffffffff81111561326b57600080fd5b61327784828501613161565b949350505050565b60008151808452602080850194506020840160005b838110156132b95781516001600160a01b031687529582019590820190600101613294565b509495945050505050565b602081526000612aaa602083018461327f565b600080604083850312156132ea57600080fd5b82359150602083013567ffffffffffffffff81111561330857600080fd5b61331485828601613161565b9150509250929050565b602081526000612aaa602083018461303a565b634e487b7160e01b600052603260045260246000fd5b828152604060208201526000613277604083018461327f565b60006020828403121561337257600080fd5b5051919050565b600181811c9082168061338d57607f821691505b60208210810361140557634e487b7160e01b600052602260045260246000fd5b60208082526024908201527f546865207175657374696f6e2068617320616c7265616479206265656e20636c6040820152631bdcd95960e21b606082015260800190565b634e487b7160e01b600052601160045260246000fd5b808201808211156128d4576128d46133f1565b60008261343757634e487b7160e01b600052601260045260246000fd5b500490565b80820281158282048414176128d4576128d46133f1565b600060018201613465576134656133f1565b5060010190565b601f8211156134b8576000816000526020600020601f850160051c810160208610156134955750805b601f850160051c820191505b818110156134b4578281556001016134a1565b5050505b505050565b815167ffffffffffffffff8111156134d7576134d761314b565b6134eb816134e58454613379565b8461346c565b602080601f83116001811461352057600084156135085750858301515b600019600386901b1c1916600185901b1785556134b4565b600085815260208120601f198616915b8281101561354f57888601518255948401946001909101908401613530565b508582101561356d5787850151600019600388901b60f8161c191681555b5050505050600190811b01905550565b6001600160a01b038816815260e060208083018290526000916135a29084018a61303a565b60408401899052606084018890526080840187905285151560a085015283810360c08501528451808252602080870192019060005b818110156135f3578351835292840192918401916001016135d7565b50909c9b505050505050505050505050565b600080835461361381613379565b6001828116801561362b57600181146136405761366f565b60ff198416875282151583028701945061366f565b8760005260208060002060005b858110156136665781548a82015290840190820161364d565b50505082870194505b50929695505050505050565b6020808252818101527f54686520696e707574207175657374696f6e20696420697320696e76616c6964604082015260600190565b8481528360208201526080604082015260006136cf608083018561303a565b90508260608301529594505050505056fe6080604052600180556000600255348015601857600080fd5b5061021e806100286000396000f3fe608060405234801561001057600080fd5b506004361061004c5760003560e01c80630130ca2b146100515780631f7b6d321461006b5780631ffc735d14610073578063957908d114610088575b600080fd5b610059610090565b60405190815260200160405180910390f35b6100596100dd565b610086610081366004610176565b610100565b005b61005961012c565b6001546000905b6002546100a59060016101a5565b8110156100d9576000818152602081905260409020546100c590806101be565b6100cf90836101a5565b9150600101610097565b5090565b600060015460025460016100f191906101a5565b6100fb91906101d5565b905090565b60016002600082825461011391906101a5565b9091555050600254600090815260208190526040902055565b600080600154600254101561014057600080fd5b506001805460009081526020819052604081208054908290558254909291829161016b9083906101a5565b909155509092915050565b60006020828403121561018857600080fd5b5035919050565b634e487b7160e01b600052601160045260246000fd5b808201808211156101b8576101b861018f565b92915050565b80820281158282048414176101b8576101b861018f565b818103818111156101b8576101b861018f56fea2646970667358221220ba2f82ddccad524b0a8065750c411370679db7b8061eec9659450c70c0ece14e64736f6c63430008190033a26469706673582212201ddfb801e93639aad2ef3a8ee73c04f81dea9b47bdfdd10b6cd09fd6666062e864736f6c63430008190033","linkReferences":{}},"methodIdentifiers":{"accountNames(uint256)":"da62458a","answerCount()":"0bed0502","answerMap(uint256)":"41759a14","askQuestion(string,uint256,uint256,uint256)":"6de94083","calculate_credit(address)":"ab10d998","cancelSelection(uint256)":"c2782845","checkEndorsement(uint256)":"8e1ad7df","closeQuestion(uint256)":"c09f32e8","endorse(uint256,uint256)":"1ea5a292","getCredit(address)":"57344e6f","getMyCredit()":"3ead0e96","hasRegistered(address)":"a0d03526","isExpired(uint256)":"d9548e53","owner()":"8da5cb5b","postAnswer(uint256,string)":"c921d66c","questionCount()":"1468aa2c","questionMap(uint256)":"f061b5b1","questions(uint256)":"31b1b978","registerUser(string)":"704f1b94","rewardDistribute(uint256,bool)":"2ac45a13","rewardRecordsMap(address)":"13fc8c34","selectAnswer(uint256,uint256)":"3d9c4893","sqrt(uint256)":"677342ce","userAddrMap(address)":"e34d6805","userCount()":"07973ccf","users(uint256)":"365b98b2"},"id":26}