{"abi":[{"type":"constructor","inputs":[],"stateMutability":"payable"},{"type":"receive","stateMutability":"payable"},{"type":"function","name":"accountNames","inputs":[{"name":"","type":"uint256","internalType":"uint256"}],"outputs":[{"name":"","type":"string","internalType":"string"}],"stateMutability":"view"},{"type":"function","name":"answerCount","inputs":[],"outputs":[{"name":"","type":"uint256","internalType":"uint256"}],"stateMutability":"view"},{"type":"function","name":"answerMap","inputs":[{"name":"","type":"uint256","internalType":"uint256"}],"outputs":[{"name":"answerer","type":"address","internalType":"address"},{"name":"answer_id","type":"uint256","internalType":"uint256"},{"name":"question_id","type":"uint256","internalType":"uint256"},{"name":"content","type":"string","internalType":"string"},{"name":"isSelected","type":"bool","internalType":"bool"}],"stateMutability":"view"},{"type":"function","name":"askQuestion","inputs":[{"name":"_content","type":"string","internalType":"string"},{"name":"_day","type":"uint256","internalType":"uint256"},{"name":"_hour","type":"uint256","internalType":"uint256"},{"name":"_min","type":"uint256","internalType":"uint256"}],"outputs":[{"name":"","type":"uint256","internalType":"uint256"}],"stateMutability":"payable"},{"type":"function","name":"calculate_credit","inputs":[{"name":"userAddress","type":"address","internalType":"address"}],"outputs":[{"name":"","type":"uint256","internalType":"uint256"}],"stateMutability":"nonpayable"},{"type":"function","name":"cancelSelection","inputs":[{"name":"q_id","type":"uint256","internalType":"uint256"}],"outputs":[],"stateMutability":"nonpayable"},{"type":"function","name":"checkEndorsement","inputs":[{"name":"q_id","type":"uint256","internalType":"uint256"}],"outputs":[{"name":"","type":"address[]","internalType":"address[]"}],"stateMutability":"view"},{"type":"function","name":"closeQuestion","inputs":[{"name":"q_id","type":"uint256","internalType":"uint256"}],"outputs":[],"stateMutability":"nonpayable"},{"type":"function","name":"endorse","inputs":[{"name":"answer_id","type":"uint256","internalType":"uint256"},{"name":"question_id","type":"uint256","internalType":"uint256"}],"outputs":[],"stateMutability":"nonpayable"},{"type":"function","name":"getCredit","inputs":[{"name":"userAddress","type":"address","internalType":"address"}],"outputs":[{"name":"","type":"uint256","internalType":"uint256"}],"stateMutability":"view"},{"type":"function","name":"getMyCredit","inputs":[],"outputs":[{"name":"","type":"uint256","internalType":"uint256"}],"stateMutability":"view"},{"type":"function","name":"hasRegistered","inputs":[{"name":"","type":"address","internalType":"address"}],"outputs":[{"name":"","type":"bool","internalType":"bool"}],"stateMutability":"view"},{"type":"function","name":"isExpired","inputs":[{"name":"q_id","type":"uint256","internalType":"uint256"}],"outputs":[{"name":"","type":"bool","internalType":"bool"}],"stateMutability":"nonpayable"},{"type":"function","name":"owner","inputs":[],"outputs":[{"name":"","type":"address","internalType":"address"}],"stateMutability":"view"},{"type":"function","name":"postAnswer","inputs":[{"name":"question_id","type":"uint256","internalType":"uint256"},{"name":"content","type":"string","internalType":"string"}],"outputs":[{"name":"","type":"uint256","internalType":"uint256"}],"stateMutability":"nonpayable"},{"type":"function","name":"questionCount","inputs":[],"outputs":[{"name":"","type":"uint256","internalType":"uint256"}],"stateMutability":"view"},{"type":"function","name":"questionMap","inputs":[{"name":"","type":"uint256","internalType":"uint256"}],"outputs":[{"name":"asker","type":"address","internalType":"address"},{"name":"content","type":"string","internalType":"string"},{"name":"reward","type":"uint256","internalType":"uint256"},{"name":"expiration_time","type":"uint256","internalType":"uint256"},{"name":"question_id","type":"uint256","internalType":"uint256"},{"name":"selected","type":"bool","internalType":"bool"},{"name":"closed","type":"bool","internalType":"bool"},{"name":"distributed","type":"bool","internalType":"bool"}],"stateMutability":"view"},{"type":"function","name":"questions","inputs":[{"name":"","type":"uint256","internalType":"uint256"}],"outputs":[{"name":"asker","type":"address","internalType":"address"},{"name":"content","type":"string","internalType":"string"},{"name":"reward","type":"uint256","internalType":"uint256"},{"name":"expiration_time","type":"uint256","internalType":"uint256"},{"name":"question_id","type":"uint256","internalType":"uint256"},{"name":"selected","type":"bool","internalType":"bool"},{"name":"closed","type":"bool","internalType":"bool"},{"name":"distributed","type":"bool","internalType":"bool"}],"stateMutability":"view"},{"type":"function","name":"registerUser","inputs":[{"name":"_username","type":"string","internalType":"string"}],"outputs":[],"stateMutability":"nonpayable"},{"type":"function","name":"rewardDistribute","inputs":[{"name":"question_id","type":"uint256","internalType":"uint256"},{"name":"giveReward","type":"bool","internalType":"bool"}],"outputs":[],"stateMutability":"payable"},{"type":"function","name":"rewardRecordsMap","inputs":[{"name":"","type":"address","internalType":"address"}],"outputs":[{"name":"","type":"address","internalType":"contract Queue"}],"stateMutability":"view"},{"type":"function","name":"selectAnswer","inputs":[{"name":"q_id","type":"uint256","internalType":"uint256"},{"name":"a_id","type":"uint256","internalType":"uint256"}],"outputs":[],"stateMutability":"nonpayable"},{"type":"function","name":"sqrt","inputs":[{"name":"x","type":"uint256","internalType":"uint256"}],"outputs":[{"name":"y","type":"uint256","internalType":"uint256"}],"stateMutability":"pure"},{"type":"function","name":"userAddrMap","inputs":[{"name":"","type":"address","internalType":"address"}],"outputs":[{"name":"user_name","type":"string","internalType":"string"},{"name":"user_address","type":"address","internalType":"address"},{"name":"credit","type":"uint256","internalType":"uint256"}],"stateMutability":"view"},{"type":"function","name":"userCount","inputs":[],"outputs":[{"name":"","type":"uint256","internalType":"uint256"}],"stateMutability":"view"},{"type":"function","name":"users","inputs":[{"name":"","type":"uint256","internalType":"uint256"}],"outputs":[{"name":"user_name","type":"string","internalType":"string"},{"name":"user_address","type":"address","internalType":"address"},{"name":"credit","type":"uint256","internalType":"uint256"}],"stateMutability":"view"},{"type":"event","name":"AnswerCreated","inputs":[{"name":"q_id","type":"uint256","indexed":false,"internalType":"uint256"},{"name":"a_id","type":"uint256","indexed":false,"internalType":"uint256"},{"name":"content","type":"string","indexed":false,"internalType":"string"},{"name":"reward","type":"uint256","indexed":false,"internalType":"uint256"}],"anonymous":false},{"type":"event","name":"AnswerSelected","inputs":[{"name":"q_id","type":"uint256","indexed":false,"internalType":"uint256"},{"name":"a_id","type":"uint256","indexed":false,"internalType":"uint256"}],"anonymous":false},{"type":"event","name":"CancelSelection","inputs":[{"name":"q_id","type":"uint256","indexed":false,"internalType":"uint256"}],"anonymous":false},{"type":"event","name":"Endorse","inputs":[{"name":"a_id","type":"uint256","indexed":false,"internalType":"uint256"},{"name":"endorser","type":"address","indexed":false,"internalType":"address"},{"name":"q_id","type":"uint256","indexed":false,"internalType":"uint256"}],"anonymous":false},{"type":"event","name":"MoneyReceived","inputs":[{"name":"payer","type":"address","indexed":false,"internalType":"address"},{"name":"value","type":"uint256","indexed":false,"internalType":"uint256"}],"anonymous":false},{"type":"event","name":"QuestionClosed","inputs":[{"name":"q_id","type":"uint256","indexed":false,"internalType":"uint256"}],"anonymous":false},{"type":"event","name":"QuestionCreated","inputs":[{"name":"asker","type":"address","indexed":false,"internalType":"address"},{"name":"content","type":"string","indexed":false,"internalType":"string"},{"name":"reward","type":"uint256","indexed":false,"internalType":"uint256"},{"name":"expiration_time","type":"uint256","indexed":false,"internalType":"uint256"},{"name":"question_id","type":"uint256","indexed":false,"internalType":"uint256"},{"name":"closed","type":"bool","indexed":false,"internalType":"bool"},{"name":"answer_ids","type":"uint256[]","indexed":false,"internalType":"uint256[]"}],"anonymous":false},{"type":"event","name":"RewardDistributed","inputs":[{"name":"q_id","type":"uint256","indexed":false,"internalType":"uint256"},{"name":"recipients","type":"address[]","indexed":false,"internalType":"address[]"}],"anonymous":false},{"type":"event","name":"UserCreditUpdate","inputs":[{"name":"user_addr","type":"address","indexed":false,"internalType":"address"},{"name":"prev_credit","type":"uint256","indexed":false,"internalType":"uint256"},{"name":"new_credit","type":"uint256","indexed":false,"internalType":"uint256"}],"anonymous":false},{"type":"event","name":"UserRegistered","inputs":[{"name":"username","type":"string","indexed":false,"internalType":"string"},{"name":"userAddress","type":"address","indexed":false,"internalType":"address"},{"name":"default_credit","type":"uint256","indexed":false,"internalType":"uint256"}],"anonymous":false}],"bytecode":{"object":"0x6080604052600060068190556009819055600b81905580546001600160a01b0319163317905534600c556139d4806100386000396000f3fe6080604052600436106101855760003560e01c80636de94083116100d1578063c09f32e81161008a578063d9548e5311610064578063d9548e53146104cb578063da62458a146104eb578063e34d680514610518578063f061b5b11461053857600080fd5b8063c09f32e81461046b578063c27828451461048b578063c921d66c146104ab57600080fd5b80636de940831461038b578063704f1b941461039e5780638da5cb5b146103be5780638e1ad7df146103de578063a0d035261461040b578063ab10d9981461044b57600080fd5b806331b1b9781161013e5780633ead0e96116101185780633ead0e96146102ec57806341759a141461030157806357344e6f14610332578063677342ce1461036b57600080fd5b806331b1b97814610269578063365b98b21461029d5780633d9c4893146102cc57600080fd5b806307973ccf146101915780630bed0502146101ba57806313fc8c34146101d05780631468aa2c1461021e5780631ea5a292146102345780632ac45a131461025657600080fd5b3661018c57005b600080fd5b34801561019d57600080fd5b506101a760065481565b6040519081526020015b60405180910390f35b3480156101c657600080fd5b506101a7600b5481565b3480156101dc57600080fd5b506102066101eb366004613019565b6005602052600090815260409020546001600160a01b031681565b6040516001600160a01b0390911681526020016101b1565b34801561022a57600080fd5b506101a760095481565b34801561024057600080fd5b5061025461024f366004613042565b610558565b005b610254610264366004613064565b61093d565b34801561027557600080fd5b50610289610284366004613099565b610d93565b6040516101b19897969594939291906130f8565b3480156102a957600080fd5b506102bd6102b8366004613099565b610e84565b6040516101b193929190613154565b3480156102d857600080fd5b506102546102e7366004613042565b610f50565b3480156102f857600080fd5b506101a7611268565b34801561030d57600080fd5b5061032161031c366004613099565b6112ec565b6040516101b1959493929190613182565b34801561033e57600080fd5b506101a761034d366004613019565b6001600160a01b031660009081526003602052604090206002015490565b34801561037757600080fd5b506101a7610386366004613099565b6113b2565b6101a7610399366004613266565b61140b565b3480156103aa57600080fd5b506102546103b93660046132ba565b6118c0565b3480156103ca57600080fd5b50600054610206906001600160a01b031681565b3480156103ea57600080fd5b506103fe6103f9366004613099565b611c83565b6040516101b1919061333c565b34801561041757600080fd5b5061043b610426366004613019565b60046020526000908152604090205460ff1681565b60405190151581526020016101b1565b34801561045757600080fd5b506101a7610466366004613019565b611fbf565b34801561047757600080fd5b50610254610486366004613099565b6120de565b34801561049757600080fd5b506102546104a6366004613099565b612268565b3480156104b757600080fd5b506101a76104c636600461334f565b61258b565b3480156104d757600080fd5b5061043b6104e6366004613099565b612952565b3480156104f757600080fd5b5061050b610506366004613099565b612b29565b6040516101b19190613396565b34801561052457600080fd5b506102bd610533366004613019565b612bd5565b34801561054457600080fd5b50610289610553366004613099565b612bf0565b61056181612952565b156105ad5760405162461bcd60e51b8152602060048201526017602482015276151a1a5cc81c5d595cdd1a5bdb881a5cc818db1bdcd959604a1b60448201526064015b60405180910390fd5b3360009081526004602052604090205460ff166106205760405162461bcd60e51b815260206004820152602b60248201527f55736572206d757374206265207265676973746572656420746f20616464206560448201526a6e646f7273656d656e747360a81b60648201526084016105a4565b60008181526007602052604090206006015461067e5760405162461bcd60e51b815260206004820152601d60248201527f5468657265206973206e6f20616e7377657220746f20656e646f72736500000060448201526064016105a4565b6000828152600a6020526040902054336001600160a01b03909116036106f15760405162461bcd60e51b815260206004820152602260248201527f596f752063616e6e6f7420656e646f72736520796f7572206f776e20616e737760448201526132b960f11b60648201526084016105a4565b600b548211156107435760405162461bcd60e51b815260206004820152601e60248201527f54686520696e70757420616e7377657220696420697320696e76616c6964000060448201526064016105a4565b6000828152600a602052604090206002015481146107b65760405162461bcd60e51b815260206004820152602a60248201527f54686520616e7377657220646f6573206e6f742062656c6f6e6720746f207468604482015269329038bab2b9ba34b7b760b11b60648201526084016105a4565b6000828152600a602090815260408083206005018054825181850281018501909352808352919290919083018282801561081957602002820191906000526020600020905b81546001600160a01b031681526001909101906020018083116107fb575b505050505090506000805b825181101561086c57336001600160a01b0316838281518110610849576108496133a9565b60200260200101516001600160a01b03160361086457600191505b600101610824565b5080156108c75760405162461bcd60e51b815260206004820152602360248201527f557365722063616e6e6f7420656e646f72736520616e20616e7377657220747760448201526269636560e81b60648201526084016105a4565b604080518581523360208201529081018490527f266365a2aceb5ff9d23a2e846eb7b7339cd874d164131d977f6946cb1d0dfcf19060600160405180910390a15050506000908152600a602090815260408220600501805460018101825590835291200180546001600160a01b03191633179055565b6000828152600760205260409020546001600160a01b0316331461096057600080fd5b600082815260076020526040902060050154610100900460ff1661098357600080fd5b60008281526007602052604090206005015462010000900460ff16156109a857600080fd5b60008281526007602052604090206005015460ff1615610a355780610a355760405162461bcd60e51b815260206004820152603a60248201527f496620796f752073656c65637420746865206265737420616e737765722c207960448201527f6f75206861766520746f2067697665206f75742072657761726400000000000060648201526084016105a4565b6000828152600760205260409020600281015460059091015460ff168015610a735750600083815260076020526040902060050154610100900460ff165b15610b8b576000610a8384612c1c565b60408051600180825281830190925291925060009190602080830190803683370190505090508181600081518110610abd57610abd6133a9565b60200260200101906001600160a01b031690816001600160a01b03168152505082471015610aea57600080fd5b6000826001600160a01b03168460405160006040518083038185875af1925050503d8060008114610b37576040519150601f19603f3d011682016040523d82523d6000602084013e610b3c565b606091505b5050905080610b4a57600080fd5b7fe07f18afb5d3c33b4ff9c9dec7421630fdf6d9842147633e03d5f8ea44ae346e8683604051610b7b9291906133bf565b60405180910390a1505050610c82565b600083815260076020526040902060050154610100900460ff168015610bc3575060008381526007602052604090206005015460ff16155b8015610bcc5750815b15610c27576000610bdc84611c83565b9050610be88482612e41565b7fe07f18afb5d3c33b4ff9c9dec7421630fdf6d9842147633e03d5f8ea44ae346e8482604051610c199291906133bf565b60405180910390a150610c82565b604051600090339083908381818185875af1925050503d8060008114610c69576040519150601f19603f3d011682016040523d82523d6000602084013e610c6e565b606091505b505090506000915080610c8057600080fd5b505b33600090815260056020908152604080832054815163957908d160e01b815291516001600160a01b0390911693849363957908d19360048082019492939183900301908290875af1158015610cdb573d6000803e3d6000fd5b505050506040513d601f19601f82011682018060405250810190610cff91906133d8565b50604051631ffc735d60e01b8152600481018390526001600160a01b03821690631ffc735d90602401600060405180830381600087803b158015610d4257600080fd5b505af1158015610d56573d6000803e3d6000fd5b505033600081815260056020526040902080546001600160a01b0319166001600160a01b038616179055610d8c92509050611fbf565b5050505050565b60088181548110610da357600080fd5b6000918252602090912060079091020180546001820180546001600160a01b03909216935090610dd2906133f1565b80601f0160208091040260200160405190810160405280929190818152602001828054610dfe906133f1565b8015610e4b5780601f10610e2057610100808354040283529160200191610e4b565b820191906000526020600020905b815481529060010190602001808311610e2e57829003601f168201915b505050506002830154600384015460048501546005909501549394919390925060ff808216916101008104821691620100009091041688565b60018181548110610e9457600080fd5b9060005260206000209060030201600091509050806000018054610eb7906133f1565b80601f0160208091040260200160405190810160405280929190818152602001828054610ee3906133f1565b8015610f305780601f10610f0557610100808354040283529160200191610f30565b820191906000526020600020905b815481529060010190602001808311610f1357829003601f168201915b50505050600183015460029093015491926001600160a01b031691905083565b610f5982612952565b15610f765760405162461bcd60e51b81526004016105a490613425565b3360009081526004602052604090205460ff16610fe95760405162461bcd60e51b815260206004820152602b60248201527f55736572206d757374206265207265676973746572656420746f2073656c656360448201526a3a1030b71030b739bbb2b960a91b60648201526084016105a4565b6000828152600760205260409020546001600160a01b031633146110615760405162461bcd60e51b815260206004820152602960248201527f4f6e6c79207468652061736b65722063616e2073656c6563742074686520626560448201526839ba1030b739bbb2b960b91b60648201526084016105a4565b6000818152600a602052604090206002015482146110d55760405162461bcd60e51b815260206004820152602b60248201527f54686520616e7377657220646f6573206e6f742062656c6f6e6720746f20746860448201526a34b99038bab2b9ba34b7b760a91b60648201526084016105a4565b60008281526007602090815260408083206006018054825181850281018501909352808352919290919083018282801561112e57602002820191906000526020600020905b81548152602001906001019080831161111a575b505050600086815260076020526040902060050154929350505060ff16156111f35760005b81518110156111f157600a6000838381518110611172576111726133a9565b60209081029190910181015182528101919091526040016000206004015460ff1615156001036111e9576000600a60008484815181106111b4576111b46133a9565b6020026020010151815260200190815260200160002060040160006101000a81548160ff0219169083151502179055506111f1565b600101611153565b505b60008381526007602090815260408083206005018054600160ff199182168117909255868552600a84529382902060040180549094161790925581518581529081018490527fcce2e26b4c2c9bdecbd753012d7f595a50f3fe6263dc2090e6432f7cc9c5b8bc910160405180910390a1505050565b3360009081526004602052604081205460ff166112d55760405162461bcd60e51b815260206004820152602560248201527f55736572206d757374206265207265676973746572656420746f2067657420636044820152641c99591a5d60da1b60648201526084016105a4565b503360009081526003602052604090206002015490565b600a6020526000908152604090208054600182015460028301546003840180546001600160a01b03909416949293919291611326906133f1565b80601f0160208091040260200160405190810160405280929190818152602001828054611352906133f1565b801561139f5780601f106113745761010080835404028352916020019161139f565b820191906000526020600020905b81548152906001019060200180831161138257829003601f168201915b5050506004909301549192505060ff1685565b60008060026113c284600161347f565b6113cc9190613492565b90508291505b81811015611405579050806002816113ea8186613492565b6113f4919061347f565b6113fe9190613492565b90506113d2565b50919050565b3360009081526004602052604081205460ff166114605760405162461bcd60e51b8152602060048201526013602482015272155cd95c881b9bdd081c9959da5cdd195c9959606a1b60448201526064016105a4565b6000341180156114825750336000908152600360205260409020600201543411155b6114f45760405162461bcd60e51b815260206004820152603860248201527f526577617264206d7573742062652067726561746572207468616e203020616e60448201527f64206c657373207468616e20637265646974206c696d6974000000000000000060648201526084016105a4565b60008551116115455760405162461bcd60e51b815260206004820152601960248201527f5175657374696f6e20636f6e74656e7420697320656d7074790000000000000060448201526064016105a4565b600061155283603c6134b4565b61155e85610e106134b4565b61156b87620151806134b4565b611575919061347f565b61157f919061347f565b9050620151808110158015611597575062093a808111155b6116095760405162461bcd60e51b815260206004820152603f60248201527f45787069726174696f6e2074696d65206d75737420626520677265617465722060448201527f7468616e20312064617920616e64206c657373207468616e203720646179730060648201526084016105a4565b600060096000815461161a906134cb565b91905081905590506000604051806101200160405280336001600160a01b031681526020018981526020013481526020018442611657919061347f565b81526020808201859052600060408084018290526060840182905260808401829052805182815280840190915260a09093019290925260088054600181018255925282517ff3f7a9fe364faab93b216da50a3214154f22a0a2b415b23a84c8169e8b636ee3600790930292830180546001600160a01b0319166001600160a01b0390921691909117815590830151929350839290917ff3f7a9fe364faab93b216da50a3214154f22a0a2b415b23a84c8169e8b636ee401906117199082613535565b5060408201516002820155606082015160038201556080820151600482015560a082015160058201805460c085015160e086015161ffff1990921693151561ff0019169390931761010093151584021762ff0000191662010000911515919091021790558201518051611796916006840191602090910190612f57565b5050506000828152600760209081526040909120825181546001600160a01b0319166001600160a01b039091161781559082015182919060018201906117dc9082613535565b5060408201516002820155606082015160038201556080820151600482015560a082015160058201805460c085015160e086015161ffff1990921693151561ff0019169390931761010093151584021762ff0000191662010000911515919091021790558201518051611859916006840191602090910190612f57565b507f84b861809ad6a7273eb286675afe4848e1772d87876e38ff1870adfc5ebbcbb19150339050893461188c874261347f565b60408051600080825260208201928390526118ad96959493928a92906135f5565b60405180910390a1509695505050505050565b3360008181526004602052604090205460ff16156119205760405162461bcd60e51b815260206004820152601a60248201527f546865206164647265737320776173207265676973746572656400000000000060448201526064016105a4565b81600160005b6006548110156119835782805190602001206001828154811061194b5761194b6133a9565b9060005260206000209060030201600001604051611969919061367d565b60405180910390200361197b57600091505b600101611926565b50806119c65760405162461bcd60e51b81526020600482015260126024820152716475706c696361746520757365726e616d6560701b60448201526064016105a4565b6000845111611a175760405162461bcd60e51b815260206004820152601860248201527f557365726e616d652063616e6e6f7420626520656d707479000000000000000060448201526064016105a4565b60408051606081018252858152336020820152662386f26fc1000091810191909152600180548082018255600091909152815182916003027fb10e2d527612073b26eecdfd717e6a320cf44b4afac2b0732d9fcbe2b7fa0cf601908190611a7e9082613535565b506020828101516001830180546001600160a01b0319166001600160a01b0390921691909117905560409283015160029092019190915533600090815260039091522081518291908190611ad29082613535565b506020820151600182810180546001600160a01b0319166001600160a01b0390931692909217909155604090920151600291820155805491820181556000527f405787fa12a823e0f2b7631cc41b3ba8828b3321ca811111fa75cd3aa3bb5ace01611b3d8682613535565b50336000908152600460205260408120805460ff191660011790556006805491611b66836134cb565b91905055506000604051611b7990612fa2565b604051809103906000f080158015611b95573d6000803e3d6000fd5b50905060005b6005811015611c1057604051631ffc735d60e01b8152660fe170fa25600060048201526001600160a01b03831690631ffc735d90602401600060405180830381600087803b158015611bec57600080fd5b505af1158015611c00573d6000803e3d6000fd5b505060019092019150611b9b9050565b50336000818152600560205260409081902080546001600160a01b0319166001600160a01b038516179055517fda4b066842833e7ab38c0f7ba442824b5eda00740d68ef015889812a792fc3ec91611c7391899190662386f26fc1000090613154565b60405180910390a1505050505050565b600081815260076020526040902060050154606090610100900460ff16611cec5760405162461bcd60e51b815260206004820152601a60248201527f546865207175657374696f6e206973206e6f7420636c6f73656400000000000060448201526064016105a4565b6000828152600760205260409020546001600160a01b03163314611d605760405162461bcd60e51b815260206004820152602560248201527f4f6e6c79207468652061736b65722063616e20636865636b20656e646f7273656044820152646d656e747360d81b60648201526084016105a4565b600082815260076020908152604080832060060180548251818502810185019093528083529192909190830182828015611db957602002820191906000526020600020905b815481526020019060010190808311611da5575b505050505090506000805b8251811015611e455781600a6000858481518110611de457611de46133a9565b60200260200101518152602001908152602001600020600501805490501115611e3d57600a6000848381518110611e1d57611e1d6133a9565b602002602001015181526020019081526020016000206005018054905091505b600101611dc4565b506000805b8351811015611ea25782600a6000868481518110611e6a57611e6a6133a9565b602002602001015181526020019081526020016000206005018054905003611e9a5781611e96816134cb565b9250505b600101611e4a565b5060008167ffffffffffffffff811115611ebe57611ebe6131c3565b604051908082528060200260200182016040528015611ee7578160200160208202803683370190505b5090506000805b8551811015611fb35784600a6000888481518110611f0e57611f0e6133a9565b602002602001015181526020019081526020016000206005018054905003611fab57600a6000878381518110611f4657611f466133a9565b6020026020010151815260200190815260200160002060000160009054906101000a90046001600160a01b0316838381518110611f8557611f856133a9565b6001600160a01b039092166020928302919091019091015281611fa7816134cb565b9250505b600101611eee565b50909695505050505050565b6001600160a01b038082166000908152600560209081526040808320548151630130ca2b60e01b8152915193948594911692630130ca2b92600480820193918290030181865afa158015612017573d6000803e3d6000fd5b505050506040513d601f19601f8201168201806040525081019061203b91906133d8565b6001600160a01b0384166000908152600360205260409020600201549091507f085f11378a0c42687437148f7b62421b8e6f48c3a41b0e416dc85078bcc0bcd3908490612087846113b2565b604080516001600160a01b03909416845260208401929092529082015260600160405180910390a16120b8816113b2565b6001600160a01b0390931660009081526003602052604090206002018390555090919050565b3360009081526004602052604090205460ff166121515760405162461bcd60e51b815260206004820152602b60248201527f55736572206d757374206265207265676973746572656420746f20636c6f736560448201526a10309038bab2b9ba34b7b760a91b60648201526084016105a4565b6000818152600760205260409020546001600160a01b031633146121c55760405162461bcd60e51b815260206004820152602560248201527f4f6e6c79207468652061736b65722063616e20636c6f7365207468652071756560448201526439ba34b7b760d91b60648201526084016105a4565b6121ce81612952565b156121eb5760405162461bcd60e51b81526004016105a490613425565b60095481111561220d5760405162461bcd60e51b81526004016105a4906136f3565b60008181526007602052604090819020600501805461ff001916610100179055517f3c8f450bdfccd4e29a4d8e9602688d5e009772a7de7c40c7f27b8f8c129f01fa9061225d9083815260200190565b60405180910390a150565b3360009081526004602052604090205460ff166122ed5760405162461bcd60e51b815260206004820152603c60248201527f55736572206d757374206265207265676973746572656420746f2063616e636560448201527f6c207468652073656c656374696f6e206f6620616e20616e737765720000000060648201526084016105a4565b6000818152600760205260409020546001600160a01b031633146123795760405162461bcd60e51b815260206004820152603a60248201527f4f6e6c79207468652061736b65722063616e2063616e63656c2074686520736560448201527f6c656374696f6e206f6620746865206265737420616e7377657200000000000060648201526084016105a4565b61238281612952565b1561239f5760405162461bcd60e51b81526004016105a490613425565b60008181526007602052604090206005015460ff166124165760405162461bcd60e51b815260206004820152602d60248201527f4e6f20616e7377657220666f722074686973207175657374696f6e206861732060448201526c1899595b881cd95b1958dd1959609a1b60648201526084016105a4565b60008181526007602090815260408083206006018054825181850281018501909352808352919290919083018282801561246f57602002820191906000526020600020905b81548152602001906001019080831161245b575b505050600085815260076020526040902060050154929350505060ff16156125345760005b815181101561253257600a60008383815181106124b3576124b36133a9565b60209081029190910181015182528101919091526040016000206004015460ff16151560010361252a576000600a60008484815181106124f5576124f56133a9565b6020026020010151815260200190815260200160002060040160006101000a81548160ff021916908315150217905550612532565b600101612494565b505b60008281526007602052604090819020600501805460ff19169055517f53088c7bbf224d7afa175aa1fbda4d494a5008e230beebc8d16b45c8415e96459061257f9084815260200190565b60405180910390a15050565b600061259683612952565b156125dd5760405162461bcd60e51b8152602060048201526017602482015276151a1a5cc81c5d595cdd1a5bdb881a5cc818db1bdcd959604a1b60448201526064016105a4565b3360009081526004602052604090205460ff166126515760405162461bcd60e51b815260206004820152602c60248201527f55736572206d757374206265207265676973746572656420746f20616e73776560448201526b3910309038bab2b9ba34b7b760a11b60648201526084016105a4565b60008251116126a25760405162461bcd60e51b815260206004820152601e60248201527f416e7377657220636f6e74656e742063616e6e6f7420626520656d707479000060448201526064016105a4565b600083815260076020526040902054336001600160a01b03909116036127165760405162461bcd60e51b8152602060048201526024808201527f596f752063616e6e6f7420616e7377657220796f7572206f776e207175657374604482015263696f6e2160e01b60648201526084016105a4565b6009548311156127385760405162461bcd60e51b81526004016105a4906136f3565b60005b60008481526007602052604090206006015481101561280a57600084815260076020526040812060060180543392600a9290918590811061277e5761277e6133a9565b600091825260208083209091015483528201929092526040019020546001600160a01b0316036128025760405162461bcd60e51b815260206004820152602960248201527f596f752063616e6e6f7420616e73776572207468652073616d65207175657374604482015268696f6e20747769636560b81b60648201526084016105a4565b60010161273b565b5060606000600b6000815461281e906134cb565b91829055506040805160c08101825233815260208082018481528284018a8152606084018a815260006080860181905260a086018a9052878152600a90945294909220835181546001600160a01b0319166001600160a01b03909116178155905160018201559051600282015591519293509182919060038201906128a39082613535565b50608082015160048201805460ff191691151591909117905560a082015180516128d7916005840191602090910190612faf565b5050506000868152600760209081526040808320600681018054600181018255908552928420909201859055918890526002015490517f6664f2452a9c851a9ecdf8e98ff206e97b1ab656fddb6f741e06c4d085ed2b139161293f91899186918a9190613728565b60405180910390a1509150505b92915050565b60006009548211156129765760405162461bcd60e51b81526004016105a4906136f3565b60008281526007602090815260408083208151610120810190925280546001600160a01b0316825260018101805492939192918401916129b5906133f1565b80601f01602080910402602001604051908101604052809291908181526020018280546129e1906133f1565b8015612a2e5780601f10612a0357610100808354040283529160200191612a2e565b820191906000526020600020905b815481529060010190602001808311612a1157829003601f168201915b50505091835250506002820154602080830191909152600383015460408084019190915260048401546060840152600584015460ff8082161515608086015261010082048116151560a08601526201000090910416151560c084015260068401805482518185028101850190935280835260e0909401939192909190830182828015612ad957602002820191906000526020600020905b815481526020019060010190808311612ac5575b50505050508152505090508060600151421115612b0f576000838152600760205260409020600501805461ff0019166101001790555b8060600151421180612b2257508060c001515b9392505050565b60028181548110612b3957600080fd5b906000526020600020016000915090508054612b54906133f1565b80601f0160208091040260200160405190810160405280929190818152602001828054612b80906133f1565b8015612bcd5780601f10612ba257610100808354040283529160200191612bcd565b820191906000526020600020905b815481529060010190602001808311612bb057829003601f168201915b505050505081565b600360205260009081526040902080548190610eb7906133f1565b600760205260009081526040902080546001820180546001600160a01b039092169291610dd2906133f1565b6000600954821115612c2d57600080fd5b60008281526007602090815260408083208151610120810190925280546001600160a01b031682526001810180549293919291840191612c6c906133f1565b80601f0160208091040260200160405190810160405280929190818152602001828054612c98906133f1565b8015612ce55780601f10612cba57610100808354040283529160200191612ce5565b820191906000526020600020905b815481529060010190602001808311612cc857829003601f168201915b50505091835250506002820154602080830191909152600383015460408084019190915260048401546060840152600584015460ff8082161515608086015261010082048116151560a08601526201000090910416151560c084015260068401805482518185028101850190935280835260e0909401939192909190830182828015612d9057602002820191906000526020600020905b815481526020019060010190808311612d7c575b5050509190925250505061010081015190915060005b8151811015612e3657600a6000838381518110612dc557612dc56133a9565b60209081029190910181015182528101919091526040016000206004015460ff1615612e2e57600a6000838381518110612e0157612e016133a9565b6020908102919091018101518252810191909152604001600020546001600160a01b031695945050505050565b600101612da6565b506000949350505050565b612e4a82612952565b612e5357600080fd5b600082815260076020526040902060050154610100900460ff16612e7657600080fd5b6000828152600760205260409020546001600160a01b03163314612e9957600080fd5b6000828152600760205260408120600201548251909190612eba9083613492565b905060005b8351811015610d8c5781471015612ed557600080fd5b6000848281518110612ee957612ee96133a9565b60200260200101516001600160a01b03168360405160006040518083038185875af1925050503d8060008114612f3b576040519150601f19603f3d011682016040523d82523d6000602084013e612f40565b606091505b5050905080612f4e57600080fd5b50600101612ebf565b828054828255906000526020600020908101928215612f92579160200282015b82811115612f92578251825591602001919060010190612f77565b50612f9e929150613004565b5090565b6102468061375983390190565b828054828255906000526020600020908101928215612f92579160200282015b82811115612f9257825182546001600160a01b0319166001600160a01b03909116178255602090920191600190910190612fcf565b5b80821115612f9e5760008155600101613005565b60006020828403121561302b57600080fd5b81356001600160a01b0381168114612b2257600080fd5b6000806040838503121561305557600080fd5b50508035926020909101359150565b6000806040838503121561307757600080fd5b823591506020830135801515811461308e57600080fd5b809150509250929050565b6000602082840312156130ab57600080fd5b5035919050565b6000815180845260005b818110156130d8576020818501810151868301820152016130bc565b506000602082860101526020601f19601f83011685010191505092915050565b6001600160a01b03891681526101006020820181905260009061311d8382018b6130b2565b604084019990995250506060810195909552608085019390935290151560a0840152151560c0830152151560e09091015292915050565b60608152600061316760608301866130b2565b6001600160a01b039490941660208301525060400152919050565b60018060a01b038616815284602082015283604082015260a0606082015260006131af60a08301856130b2565b905082151560808301529695505050505050565b634e487b7160e01b600052604160045260246000fd5b600082601f8301126131ea57600080fd5b813567ffffffffffffffff80821115613205576132056131c3565b604051601f8301601f19908116603f0116810190828211818310171561322d5761322d6131c3565b8160405283815286602085880101111561324657600080fd5b836020870160208301376000602085830101528094505050505092915050565b6000806000806080858703121561327c57600080fd5b843567ffffffffffffffff81111561329357600080fd5b61329f878288016131d9565b97602087013597506040870135966060013595509350505050565b6000602082840312156132cc57600080fd5b813567ffffffffffffffff8111156132e357600080fd5b6132ef848285016131d9565b949350505050565b60008151808452602080850194506020840160005b838110156133315781516001600160a01b03168752958201959082019060010161330c565b509495945050505050565b602081526000612b2260208301846132f7565b6000806040838503121561336257600080fd5b82359150602083013567ffffffffffffffff81111561338057600080fd5b61338c858286016131d9565b9150509250929050565b602081526000612b2260208301846130b2565b634e487b7160e01b600052603260045260246000fd5b8281526040602082015260006132ef60408301846132f7565b6000602082840312156133ea57600080fd5b5051919050565b600181811c9082168061340557607f821691505b60208210810361140557634e487b7160e01b600052602260045260246000fd5b60208082526024908201527f546865207175657374696f6e2068617320616c7265616479206265656e20636c6040820152631bdcd95960e21b606082015260800190565b634e487b7160e01b600052601160045260246000fd5b8082018082111561294c5761294c613469565b6000826134af57634e487b7160e01b600052601260045260246000fd5b500490565b808202811582820484141761294c5761294c613469565b6000600182016134dd576134dd613469565b5060010190565b601f821115613530576000816000526020600020601f850160051c8101602086101561350d5750805b601f850160051c820191505b8181101561352c57828155600101613519565b5050505b505050565b815167ffffffffffffffff81111561354f5761354f6131c3565b6135638161355d84546133f1565b846134e4565b602080601f83116001811461359857600084156135805750858301515b600019600386901b1c1916600185901b17855561352c565b600085815260208120601f198616915b828110156135c7578886015182559484019460019091019084016135a8565b50858210156135e55787850151600019600388901b60f8161c191681555b5050505050600190811b01905550565b6001600160a01b038816815260e0602080830182905260009161361a9084018a6130b2565b60408401899052606084018890526080840187905285151560a085015283810360c08501528451808252602080870192019060005b8181101561366b5783518352928401929184019160010161364f565b50909c9b505050505050505050505050565b600080835461368b816133f1565b600182811680156136a357600181146136b8576136e7565b60ff19841687528215158302870194506136e7565b8760005260208060002060005b858110156136de5781548a8201529084019082016136c5565b50505082870194505b50929695505050505050565b6020808252818101527f54686520696e707574207175657374696f6e20696420697320696e76616c6964604082015260600190565b84815283602082015260806040820152600061374760808301856130b2565b90508260608301529594505050505056fe6080604052600180556000600255348015601857600080fd5b5061021e806100286000396000f3fe608060405234801561001057600080fd5b506004361061004c5760003560e01c80630130ca2b146100515780631f7b6d321461006b5780631ffc735d14610073578063957908d114610088575b600080fd5b610059610090565b60405190815260200160405180910390f35b6100596100dd565b610086610081366004610176565b610100565b005b61005961012c565b6001546000905b6002546100a59060016101a5565b8110156100d9576000818152602081905260409020546100c590806101be565b6100cf90836101a5565b9150600101610097565b5090565b600060015460025460016100f191906101a5565b6100fb91906101d5565b905090565b60016002600082825461011391906101a5565b9091555050600254600090815260208190526040902055565b600080600154600254101561014057600080fd5b506001805460009081526020819052604081208054908290558254909291829161016b9083906101a5565b909155509092915050565b60006020828403121561018857600080fd5b5035919050565b634e487b7160e01b600052601160045260246000fd5b808201808211156101b8576101b861018f565b92915050565b80820281158282048414176101b8576101b861018f565b818103818111156101b8576101b861018f56fea2646970667358221220ba2f82ddccad524b0a8065750c411370679db7b8061eec9659450c70c0ece14e64736f6c63430008190033a26469706673582212203bd1908f9f46b169cf095da6c2b6b8fd6ee4ae95274c077ef8712b32e2d0485f64736f6c63430008190033","linkReferences":{}},"methodIdentifiers":{"accountNames(uint256)":"da62458a","answerCount()":"0bed0502","answerMap(uint256)":"41759a14","askQuestion(string,uint256,uint256,uint256)":"6de94083","calculate_credit(address)":"ab10d998","cancelSelection(uint256)":"c2782845","checkEndorsement(uint256)":"8e1ad7df","closeQuestion(uint256)":"c09f32e8","endorse(uint256,uint256)":"1ea5a292","getCredit(address)":"57344e6f","getMyCredit()":"3ead0e96","hasRegistered(address)":"a0d03526","isExpired(uint256)":"d9548e53","owner()":"8da5cb5b","postAnswer(uint256,string)":"c921d66c","questionCount()":"1468aa2c","questionMap(uint256)":"f061b5b1","questions(uint256)":"31b1b978","registerUser(string)":"704f1b94","rewardDistribute(uint256,bool)":"2ac45a13","rewardRecordsMap(address)":"13fc8c34","selectAnswer(uint256,uint256)":"3d9c4893","sqrt(uint256)":"677342ce","userAddrMap(address)":"e34d6805","userCount()":"07973ccf","users(uint256)":"365b98b2"},"id":26}