{"abi":[{"type":"receive","stateMutability":"payable"},{"type":"function","name":"accountNames","inputs":[{"name":"","type":"uint256","internalType":"uint256"}],"outputs":[{"name":"","type":"string","internalType":"string"}],"stateMutability":"view"},{"type":"function","name":"answerCount","inputs":[],"outputs":[{"name":"","type":"uint256","internalType":"uint256"}],"stateMutability":"view"},{"type":"function","name":"answerMap","inputs":[{"name":"","type":"uint256","internalType":"uint256"}],"outputs":[{"name":"answerer","type":"address","internalType":"address"},{"name":"answer_id","type":"uint256","internalType":"uint256"},{"name":"question_id","type":"uint256","internalType":"uint256"},{"name":"content","type":"string","internalType":"string"},{"name":"isSelected","type":"bool","internalType":"bool"}],"stateMutability":"view"},{"type":"function","name":"askQuestion","inputs":[{"name":"_content","type":"string","internalType":"string"},{"name":"_day","type":"uint256","internalType":"uint256"},{"name":"_hour","type":"uint256","internalType":"uint256"},{"name":"_min","type":"uint256","internalType":"uint256"}],"outputs":[{"name":"","type":"uint256","internalType":"uint256"}],"stateMutability":"payable"},{"type":"function","name":"calculate_credit","inputs":[{"name":"userAddress","type":"address","internalType":"address"}],"outputs":[{"name":"","type":"uint256","internalType":"uint256"}],"stateMutability":"nonpayable"},{"type":"function","name":"cancelSelection","inputs":[{"name":"q_id","type":"uint256","internalType":"uint256"}],"outputs":[],"stateMutability":"nonpayable"},{"type":"function","name":"checkEndorsement","inputs":[{"name":"q_id","type":"uint256","internalType":"uint256"}],"outputs":[{"name":"","type":"address[]","internalType":"address[]"}],"stateMutability":"view"},{"type":"function","name":"closeQuestion","inputs":[{"name":"q_id","type":"uint256","internalType":"uint256"},{"name":"giveReward","type":"bool","internalType":"bool"}],"outputs":[],"stateMutability":"nonpayable"},{"type":"function","name":"endorse","inputs":[{"name":"answer_id","type":"uint256","internalType":"uint256"},{"name":"question_id","type":"uint256","internalType":"uint256"}],"outputs":[],"stateMutability":"nonpayable"},{"type":"function","name":"getCredit","inputs":[{"name":"userAddress","type":"address","internalType":"address"}],"outputs":[{"name":"","type":"uint256","internalType":"uint256"}],"stateMutability":"view"},{"type":"function","name":"hasRegistered","inputs":[{"name":"","type":"address","internalType":"address"}],"outputs":[{"name":"","type":"bool","internalType":"bool"}],"stateMutability":"view"},{"type":"function","name":"isExpired","inputs":[{"name":"q_id","type":"uint256","internalType":"uint256"}],"outputs":[{"name":"","type":"bool","internalType":"bool"}],"stateMutability":"nonpayable"},{"type":"function","name":"owner","inputs":[],"outputs":[{"name":"","type":"address","internalType":"address"}],"stateMutability":"view"},{"type":"function","name":"postAnswer","inputs":[{"name":"question_id","type":"uint256","internalType":"uint256"},{"name":"content","type":"string","internalType":"string"}],"outputs":[{"name":"","type":"uint256","internalType":"uint256"}],"stateMutability":"nonpayable"},{"type":"function","name":"questionCount","inputs":[],"outputs":[{"name":"","type":"uint256","internalType":"uint256"}],"stateMutability":"view"},{"type":"function","name":"questionMap","inputs":[{"name":"","type":"uint256","internalType":"uint256"}],"outputs":[{"name":"asker","type":"address","internalType":"address"},{"name":"content","type":"string","internalType":"string"},{"name":"reward","type":"uint256","internalType":"uint256"},{"name":"expiration_time","type":"uint256","internalType":"uint256"},{"name":"question_id","type":"uint256","internalType":"uint256"},{"name":"selected","type":"bool","internalType":"bool"},{"name":"closed","type":"bool","internalType":"bool"},{"name":"distributed","type":"bool","internalType":"bool"}],"stateMutability":"view"},{"type":"function","name":"questions","inputs":[{"name":"","type":"uint256","internalType":"uint256"}],"outputs":[{"name":"asker","type":"address","internalType":"address"},{"name":"content","type":"string","internalType":"string"},{"name":"reward","type":"uint256","internalType":"uint256"},{"name":"expiration_time","type":"uint256","internalType":"uint256"},{"name":"question_id","type":"uint256","internalType":"uint256"},{"name":"selected","type":"bool","internalType":"bool"},{"name":"closed","type":"bool","internalType":"bool"},{"name":"distributed","type":"bool","internalType":"bool"}],"stateMutability":"view"},{"type":"function","name":"registerUser","inputs":[{"name":"_username","type":"string","internalType":"string"}],"outputs":[],"stateMutability":"nonpayable"},{"type":"function","name":"rewardDistributeByExpirationTime","inputs":[{"name":"question_id","type":"uint256","internalType":"uint256"}],"outputs":[],"stateMutability":"nonpayable"},{"type":"function","name":"rewardRecordsMap","inputs":[{"name":"","type":"address","internalType":"address"}],"outputs":[{"name":"","type":"address","internalType":"contract Queue"}],"stateMutability":"view"},{"type":"function","name":"selectAnswer","inputs":[{"name":"q_id","type":"uint256","internalType":"uint256"},{"name":"a_id","type":"uint256","internalType":"uint256"}],"outputs":[],"stateMutability":"nonpayable"},{"type":"function","name":"sqrt","inputs":[{"name":"x","type":"uint256","internalType":"uint256"}],"outputs":[{"name":"y","type":"uint256","internalType":"uint256"}],"stateMutability":"pure"},{"type":"function","name":"userAddrMap","inputs":[{"name":"","type":"address","internalType":"address"}],"outputs":[{"name":"user_name","type":"string","internalType":"string"},{"name":"user_address","type":"address","internalType":"address"},{"name":"credit","type":"uint256","internalType":"uint256"}],"stateMutability":"view"},{"type":"function","name":"userCount","inputs":[],"outputs":[{"name":"","type":"uint256","internalType":"uint256"}],"stateMutability":"view"},{"type":"function","name":"users","inputs":[{"name":"","type":"uint256","internalType":"uint256"}],"outputs":[{"name":"user_name","type":"string","internalType":"string"},{"name":"user_address","type":"address","internalType":"address"},{"name":"credit","type":"uint256","internalType":"uint256"}],"stateMutability":"view"},{"type":"event","name":"AnswerCreated","inputs":[{"name":"q_id","type":"uint256","indexed":false,"internalType":"uint256"},{"name":"a_id","type":"uint256","indexed":false,"internalType":"uint256"},{"name":"content","type":"string","indexed":false,"internalType":"string"},{"name":"reward","type":"uint256","indexed":false,"internalType":"uint256"}],"anonymous":false},{"type":"event","name":"AnswerSelected","inputs":[{"name":"q_id","type":"uint256","indexed":false,"internalType":"uint256"},{"name":"a_id","type":"uint256","indexed":false,"internalType":"uint256"}],"anonymous":false},{"type":"event","name":"CancelSelection","inputs":[{"name":"q_id","type":"uint256","indexed":false,"internalType":"uint256"}],"anonymous":false},{"type":"event","name":"Endorse","inputs":[{"name":"a_id","type":"uint256","indexed":false,"internalType":"uint256"},{"name":"endorser","type":"address","indexed":false,"internalType":"address"},{"name":"q_id","type":"uint256","indexed":false,"internalType":"uint256"}],"anonymous":false},{"type":"event","name":"MoneyReceived","inputs":[{"name":"payer","type":"address","indexed":false,"internalType":"address"},{"name":"value","type":"uint256","indexed":false,"internalType":"uint256"}],"anonymous":false},{"type":"event","name":"QuestionClosed","inputs":[{"name":"q_id","type":"uint256","indexed":false,"internalType":"uint256"}],"anonymous":false},{"type":"event","name":"QuestionCreated","inputs":[{"name":"asker","type":"address","indexed":false,"internalType":"address"},{"name":"content","type":"string","indexed":false,"internalType":"string"},{"name":"reward","type":"uint256","indexed":false,"internalType":"uint256"},{"name":"expiration_time","type":"uint256","indexed":false,"internalType":"uint256"},{"name":"question_id","type":"uint256","indexed":false,"internalType":"uint256"},{"name":"closed","type":"bool","indexed":false,"internalType":"bool"},{"name":"answer_ids","type":"uint256[]","indexed":false,"internalType":"uint256[]"}],"anonymous":false},{"type":"event","name":"RewardDistributed","inputs":[{"name":"q_id","type":"uint256","indexed":false,"internalType":"uint256"},{"name":"recipients","type":"address[]","indexed":false,"internalType":"address[]"}],"anonymous":false},{"type":"event","name":"UserCreditUpdate","inputs":[{"name":"user_addr","type":"address","indexed":false,"internalType":"address"},{"name":"prev_credit","type":"uint256","indexed":false,"internalType":"uint256"},{"name":"new_credit","type":"uint256","indexed":false,"internalType":"uint256"}],"anonymous":false},{"type":"event","name":"UserRegistered","inputs":[{"name":"username","type":"string","indexed":false,"internalType":"string"},{"name":"userAddress","type":"address","indexed":false,"internalType":"address"},{"name":"default_credit","type":"uint256","indexed":false,"internalType":"uint256"}],"anonymous":false},{"type":"error","name":"ReentrancyGuardReentrantCall","inputs":[]}],"bytecode":{"object":"0x608060405260006007556000600a556000600c55348015601e57600080fd5b506001600081905580546001600160a01b03191633179055613999806100456000396000f3fe60806040526004361061016a5760003560e01c8063677342ce116100d1578063ab10d9981161008a578063d9548e5311610064578063d9548e531461048f578063da62458a146104af578063e34d6805146104dc578063f061b5b1146104fc57600080fd5b8063ab10d9981461042f578063c27828451461044f578063c921d66c1461046f57600080fd5b8063677342ce1461034f5780636de940831461036f578063704f1b94146103825780638da5cb5b146103a25780638e1ad7df146103c2578063a0d03526146103ef57600080fd5b8063365b98b211610123578063365b98b21461026f5780633cfe5c821461029e5780633d9c4893146102be57806341759a14146102de57806357344e6f1461030f57806358c92ba81461032f57600080fd5b806307973ccf146101765780630bed05021461019f57806313fc8c34146101b55780631468aa2c146102035780631ea5a2921461021957806331b1b9781461023b57600080fd5b3661017157005b600080fd5b34801561018257600080fd5b5061018c60075481565b6040519081526020015b60405180910390f35b3480156101ab57600080fd5b5061018c600c5481565b3480156101c157600080fd5b506101eb6101d0366004612fd0565b6006602052600090815260409020546001600160a01b031681565b6040516001600160a01b039091168152602001610196565b34801561020f57600080fd5b5061018c600a5481565b34801561022557600080fd5b50610239610234366004612ff9565b61051c565b005b34801561024757600080fd5b5061025b61025636600461301b565b61082b565b60405161019698979695949392919061307a565b34801561027b57600080fd5b5061028f61028a36600461301b565b61091c565b604051610196939291906130d6565b3480156102aa57600080fd5b506102396102b9366004613104565b6109e8565b3480156102ca57600080fd5b506102396102d9366004612ff9565b610b3e565b3480156102ea57600080fd5b506102fe6102f936600461301b565b610de3565b604051610196959493929190613139565b34801561031b57600080fd5b5061018c61032a366004612fd0565b610ea9565b34801561033b57600080fd5b5061023961034a36600461301b565b610f3e565b34801561035b57600080fd5b5061018c61036a36600461301b565b61132f565b61018c61037d36600461321d565b611388565b34801561038e57600080fd5b5061023961039d366004613271565b61182e565b3480156103ae57600080fd5b506001546101eb906001600160a01b031681565b3480156103ce57600080fd5b506103e26103dd36600461301b565b611be8565b60405161019691906132f3565b3480156103fb57600080fd5b5061041f61040a366004612fd0565b60056020526000908152604090205460ff1681565b6040519015158152602001610196565b34801561043b57600080fd5b5061018c61044a366004612fd0565b611eb0565b34801561045b57600080fd5b5061023961046a36600461301b565b611fcf565b34801561047b57600080fd5b5061018c61048a366004613306565b612219565b34801561049b57600080fd5b5061041f6104aa36600461301b565b61258d565b3480156104bb57600080fd5b506104cf6104ca36600461301b565b612794565b604051610196919061334d565b3480156104e857600080fd5b5061028f6104f7366004612fd0565b612840565b34801561050857600080fd5b5061025b61051736600461301b565b61285b565b6105258161258d565b1561054b5760405162461bcd60e51b815260040161054290613360565b60405180910390fd5b3360009081526005602052604090205460ff166105be5760405162461bcd60e51b815260206004820152602b60248201527f55736572206d757374206265207265676973746572656420746f20616464206560448201526a6e646f7273656d656e747360a81b6064820152608401610542565b6000828152600b6020526040902054336001600160a01b03909116036106315760405162461bcd60e51b815260206004820152602260248201527f596f752063616e6e6f7420656e646f72736520796f7572206f776e20616e737760448201526132b960f11b6064820152608401610542565b6000828152600b602052604090206002015481146106a45760405162461bcd60e51b815260206004820152602a60248201527f54686520616e7377657220646f6573206e6f742062656c6f6e6720746f207468604482015269329038bab2b9ba34b7b760b11b6064820152608401610542565b6000828152600b602090815260408083206005018054825181850281018501909352808352919290919083018282801561070757602002820191906000526020600020905b81546001600160a01b031681526001909101906020018083116106e9575b505050505090506000805b825181101561075a57336001600160a01b031683828151811061073757610737613390565b60200260200101516001600160a01b03160361075257600191505b600101610712565b5080156107b55760405162461bcd60e51b815260206004820152602360248201527f557365722063616e6e6f7420656e646f72736520616e20616e7377657220747760448201526269636560e81b6064820152608401610542565b604080518581523360208201529081018490527f266365a2aceb5ff9d23a2e846eb7b7339cd874d164131d977f6946cb1d0dfcf19060600160405180910390a15050506000908152600b602090815260408220600501805460018101825590835291200180546001600160a01b03191633179055565b6009818154811061083b57600080fd5b6000918252602090912060079091020180546001820180546001600160a01b0390921693509061086a906133a6565b80601f0160208091040260200160405190810160405280929190818152602001828054610896906133a6565b80156108e35780601f106108b8576101008083540402835291602001916108e3565b820191906000526020600020905b8154815290600101906020018083116108c657829003601f168201915b505050506002830154600384015460048501546005909501549394919390925060ff808216916101008104821691620100009091041688565b6002818154811061092c57600080fd5b906000526020600020906003020160009150905080600001805461094f906133a6565b80601f016020809104026020016040519081016040528092919081815260200182805461097b906133a6565b80156109c85780601f1061099d576101008083540402835291602001916109c8565b820191906000526020600020905b8154815290600101906020018083116109ab57829003601f168201915b50505050600183015460029093015491926001600160a01b031691905083565b6109f0612887565b6109f98261258d565b15610a525760405162461bcd60e51b8152602060048201526024808201527f546865207175657374696f6e2068617320616c7265616479206265656e20636c6044820152631bdcd95960e21b6064820152608401610542565b6000828152600860205260409020546001600160a01b03163314610ac65760405162461bcd60e51b815260206004820152602560248201527f4f6e6c79207468652061736b65722063616e20636c6f7365207468652071756560448201526439ba34b7b760d91b6064820152608401610542565b6000828152600860205260409020600501805461ff001916610100179081905562010000900460ff16610afd57610afd82826128b1565b6040518281527f3c8f450bdfccd4e29a4d8e9602688d5e009772a7de7c40c7f27b8f8c129f01fa9060200160405180910390a1610b3a6001600055565b5050565b610b478261258d565b15610b645760405162461bcd60e51b815260040161054290613360565b6000828152600860205260409020546001600160a01b03163314610bdc5760405162461bcd60e51b815260206004820152602960248201527f4f6e6c79207468652061736b65722063616e2073656c6563742074686520626560448201526839ba1030b739bbb2b960b91b6064820152608401610542565b6000818152600b60205260409020600201548214610c505760405162461bcd60e51b815260206004820152602b60248201527f54686520616e7377657220646f6573206e6f742062656c6f6e6720746f20746860448201526a34b99038bab2b9ba34b7b760a91b6064820152608401610542565b600082815260086020908152604080832060060180548251818502810185019093528083529192909190830182828015610ca957602002820191906000526020600020905b815481526020019060010190808311610c95575b505050600086815260086020526040902060050154929350505060ff1615610d6e5760005b8151811015610d6c57600b6000838381518110610ced57610ced613390565b60209081029190910181015182528101919091526040016000206004015460ff161515600103610d64576000600b6000848481518110610d2f57610d2f613390565b6020026020010151815260200190815260200160002060040160006101000a81548160ff021916908315150217905550610d6c565b600101610cce565b505b60008381526008602090815260408083206005018054600160ff199182168117909255868552600b84529382902060040180549094161790925581518581529081018490527fcce2e26b4c2c9bdecbd753012d7f595a50f3fe6263dc2090e6432f7cc9c5b8bc910160405180910390a1505050565b600b6020526000908152604090208054600182015460028301546003840180546001600160a01b03909416949293919291610e1d906133a6565b80601f0160208091040260200160405190810160405280929190818152602001828054610e49906133a6565b8015610e965780601f10610e6b57610100808354040283529160200191610e96565b820191906000526020600020905b815481529060010190602001808311610e7957829003601f168201915b5050506004909301549192505060ff1685565b6001600160a01b03811660009081526005602052604081205460ff16610f1f5760405162461bcd60e51b815260206004820152602560248201527f55736572206d757374206265207265676973746572656420746f2067657420636044820152641c99591a5d60da1b6064820152608401610542565b506001600160a01b031660009081526004602052604090206002015490565b610f46612887565b3360009081526005602052604090205460ff16610fa55760405162461bcd60e51b815260206004820152601d60248201527f5468652061646472657373206973206e6f7420726567697374657265640000006044820152606401610542565b610fae8161258d565b610fb757600080fd5b60008181526008602052604090206005015462010000900460ff1615610fdc57600080fd5b6000818152600860205260409020600281015460059091015460ff161561113257600061100883612ce9565b6040805160018082528183019092529192506000919060208083019080368337019050509050818160008151811061104257611042613390565b60200260200101906001600160a01b031690816001600160a01b0316815250508247101561106f57600080fd5b6000826001600160a01b03168460405160006040518083038185875af1925050503d80600081146110bc576040519150601f19603f3d011682016040523d82523d6000602084013e6110c1565b606091505b50509050806110e25760405162461bcd60e51b8152600401610542906133da565b60008581526008602052604090819020600501805462ff000019166201000017905551600080516020613944833981519152906111229087908590613411565b60405180910390a1505050611320565b600061113d83611be8565b90508051600003611216576000838152600860205260408082205490516001600160a01b039091169084908381818185875af1925050503d80600081146111a0576040519150601f19603f3d011682016040523d82523d6000602084013e6111a5565b606091505b50509050806111c65760405162461bcd60e51b8152600401610542906133da565b60008481526008602052604090819020600501805462ff000019166201000017905551600080516020613944833981519152906112069086908590613411565b60405180910390a1505050611322565b60008151836112259190613440565b905060005b82518110156112f5578147101561124057600080fd5b600083828151811061125457611254613390565b60200260200101516001600160a01b03168360405160006040518083038185875af1925050503d80600081146112a6576040519150601f19603f3d011682016040523d82523d6000602084013e6112ab565b606091505b50509050806112cc5760405162461bcd60e51b8152600401610542906133da565b506000858152600860205260409020600501805462ff000019166201000017905560010161122a565b506000805160206139448339815191528483604051611315929190613411565b60405180910390a150505b505b61132c6001600055565b50565b600080600261133f846001613462565b6113499190613440565b90508291505b81811015611382579050806002816113678186613440565b6113719190613462565b61137b9190613440565b905061134f565b50919050565b3360009081526005602052604081205460ff166113dd5760405162461bcd60e51b8152602060048201526013602482015272155cd95c881b9bdd081c9959da5cdd195c9959606a1b6044820152606401610542565b6000341180156113f557506113f133610ea9565b3411155b6114675760405162461bcd60e51b815260206004820152603860248201527f526577617264206d7573742062652067726561746572207468616e203020616e60448201527f64206c657373207468616e20637265646974206c696d697400000000000000006064820152608401610542565b60008551116114b85760405162461bcd60e51b815260206004820152601860248201527f5175657374696f6e2063616e6e6f7420626520656d70747900000000000000006044820152606401610542565b60006114c583603c613475565b6114d185610e10613475565b6114de8762015180613475565b6114e89190613462565b6114f29190613462565b905062015180811015801561150a575062093a808111155b61157c5760405162461bcd60e51b815260206004820152603f60248201527f45787069726174696f6e2074696d65206d75737420626520677265617465722060448201527f7468616e20312064617920616e64206c657373207468616e20372064617973006064820152608401610542565b6001600a600082825461158f9190613462565b9091555050600a546040805161012081018252338152602081018990523491810191909152600090606081016115c58542613462565b81526020808201859052600060408084018290526060840182905260808401829052805182815280840190915260a09093019290925260098054600181018255925282517f6e1540171b6c0c960b71a7020d9f60077f6af931a8bbf590da0223dacf75c7af600790930292830180546001600160a01b0319166001600160a01b0390921691909117815590830151929350839290917f6e1540171b6c0c960b71a7020d9f60077f6af931a8bbf590da0223dacf75c7b0019061168790826134dd565b5060408201516002820155606082015160038201556080820151600482015560a082015160058201805460c085015160e086015161ffff1990921693151561ff0019169390931761010093151584021762ff0000191662010000911515919091021790558201518051611704916006840191602090910190612f0e565b5050506000828152600860209081526040909120825181546001600160a01b0319166001600160a01b0390911617815590820151829190600182019061174a90826134dd565b5060408201516002820155606082015160038201556080820151600482015560a082015160058201805460c085015160e086015161ffff1990921693151561ff0019169390931761010093151584021762ff00001916620100009115159190910217905582015180516117c7916006840191602090910190612f0e565b507f84b861809ad6a7273eb286675afe4848e1772d87876e38ff1870adfc5ebbcbb1915033905089346117fa8742613462565b604080516000808252602082019283905261181b96959493928a929061359d565b60405180910390a1509695505050505050565b3360008181526005602052604090205460ff161561188e5760405162461bcd60e51b815260206004820152601a60248201527f54686520616464726573732077617320726567697374657265640000000000006044820152606401610542565b81600160005b6007548110156118f1578280519060200120600282815481106118b9576118b9613390565b90600052602060002090600302016000016040516118d79190613625565b6040518091039020036118e957600091505b600101611894565b50806119345760405162461bcd60e51b81526020600482015260126024820152716475706c696361746520757365726e616d6560701b6044820152606401610542565b60008451116119795760405162461bcd60e51b8152602060048201526011602482015270557365726e616d6520697320656d70747960781b6044820152606401610542565b60408051606081018252858152336020820152662386f26fc100009181019190915260028054600181018255600091909152815182916003027f405787fa12a823e0f2b7631cc41b3ba8828b3321ca811111fa75cd3aa3bb5ace019081906119e190826134dd565b506020828101516001830180546001600160a01b0319166001600160a01b0390921691909117905560409283015160029092019190915533600090815260049091522081518291908190611a3590826134dd565b506020820151600182810180546001600160a01b0319166001600160a01b03909316929092179091556040909201516002909101556003805491820181556000527fc2575a0e9e593c00f959f8c92f12db2869c3395a3b0502d05e2516446f71f85b01611aa286826134dd565b50336000908152600560205260408120805460ff191660011790556007805491611acb8361369b565b91905055506000604051611ade90612f59565b604051809103906000f080158015611afa573d6000803e3d6000fd5b50905060005b6005811015611b7557604051631ffc735d60e01b8152660fe170fa25600060048201526001600160a01b03831690631ffc735d90602401600060405180830381600087803b158015611b5157600080fd5b505af1158015611b65573d6000803e3d6000fd5b505060019092019150611b009050565b50336000818152600660205260409081902080546001600160a01b0319166001600160a01b038516179055517fda4b066842833e7ab38c0f7ba442824b5eda00740d68ef015889812a792fc3ec91611bd891899190662386f26fc10000906130d6565b60405180910390a1505050505050565b600081815260086020526040902060050154606090610100900460ff16611c515760405162461bcd60e51b815260206004820152601a60248201527f546865207175657374696f6e206973206e6f7420636c6f7365640000000000006044820152606401610542565b600082815260086020908152604080832060060180548251818502810185019093528083529192909190830182828015611caa57602002820191906000526020600020905b815481526020019060010190808311611c96575b505050505090506000805b8251811015611d365781600b6000858481518110611cd557611cd5613390565b60200260200101518152602001908152602001600020600501805490501115611d2e57600b6000848381518110611d0e57611d0e613390565b602002602001015181526020019081526020016000206005018054905091505b600101611cb5565b506000805b8351811015611d935782600b6000868481518110611d5b57611d5b613390565b602002602001015181526020019081526020016000206005018054905003611d8b5781611d878161369b565b9250505b600101611d3b565b5060008167ffffffffffffffff811115611daf57611daf61317a565b604051908082528060200260200182016040528015611dd8578160200160208202803683370190505b5090506000805b8551811015611ea45784600b6000888481518110611dff57611dff613390565b602002602001015181526020019081526020016000206005018054905003611e9c57600b6000878381518110611e3757611e37613390565b6020026020010151815260200190815260200160002060000160009054906101000a90046001600160a01b0316838381518110611e7657611e76613390565b6001600160a01b039092166020928302919091019091015281611e988161369b565b9250505b600101611ddf565b50909695505050505050565b6001600160a01b038082166000908152600660209081526040808320548151630130ca2b60e01b8152915193948594911692630130ca2b92600480820193918290030181865afa158015611f08573d6000803e3d6000fd5b505050506040513d601f19601f82011682018060405250810190611f2c91906136b4565b6001600160a01b0384166000908152600460205260409020600201549091507f085f11378a0c42687437148f7b62421b8e6f48c3a41b0e416dc85078bcc0bcd3908490611f788461132f565b604080516001600160a01b03909416845260208401929092529082015260600160405180910390a1611fa98161132f565b6001600160a01b0390931660009081526004602052604090206002018390555090919050565b6000818152600860205260409020546001600160a01b031633146120415760405162461bcd60e51b815260206004820152602360248201527f4f6e6c79207468652061736b65722063616e2063616e63656c2073656c65637460448201526234b7b760e91b6064820152608401610542565b61204a8161258d565b156120675760405162461bcd60e51b815260040161054290613360565b60008181526008602052604090206005015460ff166120c05760405162461bcd60e51b8152602060048201526015602482015274139bc8185b9cddd95c881a5cc81cd95b1958dd1959605a1b6044820152606401610542565b60008181526008602090815260408083206006018054825181850281018501909352808352919290919083018282801561211957602002820191906000526020600020905b815481526020019060010190808311612105575b5050505050905060005b81518110156121c157600b600083838151811061214257612142613390565b60209081029190910181015182528101919091526040016000206004015460ff1615156001036121b9576000600b600084848151811061218457612184613390565b6020026020010151815260200190815260200160002060040160006101000a81548160ff0219169083151502179055506121c1565b600101612123565b5060008281526008602052604090819020600501805460ff19169055517f53088c7bbf224d7afa175aa1fbda4d494a5008e230beebc8d16b45c8415e96459061220d9084815260200190565b60405180910390a15050565b60006122248361258d565b156122415760405162461bcd60e51b815260040161054290613360565b3360009081526005602052604090205460ff166122b55760405162461bcd60e51b815260206004820152602c60248201527f55736572206d757374206265207265676973746572656420746f20616e73776560448201526b3910309038bab2b9ba34b7b760a11b6064820152608401610542565b60008251116122ff5760405162461bcd60e51b8152602060048201526016602482015275416e737765722063616e6e6f7420626520656d70747960501b6044820152606401610542565b600083815260086020526040902054336001600160a01b03909116036123735760405162461bcd60e51b8152602060048201526024808201527f596f752063616e6e6f7420616e7377657220796f7572206f776e207175657374604482015263696f6e2160e01b6064820152608401610542565b60005b60008481526008602052604090206006015481101561244557600084815260086020526040812060060180543392600b929091859081106123b9576123b9613390565b600091825260208083209091015483528201929092526040019020546001600160a01b03160361243d5760405162461bcd60e51b815260206004820152602960248201527f596f752063616e6e6f7420616e73776572207468652073616d65207175657374604482015268696f6e20747769636560b81b6064820152608401610542565b600101612376565b5060606000600c600081546124599061369b565b91829055506040805160c08101825233815260208082018481528284018a8152606084018a815260006080860181905260a086018a9052878152600b90945294909220835181546001600160a01b0319166001600160a01b03909116178155905160018201559051600282015591519293509182919060038201906124de90826134dd565b50608082015160048201805460ff191691151591909117905560a08201518051612512916005840191602090910190612f66565b5050506000868152600860209081526040808320600681018054600181018255908552928420909201859055918890526002015490517f6664f2452a9c851a9ecdf8e98ff206e97b1ab656fddb6f741e06c4d085ed2b139161257a91899186918a91906136cd565b60405180910390a1509150505b92915050565b6000600a548211156125e15760405162461bcd60e51b815260206004820181905260248201527f54686520696e707574207175657374696f6e20696420697320696e76616c69646044820152606401610542565b60008281526008602090815260408083208151610120810190925280546001600160a01b031682526001810180549293919291840191612620906133a6565b80601f016020809104026020016040519081016040528092919081815260200182805461264c906133a6565b80156126995780601f1061266e57610100808354040283529160200191612699565b820191906000526020600020905b81548152906001019060200180831161267c57829003601f168201915b50505091835250506002820154602080830191909152600383015460408084019190915260048401546060840152600584015460ff8082161515608086015261010082048116151560a08601526201000090910416151560c084015260068401805482518185028101850190935280835260e090940193919290919083018282801561274457602002820191906000526020600020905b815481526020019060010190808311612730575b5050505050815250509050806060015142111561277a576000838152600860205260409020600501805461ff0019166101001790555b806060015142118061278d57508060c001515b9392505050565b600381815481106127a457600080fd5b9060005260206000200160009150905080546127bf906133a6565b80601f01602080910402602001604051908101604052809291908181526020018280546127eb906133a6565b80156128385780601f1061280d57610100808354040283529160200191612838565b820191906000526020600020905b81548152906001019060200180831161281b57829003601f168201915b505050505081565b60046020526000908152604090208054819061094f906133a6565b600860205260009081526040902080546001820180546001600160a01b03909216929161086a906133a6565b6002600054036128aa57604051633ee5aeb560e01b815260040160405180910390fd5b6002600055565b6128ba8261258d565b6128c357600080fd5b60008281526008602052604090206005015462010000900460ff16156128e857600080fd5b60008281526008602052604090206005015460ff161561297557806129755760405162461bcd60e51b815260206004820152603a60248201527f496620796f752073656c65637420746865206265737420616e737765722c207960448201527f6f75206861766520746f2067697665206f7574207265776172640000000000006064820152608401610542565b6000828152600860205260409020600281015460059091015460ff1615612afb5760006129a184612ce9565b604080516001808252818301909252919250600091906020808301908036833701905050905081816000815181106129db576129db613390565b60200260200101906001600160a01b031690816001600160a01b03168152505082471015612a0857600080fd5b6000826001600160a01b03168460405160006040518083038185875af1925050503d8060008114612a55576040519150601f19603f3d011682016040523d82523d6000602084013e612a5a565b606091505b5050905080612aab5760405162461bcd60e51b815260206004820152601b60248201527f52657761726420646973747269627574696f6e206661696c65642000000000006044820152606401610542565b60008681526008602052604090819020600501805462ff00001916620100001790555160008051602061394483398151915290612aeb9088908590613411565b60405180910390a1505050612bbb565b60008381526008602052604090206005015460ff16158015612b1a5750815b15612b2d57612b2883610f3e565b612bbb565b604051600090339083908381818185875af1925050503d8060008114612b6f576040519150601f19603f3d011682016040523d82523d6000602084013e612b74565b606091505b505090506000915080612b995760405162461bcd60e51b8152600401610542906133da565b506000838152600860205260409020600501805462ff00001916620100001790555b6000838152600860205260408120600601549003612bd857505050565b33600090815260066020908152604080832054815163957908d160e01b815291516001600160a01b0390911693849363957908d19360048082019492939183900301908290875af1158015612c31573d6000803e3d6000fd5b505050506040513d601f19601f82011682018060405250810190612c5591906136b4565b50604051631ffc735d60e01b8152600481018390526001600160a01b03821690631ffc735d90602401600060405180830381600087803b158015612c9857600080fd5b505af1158015612cac573d6000803e3d6000fd5b505033600081815260066020526040902080546001600160a01b0319166001600160a01b038616179055612ce292509050611eb0565b5050505050565b6000600a54821115612cfa57600080fd5b60008281526008602090815260408083208151610120810190925280546001600160a01b031682526001810180549293919291840191612d39906133a6565b80601f0160208091040260200160405190810160405280929190818152602001828054612d65906133a6565b8015612db25780601f10612d8757610100808354040283529160200191612db2565b820191906000526020600020905b815481529060010190602001808311612d9557829003601f168201915b50505091835250506002820154602080830191909152600383015460408084019190915260048401546060840152600584015460ff8082161515608086015261010082048116151560a08601526201000090910416151560c084015260068401805482518185028101850190935280835260e0909401939192909190830182828015612e5d57602002820191906000526020600020905b815481526020019060010190808311612e49575b5050509190925250505061010081015190915060005b8151811015612f0357600b6000838381518110612e9257612e92613390565b60209081029190910181015182528101919091526040016000206004015460ff1615612efb57600b6000838381518110612ece57612ece613390565b6020908102919091018101518252810191909152604001600020546001600160a01b031695945050505050565b600101612e73565b506000949350505050565b828054828255906000526020600020908101928215612f49579160200282015b82811115612f49578251825591602001919060010190612f2e565b50612f55929150612fbb565b5090565b610246806136fe83390190565b828054828255906000526020600020908101928215612f49579160200282015b82811115612f4957825182546001600160a01b0319166001600160a01b03909116178255602090920191600190910190612f86565b5b80821115612f555760008155600101612fbc565b600060208284031215612fe257600080fd5b81356001600160a01b038116811461278d57600080fd5b6000806040838503121561300c57600080fd5b50508035926020909101359150565b60006020828403121561302d57600080fd5b5035919050565b6000815180845260005b8181101561305a5760208185018101518683018201520161303e565b506000602082860101526020601f19601f83011685010191505092915050565b6001600160a01b03891681526101006020820181905260009061309f8382018b613034565b604084019990995250506060810195909552608085019390935290151560a0840152151560c0830152151560e09091015292915050565b6060815260006130e96060830186613034565b6001600160a01b039490941660208301525060400152919050565b6000806040838503121561311757600080fd5b823591506020830135801515811461312e57600080fd5b809150509250929050565b60018060a01b038616815284602082015283604082015260a06060820152600061316660a0830185613034565b905082151560808301529695505050505050565b634e487b7160e01b600052604160045260246000fd5b600082601f8301126131a157600080fd5b813567ffffffffffffffff808211156131bc576131bc61317a565b604051601f8301601f19908116603f011681019082821181831017156131e4576131e461317a565b816040528381528660208588010111156131fd57600080fd5b836020870160208301376000602085830101528094505050505092915050565b6000806000806080858703121561323357600080fd5b843567ffffffffffffffff81111561324a57600080fd5b61325687828801613190565b97602087013597506040870135966060013595509350505050565b60006020828403121561328357600080fd5b813567ffffffffffffffff81111561329a57600080fd5b6132a684828501613190565b949350505050565b60008151808452602080850194506020840160005b838110156132e85781516001600160a01b0316875295820195908201906001016132c3565b509495945050505050565b60208152600061278d60208301846132ae565b6000806040838503121561331957600080fd5b82359150602083013567ffffffffffffffff81111561333757600080fd5b61334385828601613190565b9150509250929050565b60208152600061278d6020830184613034565b602080825260169082015275151a19481c5d595cdd1a5bdb881a5cc818db1bdcd95960521b604082015260600190565b634e487b7160e01b600052603260045260246000fd5b600181811c908216806133ba57607f821691505b60208210810361138257634e487b7160e01b600052602260045260246000fd5b6020808252601a908201527f52657761726420646973747269627574696f6e206661696c6564000000000000604082015260600190565b8281526040602082015260006132a660408301846132ae565b634e487b7160e01b600052601160045260246000fd5b60008261345d57634e487b7160e01b600052601260045260246000fd5b500490565b808201808211156125875761258761342a565b80820281158282048414176125875761258761342a565b601f8211156134d8576000816000526020600020601f850160051c810160208610156134b55750805b601f850160051c820191505b818110156134d4578281556001016134c1565b5050505b505050565b815167ffffffffffffffff8111156134f7576134f761317a565b61350b8161350584546133a6565b8461348c565b602080601f83116001811461354057600084156135285750858301515b600019600386901b1c1916600185901b1785556134d4565b600085815260208120601f198616915b8281101561356f57888601518255948401946001909101908401613550565b508582101561358d5787850151600019600388901b60f8161c191681555b5050505050600190811b01905550565b6001600160a01b038816815260e060208083018290526000916135c29084018a613034565b60408401899052606084018890526080840187905285151560a085015283810360c08501528451808252602080870192019060005b81811015613613578351835292840192918401916001016135f7565b50909c9b505050505050505050505050565b6000808354613633816133a6565b6001828116801561364b57600181146136605761368f565b60ff198416875282151583028701945061368f565b8760005260208060002060005b858110156136865781548a82015290840190820161366d565b50505082870194505b50929695505050505050565b6000600182016136ad576136ad61342a565b5060010190565b6000602082840312156136c657600080fd5b5051919050565b8481528360208201526080604082015260006136ec6080830185613034565b90508260608301529594505050505056fe6080604052600180556000600255348015601857600080fd5b5061021e806100286000396000f3fe608060405234801561001057600080fd5b506004361061004c5760003560e01c80630130ca2b146100515780631f7b6d321461006b5780631ffc735d14610073578063957908d114610088575b600080fd5b610059610090565b60405190815260200160405180910390f35b6100596100dd565b610086610081366004610176565b610100565b005b61005961012c565b6001546000905b6002546100a59060016101a5565b8110156100d9576000818152602081905260409020546100c590806101be565b6100cf90836101a5565b9150600101610097565b5090565b600060015460025460016100f191906101a5565b6100fb91906101d5565b905090565b60016002600082825461011391906101a5565b9091555050600254600090815260208190526040902055565b600080600154600254101561014057600080fd5b506001805460009081526020819052604081208054908290558254909291829161016b9083906101a5565b909155509092915050565b60006020828403121561018857600080fd5b5035919050565b634e487b7160e01b600052601160045260246000fd5b808201808211156101b8576101b861018f565b92915050565b80820281158282048414176101b8576101b861018f565b818103818111156101b8576101b861018f56fea2646970667358221220ba2f82ddccad524b0a8065750c411370679db7b8061eec9659450c70c0ece14e64736f6c63430008190033e07f18afb5d3c33b4ff9c9dec7421630fdf6d9842147633e03d5f8ea44ae346ea264697066735822122067329a0ad6ae789c9b2a3888a312aba92bd64a34029e208286035ed8a4507a7d64736f6c63430008190033","linkReferences":{}},"methodIdentifiers":{"accountNames(uint256)":"da62458a","answerCount()":"0bed0502","answerMap(uint256)":"41759a14","askQuestion(string,uint256,uint256,uint256)":"6de94083","calculate_credit(address)":"ab10d998","cancelSelection(uint256)":"c2782845","checkEndorsement(uint256)":"8e1ad7df","closeQuestion(uint256,bool)":"3cfe5c82","endorse(uint256,uint256)":"1ea5a292","getCredit(address)":"57344e6f","hasRegistered(address)":"a0d03526","isExpired(uint256)":"d9548e53","owner()":"8da5cb5b","postAnswer(uint256,string)":"c921d66c","questionCount()":"1468aa2c","questionMap(uint256)":"f061b5b1","questions(uint256)":"31b1b978","registerUser(string)":"704f1b94","rewardDistributeByExpirationTime(uint256)":"58c92ba8","rewardRecordsMap(address)":"13fc8c34","selectAnswer(uint256,uint256)":"3d9c4893","sqrt(uint256)":"677342ce","userAddrMap(address)":"e34d6805","userCount()":"07973ccf","users(uint256)":"365b98b2"},"id":27}