{"abi":[{"type":"receive","stateMutability":"payable"},{"type":"function","name":"accountNames","inputs":[{"name":"","type":"uint256","internalType":"uint256"}],"outputs":[{"name":"","type":"string","internalType":"string"}],"stateMutability":"view"},{"type":"function","name":"answerCount","inputs":[],"outputs":[{"name":"","type":"uint256","internalType":"uint256"}],"stateMutability":"view"},{"type":"function","name":"answerMap","inputs":[{"name":"","type":"uint256","internalType":"uint256"}],"outputs":[{"name":"answerer","type":"address","internalType":"address"},{"name":"answer_id","type":"uint256","internalType":"uint256"},{"name":"question_id","type":"uint256","internalType":"uint256"},{"name":"content","type":"string","internalType":"string"},{"name":"isSelected","type":"bool","internalType":"bool"}],"stateMutability":"view"},{"type":"function","name":"askQuestion","inputs":[{"name":"_content","type":"string","internalType":"string"},{"name":"_day","type":"uint256","internalType":"uint256"},{"name":"_hour","type":"uint256","internalType":"uint256"},{"name":"_min","type":"uint256","internalType":"uint256"}],"outputs":[{"name":"","type":"uint256","internalType":"uint256"}],"stateMutability":"payable"},{"type":"function","name":"calculate_credit","inputs":[{"name":"userAddress","type":"address","internalType":"address"}],"outputs":[{"name":"","type":"uint256","internalType":"uint256"}],"stateMutability":"nonpayable"},{"type":"function","name":"cancelSelection","inputs":[{"name":"q_id","type":"uint256","internalType":"uint256"}],"outputs":[],"stateMutability":"nonpayable"},{"type":"function","name":"checkEndorsement","inputs":[{"name":"q_id","type":"uint256","internalType":"uint256"}],"outputs":[{"name":"","type":"address[]","internalType":"address[]"}],"stateMutability":"view"},{"type":"function","name":"closeQuestion","inputs":[{"name":"q_id","type":"uint256","internalType":"uint256"},{"name":"giveReward","type":"bool","internalType":"bool"}],"outputs":[],"stateMutability":"nonpayable"},{"type":"function","name":"endorse","inputs":[{"name":"answer_id","type":"uint256","internalType":"uint256"},{"name":"question_id","type":"uint256","internalType":"uint256"}],"outputs":[],"stateMutability":"nonpayable"},{"type":"function","name":"getAnswerContent","inputs":[{"name":"a_id","type":"uint256","internalType":"uint256"}],"outputs":[{"name":"","type":"string","internalType":"string"}],"stateMutability":"view"},{"type":"function","name":"getAnswerID","inputs":[{"name":"q_id","type":"uint256","internalType":"uint256"}],"outputs":[{"name":"","type":"uint256[]","internalType":"uint256[]"}],"stateMutability":"view"},{"type":"function","name":"getCredit","inputs":[{"name":"userAddress","type":"address","internalType":"address"}],"outputs":[{"name":"","type":"uint256","internalType":"uint256"}],"stateMutability":"view"},{"type":"function","name":"getNumberOfEndorsements","inputs":[{"name":"a_id","type":"uint256","internalType":"uint256"}],"outputs":[{"name":"","type":"uint256","internalType":"uint256"}],"stateMutability":"view"},{"type":"function","name":"getQuestionContent","inputs":[{"name":"q_id","type":"uint256","internalType":"uint256"}],"outputs":[{"name":"","type":"string","internalType":"string"}],"stateMutability":"view"},{"type":"function","name":"getQuestionExpirationTime","inputs":[{"name":"q_id","type":"uint256","internalType":"uint256"}],"outputs":[{"name":"","type":"uint256","internalType":"uint256"}],"stateMutability":"view"},{"type":"function","name":"getQuestionReward","inputs":[{"name":"q_id","type":"uint256","internalType":"uint256"}],"outputs":[{"name":"","type":"uint256","internalType":"uint256"}],"stateMutability":"view"},{"type":"function","name":"hasRegistered","inputs":[{"name":"","type":"address","internalType":"address"}],"outputs":[{"name":"","type":"bool","internalType":"bool"}],"stateMutability":"view"},{"type":"function","name":"isExpired","inputs":[{"name":"q_id","type":"uint256","internalType":"uint256"}],"outputs":[{"name":"","type":"bool","internalType":"bool"}],"stateMutability":"nonpayable"},{"type":"function","name":"owner","inputs":[],"outputs":[{"name":"","type":"address","internalType":"address"}],"stateMutability":"view"},{"type":"function","name":"postAnswer","inputs":[{"name":"question_id","type":"uint256","internalType":"uint256"},{"name":"content","type":"string","internalType":"string"}],"outputs":[{"name":"","type":"uint256","internalType":"uint256"}],"stateMutability":"nonpayable"},{"type":"function","name":"questionCount","inputs":[],"outputs":[{"name":"","type":"uint256","internalType":"uint256"}],"stateMutability":"view"},{"type":"function","name":"questionMap","inputs":[{"name":"","type":"uint256","internalType":"uint256"}],"outputs":[{"name":"asker","type":"address","internalType":"address"},{"name":"content","type":"string","internalType":"string"},{"name":"reward","type":"uint256","internalType":"uint256"},{"name":"expiration_time","type":"uint256","internalType":"uint256"},{"name":"question_id","type":"uint256","internalType":"uint256"},{"name":"selected","type":"bool","internalType":"bool"},{"name":"closed","type":"bool","internalType":"bool"},{"name":"distributed","type":"bool","internalType":"bool"}],"stateMutability":"view"},{"type":"function","name":"questions","inputs":[{"name":"","type":"uint256","internalType":"uint256"}],"outputs":[{"name":"asker","type":"address","internalType":"address"},{"name":"content","type":"string","internalType":"string"},{"name":"reward","type":"uint256","internalType":"uint256"},{"name":"expiration_time","type":"uint256","internalType":"uint256"},{"name":"question_id","type":"uint256","internalType":"uint256"},{"name":"selected","type":"bool","internalType":"bool"},{"name":"closed","type":"bool","internalType":"bool"},{"name":"distributed","type":"bool","internalType":"bool"}],"stateMutability":"view"},{"type":"function","name":"registerUser","inputs":[{"name":"_username","type":"string","internalType":"string"}],"outputs":[],"stateMutability":"nonpayable"},{"type":"function","name":"rewardDistributeByExpirationTime","inputs":[{"name":"question_id","type":"uint256","internalType":"uint256"}],"outputs":[],"stateMutability":"nonpayable"},{"type":"function","name":"rewardRecordsMap","inputs":[{"name":"","type":"address","internalType":"address"}],"outputs":[{"name":"","type":"address","internalType":"contract Queue"}],"stateMutability":"view"},{"type":"function","name":"selectAnswer","inputs":[{"name":"q_id","type":"uint256","internalType":"uint256"},{"name":"a_id","type":"uint256","internalType":"uint256"}],"outputs":[],"stateMutability":"nonpayable"},{"type":"function","name":"sqrt","inputs":[{"name":"x","type":"uint256","internalType":"uint256"}],"outputs":[{"name":"y","type":"uint256","internalType":"uint256"}],"stateMutability":"pure"},{"type":"function","name":"userAddrMap","inputs":[{"name":"","type":"address","internalType":"address"}],"outputs":[{"name":"user_name","type":"string","internalType":"string"},{"name":"user_address","type":"address","internalType":"address"},{"name":"credit","type":"uint256","internalType":"uint256"}],"stateMutability":"view"},{"type":"function","name":"userCount","inputs":[],"outputs":[{"name":"","type":"uint256","internalType":"uint256"}],"stateMutability":"view"},{"type":"function","name":"users","inputs":[{"name":"","type":"uint256","internalType":"uint256"}],"outputs":[{"name":"user_name","type":"string","internalType":"string"},{"name":"user_address","type":"address","internalType":"address"},{"name":"credit","type":"uint256","internalType":"uint256"}],"stateMutability":"view"},{"type":"event","name":"AnswerCreated","inputs":[{"name":"q_id","type":"uint256","indexed":false,"internalType":"uint256"},{"name":"a_id","type":"uint256","indexed":false,"internalType":"uint256"},{"name":"content","type":"string","indexed":false,"internalType":"string"},{"name":"reward","type":"uint256","indexed":false,"internalType":"uint256"}],"anonymous":false},{"type":"event","name":"AnswerSelected","inputs":[{"name":"q_id","type":"uint256","indexed":false,"internalType":"uint256"},{"name":"a_id","type":"uint256","indexed":false,"internalType":"uint256"}],"anonymous":false},{"type":"event","name":"CancelSelection","inputs":[{"name":"q_id","type":"uint256","indexed":false,"internalType":"uint256"}],"anonymous":false},{"type":"event","name":"Endorse","inputs":[{"name":"a_id","type":"uint256","indexed":false,"internalType":"uint256"},{"name":"endorser","type":"address","indexed":false,"internalType":"address"},{"name":"q_id","type":"uint256","indexed":false,"internalType":"uint256"}],"anonymous":false},{"type":"event","name":"MoneyReceived","inputs":[{"name":"payer","type":"address","indexed":false,"internalType":"address"},{"name":"value","type":"uint256","indexed":false,"internalType":"uint256"}],"anonymous":false},{"type":"event","name":"QuestionClosed","inputs":[{"name":"q_id","type":"uint256","indexed":false,"internalType":"uint256"}],"anonymous":false},{"type":"event","name":"QuestionCreated","inputs":[{"name":"asker","type":"address","indexed":false,"internalType":"address"},{"name":"content","type":"string","indexed":false,"internalType":"string"},{"name":"reward","type":"uint256","indexed":false,"internalType":"uint256"},{"name":"expiration_time","type":"uint256","indexed":false,"internalType":"uint256"},{"name":"question_id","type":"uint256","indexed":false,"internalType":"uint256"},{"name":"closed","type":"bool","indexed":false,"internalType":"bool"},{"name":"answer_ids","type":"uint256[]","indexed":false,"internalType":"uint256[]"}],"anonymous":false},{"type":"event","name":"RewardDistributed","inputs":[{"name":"q_id","type":"uint256","indexed":false,"internalType":"uint256"},{"name":"recipients","type":"address[]","indexed":false,"internalType":"address[]"}],"anonymous":false},{"type":"event","name":"UserCreditUpdate","inputs":[{"name":"user_addr","type":"address","indexed":false,"internalType":"address"},{"name":"prev_credit","type":"uint256","indexed":false,"internalType":"uint256"},{"name":"new_credit","type":"uint256","indexed":false,"internalType":"uint256"}],"anonymous":false},{"type":"event","name":"UserRegistered","inputs":[{"name":"username","type":"string","indexed":false,"internalType":"string"},{"name":"userAddress","type":"address","indexed":false,"internalType":"address"},{"name":"default_credit","type":"uint256","indexed":false,"internalType":"uint256"}],"anonymous":false},{"type":"error","name":"ReentrancyGuardReentrantCall","inputs":[]}],"bytecode":{"object":"0x608060405260006007556000600a556000600c55348015601e57600080fd5b506001600081905580546001600160a01b03191633179055613cbb806100456000396000f3fe6080604052600436106101dc5760003560e01c80636de9408311610102578063c709695a11610095578063da62458a11610064578063da62458a146105db578063e34d6805146105fb578063e57362b01461061b578063f061b5b11461064b57600080fd5b8063c709695a1461055b578063c921d66c1461057b578063ccad23061461059b578063d9548e53146105bb57600080fd5b80638e1ad7df116100d15780638e1ad7df146104ae578063a0d03526146104db578063ab10d9981461051b578063c27828451461053b57600080fd5b80636de940831461042e578063704f1b94146104415780638b53dc6d146104615780638da5cb5b1461048e57600080fd5b806331b1b9781161017a57806341759a141161014957806341759a141461039d57806357344e6f146103ce57806358c92ba8146103ee578063677342ce1461040e57600080fd5b806331b1b978146102fa578063365b98b21461032e5780633cfe5c821461035d5780633d9c48931461037d57600080fd5b806313fc8c34116101b657806313fc8c34146102545780631468aa2c146102a25780631ea5a292146102b8578063307f37e6146102da57600080fd5b806307973ccf146101e85780630bed05021461021157806313b3eb0d1461022757600080fd5b366101e357005b600080fd5b3480156101f457600080fd5b506101fe60075481565b6040519081526020015b60405180910390f35b34801561021d57600080fd5b506101fe600c5481565b34801561023357600080fd5b506102476102423660046132a3565b61066b565b60405161020891906132f8565b34801561026057600080fd5b5061028a61026f36600461330b565b6006602052600090815260409020546001600160a01b031681565b6040516001600160a01b039091168152602001610208565b3480156102ae57600080fd5b506101fe600a5481565b3480156102c457600080fd5b506102d86102d3366004613334565b6106d0565b005b3480156102e657600080fd5b506101fe6102f53660046132a3565b6109df565b34801561030657600080fd5b5061031a6103153660046132a3565b610a19565b60405161020898979695949392919061339c565b34801561033a57600080fd5b5061034e6103493660046132a3565b610b0a565b604051610208939291906133f8565b34801561036957600080fd5b506102d8610378366004613426565b610bd6565b34801561038957600080fd5b506102d8610398366004613334565b610d2c565b3480156103a957600080fd5b506103bd6103b83660046132a3565b610fd1565b60405161020895949392919061345b565b3480156103da57600080fd5b506101fe6103e936600461330b565b611097565b3480156103fa57600080fd5b506102d86104093660046132a3565b61112c565b34801561041a57600080fd5b506101fe6104293660046132a3565b61151d565b6101fe61043c36600461353f565b611576565b34801561044d57600080fd5b506102d861045c366004613593565b611a1c565b34801561046d57600080fd5b5061048161047c3660046132a3565b611dd6565b60405161020891906135d0565b34801561049a57600080fd5b5060015461028a906001600160a01b031681565b3480156104ba57600080fd5b506104ce6104c93660046132a3565b611e71565b604051610208919061361d565b3480156104e757600080fd5b5061050b6104f636600461330b565b60056020526000908152604090205460ff1681565b6040519015158152602001610208565b34801561052757600080fd5b506101fe61053636600461330b565b612139565b34801561054757600080fd5b506102d86105563660046132a3565b612258565b34801561056757600080fd5b506104816105763660046132a3565b6124a2565b34801561058757600080fd5b506101fe610596366004613630565b6124e2565b3480156105a757600080fd5b506101fe6105b63660046132a3565b612856565b3480156105c757600080fd5b5061050b6105d63660046132a3565b612890565b3480156105e757600080fd5b506104816105f63660046132a3565b612a67565b34801561060757600080fd5b5061034e61061636600461330b565b612b13565b34801561062757600080fd5b506101fe6106363660046132a3565b6000908152600b602052604090206005015490565b34801561065757600080fd5b5061031a6106663660046132a3565b612b2e565b6000818152600860209081526040918290206006018054835181840281018401909452808452606093928301828280156106c457602002820191906000526020600020905b8154815260200190600101908083116106b0575b50505050509050919050565b6106d981612890565b156106ff5760405162461bcd60e51b81526004016106f690613677565b60405180910390fd5b3360009081526005602052604090205460ff166107725760405162461bcd60e51b815260206004820152602b60248201527f55736572206d757374206265207265676973746572656420746f20616464206560448201526a6e646f7273656d656e747360a81b60648201526084016106f6565b6000828152600b6020526040902054336001600160a01b03909116036107e55760405162461bcd60e51b815260206004820152602260248201527f596f752063616e6e6f7420656e646f72736520796f7572206f776e20616e737760448201526132b960f11b60648201526084016106f6565b6000828152600b602052604090206002015481146108585760405162461bcd60e51b815260206004820152602a60248201527f54686520616e7377657220646f6573206e6f742062656c6f6e6720746f207468604482015269329038bab2b9ba34b7b760b11b60648201526084016106f6565b6000828152600b60209081526040808320600501805482518185028101850190935280835291929091908301828280156108bb57602002820191906000526020600020905b81546001600160a01b0316815260019091019060200180831161089d575b505050505090506000805b825181101561090e57336001600160a01b03168382815181106108eb576108eb6136a7565b60200260200101516001600160a01b03160361090657600191505b6001016108c6565b5080156109695760405162461bcd60e51b815260206004820152602360248201527f557365722063616e6e6f7420656e646f72736520616e20616e7377657220747760448201526269636560e81b60648201526084016106f6565b604080518581523360208201529081018490527f266365a2aceb5ff9d23a2e846eb7b7339cd874d164131d977f6946cb1d0dfcf19060600160405180910390a15050506000908152600b602090815260408220600501805460018101825590835291200180546001600160a01b03191633179055565b6000600a54821115610a035760405162461bcd60e51b81526004016106f6906136bd565b5060009081526008602052604090206003015490565b60098181548110610a2957600080fd5b6000918252602090912060079091020180546001820180546001600160a01b03909216935090610a58906136f2565b80601f0160208091040260200160405190810160405280929190818152602001828054610a84906136f2565b8015610ad15780601f10610aa657610100808354040283529160200191610ad1565b820191906000526020600020905b815481529060010190602001808311610ab457829003601f168201915b505050506002830154600384015460048501546005909501549394919390925060ff808216916101008104821691620100009091041688565b60028181548110610b1a57600080fd5b9060005260206000209060030201600091509050806000018054610b3d906136f2565b80601f0160208091040260200160405190810160405280929190818152602001828054610b69906136f2565b8015610bb65780601f10610b8b57610100808354040283529160200191610bb6565b820191906000526020600020905b815481529060010190602001808311610b9957829003601f168201915b50505050600183015460029093015491926001600160a01b031691905083565b610bde612b5a565b610be782612890565b15610c405760405162461bcd60e51b8152602060048201526024808201527f546865207175657374696f6e2068617320616c7265616479206265656e20636c6044820152631bdcd95960e21b60648201526084016106f6565b6000828152600860205260409020546001600160a01b03163314610cb45760405162461bcd60e51b815260206004820152602560248201527f4f6e6c79207468652061736b65722063616e20636c6f7365207468652071756560448201526439ba34b7b760d91b60648201526084016106f6565b6000828152600860205260409020600501805461ff001916610100179081905562010000900460ff16610ceb57610ceb8282612b84565b6040518281527f3c8f450bdfccd4e29a4d8e9602688d5e009772a7de7c40c7f27b8f8c129f01fa9060200160405180910390a1610d286001600055565b5050565b610d3582612890565b15610d525760405162461bcd60e51b81526004016106f690613677565b6000828152600860205260409020546001600160a01b03163314610dca5760405162461bcd60e51b815260206004820152602960248201527f4f6e6c79207468652061736b65722063616e2073656c6563742074686520626560448201526839ba1030b739bbb2b960b91b60648201526084016106f6565b6000818152600b60205260409020600201548214610e3e5760405162461bcd60e51b815260206004820152602b60248201527f54686520616e7377657220646f6573206e6f742062656c6f6e6720746f20746860448201526a34b99038bab2b9ba34b7b760a91b60648201526084016106f6565b600082815260086020908152604080832060060180548251818502810185019093528083529192909190830182828015610e9757602002820191906000526020600020905b815481526020019060010190808311610e83575b505050600086815260086020526040902060050154929350505060ff1615610f5c5760005b8151811015610f5a57600b6000838381518110610edb57610edb6136a7565b60209081029190910181015182528101919091526040016000206004015460ff161515600103610f52576000600b6000848481518110610f1d57610f1d6136a7565b6020026020010151815260200190815260200160002060040160006101000a81548160ff021916908315150217905550610f5a565b600101610ebc565b505b60008381526008602090815260408083206005018054600160ff199182168117909255868552600b84529382902060040180549094161790925581518581529081018490527fcce2e26b4c2c9bdecbd753012d7f595a50f3fe6263dc2090e6432f7cc9c5b8bc910160405180910390a1505050565b600b6020526000908152604090208054600182015460028301546003840180546001600160a01b0390941694929391929161100b906136f2565b80601f0160208091040260200160405190810160405280929190818152602001828054611037906136f2565b80156110845780601f1061105957610100808354040283529160200191611084565b820191906000526020600020905b81548152906001019060200180831161106757829003601f168201915b5050506004909301549192505060ff1685565b6001600160a01b03811660009081526005602052604081205460ff1661110d5760405162461bcd60e51b815260206004820152602560248201527f55736572206d757374206265207265676973746572656420746f2067657420636044820152641c99591a5d60da1b60648201526084016106f6565b506001600160a01b031660009081526004602052604090206002015490565b611134612b5a565b3360009081526005602052604090205460ff166111935760405162461bcd60e51b815260206004820152601d60248201527f5468652061646472657373206973206e6f74207265676973746572656400000060448201526064016106f6565b61119c81612890565b6111a557600080fd5b60008181526008602052604090206005015462010000900460ff16156111ca57600080fd5b6000818152600860205260409020600281015460059091015460ff16156113205760006111f683612fbc565b60408051600180825281830190925291925060009190602080830190803683370190505090508181600081518110611230576112306136a7565b60200260200101906001600160a01b031690816001600160a01b0316815250508247101561125d57600080fd5b6000826001600160a01b03168460405160006040518083038185875af1925050503d80600081146112aa576040519150601f19603f3d011682016040523d82523d6000602084013e6112af565b606091505b50509050806112d05760405162461bcd60e51b81526004016106f690613726565b60008581526008602052604090819020600501805462ff000019166201000017905551600080516020613c6683398151915290611310908790859061375d565b60405180910390a150505061150e565b600061132b83611e71565b90508051600003611404576000838152600860205260408082205490516001600160a01b039091169084908381818185875af1925050503d806000811461138e576040519150601f19603f3d011682016040523d82523d6000602084013e611393565b606091505b50509050806113b45760405162461bcd60e51b81526004016106f690613726565b60008481526008602052604090819020600501805462ff000019166201000017905551600080516020613c66833981519152906113f4908690859061375d565b60405180910390a1505050611510565b6000815183611413919061378c565b905060005b82518110156114e3578147101561142e57600080fd5b6000838281518110611442576114426136a7565b60200260200101516001600160a01b03168360405160006040518083038185875af1925050503d8060008114611494576040519150601f19603f3d011682016040523d82523d6000602084013e611499565b606091505b50509050806114ba5760405162461bcd60e51b81526004016106f690613726565b506000858152600860205260409020600501805462ff0000191662010000179055600101611418565b50600080516020613c66833981519152848360405161150392919061375d565b60405180910390a150505b505b61151a6001600055565b50565b600080600261152d8460016137ae565b611537919061378c565b90508291505b8181101561157057905080600281611555818661378c565b61155f91906137ae565b611569919061378c565b905061153d565b50919050565b3360009081526005602052604081205460ff166115cb5760405162461bcd60e51b8152602060048201526013602482015272155cd95c881b9bdd081c9959da5cdd195c9959606a1b60448201526064016106f6565b6000341180156115e357506115df33611097565b3411155b6116555760405162461bcd60e51b815260206004820152603860248201527f526577617264206d7573742062652067726561746572207468616e203020616e60448201527f64206c657373207468616e20637265646974206c696d6974000000000000000060648201526084016106f6565b60008551116116a65760405162461bcd60e51b815260206004820152601860248201527f5175657374696f6e2063616e6e6f7420626520656d707479000000000000000060448201526064016106f6565b60006116b383603c6137c1565b6116bf85610e106137c1565b6116cc87620151806137c1565b6116d691906137ae565b6116e091906137ae565b90506201518081101580156116f8575062093a808111155b61176a5760405162461bcd60e51b815260206004820152603f60248201527f45787069726174696f6e2074696d65206d75737420626520677265617465722060448201527f7468616e20312064617920616e64206c657373207468616e203720646179730060648201526084016106f6565b6001600a600082825461177d91906137ae565b9091555050600a546040805161012081018252338152602081018990523491810191909152600090606081016117b385426137ae565b81526020808201859052600060408084018290526060840182905260808401829052805182815280840190915260a09093019290925260098054600181018255925282517f6e1540171b6c0c960b71a7020d9f60077f6af931a8bbf590da0223dacf75c7af600790930292830180546001600160a01b0319166001600160a01b0390921691909117815590830151929350839290917f6e1540171b6c0c960b71a7020d9f60077f6af931a8bbf590da0223dacf75c7b001906118759082613829565b5060408201516002820155606082015160038201556080820151600482015560a082015160058201805460c085015160e086015161ffff1990921693151561ff0019169390931761010093151584021762ff00001916620100009115159190910217905582015180516118f29160068401916020909101906131e1565b5050506000828152600860209081526040909120825181546001600160a01b0319166001600160a01b039091161781559082015182919060018201906119389082613829565b5060408201516002820155606082015160038201556080820151600482015560a082015160058201805460c085015160e086015161ffff1990921693151561ff0019169390931761010093151584021762ff00001916620100009115159190910217905582015180516119b59160068401916020909101906131e1565b507f84b861809ad6a7273eb286675afe4848e1772d87876e38ff1870adfc5ebbcbb1915033905089346119e887426137ae565b6040805160008082526020820192839052611a0996959493928a92906138e9565b60405180910390a1509695505050505050565b3360008181526005602052604090205460ff1615611a7c5760405162461bcd60e51b815260206004820152601a60248201527f546865206164647265737320776173207265676973746572656400000000000060448201526064016106f6565b81600160005b600754811015611adf57828051906020012060028281548110611aa757611aa76136a7565b9060005260206000209060030201600001604051611ac59190613947565b604051809103902003611ad757600091505b600101611a82565b5080611b225760405162461bcd60e51b81526020600482015260126024820152716475706c696361746520757365726e616d6560701b60448201526064016106f6565b6000845111611b675760405162461bcd60e51b8152602060048201526011602482015270557365726e616d6520697320656d70747960781b60448201526064016106f6565b60408051606081018252858152336020820152662386f26fc100009181019190915260028054600181018255600091909152815182916003027f405787fa12a823e0f2b7631cc41b3ba8828b3321ca811111fa75cd3aa3bb5ace01908190611bcf9082613829565b506020828101516001830180546001600160a01b0319166001600160a01b0390921691909117905560409283015160029092019190915533600090815260049091522081518291908190611c239082613829565b506020820151600182810180546001600160a01b0319166001600160a01b03909316929092179091556040909201516002909101556003805491820181556000527fc2575a0e9e593c00f959f8c92f12db2869c3395a3b0502d05e2516446f71f85b01611c908682613829565b50336000908152600560205260408120805460ff191660011790556007805491611cb9836139bd565b91905055506000604051611ccc9061322c565b604051809103906000f080158015611ce8573d6000803e3d6000fd5b50905060005b6005811015611d6357604051631ffc735d60e01b8152660fe170fa25600060048201526001600160a01b03831690631ffc735d90602401600060405180830381600087803b158015611d3f57600080fd5b505af1158015611d53573d6000803e3d6000fd5b505060019092019150611cee9050565b50336000818152600660205260409081902080546001600160a01b0319166001600160a01b038516179055517fda4b066842833e7ab38c0f7ba442824b5eda00740d68ef015889812a792fc3ec91611dc691899190662386f26fc10000906133f8565b60405180910390a1505050505050565b6000818152600b60205260409020600301805460609190611df6906136f2565b80601f0160208091040260200160405190810160405280929190818152602001828054611e22906136f2565b80156106c45780601f10611e44576101008083540402835291602001916106c4565b820191906000526020600020905b815481529060010190602001808311611e525750939695505050505050565b600081815260086020526040902060050154606090610100900460ff16611eda5760405162461bcd60e51b815260206004820152601a60248201527f546865207175657374696f6e206973206e6f7420636c6f73656400000000000060448201526064016106f6565b600082815260086020908152604080832060060180548251818502810185019093528083529192909190830182828015611f3357602002820191906000526020600020905b815481526020019060010190808311611f1f575b505050505090506000805b8251811015611fbf5781600b6000858481518110611f5e57611f5e6136a7565b60200260200101518152602001908152602001600020600501805490501115611fb757600b6000848381518110611f9757611f976136a7565b602002602001015181526020019081526020016000206005018054905091505b600101611f3e565b506000805b835181101561201c5782600b6000868481518110611fe457611fe46136a7565b6020026020010151815260200190815260200160002060050180549050036120145781612010816139bd565b9250505b600101611fc4565b5060008167ffffffffffffffff8111156120385761203861349c565b604051908082528060200260200182016040528015612061578160200160208202803683370190505b5090506000805b855181101561212d5784600b6000888481518110612088576120886136a7565b60200260200101518152602001908152602001600020600501805490500361212557600b60008783815181106120c0576120c06136a7565b6020026020010151815260200190815260200160002060000160009054906101000a90046001600160a01b03168383815181106120ff576120ff6136a7565b6001600160a01b039092166020928302919091019091015281612121816139bd565b9250505b600101612068565b50909695505050505050565b6001600160a01b038082166000908152600660209081526040808320548151630130ca2b60e01b8152915193948594911692630130ca2b92600480820193918290030181865afa158015612191573d6000803e3d6000fd5b505050506040513d601f19601f820116820180604052508101906121b591906139d6565b6001600160a01b0384166000908152600460205260409020600201549091507f085f11378a0c42687437148f7b62421b8e6f48c3a41b0e416dc85078bcc0bcd39084906122018461151d565b604080516001600160a01b03909416845260208401929092529082015260600160405180910390a16122328161151d565b6001600160a01b0390931660009081526004602052604090206002018390555090919050565b6000818152600860205260409020546001600160a01b031633146122ca5760405162461bcd60e51b815260206004820152602360248201527f4f6e6c79207468652061736b65722063616e2063616e63656c2073656c65637460448201526234b7b760e91b60648201526084016106f6565b6122d381612890565b156122f05760405162461bcd60e51b81526004016106f690613677565b60008181526008602052604090206005015460ff166123495760405162461bcd60e51b8152602060048201526015602482015274139bc8185b9cddd95c881a5cc81cd95b1958dd1959605a1b60448201526064016106f6565b6000818152600860209081526040808320600601805482518185028101850190935280835291929091908301828280156123a257602002820191906000526020600020905b81548152602001906001019080831161238e575b5050505050905060005b815181101561244a57600b60008383815181106123cb576123cb6136a7565b60209081029190910181015182528101919091526040016000206004015460ff161515600103612442576000600b600084848151811061240d5761240d6136a7565b6020026020010151815260200190815260200160002060040160006101000a81548160ff02191690831515021790555061244a565b6001016123ac565b5060008281526008602052604090819020600501805460ff19169055517f53088c7bbf224d7afa175aa1fbda4d494a5008e230beebc8d16b45c8415e9645906124969084815260200190565b60405180910390a15050565b6060600a548211156124c65760405162461bcd60e51b81526004016106f6906136bd565b60008281526008602052604090206001018054611df6906136f2565b60006124ed83612890565b1561250a5760405162461bcd60e51b81526004016106f690613677565b3360009081526005602052604090205460ff1661257e5760405162461bcd60e51b815260206004820152602c60248201527f55736572206d757374206265207265676973746572656420746f20616e73776560448201526b3910309038bab2b9ba34b7b760a11b60648201526084016106f6565b60008251116125c85760405162461bcd60e51b8152602060048201526016602482015275416e737765722063616e6e6f7420626520656d70747960501b60448201526064016106f6565b600083815260086020526040902054336001600160a01b039091160361263c5760405162461bcd60e51b8152602060048201526024808201527f596f752063616e6e6f7420616e7377657220796f7572206f776e207175657374604482015263696f6e2160e01b60648201526084016106f6565b60005b60008481526008602052604090206006015481101561270e57600084815260086020526040812060060180543392600b92909185908110612682576126826136a7565b600091825260208083209091015483528201929092526040019020546001600160a01b0316036127065760405162461bcd60e51b815260206004820152602960248201527f596f752063616e6e6f7420616e73776572207468652073616d65207175657374604482015268696f6e20747769636560b81b60648201526084016106f6565b60010161263f565b5060606000600c60008154612722906139bd565b91829055506040805160c08101825233815260208082018481528284018a8152606084018a815260006080860181905260a086018a9052878152600b90945294909220835181546001600160a01b0319166001600160a01b03909116178155905160018201559051600282015591519293509182919060038201906127a79082613829565b50608082015160048201805460ff191691151591909117905560a082015180516127db916005840191602090910190613239565b5050506000868152600860209081526040808320600681018054600181018255908552928420909201859055918890526002015490517f6664f2452a9c851a9ecdf8e98ff206e97b1ab656fddb6f741e06c4d085ed2b139161284391899186918a91906139ef565b60405180910390a1509150505b92915050565b6000600a5482111561287a5760405162461bcd60e51b81526004016106f6906136bd565b5060009081526008602052604090206002015490565b6000600a548211156128b45760405162461bcd60e51b81526004016106f6906136bd565b60008281526008602090815260408083208151610120810190925280546001600160a01b0316825260018101805492939192918401916128f3906136f2565b80601f016020809104026020016040519081016040528092919081815260200182805461291f906136f2565b801561296c5780601f106129415761010080835404028352916020019161296c565b820191906000526020600020905b81548152906001019060200180831161294f57829003601f168201915b50505091835250506002820154602080830191909152600383015460408084019190915260048401546060840152600584015460ff8082161515608086015261010082048116151560a08601526201000090910416151560c084015260068401805482518185028101850190935280835260e0909401939192909190830182828015612a1757602002820191906000526020600020905b815481526020019060010190808311612a03575b50505050508152505090508060600151421115612a4d576000838152600860205260409020600501805461ff0019166101001790555b8060600151421180612a6057508060c001515b9392505050565b60038181548110612a7757600080fd5b906000526020600020016000915090508054612a92906136f2565b80601f0160208091040260200160405190810160405280929190818152602001828054612abe906136f2565b8015612b0b5780601f10612ae057610100808354040283529160200191612b0b565b820191906000526020600020905b815481529060010190602001808311612aee57829003601f168201915b505050505081565b600460205260009081526040902080548190610b3d906136f2565b600860205260009081526040902080546001820180546001600160a01b039092169291610a58906136f2565b600260005403612b7d57604051633ee5aeb560e01b815260040160405180910390fd5b6002600055565b612b8d82612890565b612b9657600080fd5b60008281526008602052604090206005015462010000900460ff1615612bbb57600080fd5b60008281526008602052604090206005015460ff1615612c485780612c485760405162461bcd60e51b815260206004820152603a60248201527f496620796f752073656c65637420746865206265737420616e737765722c207960448201527f6f75206861766520746f2067697665206f75742072657761726400000000000060648201526084016106f6565b6000828152600860205260409020600281015460059091015460ff1615612dce576000612c7484612fbc565b60408051600180825281830190925291925060009190602080830190803683370190505090508181600081518110612cae57612cae6136a7565b60200260200101906001600160a01b031690816001600160a01b03168152505082471015612cdb57600080fd5b6000826001600160a01b03168460405160006040518083038185875af1925050503d8060008114612d28576040519150601f19603f3d011682016040523d82523d6000602084013e612d2d565b606091505b5050905080612d7e5760405162461bcd60e51b815260206004820152601b60248201527f52657761726420646973747269627574696f6e206661696c656420000000000060448201526064016106f6565b60008681526008602052604090819020600501805462ff000019166201000017905551600080516020613c6683398151915290612dbe908890859061375d565b60405180910390a1505050612e8e565b60008381526008602052604090206005015460ff16158015612ded5750815b15612e0057612dfb8361112c565b612e8e565b604051600090339083908381818185875af1925050503d8060008114612e42576040519150601f19603f3d011682016040523d82523d6000602084013e612e47565b606091505b505090506000915080612e6c5760405162461bcd60e51b81526004016106f690613726565b506000838152600860205260409020600501805462ff00001916620100001790555b6000838152600860205260408120600601549003612eab57505050565b33600090815260066020908152604080832054815163957908d160e01b815291516001600160a01b0390911693849363957908d19360048082019492939183900301908290875af1158015612f04573d6000803e3d6000fd5b505050506040513d601f19601f82011682018060405250810190612f2891906139d6565b50604051631ffc735d60e01b8152600481018390526001600160a01b03821690631ffc735d90602401600060405180830381600087803b158015612f6b57600080fd5b505af1158015612f7f573d6000803e3d6000fd5b505033600081815260066020526040902080546001600160a01b0319166001600160a01b038616179055612fb592509050612139565b5050505050565b6000600a54821115612fcd57600080fd5b60008281526008602090815260408083208151610120810190925280546001600160a01b03168252600181018054929391929184019161300c906136f2565b80601f0160208091040260200160405190810160405280929190818152602001828054613038906136f2565b80156130855780601f1061305a57610100808354040283529160200191613085565b820191906000526020600020905b81548152906001019060200180831161306857829003601f168201915b50505091835250506002820154602080830191909152600383015460408084019190915260048401546060840152600584015460ff8082161515608086015261010082048116151560a08601526201000090910416151560c084015260068401805482518185028101850190935280835260e090940193919290919083018282801561313057602002820191906000526020600020905b81548152602001906001019080831161311c575b5050509190925250505061010081015190915060005b81518110156131d657600b6000838381518110613165576131656136a7565b60209081029190910181015182528101919091526040016000206004015460ff16156131ce57600b60008383815181106131a1576131a16136a7565b6020908102919091018101518252810191909152604001600020546001600160a01b031695945050505050565b600101613146565b506000949350505050565b82805482825590600052602060002090810192821561321c579160200282015b8281111561321c578251825591602001919060010190613201565b5061322892915061328e565b5090565b61024680613a2083390190565b82805482825590600052602060002090810192821561321c579160200282015b8281111561321c57825182546001600160a01b0319166001600160a01b03909116178255602090920191600190910190613259565b5b80821115613228576000815560010161328f565b6000602082840312156132b557600080fd5b5035919050565b60008151808452602080850194506020840160005b838110156132ed578151875295820195908201906001016132d1565b509495945050505050565b602081526000612a6060208301846132bc565b60006020828403121561331d57600080fd5b81356001600160a01b0381168114612a6057600080fd5b6000806040838503121561334757600080fd5b50508035926020909101359150565b6000815180845260005b8181101561337c57602081850181015186830182015201613360565b506000602082860101526020601f19601f83011685010191505092915050565b6001600160a01b0389168152610100602082018190526000906133c18382018b613356565b604084019990995250506060810195909552608085019390935290151560a0840152151560c0830152151560e09091015292915050565b60608152600061340b6060830186613356565b6001600160a01b039490941660208301525060400152919050565b6000806040838503121561343957600080fd5b823591506020830135801515811461345057600080fd5b809150509250929050565b60018060a01b038616815284602082015283604082015260a06060820152600061348860a0830185613356565b905082151560808301529695505050505050565b634e487b7160e01b600052604160045260246000fd5b600082601f8301126134c357600080fd5b813567ffffffffffffffff808211156134de576134de61349c565b604051601f8301601f19908116603f011681019082821181831017156135065761350661349c565b8160405283815286602085880101111561351f57600080fd5b836020870160208301376000602085830101528094505050505092915050565b6000806000806080858703121561355557600080fd5b843567ffffffffffffffff81111561356c57600080fd5b613578878288016134b2565b97602087013597506040870135966060013595509350505050565b6000602082840312156135a557600080fd5b813567ffffffffffffffff8111156135bc57600080fd5b6135c8848285016134b2565b949350505050565b602081526000612a606020830184613356565b60008151808452602080850194506020840160005b838110156132ed5781516001600160a01b0316875295820195908201906001016135f8565b602081526000612a6060208301846135e3565b6000806040838503121561364357600080fd5b82359150602083013567ffffffffffffffff81111561366157600080fd5b61366d858286016134b2565b9150509250929050565b602080825260169082015275151a19481c5d595cdd1a5bdb881a5cc818db1bdcd95960521b604082015260600190565b634e487b7160e01b600052603260045260246000fd5b6020808252818101527f54686520696e707574207175657374696f6e20696420697320696e76616c6964604082015260600190565b600181811c9082168061370657607f821691505b60208210810361157057634e487b7160e01b600052602260045260246000fd5b6020808252601a908201527f52657761726420646973747269627574696f6e206661696c6564000000000000604082015260600190565b8281526040602082015260006135c860408301846135e3565b634e487b7160e01b600052601160045260246000fd5b6000826137a957634e487b7160e01b600052601260045260246000fd5b500490565b8082018082111561285057612850613776565b808202811582820484141761285057612850613776565b601f821115613824576000816000526020600020601f850160051c810160208610156138015750805b601f850160051c820191505b818110156138205782815560010161380d565b5050505b505050565b815167ffffffffffffffff8111156138435761384361349c565b6138578161385184546136f2565b846137d8565b602080601f83116001811461388c57600084156138745750858301515b600019600386901b1c1916600185901b178555613820565b600085815260208120601f198616915b828110156138bb5788860151825594840194600190910190840161389c565b50858210156138d95787850151600019600388901b60f8161c191681555b5050505050600190811b01905550565b6001600160a01b038816815260e06020820181905260009061390d90830189613356565b87604084015286606084015285608084015284151560a084015282810360c084015261393981856132bc565b9a9950505050505050505050565b6000808354613955816136f2565b6001828116801561396d5760018114613982576139b1565b60ff19841687528215158302870194506139b1565b8760005260208060002060005b858110156139a85781548a82015290840190820161398f565b50505082870194505b50929695505050505050565b6000600182016139cf576139cf613776565b5060010190565b6000602082840312156139e857600080fd5b5051919050565b848152836020820152608060408201526000613a0e6080830185613356565b90508260608301529594505050505056fe6080604052600180556000600255348015601857600080fd5b5061021e806100286000396000f3fe608060405234801561001057600080fd5b506004361061004c5760003560e01c80630130ca2b146100515780631f7b6d321461006b5780631ffc735d14610073578063957908d114610088575b600080fd5b610059610090565b60405190815260200160405180910390f35b6100596100dd565b610086610081366004610176565b610100565b005b61005961012c565b6001546000905b6002546100a59060016101a5565b8110156100d9576000818152602081905260409020546100c590806101be565b6100cf90836101a5565b9150600101610097565b5090565b600060015460025460016100f191906101a5565b6100fb91906101d5565b905090565b60016002600082825461011391906101a5565b9091555050600254600090815260208190526040902055565b600080600154600254101561014057600080fd5b506001805460009081526020819052604081208054908290558254909291829161016b9083906101a5565b909155509092915050565b60006020828403121561018857600080fd5b5035919050565b634e487b7160e01b600052601160045260246000fd5b808201808211156101b8576101b861018f565b92915050565b80820281158282048414176101b8576101b861018f565b818103818111156101b8576101b861018f56fea2646970667358221220ba2f82ddccad524b0a8065750c411370679db7b8061eec9659450c70c0ece14e64736f6c63430008190033e07f18afb5d3c33b4ff9c9dec7421630fdf6d9842147633e03d5f8ea44ae346ea264697066735822122017e87aa7921eb937d50b6eb29a1fd4a5fc66c1a438c9be58c0cb0c75aa69c75264736f6c63430008190033","linkReferences":{}},"methodIdentifiers":{"accountNames(uint256)":"da62458a","answerCount()":"0bed0502","answerMap(uint256)":"41759a14","askQuestion(string,uint256,uint256,uint256)":"6de94083","calculate_credit(address)":"ab10d998","cancelSelection(uint256)":"c2782845","checkEndorsement(uint256)":"8e1ad7df","closeQuestion(uint256,bool)":"3cfe5c82","endorse(uint256,uint256)":"1ea5a292","getAnswerContent(uint256)":"8b53dc6d","getAnswerID(uint256)":"13b3eb0d","getCredit(address)":"57344e6f","getNumberOfEndorsements(uint256)":"e57362b0","getQuestionContent(uint256)":"c709695a","getQuestionExpirationTime(uint256)":"307f37e6","getQuestionReward(uint256)":"ccad2306","hasRegistered(address)":"a0d03526","isExpired(uint256)":"d9548e53","owner()":"8da5cb5b","postAnswer(uint256,string)":"c921d66c","questionCount()":"1468aa2c","questionMap(uint256)":"f061b5b1","questions(uint256)":"31b1b978","registerUser(string)":"704f1b94","rewardDistributeByExpirationTime(uint256)":"58c92ba8","rewardRecordsMap(address)":"13fc8c34","selectAnswer(uint256,uint256)":"3d9c4893","sqrt(uint256)":"677342ce","userAddrMap(address)":"e34d6805","userCount()":"07973ccf","users(uint256)":"365b98b2"},"id":27}