{"abi":[{"type":"constructor","inputs":[],"stateMutability":"payable"},{"type":"receive","stateMutability":"payable"},{"type":"function","name":"accountNames","inputs":[{"name":"","type":"uint256","internalType":"uint256"}],"outputs":[{"name":"","type":"string","internalType":"string"}],"stateMutability":"view"},{"type":"function","name":"answerCount","inputs":[],"outputs":[{"name":"","type":"uint256","internalType":"uint256"}],"stateMutability":"view"},{"type":"function","name":"answerMap","inputs":[{"name":"","type":"uint256","internalType":"uint256"}],"outputs":[{"name":"answerer","type":"address","internalType":"address"},{"name":"answer_id","type":"uint256","internalType":"uint256"},{"name":"question_id","type":"uint256","internalType":"uint256"},{"name":"content","type":"string","internalType":"string"},{"name":"isSelected","type":"bool","internalType":"bool"}],"stateMutability":"view"},{"type":"function","name":"askQuestion","inputs":[{"name":"_content","type":"string","internalType":"string"},{"name":"_day","type":"uint256","internalType":"uint256"},{"name":"_hour","type":"uint256","internalType":"uint256"},{"name":"_min","type":"uint256","internalType":"uint256"}],"outputs":[{"name":"","type":"uint256","internalType":"uint256"}],"stateMutability":"payable"},{"type":"function","name":"checkEndorsement","inputs":[{"name":"q_id","type":"uint256","internalType":"uint256"}],"outputs":[{"name":"","type":"address[]","internalType":"address[]"}],"stateMutability":"view"},{"type":"function","name":"closeQuestion","inputs":[{"name":"q_id","type":"uint256","internalType":"uint256"}],"outputs":[],"stateMutability":"nonpayable"},{"type":"function","name":"endorse","inputs":[{"name":"answer_id","type":"uint256","internalType":"uint256"},{"name":"question_id","type":"uint256","internalType":"uint256"}],"outputs":[],"stateMutability":"nonpayable"},{"type":"function","name":"getAnswers","inputs":[{"name":"a_id","type":"uint256","internalType":"uint256"}],"outputs":[{"name":"","type":"string","internalType":"string"}],"stateMutability":"view"},{"type":"function","name":"getDuration","inputs":[{"name":"q_id","type":"uint256","internalType":"uint256"}],"outputs":[{"name":"","type":"uint256","internalType":"uint256"}],"stateMutability":"view"},{"type":"function","name":"getNumOfEndorse","inputs":[{"name":"a_id","type":"uint256","internalType":"uint256"}],"outputs":[{"name":"","type":"uint256","internalType":"uint256"}],"stateMutability":"view"},{"type":"function","name":"getParticipantAddr","inputs":[],"outputs":[{"name":"","type":"address","internalType":"address"}],"stateMutability":"view"},{"type":"function","name":"getParticipantCount","inputs":[{"name":"q_id","type":"uint256","internalType":"uint256"}],"outputs":[{"name":"","type":"uint256","internalType":"uint256"}],"stateMutability":"view"},{"type":"function","name":"getQuestion","inputs":[{"name":"q_id","type":"uint256","internalType":"uint256"}],"outputs":[{"name":"","type":"string","internalType":"string"},{"name":"","type":"uint256","internalType":"uint256"},{"name":"","type":"uint256","internalType":"uint256"}],"stateMutability":"view"},{"type":"function","name":"getUserBalance","inputs":[{"name":"addr","type":"address","internalType":"address"}],"outputs":[{"name":"","type":"uint256","internalType":"uint256"}],"stateMutability":"view"},{"type":"function","name":"getUserQuestions","inputs":[{"name":"addr","type":"address","internalType":"address"}],"outputs":[{"name":"","type":"tuple[]","internalType":"struct SmartQA.Question[]","components":[{"name":"asker","type":"address","internalType":"address"},{"name":"content","type":"string","internalType":"string"},{"name":"reward","type":"uint256","internalType":"uint256"},{"name":"expiration_time","type":"uint256","internalType":"uint256"},{"name":"question_id","type":"uint256","internalType":"uint256"},{"name":"closed","type":"bool","internalType":"bool"},{"name":"answer_ids","type":"uint256[]","internalType":"uint256[]"}]}],"stateMutability":"view"},{"type":"function","name":"hasRegistered","inputs":[{"name":"","type":"address","internalType":"address"}],"outputs":[{"name":"","type":"bool","internalType":"bool"}],"stateMutability":"view"},{"type":"function","name":"isAnswerSelected","inputs":[{"name":"a_id","type":"uint256","internalType":"uint256"}],"outputs":[{"name":"","type":"bool","internalType":"bool"}],"stateMutability":"view"},{"type":"function","name":"isExpired","inputs":[{"name":"q_id","type":"uint256","internalType":"uint256"}],"outputs":[{"name":"","type":"bool","internalType":"bool"}],"stateMutability":"nonpayable"},{"type":"function","name":"owner","inputs":[],"outputs":[{"name":"","type":"address","internalType":"address"}],"stateMutability":"view"},{"type":"function","name":"postAnswer","inputs":[{"name":"question_id","type":"uint256","internalType":"uint256"},{"name":"content","type":"string","internalType":"string"}],"outputs":[{"name":"","type":"uint256","internalType":"uint256"}],"stateMutability":"nonpayable"},{"type":"function","name":"questionCount","inputs":[],"outputs":[{"name":"","type":"uint256","internalType":"uint256"}],"stateMutability":"view"},{"type":"function","name":"questionMap","inputs":[{"name":"","type":"uint256","internalType":"uint256"}],"outputs":[{"name":"asker","type":"address","internalType":"address"},{"name":"content","type":"string","internalType":"string"},{"name":"reward","type":"uint256","internalType":"uint256"},{"name":"expiration_time","type":"uint256","internalType":"uint256"},{"name":"question_id","type":"uint256","internalType":"uint256"},{"name":"closed","type":"bool","internalType":"bool"}],"stateMutability":"view"},{"type":"function","name":"questions","inputs":[{"name":"","type":"uint256","internalType":"uint256"}],"outputs":[{"name":"asker","type":"address","internalType":"address"},{"name":"content","type":"string","internalType":"string"},{"name":"reward","type":"uint256","internalType":"uint256"},{"name":"expiration_time","type":"uint256","internalType":"uint256"},{"name":"question_id","type":"uint256","internalType":"uint256"},{"name":"closed","type":"bool","internalType":"bool"}],"stateMutability":"view"},{"type":"function","name":"registerUser","inputs":[{"name":"_username","type":"string","internalType":"string"}],"outputs":[],"stateMutability":"nonpayable"},{"type":"function","name":"selectAnswer","inputs":[{"name":"q_id","type":"uint256","internalType":"uint256"},{"name":"a_id","type":"uint256","internalType":"uint256"},{"name":"giveReward","type":"bool","internalType":"bool"}],"outputs":[],"stateMutability":"nonpayable"},{"type":"function","name":"userAddrMap","inputs":[{"name":"","type":"address","internalType":"address"}],"outputs":[{"name":"user_name","type":"string","internalType":"string"},{"name":"user_address","type":"address","internalType":"address"}],"stateMutability":"view"},{"type":"function","name":"userCount","inputs":[],"outputs":[{"name":"","type":"uint256","internalType":"uint256"}],"stateMutability":"view"},{"type":"function","name":"users","inputs":[{"name":"","type":"uint256","internalType":"uint256"}],"outputs":[{"name":"user_name","type":"string","internalType":"string"},{"name":"user_address","type":"address","internalType":"address"}],"stateMutability":"view"},{"type":"event","name":"AnswerCreated","inputs":[{"name":"q_id","type":"uint256","indexed":false,"internalType":"uint256"},{"name":"a_id","type":"uint256","indexed":false,"internalType":"uint256"},{"name":"content","type":"string","indexed":false,"internalType":"string"},{"name":"reward","type":"uint256","indexed":false,"internalType":"uint256"}],"anonymous":false},{"type":"event","name":"AnswerSelected","inputs":[{"name":"q_id","type":"uint256","indexed":false,"internalType":"uint256"},{"name":"a_id","type":"uint256","indexed":false,"internalType":"uint256"}],"anonymous":false},{"type":"event","name":"CheckExpiration","inputs":[{"name":"curr_ts","type":"uint256","indexed":false,"internalType":"uint256"},{"name":"expiration_time","type":"uint256","indexed":false,"internalType":"uint256"},{"name":"isClosedByPoster","type":"bool","indexed":false,"internalType":"bool"}],"anonymous":false},{"type":"event","name":"Endorse","inputs":[{"name":"a_id","type":"uint256","indexed":false,"internalType":"uint256"},{"name":"endorser","type":"address","indexed":false,"internalType":"address"},{"name":"q_id","type":"uint256","indexed":false,"internalType":"uint256"}],"anonymous":false},{"type":"event","name":"MoneyReceived","inputs":[{"name":"payer","type":"address","indexed":false,"internalType":"address"},{"name":"value","type":"uint256","indexed":false,"internalType":"uint256"}],"anonymous":false},{"type":"event","name":"QuestionClosed","inputs":[{"name":"q_id","type":"uint256","indexed":false,"internalType":"uint256"}],"anonymous":false},{"type":"event","name":"QuestionCreated","inputs":[{"name":"asker","type":"address","indexed":false,"internalType":"address"},{"name":"content","type":"string","indexed":false,"internalType":"string"},{"name":"reward","type":"uint256","indexed":false,"internalType":"uint256"},{"name":"expiration_time","type":"uint256","indexed":false,"internalType":"uint256"},{"name":"question_id","type":"uint256","indexed":false,"internalType":"uint256"},{"name":"closed","type":"bool","indexed":false,"internalType":"bool"},{"name":"answer_ids","type":"uint256[]","indexed":false,"internalType":"uint256[]"}],"anonymous":false},{"type":"event","name":"RewardDistributed","inputs":[{"name":"q_id","type":"uint256","indexed":false,"internalType":"uint256"},{"name":"a_ids","type":"uint256[]","indexed":false,"internalType":"uint256[]"},{"name":"receipients","type":"uint256[]","indexed":false,"internalType":"uint256[]"},{"name":"average_reward","type":"uint256","indexed":false,"internalType":"uint256"}],"anonymous":false},{"type":"event","name":"UserRegistered","inputs":[{"name":"username","type":"string","indexed":false,"internalType":"string"},{"name":"userAddress","type":"address","indexed":false,"internalType":"address"}],"anonymous":false}],"bytecode":{"object":"0x6080604052600060088190556009819055600a81905580546001600160a01b0319163317905534600b556135e2806100386000396000f3fe6080604052600436106101bb5760003560e01c806386ae5fec116100ec578063d756d4ab1161008a578063da62458a11610064578063da62458a14610558578063db88176f14610578578063e34d6805146105a7578063f061b5b1146105c757600080fd5b8063d756d4ab14610505578063d9548e5314610525578063d9cf2d6b1461054557600080fd5b80638e1ad7df116100c65780638e1ad7df14610468578063a0d0352614610495578063c09f32e8146104c5578063c921d66c146104e557600080fd5b806386ae5fec146103f05780638bb126a7146104105780638da5cb5b1461043057600080fd5b8063365b98b21161015957806360cd05411161013357806360cd05411461036d578063654793181461038d5780636de94083146103bd578063704f1b94146103d057600080fd5b8063365b98b2146102e657806341759a1414610314578063477348921461034557600080fd5b80631468aa2c116101955780631468aa2c1461024f5780631e59e02a146102655780631ea5a2921461029257806331b1b978146102b457600080fd5b806301c2a6fe146101df57806307973ccf146102155780630bed05021461023957600080fd5b366101da5734600b60008282546101d29190612ea5565b925050819055005b600080fd5b3480156101eb57600080fd5b506101ff6101fa366004612eb8565b6105e7565b60405161020c9190612f27565b60405180910390f35b34801561022157600080fd5b5061022b60095481565b60405190815260200161020c565b34801561024557600080fd5b5061022b600a5481565b34801561025b57600080fd5b5061022b60085481565b34801561027157600080fd5b50610285610280366004613018565b6107af565b60405161020c9190613031565b34801561029e57600080fd5b506102b26102ad366004613044565b61092b565b005b3480156102c057600080fd5b506102d46102cf366004613018565b610cdc565b60405161020c96959493929190613066565b3480156102f257600080fd5b50610306610301366004613018565b610dba565b60405161020c9291906130b1565b34801561032057600080fd5b5061033461032f366004613018565b610e7f565b60405161020c9594939291906130db565b34801561035157600080fd5b5061022b610360366004612eb8565b6001600160a01b03163190565b34801561037957600080fd5b506102b261038836600461311c565b610f45565b34801561039957600080fd5b506103ad6103a8366004613018565b611259565b604051901515815260200161020c565b61022b6103cb3660046131fd565b6113cc565b3480156103dc57600080fd5b506102b26103eb366004613251565b6117b1565b3480156103fc57600080fd5b5061022b61040b366004613018565b6119d1565b34801561041c57600080fd5b5061022b61042b366004613018565b611b53565b34801561043c57600080fd5b50600054610450906001600160a01b031681565b6040516001600160a01b03909116815260200161020c565b34801561047457600080fd5b50610488610483366004613018565b611cd3565b60405161020c919061328e565b3480156104a157600080fd5b506103ad6104b0366004612eb8565b60056020526000908152604090205460ff1681565b3480156104d157600080fd5b506102b26104e0366004613018565b61207e565b3480156104f157600080fd5b5061022b6105003660046132cf565b612212565b34801561051157600080fd5b5061022b610520366004613018565b6125f9565b34801561053157600080fd5b506103ad610540366004613018565b61276d565b34801561055157600080fd5b5033610450565b34801561056457600080fd5b50610285610573366004613018565b61294c565b34801561058457600080fd5b50610598610593366004613018565b6129f8565b60405161020c93929190613316565b3480156105b357600080fd5b506103066105c2366004612eb8565b612b8e565b3480156105d357600080fd5b506102d46105e2366004613018565b612ba9565b606080600060015b60085481116107a6576000818152600660205260409020546001600160a01b0380871691160361079457600081815260066020908152604091829020825160e0810190935280546001600160a01b0316835260018101805491928401916106559061333b565b80601f01602080910402602001604051908101604052809291908181526020018280546106819061333b565b80156106ce5780601f106106a3576101008083540402835291602001916106ce565b820191906000526020600020905b8154815290600101906020018083116106b157829003601f168201915b505050505081526020016002820154815260200160038201548152602001600482015481526020016005820160009054906101000a900460ff161515151581526020016006820180548060200260200160405190810160405280929190818152602001828054801561075f57602002820191906000526020600020905b81548152602001906001019080831161074b575b50505050508152505083838151811061077a5761077a613375565b602002602001018190525081806107909061338b565b9250505b8061079e8161338b565b9150506105ef565b50909392505050565b6060600a548211156107dc5760405162461bcd60e51b81526004016107d3906133a4565b60405180910390fd5b6000828152600760209081526040808320815160c08101835281546001600160a01b0316815260018201549381019390935260028101549183019190915260038101805460608401919061082f9061333b565b80601f016020809104026020016040519081016040528092919081815260200182805461085b9061333b565b80156108a85780601f1061087d576101008083540402835291602001916108a8565b820191906000526020600020905b81548152906001019060200180831161088b57829003601f168201915b5050509183525050600482015460ff161515602080830191909152600583018054604080518285028101850182528281529401939283018282801561091657602002820191906000526020600020905b81546001600160a01b031681526001909101906020018083116108f8575b50505091909252505050606001519392505050565b6109348161276d565b1561097b5760405162461bcd60e51b8152602060048201526017602482015276151a1a5cc81c5d595cdd1a5bdb881a5cc818db1bdcd959604a1b60448201526064016107d3565b3360009081526005602052604090205460ff166109ee5760405162461bcd60e51b815260206004820152602b60248201527f55736572206d757374206265207265676973746572656420746f20616464206560448201526a6e646f7273656d656e747360a81b60648201526084016107d3565b60008181526006602081905260409091200154610a4d5760405162461bcd60e51b815260206004820152601d60248201527f5468657265206973206e6f20616e7377657220746f20656e646f72736500000060448201526064016107d3565b600082815260076020526040902054336001600160a01b0390911603610ac05760405162461bcd60e51b815260206004820152602260248201527f596f752063616e6e6f7420656e646f72736520796f7572206f776e20616e737760448201526132b960f11b60648201526084016107d3565b600a54821115610ae25760405162461bcd60e51b81526004016107d3906133a4565b6000828152600760205260409020600201548114610b555760405162461bcd60e51b815260206004820152602a60248201527f54686520616e7377657220646f6573206e6f742062656c6f6e6720746f207468604482015269329038bab2b9ba34b7b760b11b60648201526084016107d3565b600082815260076020908152604080832060050180548251818502810185019093528083529192909190830182828015610bb857602002820191906000526020600020905b81546001600160a01b03168152600190910190602001808311610b9a575b505050505090506000805b8251811015610c0b57336001600160a01b0316838281518110610be857610be8613375565b60200260200101516001600160a01b031603610c0357600191505b600101610bc3565b508015610c665760405162461bcd60e51b815260206004820152602360248201527f557365722063616e6e6f7420656e646f72736520616e20616e7377657220747760448201526269636560e81b60648201526084016107d3565b604080518581523360208201529081018490527f266365a2aceb5ff9d23a2e846eb7b7339cd874d164131d977f6946cb1d0dfcf19060600160405180910390a150505060009081526007602090815260408220600501805460018101825590835291200180546001600160a01b03191633179055565b60038181548110610cec57600080fd5b6000918252602090912060079091020180546001820180546001600160a01b03909216935090610d1b9061333b565b80601f0160208091040260200160405190810160405280929190818152602001828054610d479061333b565b8015610d945780601f10610d6957610100808354040283529160200191610d94565b820191906000526020600020905b815481529060010190602001808311610d7757829003601f168201915b505050506002830154600384015460048501546005909501549394919390925060ff1686565b60018181548110610dca57600080fd5b9060005260206000209060020201600091509050806000018054610ded9061333b565b80601f0160208091040260200160405190810160405280929190818152602001828054610e199061333b565b8015610e665780601f10610e3b57610100808354040283529160200191610e66565b820191906000526020600020905b815481529060010190602001808311610e4957829003601f168201915b505050600190930154919250506001600160a01b031682565b60076020526000908152604090208054600182015460028301546003840180546001600160a01b03909416949293919291610eb99061333b565b80601f0160208091040260200160405190810160405280929190818152602001828054610ee59061333b565b8015610f325780601f10610f0757610100808354040283529160200191610f32565b820191906000526020600020905b815481529060010190602001808311610f1557829003601f168201915b5050506004909301549192505060ff1685565b3360009081526005602052604090205460ff16610fb85760405162461bcd60e51b815260206004820152602b60248201527f55736572206d757374206265207265676973746572656420746f2073656c656360448201526a3a1030b71030b739bbb2b960a91b60648201526084016107d3565b6000838152600660205260409020546001600160a01b031633146110305760405162461bcd60e51b815260206004820152602960248201527f4f6e6c79207468652061736b65722063616e2073656c6563742074686520626560448201526839ba1030b739bbb2b960b91b60648201526084016107d3565b60008381526006602052604090206005015460ff16156110625760405162461bcd60e51b81526004016107d3906133db565b60008281526007602052604090206002015483146110d65760405162461bcd60e51b815260206004820152602b60248201527f54686520616e7377657220646f6573206e6f742062656c6f6e6720746f20746860448201526a34b99038bab2b9ba34b7b760a91b60648201526084016107d3565b60008381526006602081815260408084209092018054835181840281018401909452808452909183018282801561112c57602002820191906000526020600020905b815481526020019060010190808311611118575b5050505050905060005b81518110156111d4576007600083838151811061115557611155613375565b60209081029190910181015182528101919091526040016000206004015460ff1615156001036111cc5760006007600084848151811061119757611197613375565b6020026020010151815260200190815260200160002060040160006101000a81548160ff0219169083151502179055506111d4565b600101611136565b506000838152600760205260409020600401805460ff19166001179055811561121a5760008381526007602052604090205461121a9085906001600160a01b0316612bd5565b60408051858152602081018590527fcce2e26b4c2c9bdecbd753012d7f595a50f3fe6263dc2090e6432f7cc9c5b8bc910160405180910390a150505050565b6000600a5482111561127d5760405162461bcd60e51b81526004016107d3906133a4565b6000828152600760209081526040808320815160c08101835281546001600160a01b031681526001820154938101939093526002810154918301919091526003810180546060840191906112d09061333b565b80601f01602080910402602001604051908101604052809291908181526020018280546112fc9061333b565b80156113495780601f1061131e57610100808354040283529160200191611349565b820191906000526020600020905b81548152906001019060200180831161132c57829003601f168201915b5050509183525050600482015460ff16151560208083019190915260058301805460408051828502810185018252828152940193928301828280156113b757602002820191906000526020600020905b81546001600160a01b03168152600190910190602001808311611399575b50505091909252505050608001519392505050565b3360009081526005602052604081205460ff1661143d5760405162461bcd60e51b815260206004820152602960248201527f55736572206d757374206265207265676973746572656420746f2061736b20616044820152681038bab2b9ba34b7b760b91b60648201526084016107d3565b6000341161148d5760405162461bcd60e51b815260206004820152601d60248201527f526577617264206d7573742062652067726561746572207468616e203000000060448201526064016107d3565b60008551116114de5760405162461bcd60e51b815260206004820181905260248201527f5175657374696f6e20636f6e74656e742063616e6e6f7420626520656d70747960448201526064016107d3565b60006114eb83603c61341f565b6114f785610e1061341f565b611504876201518061341f565b61150e9190612ea5565b6115189190612ea5565b9050620151808110156115805760405162461bcd60e51b815260206004820152602a60248201527f45787069726174696f6e2074696d65206d7573742062652067726561746572206044820152697468616e20312064617960b01b60648201526084016107d3565b60006008600081546115919061338b565b919050819055905060006040518060e00160405280336001600160a01b0316815260200189815260200134815260200184426115cd9190612ea5565b8152602080820185905260006040808401829052805182815280840190915260609093019290925260038054600181018255925282517fc2575a0e9e593c00f959f8c92f12db2869c3395a3b0502d05e2516446f71f85b600790930292830180546001600160a01b0319166001600160a01b0390921691909117815590830151929350839290917fc2575a0e9e593c00f959f8c92f12db2869c3395a3b0502d05e2516446f71f85c01906116819082613487565b5060408201516002820155606082015160038201556080820151600482015560a082015160058201805460ff191691151591909117905560c082015180516116d3916006840191602090910190612dda565b5050506000828152600660209081526040909120825181546001600160a01b0319166001600160a01b039091161781559082015182919060018201906117199082613487565b5060408201516002820155606082015160038201556080820151600482015560a082015160058201805460ff191691151591909117905560c0820151805161176b916006840191602090910190612dda565b5050604080513381523460208201527f27b15ed4cf832749ed39f33a64e4707ed60a761485e41ffec7343ecaddc0c02a92500160405180910390a1509695505050505050565b60008151116118025760405162461bcd60e51b815260206004820152601860248201527f557365726e616d652063616e6e6f7420626520656d707479000000000000000060448201526064016107d3565b3360009081526005602052604090205460ff16156118625760405162461bcd60e51b815260206004820152601a60248201527f4164647265737320616c7265616479207265676973746572656400000000000060448201526064016107d3565b60408051808201909152818152336020820152600180548082018255600091909152815182916002027fb10e2d527612073b26eecdfd717e6a320cf44b4afac2b0732d9fcbe2b7fa0cf6019081906118ba9082613487565b5060209182015160019190910180546001600160a01b0319166001600160a01b03909216919091179055336000908152600490915260409020815182919081906119049082613487565b5060209190910151600191820180546001600160a01b0319166001600160a01b039092169190911790556002805491820181556000527f405787fa12a823e0f2b7631cc41b3ba8828b3321ca811111fa75cd3aa3bb5ace016119668382613487565b50336000908152600560205260408120805460ff19166001179055600980549161198f8361338b565b91905055507f7f605d0ff47d2a070e456b69ce2a36041788910b64443c7f4c6d307993cade2c82336040516119c59291906130b1565b60405180910390a15050565b60006008548211156119f55760405162461bcd60e51b81526004016107d390613547565b6000828152600660209081526040808320815160e0810190925280546001600160a01b031682526001810180549293919291840191611a339061333b565b80601f0160208091040260200160405190810160405280929190818152602001828054611a5f9061333b565b8015611aac5780601f10611a8157610100808354040283529160200191611aac565b820191906000526020600020905b815481529060010190602001808311611a8f57829003601f168201915b505050505081526020016002820154815260200160038201548152602001600482015481526020016005820160009054906101000a900460ff1615151515815260200160068201805480602002602001604051908101604052809291908181526020018280548015611b3d57602002820191906000526020600020905b815481526020019060010190808311611b29575b5050509190925250505060c00151519392505050565b6000600854821115611b775760405162461bcd60e51b81526004016107d390613547565b6000828152600660209081526040808320815160e0810190925280546001600160a01b031682526001810180549293919291840191611bb59061333b565b80601f0160208091040260200160405190810160405280929190818152602001828054611be19061333b565b8015611c2e5780601f10611c0357610100808354040283529160200191611c2e565b820191906000526020600020905b815481529060010190602001808311611c1157829003601f168201915b505050505081526020016002820154815260200160038201548152602001600482015481526020016005820160009054906101000a900460ff161515151581526020016006820180548060200260200160405190810160405280929190818152602001828054801561091657602002820191906000526020600020905b815481526020019060010190808311611cab5750505091909252505050606001519392505050565b3360009081526005602052604090205460609060ff16611d4a5760405162461bcd60e51b815260206004820152602c60248201527f55736572206d757374206265207265676973746572656420746f20636865636b60448201526b08195b991bdc9cd95b595b9d60a21b60648201526084016107d3565b60008281526006602052604090206005015460ff16611dab5760405162461bcd60e51b815260206004820181905260248201527f546865207175657374696f6e20686173206e6f74206265656e20636c6f73656460448201526064016107d3565b6000828152600660205260409020546001600160a01b03163314611e225760405162461bcd60e51b815260206004820152602860248201527f4f6e6c79207468652061736b65722063616e20636865636b2074686520656e646044820152671bdc9cd95b595b9d60c21b60648201526084016107d3565b600082815260066020818152604080842090920180548351818402810184019094528084529091830182828015611e7857602002820191906000526020600020905b815481526020019060010190808311611e64575b505050505090506000805b8251811015611f04578160076000858481518110611ea357611ea3613375565b60200260200101518152602001908152602001600020600501805490501115611efc5760076000848381518110611edc57611edc613375565b602002602001015181526020019081526020016000206005018054905091505b600101611e83565b506000805b8351811015611f61578260076000868481518110611f2957611f29613375565b602002602001015181526020019081526020016000206005018054905003611f595781611f558161338b565b9250505b600101611f09565b5060008167ffffffffffffffff811115611f7d57611f7d61315a565b604051908082528060200260200182016040528015611fa6578160200160208202803683370190505b5090506000805b8551811015612072578460076000888481518110611fcd57611fcd613375565b60200260200101518152602001908152602001600020600501805490500361206a576007600087838151811061200557612005613375565b6020026020010151815260200190815260200160002060000160009054906101000a90046001600160a01b031683838151811061204457612044613375565b6001600160a01b0390921660209283029190910190910152816120668161338b565b9250505b600101611fad565b50909695505050505050565b3360009081526005602052604090205460ff166120f15760405162461bcd60e51b815260206004820152602b60248201527f55736572206d757374206265207265676973746572656420746f20636c6f736560448201526a10309038bab2b9ba34b7b760a91b60648201526084016107d3565b6000818152600660205260409020546001600160a01b031633146121655760405162461bcd60e51b815260206004820152602560248201527f4f6e6c79207468652061736b65722063616e20636c6f7365207468652071756560448201526439ba34b7b760d91b60648201526084016107d3565b60008181526006602052604090206005015460ff16156121975760405162461bcd60e51b81526004016107d3906133db565b6008548111156121b95760405162461bcd60e51b81526004016107d390613547565b60008181526006602052604090819020600501805460ff19166001179055517f3c8f450bdfccd4e29a4d8e9602688d5e009772a7de7c40c7f27b8f8c129f01fa906122079083815260200190565b60405180910390a150565b600061221d8361276d565b156122645760405162461bcd60e51b8152602060048201526017602482015276151a1a5cc81c5d595cdd1a5bdb881a5cc818db1bdcd959604a1b60448201526064016107d3565b3360009081526005602052604090205460ff166122d85760405162461bcd60e51b815260206004820152602c60248201527f55736572206d757374206265207265676973746572656420746f20616e73776560448201526b3910309038bab2b9ba34b7b760a11b60648201526084016107d3565b60008251116123295760405162461bcd60e51b815260206004820152601e60248201527f416e7377657220636f6e74656e742063616e6e6f7420626520656d707479000060448201526064016107d3565b600083815260066020526040902054336001600160a01b039091160361239d5760405162461bcd60e51b8152602060048201526024808201527f596f752063616e6e6f7420616e7377657220796f7572206f776e207175657374604482015263696f6e2160e01b60648201526084016107d3565b6008548311156123bf5760405162461bcd60e51b81526004016107d390613547565b60005b600084815260066020819052604090912001548110156124925760008481526006602081905260408220018054339260079290918590811061240657612406613375565b600091825260208083209091015483528201929092526040019020546001600160a01b03160361248a5760405162461bcd60e51b815260206004820152602960248201527f596f752063616e6e6f7420616e73776572207468652073616d65207175657374604482015268696f6e20747769636560b81b60648201526084016107d3565b6001016123c2565b5060606000600a600081546124a69061338b565b91829055506040805160c08101825233815260208082018481528284018a8152606084018a815260006080860181905260a086018a9052878152600790945294909220835181546001600160a01b0319166001600160a01b039091161781559051600182015590516002820155915192935091829190600382019061252b9082613487565b50608082015160048201805460ff191691151591909117905560a0820151805161255f916005840191602090910190612e25565b505050600086815260066020818152604083209091018054600181018255818452918320909101849055908790525460320361259e5761259e8661207e565b600086815260066020526040908190206002015490517f6664f2452a9c851a9ecdf8e98ff206e97b1ab656fddb6f741e06c4d085ed2b13916125e691899186918a919061357c565b60405180910390a1509150505b92915050565b6000600a5482111561261d5760405162461bcd60e51b81526004016107d3906133a4565b6000828152600760209081526040808320815160c08101835281546001600160a01b031681526001820154938101939093526002810154918301919091526003810180546060840191906126709061333b565b80601f016020809104026020016040519081016040528092919081815260200182805461269c9061333b565b80156126e95780601f106126be576101008083540402835291602001916126e9565b820191906000526020600020905b8154815290600101906020018083116126cc57829003601f168201915b5050509183525050600482015460ff161515602080830191909152600583018054604080518285028101850182528281529401939283018282801561275757602002820191906000526020600020905b81546001600160a01b03168152600190910190602001808311612739575b5050509190925250505060a00151519392505050565b60006008548211156127915760405162461bcd60e51b81526004016107d390613547565b6000828152600660209081526040808320815160e0810190925280546001600160a01b0316825260018101805492939192918401916127cf9061333b565b80601f01602080910402602001604051908101604052809291908181526020018280546127fb9061333b565b80156128485780601f1061281d57610100808354040283529160200191612848565b820191906000526020600020905b81548152906001019060200180831161282b57829003601f168201915b505050505081526020016002820154815260200160038201548152602001600482015481526020016005820160009054906101000a900460ff16151515158152602001600682018054806020026020016040519081016040528092919081815260200182805480156128d957602002820191906000526020600020905b8154815260200190600101908083116128c5575b5050509190925250505060608082015160a0830151604080514281526020810193909352901515908201529192507f60adfe6ba78d84b1b3239bd231790b16a44016f9fe8d1a897dc977e9248a97e9910160405180910390a1806060015142118061294557508060a001515b9392505050565b6002818154811061295c57600080fd5b9060005260206000200160009150905080546129779061333b565b80601f01602080910402602001604051908101604052809291908181526020018280546129a39061333b565b80156129f05780601f106129c5576101008083540402835291602001916129f0565b820191906000526020600020905b8154815290600101906020018083116129d357829003601f168201915b505050505081565b6060600080600854841115612a1f5760405162461bcd60e51b81526004016107d390613547565b6000848152600660209081526040808320815160e0810190925280546001600160a01b031682526001810180549293919291840191612a5d9061333b565b80601f0160208091040260200160405190810160405280929190818152602001828054612a899061333b565b8015612ad65780601f10612aab57610100808354040283529160200191612ad6565b820191906000526020600020905b815481529060010190602001808311612ab957829003601f168201915b505050505081526020016002820154815260200160038201548152602001600482015481526020016005820160009054906101000a900460ff1615151515815260200160068201805480602002602001604051908101604052809291908181526020018280548015612b6757602002820191906000526020600020905b815481526020019060010190808311612b53575b50505091909252505050602081015160408201516060909201519097919650945092505050565b600460205260009081526040902080548190610ded9061333b565b600660205260009081526040902080546001820180546001600160a01b039092169291610d1b9061333b565b3360009081526005602052604090205460ff16612c495760405162461bcd60e51b815260206004820152602c60248201527f55736572206d757374206265207265676973746572656420746f20646973747260448201526b1a589d5d19481c995dd85c9960a21b60648201526084016107d3565b60008281526006602052604090206005015460ff16612caa5760405162461bcd60e51b815260206004820181905260248201527f546865207175657374696f6e20686173206e6f74206265656e20636c6f73656460448201526064016107d3565b6000828152600660205260409020546001600160a01b03163314612d215760405162461bcd60e51b815260206004820152602860248201527f4f6e6c79207468652061736b65722063616e206469737472696275746520746860448201526719481c995dd85c9960c21b60648201526084016107d3565b6000828152600660205260408082206002015490519091906001600160a01b0384169083908381818185875af1925050503d8060008114612d7e576040519150601f19603f3d011682016040523d82523d6000602084013e612d83565b606091505b5050905080612dd45760405162461bcd60e51b815260206004820152601e60248201527f4661696c656420746f207472616e7366657220746865207265776172642e000060448201526064016107d3565b50505050565b828054828255906000526020600020908101928215612e15579160200282015b82811115612e15578251825591602001919060010190612dfa565b50612e21929150612e7a565b5090565b828054828255906000526020600020908101928215612e15579160200282015b82811115612e1557825182546001600160a01b0319166001600160a01b03909116178255602090920191600190910190612e45565b5b80821115612e215760008155600101612e7b565b634e487b7160e01b600052601160045260246000fd5b808201808211156125f3576125f3612e8f565b600060208284031215612eca57600080fd5b81356001600160a01b038116811461294557600080fd5b6000815180845260005b81811015612f0757602081850181015186830182015201612eeb565b506000602082860101526020601f19601f83011685010191505092915050565b600060208083018184528085518083526040925060408601915060408160051b8701018488016000805b8481101561300957898403603f19018652825180516001600160a01b031685528881015160e08a870181905290612f8a82880182612ee1565b838b0151888c0152606080850151908901526080808501519089015260a08085015115159089015260c093840151888203948901949094528351808252938c0193869350908c0191505b80831015612ff45783518252928b019260019290920191908b0190612fd4565b50978a01979550505091870191600101612f51565b50919998505050505050505050565b60006020828403121561302a57600080fd5b5035919050565b6020815260006129456020830184612ee1565b6000806040838503121561305757600080fd5b50508035926020909101359150565b6001600160a01b038716815260c06020820181905260009061308a90830188612ee1565b905085604083015284606083015283608083015282151560a0830152979650505050505050565b6040815260006130c46040830185612ee1565b905060018060a01b03831660208301529392505050565b60018060a01b038616815284602082015283604082015260a06060820152600061310860a0830185612ee1565b905082151560808301529695505050505050565b60008060006060848603121561313157600080fd5b83359250602084013591506040840135801515811461314f57600080fd5b809150509250925092565b634e487b7160e01b600052604160045260246000fd5b600082601f83011261318157600080fd5b813567ffffffffffffffff8082111561319c5761319c61315a565b604051601f8301601f19908116603f011681019082821181831017156131c4576131c461315a565b816040528381528660208588010111156131dd57600080fd5b836020870160208301376000602085830101528094505050505092915050565b6000806000806080858703121561321357600080fd5b843567ffffffffffffffff81111561322a57600080fd5b61323687828801613170565b97602087013597506040870135966060013595509350505050565b60006020828403121561326357600080fd5b813567ffffffffffffffff81111561327a57600080fd5b61328684828501613170565b949350505050565b6020808252825182820181905260009190848201906040850190845b818110156120725783516001600160a01b0316835292840192918401916001016132aa565b600080604083850312156132e257600080fd5b82359150602083013567ffffffffffffffff81111561330057600080fd5b61330c85828601613170565b9150509250929050565b6060815260006133296060830186612ee1565b60208301949094525060400152919050565b600181811c9082168061334f57607f821691505b60208210810361336f57634e487b7160e01b600052602260045260246000fd5b50919050565b634e487b7160e01b600052603260045260246000fd5b60006001820161339d5761339d612e8f565b5060010190565b6020808252601e908201527f54686520696e70757420616e7377657220696420697320696e76616c69640000604082015260600190565b60208082526024908201527f546865207175657374696f6e2068617320616c7265616479206265656e20636c6040820152631bdcd95960e21b606082015260800190565b80820281158282048414176125f3576125f3612e8f565b601f821115613482576000816000526020600020601f850160051c8101602086101561345f5750805b601f850160051c820191505b8181101561347e5782815560010161346b565b5050505b505050565b815167ffffffffffffffff8111156134a1576134a161315a565b6134b5816134af845461333b565b84613436565b602080601f8311600181146134ea57600084156134d25750858301515b600019600386901b1c1916600185901b17855561347e565b600085815260208120601f198616915b82811015613519578886015182559484019460019091019084016134fa565b50858210156135375787850151600019600388901b60f8161c191681555b5050505050600190811b01905550565b6020808252818101527f54686520696e707574207175657374696f6e20696420697320696e76616c6964604082015260600190565b84815283602082015260806040820152600061359b6080830185612ee1565b90508260608301529594505050505056fea264697066735822122005ea8d2b8e007a8033ec30cae7e01a7d84786076da952636e39bb1a08852525f64736f6c63430008190033","linkReferences":{}},"methodIdentifiers":{"accountNames(uint256)":"da62458a","answerCount()":"0bed0502","answerMap(uint256)":"41759a14","askQuestion(string,uint256,uint256,uint256)":"6de94083","checkEndorsement(uint256)":"8e1ad7df","closeQuestion(uint256)":"c09f32e8","endorse(uint256,uint256)":"1ea5a292","getAnswers(uint256)":"1e59e02a","getDuration(uint256)":"8bb126a7","getNumOfEndorse(uint256)":"d756d4ab","getParticipantAddr()":"d9cf2d6b","getParticipantCount(uint256)":"86ae5fec","getQuestion(uint256)":"db88176f","getUserBalance(address)":"47734892","getUserQuestions(address)":"01c2a6fe","hasRegistered(address)":"a0d03526","isAnswerSelected(uint256)":"65479318","isExpired(uint256)":"d9548e53","owner()":"8da5cb5b","postAnswer(uint256,string)":"c921d66c","questionCount()":"1468aa2c","questionMap(uint256)":"f061b5b1","questions(uint256)":"31b1b978","registerUser(string)":"704f1b94","selectAnswer(uint256,uint256,bool)":"60cd0541","userAddrMap(address)":"e34d6805","userCount()":"07973ccf","users(uint256)":"365b98b2"},"id":23}