{"abi":[{"type":"constructor","inputs":[],"stateMutability":"payable"},{"type":"receive","stateMutability":"payable"},{"type":"function","name":"accountNames","inputs":[{"name":"","type":"uint256","internalType":"uint256"}],"outputs":[{"name":"","type":"string","internalType":"string"}],"stateMutability":"view"},{"type":"function","name":"answerCount","inputs":[],"outputs":[{"name":"","type":"uint256","internalType":"uint256"}],"stateMutability":"view"},{"type":"function","name":"answerMap","inputs":[{"name":"","type":"uint256","internalType":"uint256"}],"outputs":[{"name":"answerer","type":"address","internalType":"address"},{"name":"answer_id","type":"uint256","internalType":"uint256"},{"name":"question_id","type":"uint256","internalType":"uint256"},{"name":"content","type":"string","internalType":"string"},{"name":"isSelected","type":"bool","internalType":"bool"}],"stateMutability":"view"},{"type":"function","name":"askQuestion","inputs":[{"name":"_content","type":"string","internalType":"string"},{"name":"_day","type":"uint256","internalType":"uint256"},{"name":"_hour","type":"uint256","internalType":"uint256"},{"name":"_min","type":"uint256","internalType":"uint256"}],"outputs":[{"name":"","type":"uint256","internalType":"uint256"}],"stateMutability":"payable"},{"type":"function","name":"calculate_credit","inputs":[{"name":"userAddress","type":"address","internalType":"address"}],"outputs":[{"name":"","type":"uint256","internalType":"uint256"}],"stateMutability":"nonpayable"},{"type":"function","name":"cancelSelection","inputs":[{"name":"q_id","type":"uint256","internalType":"uint256"}],"outputs":[],"stateMutability":"nonpayable"},{"type":"function","name":"checkEndorsement","inputs":[{"name":"q_id","type":"uint256","internalType":"uint256"}],"outputs":[{"name":"","type":"address[]","internalType":"address[]"}],"stateMutability":"view"},{"type":"function","name":"closeQuestion","inputs":[{"name":"q_id","type":"uint256","internalType":"uint256"}],"outputs":[],"stateMutability":"nonpayable"},{"type":"function","name":"endorse","inputs":[{"name":"answer_id","type":"uint256","internalType":"uint256"},{"name":"question_id","type":"uint256","internalType":"uint256"}],"outputs":[],"stateMutability":"nonpayable"},{"type":"function","name":"getAnswers","inputs":[{"name":"a_id","type":"uint256","internalType":"uint256"}],"outputs":[{"name":"","type":"string","internalType":"string"}],"stateMutability":"view"},{"type":"function","name":"getDuration","inputs":[{"name":"q_id","type":"uint256","internalType":"uint256"}],"outputs":[{"name":"","type":"uint256","internalType":"uint256"}],"stateMutability":"view"},{"type":"function","name":"getMyCredit","inputs":[],"outputs":[{"name":"","type":"uint256","internalType":"uint256"}],"stateMutability":"view"},{"type":"function","name":"getNumOfEndorse","inputs":[{"name":"a_id","type":"uint256","internalType":"uint256"}],"outputs":[{"name":"","type":"uint256","internalType":"uint256"}],"stateMutability":"view"},{"type":"function","name":"getParticipantAddr","inputs":[],"outputs":[{"name":"","type":"address","internalType":"address"}],"stateMutability":"view"},{"type":"function","name":"getParticipantCount","inputs":[{"name":"q_id","type":"uint256","internalType":"uint256"}],"outputs":[{"name":"","type":"uint256","internalType":"uint256"}],"stateMutability":"view"},{"type":"function","name":"getQuestion","inputs":[{"name":"q_id","type":"uint256","internalType":"uint256"}],"outputs":[{"name":"","type":"string","internalType":"string"},{"name":"","type":"uint256","internalType":"uint256"},{"name":"","type":"uint256","internalType":"uint256"}],"stateMutability":"view"},{"type":"function","name":"getUserQuestions","inputs":[{"name":"addr","type":"address","internalType":"address"}],"outputs":[{"name":"","type":"tuple[]","internalType":"struct SmartQA.Question[]","components":[{"name":"asker","type":"address","internalType":"address"},{"name":"content","type":"string","internalType":"string"},{"name":"reward","type":"uint256","internalType":"uint256"},{"name":"expiration_time","type":"uint256","internalType":"uint256"},{"name":"question_id","type":"uint256","internalType":"uint256"},{"name":"selected","type":"bool","internalType":"bool"},{"name":"closed","type":"bool","internalType":"bool"},{"name":"distributed","type":"bool","internalType":"bool"},{"name":"answer_ids","type":"uint256[]","internalType":"uint256[]"}]}],"stateMutability":"view"},{"type":"function","name":"hasRegistered","inputs":[{"name":"","type":"address","internalType":"address"}],"outputs":[{"name":"","type":"bool","internalType":"bool"}],"stateMutability":"view"},{"type":"function","name":"isAnswerSelected","inputs":[{"name":"a_id","type":"uint256","internalType":"uint256"}],"outputs":[{"name":"","type":"bool","internalType":"bool"}],"stateMutability":"view"},{"type":"function","name":"isExpired","inputs":[{"name":"q_id","type":"uint256","internalType":"uint256"}],"outputs":[{"name":"","type":"bool","internalType":"bool"}],"stateMutability":"nonpayable"},{"type":"function","name":"owner","inputs":[],"outputs":[{"name":"","type":"address","internalType":"address"}],"stateMutability":"view"},{"type":"function","name":"postAnswer","inputs":[{"name":"question_id","type":"uint256","internalType":"uint256"},{"name":"content","type":"string","internalType":"string"}],"outputs":[{"name":"","type":"uint256","internalType":"uint256"}],"stateMutability":"nonpayable"},{"type":"function","name":"questionCount","inputs":[],"outputs":[{"name":"","type":"uint256","internalType":"uint256"}],"stateMutability":"view"},{"type":"function","name":"questionMap","inputs":[{"name":"","type":"uint256","internalType":"uint256"}],"outputs":[{"name":"asker","type":"address","internalType":"address"},{"name":"content","type":"string","internalType":"string"},{"name":"reward","type":"uint256","internalType":"uint256"},{"name":"expiration_time","type":"uint256","internalType":"uint256"},{"name":"question_id","type":"uint256","internalType":"uint256"},{"name":"selected","type":"bool","internalType":"bool"},{"name":"closed","type":"bool","internalType":"bool"},{"name":"distributed","type":"bool","internalType":"bool"}],"stateMutability":"view"},{"type":"function","name":"questions","inputs":[{"name":"","type":"uint256","internalType":"uint256"}],"outputs":[{"name":"asker","type":"address","internalType":"address"},{"name":"content","type":"string","internalType":"string"},{"name":"reward","type":"uint256","internalType":"uint256"},{"name":"expiration_time","type":"uint256","internalType":"uint256"},{"name":"question_id","type":"uint256","internalType":"uint256"},{"name":"selected","type":"bool","internalType":"bool"},{"name":"closed","type":"bool","internalType":"bool"},{"name":"distributed","type":"bool","internalType":"bool"}],"stateMutability":"view"},{"type":"function","name":"registerUser","inputs":[{"name":"_username","type":"string","internalType":"string"}],"outputs":[],"stateMutability":"nonpayable"},{"type":"function","name":"rewardDistribute","inputs":[{"name":"question_id","type":"uint256","internalType":"uint256"},{"name":"giveReward","type":"bool","internalType":"bool"}],"outputs":[],"stateMutability":"payable"},{"type":"function","name":"rewardRecordsMap","inputs":[{"name":"","type":"address","internalType":"address"}],"outputs":[{"name":"","type":"address","internalType":"contract Queue"}],"stateMutability":"view"},{"type":"function","name":"selectAnswer","inputs":[{"name":"q_id","type":"uint256","internalType":"uint256"},{"name":"a_id","type":"uint256","internalType":"uint256"}],"outputs":[],"stateMutability":"nonpayable"},{"type":"function","name":"sqrt","inputs":[{"name":"x","type":"uint256","internalType":"uint256"}],"outputs":[{"name":"y","type":"uint256","internalType":"uint256"}],"stateMutability":"pure"},{"type":"function","name":"userAddrMap","inputs":[{"name":"","type":"address","internalType":"address"}],"outputs":[{"name":"user_name","type":"string","internalType":"string"},{"name":"user_address","type":"address","internalType":"address"},{"name":"credit","type":"uint256","internalType":"uint256"}],"stateMutability":"view"},{"type":"function","name":"userCount","inputs":[],"outputs":[{"name":"","type":"uint256","internalType":"uint256"}],"stateMutability":"view"},{"type":"function","name":"users","inputs":[{"name":"","type":"uint256","internalType":"uint256"}],"outputs":[{"name":"user_name","type":"string","internalType":"string"},{"name":"user_address","type":"address","internalType":"address"},{"name":"credit","type":"uint256","internalType":"uint256"}],"stateMutability":"view"},{"type":"event","name":"AnswerCreated","inputs":[{"name":"q_id","type":"uint256","indexed":false,"internalType":"uint256"},{"name":"a_id","type":"uint256","indexed":false,"internalType":"uint256"},{"name":"content","type":"string","indexed":false,"internalType":"string"},{"name":"reward","type":"uint256","indexed":false,"internalType":"uint256"}],"anonymous":false},{"type":"event","name":"AnswerSelected","inputs":[{"name":"q_id","type":"uint256","indexed":false,"internalType":"uint256"},{"name":"a_id","type":"uint256","indexed":false,"internalType":"uint256"}],"anonymous":false},{"type":"event","name":"CancelSelection","inputs":[{"name":"q_id","type":"uint256","indexed":false,"internalType":"uint256"}],"anonymous":false},{"type":"event","name":"CheckExpiration","inputs":[{"name":"curr_ts","type":"uint256","indexed":false,"internalType":"uint256"},{"name":"expiration_time","type":"uint256","indexed":false,"internalType":"uint256"},{"name":"isClosedByPoster","type":"bool","indexed":false,"internalType":"bool"}],"anonymous":false},{"type":"event","name":"Endorse","inputs":[{"name":"a_id","type":"uint256","indexed":false,"internalType":"uint256"},{"name":"endorser","type":"address","indexed":false,"internalType":"address"},{"name":"q_id","type":"uint256","indexed":false,"internalType":"uint256"}],"anonymous":false},{"type":"event","name":"MoneyReceived","inputs":[{"name":"payer","type":"address","indexed":false,"internalType":"address"},{"name":"value","type":"uint256","indexed":false,"internalType":"uint256"}],"anonymous":false},{"type":"event","name":"QuestionClosed","inputs":[{"name":"q_id","type":"uint256","indexed":false,"internalType":"uint256"}],"anonymous":false},{"type":"event","name":"QuestionCreated","inputs":[{"name":"asker","type":"address","indexed":false,"internalType":"address"},{"name":"content","type":"string","indexed":false,"internalType":"string"},{"name":"reward","type":"uint256","indexed":false,"internalType":"uint256"},{"name":"expiration_time","type":"uint256","indexed":false,"internalType":"uint256"},{"name":"question_id","type":"uint256","indexed":false,"internalType":"uint256"},{"name":"closed","type":"bool","indexed":false,"internalType":"bool"},{"name":"answer_ids","type":"uint256[]","indexed":false,"internalType":"uint256[]"}],"anonymous":false},{"type":"event","name":"RewardDistributed","inputs":[{"name":"q_id","type":"uint256","indexed":false,"internalType":"uint256"},{"name":"recipients","type":"address[]","indexed":false,"internalType":"address[]"}],"anonymous":false},{"type":"event","name":"UserCreditUpdate","inputs":[{"name":"user_addr","type":"address","indexed":false,"internalType":"address"},{"name":"prev_credit","type":"uint256","indexed":false,"internalType":"uint256"},{"name":"new_credit","type":"uint256","indexed":false,"internalType":"uint256"}],"anonymous":false},{"type":"event","name":"UserRegistered","inputs":[{"name":"username","type":"string","indexed":false,"internalType":"string"},{"name":"userAddress","type":"address","indexed":false,"internalType":"address"},{"name":"default_credit","type":"uint256","indexed":false,"internalType":"uint256"}],"anonymous":false}],"bytecode":{"object":"0x608060405260006009819055600a819055600b81905580546001600160a01b0319163317905534600c55614913806100386000396000f3fe6080604052600436106101f25760003560e01c8063704f1b941161010d578063c2782845116100a0578063d9cf2d6b1161006f578063d9cf2d6b14610615578063da62458a14610628578063db88176f14610648578063e34d680514610677578063f061b5b11461069757600080fd5b8063c278284514610595578063c921d66c146105b5578063d756d4ab146105d5578063d9548e53146105f557600080fd5b80638e1ad7df116100dc5780638e1ad7df146104f8578063a0d0352614610525578063ab10d99814610555578063c09f32e81461057557600080fd5b8063704f1b941461047857806386ae5fec146104985780638bb126a7146104b85780638da5cb5b146104d857600080fd5b806331b1b9781161018557806341759a141161015457806341759a14146103e45780636547931814610415578063677342ce146104455780636de940831461046557600080fd5b806331b1b9781461034c578063365b98b2146103805780633d9c4893146103af5780633ead0e96146103cf57600080fd5b80631468aa2c116101c15780631468aa2c146102d45780631e59e02a146102ea5780631ea5a292146103175780632ac45a131461033957600080fd5b806301c2a6fe1461021657806307973ccf1461024c5780630bed05021461027057806313fc8c341461028657600080fd5b366102115734600c60008282546102099190613e91565b925050819055005b600080fd5b34801561022257600080fd5b50610236610231366004613ea4565b6106b7565b6040516102439190613f4f565b60405180910390f35b34801561025857600080fd5b50610262600a5481565b604051908152602001610243565b34801561027c57600080fd5b50610262600b5481565b34801561029257600080fd5b506102bc6102a1366004613ea4565b6008602052600090815260409020546001600160a01b031681565b6040516001600160a01b039091168152602001610243565b3480156102e057600080fd5b5061026260095481565b3480156102f657600080fd5b5061030a610305366004614031565b61089a565b604051610243919061404a565b34801561032357600080fd5b5061033761033236600461405d565b610a16565b005b61033761034736600461407f565b610df4565b34801561035857600080fd5b5061036c610367366004614031565b6112b3565b6040516102439897969594939291906140b4565b34801561038c57600080fd5b506103a061039b366004614031565b6113a4565b60405161024393929190614110565b3480156103bb57600080fd5b506103376103ca36600461405d565b611470565b3480156103db57600080fd5b506102626117b3565b3480156103f057600080fd5b506104046103ff366004614031565b611837565b60405161024395949392919061413e565b34801561042157600080fd5b50610435610430366004614031565b6118fd565b6040519015158152602001610243565b34801561045157600080fd5b50610262610460366004614031565b611a70565b610262610473366004614222565b611ac9565b34801561048457600080fd5b50610337610493366004614276565b611f9b565b3480156104a457600080fd5b506102626104b3366004614031565b6122a8565b3480156104c457600080fd5b506102626104d3366004614031565b612446565b3480156104e457600080fd5b506000546102bc906001600160a01b031681565b34801561050457600080fd5b50610518610513366004614031565b6125e1565b60405161024391906142ed565b34801561053157600080fd5b50610435610540366004613ea4565b60056020526000908152604090205460ff1681565b34801561056157600080fd5b50610262610570366004613ea4565b612961565b34801561058157600080fd5b50610337610590366004614031565b612a5c565b3480156105a157600080fd5b506103376105b0366004614031565b612be6565b3480156105c157600080fd5b506102626105d0366004614300565b612f06565b3480156105e157600080fd5b506102626105f0366004614031565b6132ed565b34801561060157600080fd5b50610435610610366004614031565b613461565b34801561062157600080fd5b50336102bc565b34801561063457600080fd5b5061030a610643366004614031565b61369c565b34801561065457600080fd5b50610668610663366004614031565b613748565b60405161024393929190614347565b34801561068357600080fd5b506103a0610692366004613ea4565b6138f9565b3480156106a357600080fd5b5061036c6106b2366004614031565b613914565b606080600060015b6009548111610891576000818152600660205260409020546001600160a01b0380871691160361087f576000818152600660209081526040918290208251610120810190935280546001600160a01b0316835260018101805491928401916107269061436c565b80601f01602080910402602001604051908101604052809291908181526020018280546107529061436c565b801561079f5780601f106107745761010080835404028352916020019161079f565b820191906000526020600020905b81548152906001019060200180831161078257829003601f168201915b50505091835250506002820154602080830191909152600383015460408084019190915260048401546060840152600584015460ff8082161515608086015261010082048116151560a08601526201000090910416151560c084015260068401805482518185028101850190935280835260e090940193919290919083018282801561084a57602002820191906000526020600020905b815481526020019060010190808311610836575b505050505081525050838381518110610865576108656143a0565b6020026020010181905250818061087b906143b6565b9250505b80610889816143b6565b9150506106bf565b50909392505050565b6060600b548211156108c75760405162461bcd60e51b81526004016108be906143cf565b60405180910390fd5b6000828152600760209081526040808320815160c08101835281546001600160a01b0316815260018201549381019390935260028101549183019190915260038101805460608401919061091a9061436c565b80601f01602080910402602001604051908101604052809291908181526020018280546109469061436c565b80156109935780601f1061096857610100808354040283529160200191610993565b820191906000526020600020905b81548152906001019060200180831161097657829003601f168201915b5050509183525050600482015460ff1615156020808301919091526005830180546040805182850281018501825282815294019392830182828015610a0157602002820191906000526020600020905b81546001600160a01b031681526001909101906020018083116109e3575b50505091909252505050606001519392505050565b610a1f81613461565b15610a43576000818152600660205260409020600501805461ff0019166101001790555b610a4c81613461565b15610a935760405162461bcd60e51b8152602060048201526017602482015276151a1a5cc81c5d595cdd1a5bdb881a5cc818db1bdcd959604a1b60448201526064016108be565b3360009081526005602052604090205460ff16610b065760405162461bcd60e51b815260206004820152602b60248201527f55736572206d757374206265207265676973746572656420746f20616464206560448201526a6e646f7273656d656e747360a81b60648201526084016108be565b60008181526006602081905260409091200154610b655760405162461bcd60e51b815260206004820152601d60248201527f5468657265206973206e6f20616e7377657220746f20656e646f72736500000060448201526064016108be565b600082815260076020526040902054336001600160a01b0390911603610bd85760405162461bcd60e51b815260206004820152602260248201527f596f752063616e6e6f7420656e646f72736520796f7572206f776e20616e737760448201526132b960f11b60648201526084016108be565b600b54821115610bfa5760405162461bcd60e51b81526004016108be906143cf565b6000828152600760205260409020600201548114610c6d5760405162461bcd60e51b815260206004820152602a60248201527f54686520616e7377657220646f6573206e6f742062656c6f6e6720746f207468604482015269329038bab2b9ba34b7b760b11b60648201526084016108be565b600082815260076020908152604080832060050180548251818502810185019093528083529192909190830182828015610cd057602002820191906000526020600020905b81546001600160a01b03168152600190910190602001808311610cb2575b505050505090506000805b8251811015610d2357336001600160a01b0316838281518110610d0057610d006143a0565b60200260200101516001600160a01b031603610d1b57600191505b600101610cdb565b508015610d7e5760405162461bcd60e51b815260206004820152602360248201527f557365722063616e6e6f7420656e646f72736520616e20616e7377657220747760448201526269636560e81b60648201526084016108be565b604080518581523360208201529081018490527f266365a2aceb5ff9d23a2e846eb7b7339cd874d164131d977f6946cb1d0dfcf19060600160405180910390a150505060009081526007602090815260408220600501805460018101825590835291200180546001600160a01b03191633179055565b6000828152600660205260409020546001600160a01b03163314610e2a5760405162461bcd60e51b81526004016108be90614406565b600082815260066020526040902060050154610100900460ff16610e605760405162461bcd60e51b81526004016108be9061444e565b60008281526006602052604090206005015462010000900460ff1615610ed85760405162461bcd60e51b815260206004820152602760248201527f546865207265776172642068617320616c7265616479206265656e20646973746044820152661c9a589d5d195960ca1b60648201526084016108be565b60008281526006602052604090206005015460ff168015610ef7575080155b610f695760405162461bcd60e51b815260206004820152603760248201527f54686520726577617264206d757374206265206469737472696275746564207460448201527f6f207468652073656c656374656420616e73776572657200000000000000000060648201526084016108be565b610f7282613461565b15610f96576000828152600660205260409020600501805461ff0019166101001790555b60008281526006602052604090206005015460ff168015610fcd5750600082815260066020526040902060050154610100900460ff165b156110f75760008281526006602052604081206002015490610fee84613940565b905060608181600081518110611006576110066143a0565b6001600160a01b03928316602091820292909201015260405160009184169085908381818185875af1925050503d806000811461105f576040519150601f19603f3d011682016040523d82523d6000602084013e611064565b606091505b50509050806110b55760405162461bcd60e51b815260206004820152601e60248201527f4661696c656420746f207472616e7366657220746865207265776172642e000060448201526064016108be565b7fe07f18afb5d3c33b4ff9c9dec7421630fdf6d9842147633e03d5f8ea44ae346e86836040516110e6929190614483565b60405180910390a15050505061118f565b600082815260066020526040902060050154610100900460ff16801561112f575060008281526006602052604090206005015460ff16155b80156111385750805b1561118f576000611148836125e1565b90506111548382613b78565b7fe07f18afb5d3c33b4ff9c9dec7421630fdf6d9842147633e03d5f8ea44ae346e8382604051611185929190614483565b60405180910390a1505b33600090815260086020908152604080832054815163957908d160e01b815291516001600160a01b0390911693849363957908d19360048082019492939183900301908290875af11580156111e8573d6000803e3d6000fd5b505050506040513d601f19601f8201168201806040525081019061120c919061449c565b5060008381526006602052604090819020600201549051631ffc735d60e01b815260048101919091526001600160a01b03821690631ffc735d90602401600060405180830381600087803b15801561126357600080fd5b505af1158015611277573d6000803e3d6000fd5b505033600081815260086020526040902080546001600160a01b0319166001600160a01b0386161790556112ad92509050612961565b50505050565b600381815481106112c357600080fd5b6000918252602090912060079091020180546001820180546001600160a01b039092169350906112f29061436c565b80601f016020809104026020016040519081016040528092919081815260200182805461131e9061436c565b801561136b5780601f106113405761010080835404028352916020019161136b565b820191906000526020600020905b81548152906001019060200180831161134e57829003601f168201915b505050506002830154600384015460048501546005909501549394919390925060ff808216916101008104821691620100009091041688565b600181815481106113b457600080fd5b90600052602060002090600302016000915090508060000180546113d79061436c565b80601f01602080910402602001604051908101604052809291908181526020018280546114039061436c565b80156114505780601f1061142557610100808354040283529160200191611450565b820191906000526020600020905b81548152906001019060200180831161143357829003601f168201915b50505050600183015460029093015491926001600160a01b031691905083565b61147982613461565b1561149d576000828152600660205260409020600501805461ff0019166101001790555b3360009081526005602052604090205460ff166115105760405162461bcd60e51b815260206004820152602b60248201527f55736572206d757374206265207265676973746572656420746f2073656c656360448201526a3a1030b71030b739bbb2b960a91b60648201526084016108be565b6000828152600660205260409020546001600160a01b031633146115885760405162461bcd60e51b815260206004820152602960248201527f4f6e6c79207468652061736b65722063616e2073656c6563742074686520626560448201526839ba1030b739bbb2b960b91b60648201526084016108be565b61159182613461565b156115ae5760405162461bcd60e51b81526004016108be906144b5565b60008181526007602052604090206002015482146116225760405162461bcd60e51b815260206004820152602b60248201527f54686520616e7377657220646f6573206e6f742062656c6f6e6720746f20746860448201526a34b99038bab2b9ba34b7b760a91b60648201526084016108be565b60008281526006602081815260408084209092018054835181840281018401909452808452909183018282801561167857602002820191906000526020600020905b815481526020019060010190808311611664575b505050600086815260066020526040902060050154929350505060ff161561173d5760005b815181101561173b57600760008383815181106116bc576116bc6143a0565b60209081029190910181015182528101919091526040016000206004015460ff161515600103611733576000600760008484815181106116fe576116fe6143a0565b6020026020010151815260200190815260200160002060040160006101000a81548160ff02191690831515021790555061173b565b60010161169d565b505b60008381526006602090815260408083206005018054600160ff199182168117909255868552600784529382902060040180549094161790925581518581529081018490527fcce2e26b4c2c9bdecbd753012d7f595a50f3fe6263dc2090e6432f7cc9c5b8bc91015b60405180910390a1505050565b3360009081526005602052604081205460ff166118205760405162461bcd60e51b815260206004820152602560248201527f55736572206d757374206265207265676973746572656420746f2067657420636044820152641c99591a5d60da1b60648201526084016108be565b503360009081526004602052604090206002015490565b60076020526000908152604090208054600182015460028301546003840180546001600160a01b039094169492939192916118719061436c565b80601f016020809104026020016040519081016040528092919081815260200182805461189d9061436c565b80156118ea5780601f106118bf576101008083540402835291602001916118ea565b820191906000526020600020905b8154815290600101906020018083116118cd57829003601f168201915b5050506004909301549192505060ff1685565b6000600b548211156119215760405162461bcd60e51b81526004016108be906143cf565b6000828152600760209081526040808320815160c08101835281546001600160a01b031681526001820154938101939093526002810154918301919091526003810180546060840191906119749061436c565b80601f01602080910402602001604051908101604052809291908181526020018280546119a09061436c565b80156119ed5780601f106119c2576101008083540402835291602001916119ed565b820191906000526020600020905b8154815290600101906020018083116119d057829003601f168201915b5050509183525050600482015460ff1615156020808301919091526005830180546040805182850281018501825282815294019392830182828015611a5b57602002820191906000526020600020905b81546001600160a01b03168152600190910190602001808311611a3d575b50505091909252505050608001519392505050565b6000806002611a80846001613e91565b611a8a91906144f9565b90508291505b81811015611ac357905080600281611aa881866144f9565b611ab29190613e91565b611abc91906144f9565b9050611a90565b50919050565b3360009081526005602052604081205460ff16611b3a5760405162461bcd60e51b815260206004820152602960248201527f55736572206d757374206265207265676973746572656420746f2061736b20616044820152681038bab2b9ba34b7b760b91b60648201526084016108be565b60003411611b8a5760405162461bcd60e51b815260206004820152601d60248201527f526577617264206d7573742062652067726561746572207468616e203000000060448201526064016108be565b33600090815260046020526040902060020154341115611c125760405162461bcd60e51b815260206004820152603860248201527f526577617264206d757374206265206c657373207468616e206f72206571756160448201527f6c20746f20796f75722063757272656e7420637265646974000000000000000060648201526084016108be565b6000855111611c635760405162461bcd60e51b815260206004820181905260248201527f5175657374696f6e20636f6e74656e742063616e6e6f7420626520656d70747960448201526064016108be565b6000611c7083603c61451b565b611c7c85610e1061451b565b611c89876201518061451b565b611c939190613e91565b611c9d9190613e91565b905062015180811015611d055760405162461bcd60e51b815260206004820152602a60248201527f45787069726174696f6e2074696d65206d7573742062652067726561746572206044820152697468616e20312064617960b01b60648201526084016108be565b6000600960008154611d16906143b6565b91905081905590506000604051806101200160405280336001600160a01b031681526020018981526020013481526020018442611d539190613e91565b81526020808201859052600060408084018290526060840182905260808401829052805182815280840190915260a09093019290925260038054600181018255925282517fc2575a0e9e593c00f959f8c92f12db2869c3395a3b0502d05e2516446f71f85b600790930292830180546001600160a01b0319166001600160a01b0390921691909117815590830151929350839290917fc2575a0e9e593c00f959f8c92f12db2869c3395a3b0502d05e2516446f71f85c0190611e15908261457f565b5060408201516002820155606082015160038201556080820151600482015560a082015160058201805460c085015160e086015161ffff1990921693151561ff0019169390931761010093151584021762ff0000191662010000911515919091021790558201518051611e92916006840191602090910190613db9565b5050506000828152600660209081526040909120825181546001600160a01b0319166001600160a01b03909116178155908201518291906001820190611ed8908261457f565b5060408201516002820155606082015160038201556080820151600482015560a082015160058201805460c085015160e086015161ffff1990921693151561ff0019169390931761010093151584021762ff0000191662010000911515919091021790558201518051611f55916006840191602090910190613db9565b5050604080513381523460208201527f27b15ed4cf832749ed39f33a64e4707ed60a761485e41ffec7343ecaddc0c02a92500160405180910390a1509695505050505050565b6000815111611fec5760405162461bcd60e51b815260206004820152601860248201527f557365726e616d652063616e6e6f7420626520656d707479000000000000000060448201526064016108be565b3360009081526005602052604090205460ff161561204c5760405162461bcd60e51b815260206004820152601a60248201527f4164647265737320616c7265616479207265676973746572656400000000000060448201526064016108be565b60408051606081018252828152336020820152662386f26fc1000091810191909152600180548082018255600091909152815182916003027fb10e2d527612073b26eecdfd717e6a320cf44b4afac2b0732d9fcbe2b7fa0cf6019081906120b3908261457f565b506020828101516001830180546001600160a01b0319166001600160a01b0390921691909117905560409283015160029092019190915533600090815260049091522081518291908190612107908261457f565b506020820151600182810180546001600160a01b0319166001600160a01b0390931692909217909155604090920151600291820155805491820181556000527f405787fa12a823e0f2b7631cc41b3ba8828b3321ca811111fa75cd3aa3bb5ace01612172838261457f565b50336000908152600560205260408120805460ff19166001179055600a80549161219b836143b6565b919050555060006040516121ae90613e04565b604051809103906000f0801580156121ca573d6000803e3d6000fd5b50905060005b600581101561224557604051631ffc735d60e01b8152660fe170fa25600060048201526001600160a01b03831690631ffc735d90602401600060405180830381600087803b15801561222157600080fd5b505af1158015612235573d6000803e3d6000fd5b5050600190920191506121d09050565b50336000818152600860205260409081902080546001600160a01b0319166001600160a01b038516179055517fda4b066842833e7ab38c0f7ba442824b5eda00740d68ef015889812a792fc3ec916117a691869190662386f26fc1000090614110565b60006009548211156122cc5760405162461bcd60e51b81526004016108be9061463f565b60008281526006602090815260408083208151610120810190925280546001600160a01b03168252600181018054929391929184019161230b9061436c565b80601f01602080910402602001604051908101604052809291908181526020018280546123379061436c565b80156123845780601f1061235957610100808354040283529160200191612384565b820191906000526020600020905b81548152906001019060200180831161236757829003601f168201915b50505091835250506002820154602080830191909152600383015460408084019190915260048401546060840152600584015460ff8082161515608086015261010082048116151560a08601526201000090910416151560c084015260068401805482518185028101850190935280835260e090940193919290919083018282801561242f57602002820191906000526020600020905b81548152602001906001019080831161241b575b505050919092525050506101000151519392505050565b600060095482111561246a5760405162461bcd60e51b81526004016108be9061463f565b60008281526006602090815260408083208151610120810190925280546001600160a01b0316825260018101805492939192918401916124a99061436c565b80601f01602080910402602001604051908101604052809291908181526020018280546124d59061436c565b80156125225780601f106124f757610100808354040283529160200191612522565b820191906000526020600020905b81548152906001019060200180831161250557829003601f168201915b50505091835250506002820154602080830191909152600383015460408084019190915260048401546060840152600584015460ff8082161515608086015261010082048116151560a08601526201000090910416151560c084015260068401805482518185028101850190935280835260e0909401939192909190830182828015610a0157602002820191906000526020600020905b8154815260200190600101908083116125b95750505091909252505050606001519392505050565b3360009081526005602052604090205460609060ff166126585760405162461bcd60e51b815260206004820152602c60248201527f55736572206d757374206265207265676973746572656420746f20636865636b60448201526b08195b991bdc9cd95b595b9d60a21b60648201526084016108be565b600082815260066020526040902060050154610100900460ff1661268e5760405162461bcd60e51b81526004016108be9061444e565b6000828152600660205260409020546001600160a01b031633146127055760405162461bcd60e51b815260206004820152602860248201527f4f6e6c79207468652061736b65722063616e20636865636b2074686520656e646044820152671bdc9cd95b595b9d60c21b60648201526084016108be565b60008281526006602081815260408084209092018054835181840281018401909452808452909183018282801561275b57602002820191906000526020600020905b815481526020019060010190808311612747575b505050505090506000805b82518110156127e7578160076000858481518110612786576127866143a0565b602002602001015181526020019081526020016000206005018054905011156127df57600760008483815181106127bf576127bf6143a0565b602002602001015181526020019081526020016000206005018054905091505b600101612766565b506000805b835181101561284457826007600086848151811061280c5761280c6143a0565b60200260200101518152602001908152602001600020600501805490500361283c5781612838816143b6565b9250505b6001016127ec565b5060008167ffffffffffffffff8111156128605761286061417f565b604051908082528060200260200182016040528015612889578160200160208202803683370190505b5090506000805b85518110156129555784600760008884815181106128b0576128b06143a0565b60200260200101518152602001908152602001600020600501805490500361294d57600760008783815181106128e8576128e86143a0565b6020026020010151815260200190815260200160002060000160009054906101000a90046001600160a01b0316838381518110612927576129276143a0565b6001600160a01b039092166020928302919091019091015281612949816143b6565b9250505b600101612890565b50909695505050505050565b6001600160a01b038082166000908152600860209081526040808320548151630130ca2b60e01b8152915193948594911692630130ca2b92600480820193918290030181865afa1580156129b9573d6000803e3d6000fd5b505050506040513d601f19601f820116820180604052508101906129dd919061449c565b90507f085f11378a0c42687437148f7b62421b8e6f48c3a41b0e416dc85078bcc0bcd383612a23856001600160a01b031660009081526004602052604090206002015490565b604080516001600160a01b0390931683526020830191909152810183905260600160405180910390a1612a5581611a70565b9392505050565b3360009081526005602052604090205460ff16612acf5760405162461bcd60e51b815260206004820152602b60248201527f55736572206d757374206265207265676973746572656420746f20636c6f736560448201526a10309038bab2b9ba34b7b760a91b60648201526084016108be565b6000818152600660205260409020546001600160a01b03163314612b435760405162461bcd60e51b815260206004820152602560248201527f4f6e6c79207468652061736b65722063616e20636c6f7365207468652071756560448201526439ba34b7b760d91b60648201526084016108be565b612b4c81613461565b15612b695760405162461bcd60e51b81526004016108be906144b5565b600954811115612b8b5760405162461bcd60e51b81526004016108be9061463f565b60008181526006602052604090819020600501805461ff001916610100179055517f3c8f450bdfccd4e29a4d8e9602688d5e009772a7de7c40c7f27b8f8c129f01fa90612bdb9083815260200190565b60405180910390a150565b3360009081526005602052604090205460ff16612c6b5760405162461bcd60e51b815260206004820152603c60248201527f55736572206d757374206265207265676973746572656420746f2063616e636560448201527f6c207468652073656c656374696f6e206f6620616e20616e737765720000000060648201526084016108be565b6000818152600660205260409020546001600160a01b03163314612cf75760405162461bcd60e51b815260206004820152603a60248201527f4f6e6c79207468652061736b65722063616e2063616e63656c2074686520736560448201527f6c656374696f6e206f6620746865206265737420616e7377657200000000000060648201526084016108be565b612d0081613461565b15612d1d5760405162461bcd60e51b81526004016108be906144b5565b60008181526006602052604090206005015460ff16612d945760405162461bcd60e51b815260206004820152602d60248201527f4e6f20616e7377657220666f722074686973207175657374696f6e206861732060448201526c1899595b881cd95b1958dd1959609a1b60648201526084016108be565b600081815260066020818152604080842090920180548351818402810184019094528084529091830182828015612dea57602002820191906000526020600020905b815481526020019060010190808311612dd6575b505050600085815260066020526040902060050154929350505060ff1615612eaf5760005b8151811015612ead5760076000838381518110612e2e57612e2e6143a0565b60209081029190910181015182528101919091526040016000206004015460ff161515600103612ea557600060076000848481518110612e7057612e706143a0565b6020026020010151815260200190815260200160002060040160006101000a81548160ff021916908315150217905550612ead565b600101612e0f565b505b60008281526006602052604090819020600501805460ff19169055517f53088c7bbf224d7afa175aa1fbda4d494a5008e230beebc8d16b45c8415e964590612efa9084815260200190565b60405180910390a15050565b6000612f1183613461565b15612f585760405162461bcd60e51b8152602060048201526017602482015276151a1a5cc81c5d595cdd1a5bdb881a5cc818db1bdcd959604a1b60448201526064016108be565b3360009081526005602052604090205460ff16612fcc5760405162461bcd60e51b815260206004820152602c60248201527f55736572206d757374206265207265676973746572656420746f20616e73776560448201526b3910309038bab2b9ba34b7b760a11b60648201526084016108be565b600082511161301d5760405162461bcd60e51b815260206004820152601e60248201527f416e7377657220636f6e74656e742063616e6e6f7420626520656d707479000060448201526064016108be565b600083815260066020526040902054336001600160a01b03909116036130915760405162461bcd60e51b8152602060048201526024808201527f596f752063616e6e6f7420616e7377657220796f7572206f776e207175657374604482015263696f6e2160e01b60648201526084016108be565b6009548311156130b35760405162461bcd60e51b81526004016108be9061463f565b60005b60008481526006602081905260409091200154811015613186576000848152600660208190526040822001805433926007929091859081106130fa576130fa6143a0565b600091825260208083209091015483528201929092526040019020546001600160a01b03160361317e5760405162461bcd60e51b815260206004820152602960248201527f596f752063616e6e6f7420616e73776572207468652073616d65207175657374604482015268696f6e20747769636560b81b60648201526084016108be565b6001016130b6565b5060606000600b6000815461319a906143b6565b91829055506040805160c08101825233815260208082018481528284018a8152606084018a815260006080860181905260a086018a9052878152600790945294909220835181546001600160a01b0319166001600160a01b039091161781559051600182015590516002820155915192935091829190600382019061321f908261457f565b50608082015160048201805460ff191691151591909117905560a08201518051613253916005840191602090910190613e11565b50505060008681526006602081815260408320909101805460018101825581845291832090910184905590879052546032036132925761329286612a5c565b600086815260066020526040908190206002015490517f6664f2452a9c851a9ecdf8e98ff206e97b1ab656fddb6f741e06c4d085ed2b13916132da91899186918a9190614674565b60405180910390a1509150505b92915050565b6000600b548211156133115760405162461bcd60e51b81526004016108be906143cf565b6000828152600760209081526040808320815160c08101835281546001600160a01b031681526001820154938101939093526002810154918301919091526003810180546060840191906133649061436c565b80601f01602080910402602001604051908101604052809291908181526020018280546133909061436c565b80156133dd5780601f106133b2576101008083540402835291602001916133dd565b820191906000526020600020905b8154815290600101906020018083116133c057829003601f168201915b5050509183525050600482015460ff161515602080830191909152600583018054604080518285028101850182528281529401939283018282801561344b57602002820191906000526020600020905b81546001600160a01b0316815260019091019060200180831161342d575b5050509190925250505060a00151519392505050565b60006009548211156134855760405162461bcd60e51b81526004016108be9061463f565b60008281526006602090815260408083208151610120810190925280546001600160a01b0316825260018101805492939192918401916134c49061436c565b80601f01602080910402602001604051908101604052809291908181526020018280546134f09061436c565b801561353d5780601f106135125761010080835404028352916020019161353d565b820191906000526020600020905b81548152906001019060200180831161352057829003601f168201915b50505091835250506002820154602080830191909152600383015460408084019190915260048401546060840152600584015460ff8082161515608086015261010082048116151560a08601526201000090910416151560c084015260068401805482518185028101850190935280835260e09094019391929091908301828280156135e857602002820191906000526020600020905b8154815260200190600101908083116135d4575b5050509190925250505060608082015160c0830151604080514281526020810193909352901515908201529192507f60adfe6ba78d84b1b3239bd231790b16a44016f9fe8d1a897dc977e9248a97e9910160405180910390a18060600151421115613685576000838152600660205260409020600501805461ff001916610100179081905562010000900460ff1661368557613685836001610df4565b8060600151421180612a55575060c0015192915050565b600281815481106136ac57600080fd5b9060005260206000200160009150905080546136c79061436c565b80601f01602080910402602001604051908101604052809291908181526020018280546136f39061436c565b80156137405780601f1061371557610100808354040283529160200191613740565b820191906000526020600020905b81548152906001019060200180831161372357829003601f168201915b505050505081565b606060008060095484111561376f5760405162461bcd60e51b81526004016108be9061463f565b60008481526006602090815260408083208151610120810190925280546001600160a01b0316825260018101805492939192918401916137ae9061436c565b80601f01602080910402602001604051908101604052809291908181526020018280546137da9061436c565b80156138275780601f106137fc57610100808354040283529160200191613827565b820191906000526020600020905b81548152906001019060200180831161380a57829003601f168201915b50505091835250506002820154602080830191909152600383015460408084019190915260048401546060840152600584015460ff8082161515608086015261010082048116151560a08601526201000090910416151560c084015260068401805482518185028101850190935280835260e09094019391929091908301828280156138d257602002820191906000526020600020905b8154815260200190600101908083116138be575b50505091909252505050602081015160408201516060909201519097919650945092505050565b6004602052600090815260409020805481906113d79061436c565b600660205260009081526040902080546001820180546001600160a01b0390921692916112f29061436c565b60006009548211156139645760405162461bcd60e51b81526004016108be9061463f565b60008281526006602090815260408083208151610120810190925280546001600160a01b0316825260018101805492939192918401916139a39061436c565b80601f01602080910402602001604051908101604052809291908181526020018280546139cf9061436c565b8015613a1c5780601f106139f157610100808354040283529160200191613a1c565b820191906000526020600020905b8154815290600101906020018083116139ff57829003601f168201915b50505091835250506002820154602080830191909152600383015460408084019190915260048401546060840152600584015460ff8082161515608086015261010082048116151560a08601526201000090910416151560c084015260068401805482518185028101850190935280835260e0909401939192909190830182828015613ac757602002820191906000526020600020905b815481526020019060010190808311613ab3575b5050509190925250505061010081015190915060005b8151811015613b6d5760076000838381518110613afc57613afc6143a0565b60209081029190910181015182528101919091526040016000206004015460ff1615613b655760076000838381518110613b3857613b386143a0565b6020908102919091018101518252810191909152604001600020546001600160a01b031695945050505050565b600101613add565b506000949350505050565b6000613b8383613461565b3360009081526005602052604090205490915060ff16613bfa5760405162461bcd60e51b815260206004820152602c60248201527f55736572206d757374206265207265676973746572656420746f20646973747260448201526b1a589d5d19481c995dd85c9960a21b60648201526084016108be565b80613c515760405162461bcd60e51b815260206004820152602160248201527f546865207175657374696f6e20686173206e6f74206265656e206578706972656044820152601960fa1b60648201526084016108be565b600083815260066020526040902060050154610100900460ff16613c875760405162461bcd60e51b81526004016108be9061444e565b6000838152600660205260409020546001600160a01b03163314613cbd5760405162461bcd60e51b81526004016108be90614406565b6000838152600660205260408120600201548351909190613cde90836144f9565b905060005b8451811015613db1576000858281518110613d0057613d006143a0565b60200260200101516001600160a01b03168360405160006040518083038185875af1925050503d8060008114613d52576040519150601f19603f3d011682016040523d82523d6000602084013e613d57565b606091505b5050905080613da85760405162461bcd60e51b815260206004820152601e60248201527f4661696c656420746f207472616e7366657220746865207265776172642e000060448201526064016108be565b50600101613ce3565b505050505050565b828054828255906000526020600020908101928215613df4579160200282015b82811115613df4578251825591602001919060010190613dd9565b50613e00929150613e66565b5090565b610239806146a583390190565b828054828255906000526020600020908101928215613df4579160200282015b82811115613df457825182546001600160a01b0319166001600160a01b03909116178255602090920191600190910190613e31565b5b80821115613e005760008155600101613e67565b634e487b7160e01b600052601160045260246000fd5b808201808211156132e7576132e7613e7b565b600060208284031215613eb657600080fd5b81356001600160a01b0381168114612a5557600080fd5b6000815180845260005b81811015613ef357602081850181015186830182015201613ed7565b506000602082860101526020601f19601f83011685010191505092915050565b60008151808452602080850194506020840160005b83811015613f4457815187529582019590820190600101613f28565b509495945050505050565b600060208083018184528085518083526040925060408601915060408160051b87010184880160005b8381101561402357888303603f19018552815180516001600160a01b0316845261012088820151818a870152613fb082870182613ecd565b89840151878b0152606080850151908801526080808501519088015260a08085015115159088015260c08085015115159088015260e0808501511515908801526101009384015187820394880194909452915061400f90508183613f13565b968901969450505090860190600101613f78565b509098975050505050505050565b60006020828403121561404357600080fd5b5035919050565b602081526000612a556020830184613ecd565b6000806040838503121561407057600080fd5b50508035926020909101359150565b6000806040838503121561409257600080fd5b82359150602083013580151581146140a957600080fd5b809150509250929050565b6001600160a01b0389168152610100602082018190526000906140d98382018b613ecd565b604084019990995250506060810195909552608085019390935290151560a0840152151560c0830152151560e09091015292915050565b6060815260006141236060830186613ecd565b6001600160a01b039490941660208301525060400152919050565b60018060a01b038616815284602082015283604082015260a06060820152600061416b60a0830185613ecd565b905082151560808301529695505050505050565b634e487b7160e01b600052604160045260246000fd5b600082601f8301126141a657600080fd5b813567ffffffffffffffff808211156141c1576141c161417f565b604051601f8301601f19908116603f011681019082821181831017156141e9576141e961417f565b8160405283815286602085880101111561420257600080fd5b836020870160208301376000602085830101528094505050505092915050565b6000806000806080858703121561423857600080fd5b843567ffffffffffffffff81111561424f57600080fd5b61425b87828801614195565b97602087013597506040870135966060013595509350505050565b60006020828403121561428857600080fd5b813567ffffffffffffffff81111561429f57600080fd5b6142ab84828501614195565b949350505050565b60008151808452602080850194506020840160005b83811015613f445781516001600160a01b0316875295820195908201906001016142c8565b602081526000612a5560208301846142b3565b6000806040838503121561431357600080fd5b82359150602083013567ffffffffffffffff81111561433157600080fd5b61433d85828601614195565b9150509250929050565b60608152600061435a6060830186613ecd565b60208301949094525060400152919050565b600181811c9082168061438057607f821691505b602082108103611ac357634e487b7160e01b600052602260045260246000fd5b634e487b7160e01b600052603260045260246000fd5b6000600182016143c8576143c8613e7b565b5060010190565b6020808252601e908201527f54686520696e70757420616e7377657220696420697320696e76616c69640000604082015260600190565b60208082526028908201527f4f6e6c79207468652061736b65722063616e206469737472696275746520746860408201526719481c995dd85c9960c21b606082015260800190565b6020808252818101527f546865207175657374696f6e20686173206e6f74206265656e20636c6f736564604082015260600190565b8281526040602082015260006142ab60408301846142b3565b6000602082840312156144ae57600080fd5b5051919050565b60208082526024908201527f546865207175657374696f6e2068617320616c7265616479206265656e20636c6040820152631bdcd95960e21b606082015260800190565b60008261451657634e487b7160e01b600052601260045260246000fd5b500490565b80820281158282048414176132e7576132e7613e7b565b601f82111561457a576000816000526020600020601f850160051c8101602086101561455b5750805b601f850160051c820191505b81811015613db157828155600101614567565b505050565b815167ffffffffffffffff8111156145995761459961417f565b6145ad816145a7845461436c565b84614532565b602080601f8311600181146145e257600084156145ca5750858301515b600019600386901b1c1916600185901b178555613db1565b600085815260208120601f198616915b82811015614611578886015182559484019460019091019084016145f2565b508582101561462f5787850151600019600388901b60f8161c191681555b5050505050600190811b01905550565b6020808252818101527f54686520696e707574207175657374696f6e20696420697320696e76616c6964604082015260600190565b8481528360208201526080604082015260006146936080830185613ecd565b90508260608301529594505050505056fe6080604052600180556001600255348015601857600080fd5b50610211806100286000396000f3fe608060405234801561001057600080fd5b506004361061004c5760003560e01c80630130ca2b146100515780631f7b6d321461006b5780631ffc735d14610073578063957908d114610088575b600080fd5b610059610090565b60405190815260200160405180910390f35b6100596100dd565b610086610081366004610169565b6100f4565b005b610059610120565b6001546000905b6002546100a5906001610198565b8110156100d9576000818152602081905260409020546100c590806101b1565b6100cf9083610198565b9150600101610097565b5090565b60006001546002546100ef91906101c8565b905090565b6001600260008282546101079190610198565b9091555050600254600090815260208190526040902055565b6000806001546002541161013357600080fd5b506001805460009081526020819052604081208054908290558254909291829161015e908390610198565b909155509092915050565b60006020828403121561017b57600080fd5b5035919050565b634e487b7160e01b600052601160045260246000fd5b808201808211156101ab576101ab610182565b92915050565b80820281158282048414176101ab576101ab610182565b818103818111156101ab576101ab61018256fea26469706673582212205315a6bff23ff0e3fa4422df0133ca81859e9cc4d1e85e9fec6943edd23311b564736f6c63430008190033a2646970667358221220196b424ca23a906c3af01f06b19dcc946916c6885d317c1a27640679da77104a64736f6c63430008190033","linkReferences":{}},"methodIdentifiers":{"accountNames(uint256)":"da62458a","answerCount()":"0bed0502","answerMap(uint256)":"41759a14","askQuestion(string,uint256,uint256,uint256)":"6de94083","calculate_credit(address)":"ab10d998","cancelSelection(uint256)":"c2782845","checkEndorsement(uint256)":"8e1ad7df","closeQuestion(uint256)":"c09f32e8","endorse(uint256,uint256)":"1ea5a292","getAnswers(uint256)":"1e59e02a","getDuration(uint256)":"8bb126a7","getMyCredit()":"3ead0e96","getNumOfEndorse(uint256)":"d756d4ab","getParticipantAddr()":"d9cf2d6b","getParticipantCount(uint256)":"86ae5fec","getQuestion(uint256)":"db88176f","getUserQuestions(address)":"01c2a6fe","hasRegistered(address)":"a0d03526","isAnswerSelected(uint256)":"65479318","isExpired(uint256)":"d9548e53","owner()":"8da5cb5b","postAnswer(uint256,string)":"c921d66c","questionCount()":"1468aa2c","questionMap(uint256)":"f061b5b1","questions(uint256)":"31b1b978","registerUser(string)":"704f1b94","rewardDistribute(uint256,bool)":"2ac45a13","rewardRecordsMap(address)":"13fc8c34","selectAnswer(uint256,uint256)":"3d9c4893","sqrt(uint256)":"677342ce","userAddrMap(address)":"e34d6805","userCount()":"07973ccf","users(uint256)":"365b98b2"},"id":23}